{
  "_format": "hh-sol-artifact-1",
  "contractName": "DAOnation",
  "sourceName": "contracts/DAOnation.sol",
  "abi": [
    {
      "inputs": [],
      "name": "_dao_ids",
      "outputs": [
        {
          "internalType": "uint256",
          "name": "",
          "type": "uint256"
        }
      ],
      "stateMutability": "view",
      "type": "function"
    },
    {
      "inputs": [
        {
          "internalType": "uint256",
          "name": "",
          "type": "uint256"
        }
      ],
      "name": "_dao_uris",
      "outputs": [
        {
          "internalType": "string",
          "name": "dao_wallet",
          "type": "string"
        },
        {
          "internalType": "string",
          "name": "dao_uri",
          "type": "string"
        },
        {
          "internalType": "string",
          "name": "finished",
          "type": "string"
        }
      ],
      "stateMutability": "view",
      "type": "function"
    },
    {
      "inputs": [
        {
          "internalType": "uint256",
          "name": "",
          "type": "uint256"
        }
      ],
      "name": "_donated",
      "outputs": [
        {
          "internalType": "uint256",
          "name": "",
          "type": "uint256"
        }
      ],
      "stateMutability": "view",
      "type": "function"
    },
    {
      "inputs": [
        {
          "internalType": "uint256",
          "name": "",
          "type": "uint256"
        }
      ],
      "name": "_donations",
      "outputs": [
        {
          "internalType": "string",
          "name": "ideas_id",
          "type": "string"
        },
        {
          "internalType": "uint256",
          "name": "userid",
          "type": "uint256"
        },
        {
          "internalType": "uint256",
          "name": "donation",
          "type": "uint256"
        }
      ],
      "stateMutability": "view",
      "type": "function"
    },
    {
      "inputs": [],
      "name": "_donations_ids",
      "outputs": [
        {
          "internalType": "uint256",
          "name": "",
          "type": "uint256"
        }
      ],
      "stateMutability": "view",
      "type": "function"
    },
    {
      "inputs": [],
      "name": "_feed_ids",
      "outputs": [
        {
          "internalType": "uint256",
          "name": "",
          "type": "uint256"
        }
      ],
      "stateMutability": "view",
      "type": "function"
    },
    {
      "inputs": [
        {
          "internalType": "uint256",
          "name": "",
          "type": "uint256"
        }
      ],
      "name": "_feeds",
      "outputs": [
        {
          "internalType": "uint256",
          "name": "feed_id",
          "type": "uint256"
        },
        {
          "internalType": "uint256",
          "name": "date",
          "type": "uint256"
        },
        {
          "internalType": "string",
          "name": "Type",
          "type": "string"
        },
        {
          "internalType": "string",
          "name": "data",
          "type": "string"
        }
      ],
      "stateMutability": "view",
      "type": "function"
    },
    {
      "inputs": [],
      "name": "_goal_ids",
      "outputs": [
        {
          "internalType": "uint256",
          "name": "",
          "type": "uint256"
        }
      ],
      "stateMutability": "view",
      "type": "function"
    },
    {
      "inputs": [
        {
          "internalType": "uint256",
          "name": "",
          "type": "uint256"
        }
      ],
      "name": "_goal_uris",
      "outputs": [
        {
          "internalType": "string",
          "name": "dao_id",
          "type": "string"
        },
        {
          "internalType": "string",
          "name": "goal_uri",
          "type": "string"
        }
      ],
      "stateMutability": "view",
      "type": "function"
    },
    {
      "inputs": [],
      "name": "_ideas_ids",
      "outputs": [
        {
          "internalType": "uint256",
          "name": "",
          "type": "uint256"
        }
      ],
      "stateMutability": "view",
      "type": "function"
    },
    {
      "inputs": [
        {
          "internalType": "uint256",
          "name": "",
          "type": "uint256"
        }
      ],
      "name": "_ideas_uris",
      "outputs": [
        {
          "internalType": "string",
          "name": "goal_id",
          "type": "string"
        },
        {
          "internalType": "string",
          "name": "ideas_uri",
          "type": "string"
        },
        {
          "internalType": "uint256",
          "name": "donation",
          "type": "uint256"
        }
      ],
      "stateMutability": "view",
      "type": "function"
    },
    {
      "inputs": [],
      "name": "_ideas_vote_ids",
      "outputs": [
        {
          "internalType": "uint256",
          "name": "",
          "type": "uint256"
        }
      ],
      "stateMutability": "view",
      "type": "function"
    },
    {
      "inputs": [],
      "name": "_join_ids",
      "outputs": [
        {
          "internalType": "uint256",
          "name": "",
          "type": "uint256"
        }
      ],
      "stateMutability": "view",
      "type": "function"
    },
    {
      "inputs": [
        {
          "internalType": "uint256",
          "name": "",
          "type": "uint256"
        }
      ],
      "name": "_joined_person",
      "outputs": [
        {
          "internalType": "string",
          "name": "daoId",
          "type": "string"
        },
        {
          "internalType": "uint256",
          "name": "user_id",
          "type": "uint256"
        },
        {
          "internalType": "string",
          "name": "joined_date",
          "type": "string"
        }
      ],
      "stateMutability": "view",
      "type": "function"
    },
    {
      "inputs": [],
      "name": "_message_ids",
      "outputs": [
        {
          "internalType": "uint256",
          "name": "",
          "type": "uint256"
        }
      ],
      "stateMutability": "view",
      "type": "function"
    },
    {
      "inputs": [],
      "name": "_message_read_ids",
      "outputs": [
        {
          "internalType": "uint256",
          "name": "",
          "type": "uint256"
        }
      ],
      "stateMutability": "view",
      "type": "function"
    },
    {
      "inputs": [],
      "name": "_reply_ids",
      "outputs": [
        {
          "internalType": "uint256",
          "name": "",
          "type": "uint256"
        }
      ],
      "stateMutability": "view",
      "type": "function"
    },
    {
      "inputs": [],
      "name": "_smart_contract_ids",
      "outputs": [
        {
          "internalType": "uint256",
          "name": "",
          "type": "uint256"
        }
      ],
      "stateMutability": "view",
      "type": "function"
    },
    {
      "inputs": [
        {
          "internalType": "uint256",
          "name": "",
          "type": "uint256"
        }
      ],
      "name": "_smart_contracts_uris",
      "outputs": [
        {
          "internalType": "uint256",
          "name": "smart_contract_id",
          "type": "uint256"
        },
        {
          "internalType": "uint256",
          "name": "ideas_id",
          "type": "uint256"
        },
        {
          "internalType": "string",
          "name": "smart_contract_uri",
          "type": "string"
        }
      ],
      "stateMutability": "view",
      "type": "function"
    },
    {
      "inputs": [
        {
          "internalType": "uint256",
          "name": "",
          "type": "uint256"
        }
      ],
      "name": "_template_uris",
      "outputs": [
        {
          "internalType": "string",
          "name": "",
          "type": "string"
        }
      ],
      "stateMutability": "view",
      "type": "function"
    },
    {
      "inputs": [
        {
          "internalType": "uint256",
          "name": "",
          "type": "uint256"
        }
      ],
      "name": "_user_badges",
      "outputs": [
        {
          "internalType": "uint256",
          "name": "user_id",
          "type": "uint256"
        },
        {
          "internalType": "bool",
          "name": "dao",
          "type": "bool"
        },
        {
          "internalType": "bool",
          "name": "joined",
          "type": "bool"
        },
        {
          "internalType": "bool",
          "name": "goal",
          "type": "bool"
        },
        {
          "internalType": "bool",
          "name": "ideas",
          "type": "bool"
        },
        {
          "internalType": "bool",
          "name": "vote",
          "type": "bool"
        },
        {
          "internalType": "bool",
          "name": "donation",
          "type": "bool"
        },
        {
          "internalType": "bool",
          "name": "comment",
          "type": "bool"
        },
        {
          "internalType": "bool",
          "name": "reply",
          "type": "bool"
        }
      ],
      "stateMutability": "view",
      "type": "function"
    },
    {
      "inputs": [
        {
          "internalType": "string",
          "name": "feed_text",
          "type": "string"
        },
        {
          "internalType": "string",
          "name": "_type",
          "type": "string"
        }
      ],
      "name": "add_Feed",
      "outputs": [],
      "stateMutability": "nonpayable",
      "type": "function"
    },
    {
      "inputs": [
        {
          "internalType": "string",
          "name": "_ideas_id",
          "type": "string"
        },
        {
          "internalType": "uint256",
          "name": "_doantion",
          "type": "uint256"
        },
        {
          "internalType": "uint256",
          "name": "_userid",
          "type": "uint256"
        },
        {
          "internalType": "string",
          "name": "_feed1",
          "type": "string"
        },
        {
          "internalType": "string",
          "name": "_feed2",
          "type": "string"
        }
      ],
      "name": "add_donation",
      "outputs": [],
      "stateMutability": "nonpayable",
      "type": "function"
    },
    {
      "inputs": [
        {
          "internalType": "uint256",
          "name": "",
          "type": "uint256"
        }
      ],
      "name": "all_goal_ideas_votes",
      "outputs": [
        {
          "internalType": "string",
          "name": "goal_id",
          "type": "string"
        },
        {
          "internalType": "string",
          "name": "ideas_id",
          "type": "string"
        },
        {
          "internalType": "uint256",
          "name": "user_id",
          "type": "uint256"
        }
      ],
      "stateMutability": "view",
      "type": "function"
    },
    {
      "inputs": [
        {
          "internalType": "uint256",
          "name": "",
          "type": "uint256"
        }
      ],
      "name": "all_messages",
      "outputs": [
        {
          "internalType": "uint256",
          "name": "message_id",
          "type": "uint256"
        },
        {
          "internalType": "string",
          "name": "ideas_id",
          "type": "string"
        },
        {
          "internalType": "string",
          "name": "message",
          "type": "string"
        },
        {
          "internalType": "string",
          "name": "sender",
          "type": "string"
        }
      ],
      "stateMutability": "view",
      "type": "function"
    },
    {
      "inputs": [
        {
          "internalType": "uint256",
          "name": "",
          "type": "uint256"
        }
      ],
      "name": "all_read_messages",
      "outputs": [
        {
          "internalType": "uint256",
          "name": "message_id",
          "type": "uint256"
        },
        {
          "internalType": "uint256",
          "name": "ideas_id",
          "type": "uint256"
        },
        {
          "internalType": "uint256",
          "name": "user_id",
          "type": "uint256"
        },
        {
          "internalType": "string",
          "name": "msg_type",
          "type": "string"
        }
      ],
      "stateMutability": "view",
      "type": "function"
    },
    {
      "inputs": [
        {
          "internalType": "uint256",
          "name": "",
          "type": "uint256"
        }
      ],
      "name": "all_replies",
      "outputs": [
        {
          "internalType": "uint256",
          "name": "reply_id",
          "type": "uint256"
        },
        {
          "internalType": "uint256",
          "name": "message_id",
          "type": "uint256"
        },
        {
          "internalType": "uint256",
          "name": "ideas_id",
          "type": "uint256"
        },
        {
          "internalType": "string",
          "name": "message",
          "type": "string"
        }
      ],
      "stateMutability": "view",
      "type": "function"
    },
    {
      "inputs": [
        {
          "internalType": "string",
          "name": "_dao_wallet",
          "type": "string"
        },
        {
          "internalType": "string",
          "name": "_dao_uri",
          "type": "string"
        },
        {
          "internalType": "string",
          "name": "_template",
          "type": "string"
        },
        {
          "internalType": "uint256",
          "name": "user_id",
          "type": "uint256"
        }
      ],
      "name": "create_dao",
      "outputs": [
        {
          "internalType": "uint256",
          "name": "",
          "type": "uint256"
        }
      ],
      "stateMutability": "nonpayable",
      "type": "function"
    },
    {
      "inputs": [
        {
          "internalType": "string",
          "name": "_goal_uri",
          "type": "string"
        },
        {
          "internalType": "string",
          "name": "_dao_id",
          "type": "string"
        },
        {
          "internalType": "uint256",
          "name": "_user_id",
          "type": "uint256"
        },
        {
          "internalType": "string",
          "name": "_feed",
          "type": "string"
        }
      ],
      "name": "create_goal",
      "outputs": [
        {
          "internalType": "uint256",
          "name": "",
          "type": "uint256"
        }
      ],
      "stateMutability": "nonpayable",
      "type": "function"
    },
    {
      "inputs": [
        {
          "internalType": "string",
          "name": "_goal_id",
          "type": "string"
        },
        {
          "internalType": "string",
          "name": "_ideas_id",
          "type": "string"
        },
        {
          "internalType": "uint256",
          "name": "_user_id",
          "type": "uint256"
        },
        {
          "internalType": "string",
          "name": "_feed",
          "type": "string"
        },
        {
          "internalType": "bool",
          "name": "feed_add",
          "type": "bool"
        }
      ],
      "name": "create_goal_ideas_vote",
      "outputs": [
        {
          "internalType": "uint256",
          "name": "",
          "type": "uint256"
        }
      ],
      "stateMutability": "nonpayable",
      "type": "function"
    },
    {
      "inputs": [
        {
          "internalType": "string",
          "name": "_ideas_uri",
          "type": "string"
        },
        {
          "internalType": "string",
          "name": "_goal_id",
          "type": "string"
        },
        {
          "internalType": "string[]",
          "name": "_smart_contracts",
          "type": "string[]"
        },
        {
          "internalType": "uint256",
          "name": "_user_id",
          "type": "uint256"
        },
        {
          "internalType": "string",
          "name": "_feed",
          "type": "string"
        }
      ],
      "name": "create_ideas",
      "outputs": [
        {
          "internalType": "uint256",
          "name": "",
          "type": "uint256"
        }
      ],
      "stateMutability": "nonpayable",
      "type": "function"
    },
    {
      "inputs": [
        {
          "internalType": "uint256",
          "name": "_dao_id",
          "type": "uint256"
        }
      ],
      "name": "dao_uri",
      "outputs": [
        {
          "internalType": "string",
          "name": "",
          "type": "string"
        }
      ],
      "stateMutability": "view",
      "type": "function"
    },
    {
      "inputs": [
        {
          "internalType": "string",
          "name": "ideas_id",
          "type": "string"
        }
      ],
      "name": "getMsgIDs",
      "outputs": [
        {
          "internalType": "uint256[]",
          "name": "",
          "type": "uint256[]"
        }
      ],
      "stateMutability": "view",
      "type": "function"
    },
    {
      "inputs": [
        {
          "internalType": "uint256",
          "name": "_message_id",
          "type": "uint256"
        },
        {
          "internalType": "string",
          "name": "msg_type",
          "type": "string"
        }
      ],
      "name": "getReadMsg",
      "outputs": [
        {
          "internalType": "bool",
          "name": "",
          "type": "bool"
        }
      ],
      "stateMutability": "view",
      "type": "function"
    },
    {
      "inputs": [
        {
          "internalType": "uint256",
          "name": "message_id",
          "type": "uint256"
        }
      ],
      "name": "getReplyIDs",
      "outputs": [
        {
          "internalType": "uint256[]",
          "name": "",
          "type": "uint256[]"
        }
      ],
      "stateMutability": "view",
      "type": "function"
    },
    {
      "inputs": [],
      "name": "get_all_daos",
      "outputs": [
        {
          "internalType": "string[]",
          "name": "",
          "type": "string[]"
        }
      ],
      "stateMutability": "view",
      "type": "function"
    },
    {
      "inputs": [],
      "name": "get_all_goals",
      "outputs": [
        {
          "internalType": "string[]",
          "name": "",
          "type": "string[]"
        }
      ],
      "stateMutability": "view",
      "type": "function"
    },
    {
      "inputs": [
        {
          "internalType": "string",
          "name": "_dao_id",
          "type": "string"
        }
      ],
      "name": "get_all_goals_by_dao_id",
      "outputs": [
        {
          "internalType": "string[]",
          "name": "",
          "type": "string[]"
        }
      ],
      "stateMutability": "view",
      "type": "function"
    },
    {
      "inputs": [],
      "name": "get_all_ideas",
      "outputs": [
        {
          "internalType": "string[]",
          "name": "",
          "type": "string[]"
        }
      ],
      "stateMutability": "view",
      "type": "function"
    },
    {
      "inputs": [
        {
          "internalType": "string",
          "name": "_goal_id",
          "type": "string"
        }
      ],
      "name": "get_all_ideas_by_goal_id",
      "outputs": [
        {
          "internalType": "string[]",
          "name": "",
          "type": "string[]"
        }
      ],
      "stateMutability": "view",
      "type": "function"
    },
    {
      "inputs": [
        {
          "internalType": "string",
          "name": "_goal_uri",
          "type": "string"
        }
      ],
      "name": "get_goal_id_by_goal_uri",
      "outputs": [
        {
          "internalType": "uint256",
          "name": "",
          "type": "uint256"
        }
      ],
      "stateMutability": "view",
      "type": "function"
    },
    {
      "inputs": [
        {
          "internalType": "string",
          "name": "_ideas_uri",
          "type": "string"
        }
      ],
      "name": "get_goal_id_from_ideas_uri",
      "outputs": [
        {
          "internalType": "string",
          "name": "",
          "type": "string"
        }
      ],
      "stateMutability": "view",
      "type": "function"
    },
    {
      "inputs": [
        {
          "internalType": "string",
          "name": "_ideas_uri",
          "type": "string"
        }
      ],
      "name": "get_ideas_id_by_ideas_uri",
      "outputs": [
        {
          "internalType": "uint256",
          "name": "",
          "type": "uint256"
        }
      ],
      "stateMutability": "view",
      "type": "function"
    },
    {
      "inputs": [
        {
          "internalType": "string",
          "name": "dao_id",
          "type": "string"
        },
        {
          "internalType": "uint256",
          "name": "person",
          "type": "uint256"
        }
      ],
      "name": "get_person_joinedID",
      "outputs": [
        {
          "internalType": "uint256",
          "name": "",
          "type": "uint256"
        }
      ],
      "stateMutability": "view",
      "type": "function"
    },
    {
      "inputs": [
        {
          "internalType": "uint256",
          "name": "_goal_id",
          "type": "uint256"
        }
      ],
      "name": "goal_uri",
      "outputs": [
        {
          "internalType": "string",
          "name": "",
          "type": "string"
        }
      ],
      "stateMutability": "view",
      "type": "function"
    },
    {
      "inputs": [
        {
          "internalType": "uint256",
          "name": "_ideas_id",
          "type": "uint256"
        }
      ],
      "name": "ideas_uri",
      "outputs": [
        {
          "internalType": "string",
          "name": "",
          "type": "string"
        }
      ],
      "stateMutability": "view",
      "type": "function"
    },
    {
      "inputs": [
        {
          "internalType": "string",
          "name": "dao_id",
          "type": "string"
        },
        {
          "internalType": "uint256",
          "name": "person",
          "type": "uint256"
        }
      ],
      "name": "is_person_joined",
      "outputs": [
        {
          "internalType": "bool",
          "name": "",
          "type": "bool"
        }
      ],
      "stateMutability": "view",
      "type": "function"
    },
    {
      "inputs": [
        {
          "internalType": "string",
          "name": "dao_id",
          "type": "string"
        },
        {
          "internalType": "uint256",
          "name": "person",
          "type": "uint256"
        },
        {
          "internalType": "string",
          "name": "joined_date",
          "type": "string"
        },
        {
          "internalType": "string",
          "name": "_feed",
          "type": "string"
        }
      ],
      "name": "join_community",
      "outputs": [],
      "stateMutability": "nonpayable",
      "type": "function"
    },
    {
      "inputs": [
        {
          "internalType": "uint256",
          "name": "join_id",
          "type": "uint256"
        }
      ],
      "name": "leave_community",
      "outputs": [],
      "stateMutability": "nonpayable",
      "type": "function"
    },
    {
      "inputs": [],
      "name": "reset_all",
      "outputs": [],
      "stateMutability": "nonpayable",
      "type": "function"
    },
    {
      "inputs": [
        {
          "internalType": "string",
          "name": "_ideas_id",
          "type": "string"
        },
        {
          "internalType": "string",
          "name": "_message",
          "type": "string"
        },
        {
          "internalType": "string",
          "name": "_sender",
          "type": "string"
        },
        {
          "internalType": "uint256",
          "name": "_user_id",
          "type": "uint256"
        }
      ],
      "name": "sendMsg",
      "outputs": [
        {
          "internalType": "uint256",
          "name": "",
          "type": "uint256"
        }
      ],
      "stateMutability": "nonpayable",
      "type": "function"
    },
    {
      "inputs": [
        {
          "internalType": "uint256",
          "name": "_message_id",
          "type": "uint256"
        },
        {
          "internalType": "uint256",
          "name": "_ideas_id",
          "type": "uint256"
        },
        {
          "internalType": "uint256",
          "name": "_wallet",
          "type": "uint256"
        },
        {
          "internalType": "string",
          "name": "msg_type",
          "type": "string"
        }
      ],
      "name": "sendReadMsg",
      "outputs": [
        {
          "internalType": "uint256",
          "name": "",
          "type": "uint256"
        }
      ],
      "stateMutability": "nonpayable",
      "type": "function"
    },
    {
      "inputs": [
        {
          "internalType": "uint256",
          "name": "_message_id",
          "type": "uint256"
        },
        {
          "internalType": "string",
          "name": "_reply",
          "type": "string"
        },
        {
          "internalType": "uint256",
          "name": "ideas_id",
          "type": "uint256"
        },
        {
          "internalType": "uint256",
          "name": "_userid",
          "type": "uint256"
        }
      ],
      "name": "sendReply",
      "outputs": [
        {
          "internalType": "uint256",
          "name": "",
          "type": "uint256"
        }
      ],
      "stateMutability": "nonpayable",
      "type": "function"
    },
    {
      "inputs": [
        {
          "internalType": "uint256",
          "name": "_dao_id",
          "type": "uint256"
        },
        {
          "internalType": "string",
          "name": "_dao_wallet",
          "type": "string"
        },
        {
          "internalType": "string",
          "name": "_dao_uri",
          "type": "string"
        }
      ],
      "name": "set_dao",
      "outputs": [],
      "stateMutability": "nonpayable",
      "type": "function"
    },
    {
      "inputs": [
        {
          "internalType": "uint256",
          "name": "_goal_id",
          "type": "uint256"
        },
        {
          "internalType": "string",
          "name": "_goal_uri",
          "type": "string"
        }
      ],
      "name": "set_goal",
      "outputs": [],
      "stateMutability": "nonpayable",
      "type": "function"
    },
    {
      "inputs": [
        {
          "internalType": "uint256",
          "name": "_ideas_id",
          "type": "uint256"
        },
        {
          "internalType": "string",
          "name": "_ideas_uri",
          "type": "string"
        }
      ],
      "name": "set_ideas",
      "outputs": [],
      "stateMutability": "nonpayable",
      "type": "function"
    },
    {
      "inputs": [
        {
          "internalType": "uint256",
          "name": "_dao_id",
          "type": "uint256"
        },
        {
          "internalType": "string",
          "name": "_template",
          "type": "string"
        }
      ],
      "name": "update_template",
      "outputs": [],
      "stateMutability": "nonpayable",
      "type": "function"
    }
  ],
  "bytecode": "0x608060405234801561001057600080fd5b50614d2f806100206000396000f3fe608060405234801561001057600080fd5b50600436106103835760003560e01c806389e93784116101de578063b527d45e1161010f578063cace8d46116100ad578063dddb6f861161007c578063dddb6f8614610be7578063e32acc1a14610c17578063ec24580214610c47578063ff4a37ef14610c6557610383565b8063cace8d4614610b36578063cd23080914610b69578063d3791b2014610b99578063d9fc52db14610bb757610383565b8063c04fe978116100e9578063c04fe97814610aae578063c29595c514610acc578063ca013f1714610ae8578063ca98210414610b0657610383565b8063b527d45e14610a43578063bda0033514610a76578063c04e743014610a9257610383565b8063a36adb9f1161017c578063aa2bf5d311610156578063aa2bf5d3146109bb578063aa4cdf2a146109d9578063b16060a614610a09578063b39a38bd14610a1357610383565b8063a36adb9f14610923578063a428a47f14610953578063a807c20e1461098b57610383565b80639077007d116101b85780639077007d14610887578063934c5f00146108a557806397ee7606146108d5578063a1ca9178146108f357610383565b806389e93784146108095780638ac4110c146108395780638d3d25951461085757610383565b80634a797bd7116102b85780637fc543ec11610256578063829a5d9811610230578063829a5d981461077157806386ffa45b146107a157806387633eb2146107d1578063881de858146107ed57610383565b80637fc543ec146106f3578063812fae1f14610725578063826eeefe1461075557610383565b80636ecda4ee116102925780636ecda4ee146106585780637bbd582d146106885780637bc9724b146106a65780637f2035d4146106c257610383565b80634a797bd7146105d757806354a9fb18146105f55780635d907da11461062857610383565b806320959ed011610325578063330b8f26116102ff578063330b8f26146105105780633f87a2f41461054257806342f78f4714610575578063468d0c80146105a557610383565b806320959ed01461049057806327a568b9146104c057806329b56f60146104f257610383565b80631b592aeb116103615780631b592aeb146103f45780631ba44c4c146104125780631e9ac9f5146104445780631fd4d6641461047457610383565b80630377d44a146103885780631171b621146103b857806313bf4cea146103d6575b600080fd5b6103a2600480360381019061039d9190613930565b610c97565b6040516103af9190613aba565b60405180910390f35b6103c0610e21565b6040516103cd9190613af5565b60405180910390f35b6103de610e27565b6040516103eb9190613af5565b60405180910390f35b6103fc610e2d565b6040516104099190613af5565b60405180910390f35b61042c60048036038101906104279190613b3c565b610e33565b60405161043b93929190613bb3565b60405180910390f35b61045e60048036038101906104599190613930565b610f6d565b60405161046b9190613af5565b60405180910390f35b61048e60048036038101906104899190613bf8565b610fde565b005b6104aa60048036038101906104a59190613b3c565b611161565b6040516104b79190613af5565b60405180910390f35b6104da60048036038101906104d59190613b3c565b611179565b6040516104e993929190613cc7565b60405180910390f35b6104fa61133b565b6040516105079190613aba565b60405180910390f35b61052a60048036038101906105259190613b3c565b611476565b60405161053993929190613d13565b60405180910390f35b61055c60048036038101906105579190613b3c565b6115b0565b60405161056c9493929190613d58565b60405180910390f35b61058f600480360381019061058a9190613930565b611668565b60405161059c9190613e62565b60405180910390f35b6105bf60048036038101906105ba9190613b3c565b611766565b6040516105ce93929190613bb3565b60405180910390f35b6105df6118a0565b6040516105ec9190613af5565b60405180910390f35b61060f600480360381019061060a9190613b3c565b6118a6565b60405161061f9493929190613e84565b60405180910390f35b610642600480360381019061063d9190613b3c565b6119e6565b60405161064f9190613ed7565b60405180910390f35b610672600480360381019061066d9190613b3c565b611a8e565b60405161067f9190613ed7565b60405180910390f35b610690611b2e565b60405161069d9190613af5565b60405180910390f35b6106c060048036038101906106bb9190613ef9565b611b34565b005b6106dc60048036038101906106d79190613b3c565b611c29565b6040516106ea929190613fb4565b60405180910390f35b61070d60048036038101906107089190613b3c565b611d5d565b60405161071c93929190613feb565b60405180910390f35b61073f600480360381019061073a9190613b3c565b611e0f565b60405161074c9190613e62565b60405180910390f35b61076f600480360381019061076a9190613b3c565b611ef2565b005b61078b60048036038101906107869190613930565b611fa2565b6040516107989190613aba565b60405180910390f35b6107bb60048036038101906107b69190614029565b61212c565b6040516107c89190613af5565b60405180910390f35b6107eb60048036038101906107e691906140e4565b61224c565b005b61080760048036038101906108029190614140565b612271565b005b610823600480360381019061081e9190614203565b6122be565b6040516108309190613af5565b60405180910390f35b6108416123c4565b60405161084e9190613af5565b60405180910390f35b610871600480360381019061086c9190613b3c565b6123ca565b60405161087e9190613ed7565b60405180910390f35b61088f612472565b60405161089c9190613af5565b60405180910390f35b6108bf60048036038101906108ba91906142d2565b612478565b6040516108cc9190613af5565b60405180910390f35b6108dd61250c565b6040516108ea9190613aba565b60405180910390f35b61090d60048036038101906109089190613930565b612647565b60405161091a9190613af5565b60405180910390f35b61093d60048036038101906109389190614355565b6126b8565b60405161094a9190613af5565b60405180910390f35b61096d60048036038101906109689190613b3c565b61274d565b604051610982999897969594939291906143c0565b60405180910390f35b6109a560048036038101906109a09190614355565b612803565b6040516109b2919061444d565b60405180910390f35b6109c3612898565b6040516109d09190613af5565b60405180910390f35b6109f360048036038101906109ee9190613930565b61289e565b604051610a009190613ed7565b60405180910390f35b610a116129b8565b005b610a2d6004803603810190610a289190614468565b612c8a565b604051610a3a9190613af5565b60405180910390f35b610a5d6004803603810190610a589190613b3c565b612d78565b604051610a6d9493929190614523565b60405180910390f35b610a906004803603810190610a8b919061457d565b612f40565b005b610aac6004803603810190610aa791906140e4565b612fd7565b005b610ab6612fff565b604051610ac39190613aba565b60405180910390f35b610ae66004803603810190610ae191906140e4565b613139565b005b610af0613161565b604051610afd9190613af5565b60405180910390f35b610b206004803603810190610b1b9190614029565b613167565b604051610b2d9190613af5565b60405180910390f35b610b506004803603810190610b4b9190613b3c565b613244565b604051610b609493929190613d58565b60405180910390f35b610b836004803603810190610b7e91906140e4565b6132fc565b604051610b90919061444d565b60405180910390f35b610ba161338d565b604051610bae9190613af5565b60405180910390f35b610bd16004803603810190610bcc91906145f5565b613393565b604051610bde9190613af5565b60405180910390f35b610c016004803603810190610bfc919061475e565b613458565b604051610c0e9190613af5565b60405180910390f35b610c316004803603810190610c2c9190613b3c565b6135b9565b604051610c3e9190613ed7565b60405180910390f35b610c4f613661565b604051610c5c9190613af5565b60405180910390f35b610c7f6004803603810190610c7a9190613b3c565b613667565b604051610c8e93929190614849565b60405180910390f35b6060600060025467ffffffffffffffff811115610cb757610cb6613805565b5b604051908082528060200260200182016040528015610cea57816020015b6060815260200190600190039081610cd55790505b509050600080600090505b600254811015610e16578480519060200120600e6000838152602001908152602001600020600001604051610d2a919061498a565b604051809103902003610e0357600e60008281526020019081526020016000206001018054610d58906148b6565b80601f0160208091040260200160405190810160405280929190818152602001828054610d84906148b6565b8015610dd15780601f10610da657610100808354040283529160200191610dd1565b820191906000526020600020905b815481529060010190602001808311610db457829003601f168201915b5050505050838381518110610de957610de86149a1565b5b60200260200101819052508180610dff906149ff565b9250505b8080610e0e906149ff565b915050610cf5565b508192505050919050565b60045481565b60025481565b60055481565b6014602052806000526040600020600091509050806000018054610e56906148b6565b80601f0160208091040260200160405190810160405280929190818152602001828054610e82906148b6565b8015610ecf5780601f10610ea457610100808354040283529160200191610ecf565b820191906000526020600020905b815481529060010190602001808311610eb257829003601f168201915b505050505090806001018054610ee4906148b6565b80601f0160208091040260200160405190810160405280929190818152602001828054610f10906148b6565b8015610f5d5780601f10610f3257610100808354040283529160200191610f5d565b820191906000526020600020905b815481529060010190602001808311610f4057829003601f168201915b5050505050908060020154905083565b600080600090505b600254811015610fd3578280519060200120600e6000838152602001908152602001600020600101604051610faa919061498a565b604051809103902003610fc05780915050610fd9565b8080610fcb906149ff565b915050610f75565b50600090505b919050565b600015156018600085815260200190815260200160002060010160059054906101000a900460ff1615150361104d5761104c826040518060400160405280600581526020017f6261646765000000000000000000000000000000000000000000000000000000815250612f40565b5b61108c816040518060400160405280600881526020017f646f6e6174696f6e000000000000000000000000000000000000000000000000815250612f40565b60016018600085815260200190815260200160002060010160056101000a81548160ff021916908315150217905550836010600085815260200190815260200160002060008282546110de9190614a47565b92505081905550604051806060016040528086815260200184815260200185815250601260006001548152602001908152602001600020600082015181600001908161112a9190614c27565b50602082015181600101556040820151816002015590505060016000815480929190611155906149ff565b91905055505050505050565b60106020528060005260406000206000915090505481565b600b60205280600052604060002060009150905080600001805461119c906148b6565b80601f01602080910402602001604051908101604052809291908181526020018280546111c8906148b6565b80156112155780601f106111ea57610100808354040283529160200191611215565b820191906000526020600020905b8154815290600101906020018083116111f857829003601f168201915b50505050509080600101805461122a906148b6565b80601f0160208091040260200160405190810160405280929190818152602001828054611256906148b6565b80156112a35780601f10611278576101008083540402835291602001916112a3565b820191906000526020600020905b81548152906001019060200180831161128657829003601f168201915b5050505050908060020180546112b8906148b6565b80601f01602080910402602001604051908101604052809291908181526020018280546112e4906148b6565b80156113315780601f1061130657610100808354040283529160200191611331565b820191906000526020600020905b81548152906001019060200180831161131457829003601f168201915b5050505050905083565b6060600060025467ffffffffffffffff81111561135b5761135a613805565b5b60405190808252806020026020018201604052801561138e57816020015b60608152602001906001900390816113795790505b50905060005b60025481101561146e57600e600082815260200190815260200160002060010180546113bf906148b6565b80601f01602080910402602001604051908101604052809291908181526020018280546113eb906148b6565b80156114385780601f1061140d57610100808354040283529160200191611438565b820191906000526020600020905b81548152906001019060200180831161141b57829003601f168201915b50505050508282815181106114505761144f6149a1565b5b60200260200101819052508080611466906149ff565b915050611394565b508091505090565b600d602052806000526040600020600091509050806000018054611499906148b6565b80601f01602080910402602001604051908101604052809291908181526020018280546114c5906148b6565b80156115125780601f106114e757610100808354040283529160200191611512565b820191906000526020600020905b8154815290600101906020018083116114f557829003601f168201915b50505050509080600101549080600201805461152d906148b6565b80601f0160208091040260200160405190810160405280929190818152602001828054611559906148b6565b80156115a65780601f1061157b576101008083540402835291602001916115a6565b820191906000526020600020905b81548152906001019060200180831161158957829003601f168201915b5050505050905083565b60176020528060005260406000206000915090508060000154908060010154908060020154908060030180546115e5906148b6565b80601f0160208091040260200160405190810160405280929190818152602001828054611611906148b6565b801561165e5780601f106116335761010080835404028352916020019161165e565b820191906000526020600020905b81548152906001019060200180831161164157829003601f168201915b5050505050905084565b6060600060075467ffffffffffffffff81111561168857611687613805565b5b6040519080825280602002602001820160405280156116b65781602001602082028036833780820191505090505b509050600080600090505b60075481101561175b578480519060200120601560008381526020019081526020016000206001016040516116f6919061498a565b60405180910390200361174857601560008281526020019081526020016000206000015483838151811061172d5761172c6149a1565b5b6020026020010181815250508180611744906149ff565b9250505b8080611753906149ff565b9150506116c1565b508192505050919050565b600f602052806000526040600020600091509050806000018054611789906148b6565b80601f01602080910402602001604051908101604052809291908181526020018280546117b5906148b6565b80156118025780601f106117d757610100808354040283529160200191611802565b820191906000526020600020905b8154815290600101906020018083116117e557829003601f168201915b505050505090806001018054611817906148b6565b80601f0160208091040260200160405190810160405280929190818152602001828054611843906148b6565b80156118905780601f1061186557610100808354040283529160200191611890565b820191906000526020600020905b81548152906001019060200180831161187357829003601f168201915b5050505050908060020154905083565b60065481565b60116020528060005260406000206000915090508060000154908060010154908060020180546118d5906148b6565b80601f0160208091040260200160405190810160405280929190818152602001828054611901906148b6565b801561194e5780601f106119235761010080835404028352916020019161194e565b820191906000526020600020905b81548152906001019060200180831161193157829003601f168201915b505050505090806003018054611963906148b6565b80601f016020809104026020016040519081016040528092919081815260200182805461198f906148b6565b80156119dc5780601f106119b1576101008083540402835291602001916119dc565b820191906000526020600020905b8154815290600101906020018083116119bf57829003601f168201915b5050505050905084565b6060600b60008381526020019081526020016000206001018054611a09906148b6565b80601f0160208091040260200160405190810160405280929190818152602001828054611a35906148b6565b8015611a825780601f10611a5757610100808354040283529160200191611a82565b820191906000526020600020905b815481529060010190602001808311611a6557829003601f168201915b50505050509050919050565b600c6020528060005260406000206000915090508054611aad906148b6565b80601f0160208091040260200160405190810160405280929190818152602001828054611ad9906148b6565b8015611b265780601f10611afb57610100808354040283529160200191611b26565b820191906000526020600020905b815481529060010190602001808311611b0957829003601f168201915b505050505081565b60005481565b60016018600085815260200190815260200160002060010160016101000a81548160ff021916908315150217905550604051806060016040528085815260200184815260200183815250600d600060045481526020019081526020016000206000820151816000019081611ba89190614c27565b50602082015181600101556040820151816002019081611bc89190614c27565b5090505060046000815480929190611bdf906149ff565b9190505550611c23816040518060400160405280600481526020017f6a6f696e00000000000000000000000000000000000000000000000000000000815250612f40565b50505050565b600e602052806000526040600020600091509050806000018054611c4c906148b6565b80601f0160208091040260200160405190810160405280929190818152602001828054611c78906148b6565b8015611cc55780601f10611c9a57610100808354040283529160200191611cc5565b820191906000526020600020905b815481529060010190602001808311611ca857829003601f168201915b505050505090806001018054611cda906148b6565b80601f0160208091040260200160405190810160405280929190818152602001828054611d06906148b6565b8015611d535780601f10611d2857610100808354040283529160200191611d53565b820191906000526020600020905b815481529060010190602001808311611d3657829003601f168201915b5050505050905082565b6012602052806000526040600020600091509050806000018054611d80906148b6565b80601f0160208091040260200160405190810160405280929190818152602001828054611dac906148b6565b8015611df95780601f10611dce57610100808354040283529160200191611df9565b820191906000526020600020905b815481529060010190602001808311611ddc57829003601f168201915b5050505050908060010154908060020154905083565b6060600060095467ffffffffffffffff811115611e2f57611e2e613805565b5b604051908082528060200260200182016040528015611e5d5781602001602082028036833780820191505090505b509050600080600090505b600954811015611ee75784601760008381526020019081526020016000206001015403611ed4576017600082815260200190815260200160002060000154838381518110611eb957611eb86149a1565b5b6020026020010181815250508180611ed0906149ff565b9250505b8080611edf906149ff565b915050611e68565b508192505050919050565b60405180606001604052806040518060400160405280600481526020017f3939393900000000000000000000000000000000000000000000000000000000815250815260200161270f815260200160405180602001604052806000815250815250600d60008381526020019081526020016000206000820151816000019081611f7b9190614c27565b50602082015181600101556040820151816002019081611f9b9190614c27565b5090505050565b6060600060035467ffffffffffffffff811115611fc257611fc1613805565b5b604051908082528060200260200182016040528015611ff557816020015b6060815260200190600190039081611fe05790505b509050600080600090505b600354811015612121578480519060200120600f6000838152602001908152602001600020600001604051612035919061498a565b60405180910390200361210057600f60008281526020019081526020016000206001018054612063906148b6565b80601f016020809104026020016040519081016040528092919081815260200182805461208f906148b6565b80156120dc5780601f106120b1576101008083540402835291602001916120dc565b820191906000526020600020905b8154815290600101906020018083116120bf57829003601f168201915b50505050508383815181106120f4576120f36149a1565b5b60200260200101819052505b818061210b906149ff565b9250508080612119906149ff565b915050612000565b508192505050919050565b600060405180606001604052808681526020018581526020016040518060400160405280600581526020017f46616c7365000000000000000000000000000000000000000000000000000000815250815250600b60008054815260200190815260200160002060008201518160000190816121a79190614c27565b5060208201518160010190816121bd9190614c27565b5060408201518160020190816121d39190614c27565b5090505082600c60008054815260200190815260200160002090816121f89190614c27565b5060016018600084815260200190815260200160002060010160006101000a81548160ff02191690831515021790555060008081548092919061223a906149ff565b91905055506000549050949350505050565b80600c6000848152602001908152602001600020908161226c9190614c27565b505050565b81600b600085815260200190815260200160002060000190816122949190614c27565b5080600b600085815260200190815260200160002060010190816122b89190614c27565b50505050565b600060016018600086815260200190815260200160002060010160046101000a81548160ff02191690831515021790555060405180606001604052808781526020018681526020018581525060146000600654815260200190815260200160002060008201518160000190816123349190614c27565b50602082015181600101908161234a9190614c27565b50604082015181600201559050506006600081548092919061236b906149ff565b919050555081156123b6576123b5836040518060400160405280600481526020017f766f746500000000000000000000000000000000000000000000000000000000815250612f40565b5b600654905095945050505050565b600a5481565b6060600f600083815260200190815260200160002060010180546123ed906148b6565b80601f0160208091040260200160405190810160405280929190818152602001828054612419906148b6565b80156124665780601f1061243b57610100808354040283529160200191612466565b820191906000526020600020905b81548152906001019060200180831161244957829003601f168201915b50505050509050919050565b60075481565b600060405180608001604052808681526020018581526020018481526020018381525060166000600854815260200190815260200160002060008201518160000155602082015181600101556040820151816002015560608201518160030190816124e39190614c27565b50905050600860008154809291906124fa906149ff565b91905055506008549050949350505050565b6060600060035467ffffffffffffffff81111561252c5761252b613805565b5b60405190808252806020026020018201604052801561255f57816020015b606081526020019060019003908161254a5790505b50905060005b60035481101561263f57600f60008281526020019081526020016000206001018054612590906148b6565b80601f01602080910402602001604051908101604052809291908181526020018280546125bc906148b6565b80156126095780601f106125de57610100808354040283529160200191612609565b820191906000526020600020905b8154815290600101906020018083116125ec57829003601f168201915b5050505050828281518110612621576126206149a1565b5b60200260200101819052508080612637906149ff565b915050612565565b508091505090565b600080600090505b6003548110156126ad578280519060200120600f6000838152602001908152602001600020600101604051612684919061498a565b60405180910390200361269a57809150506126b3565b80806126a5906149ff565b91505061264f565b50600090505b919050565b600080600090505b6004548110156127405782600d60008381526020019081526020016000206001015414801561271f57508380519060200120600d6000838152602001908152602001600020600001604051612715919061498a565b6040518091039020145b1561272d5780915050612747565b8080612738906149ff565b9150506126c0565b5061270f90505b92915050565b60186020528060005260406000206000915090508060000154908060010160009054906101000a900460ff16908060010160019054906101000a900460ff16908060010160029054906101000a900460ff16908060010160039054906101000a900460ff16908060010160049054906101000a900460ff16908060010160059054906101000a900460ff16908060010160069054906101000a900460ff16908060010160079054906101000a900460ff16905089565b600080600090505b60045481101561288c5782600d60008381526020019081526020016000206001015414801561286a57508380519060200120600d6000838152602001908152602001600020600001604051612860919061498a565b6040518091039020145b15612879576001915050612892565b8080612884906149ff565b91505061280b565b50600090505b92915050565b60095481565b606060005b60035481101561299f578280519060200120600f60008381526020019081526020016000206001016040516128d8919061498a565b60405180910390200361298c57600f60008281526020019081526020016000206000018054612906906148b6565b80601f0160208091040260200160405190810160405280929190818152602001828054612932906148b6565b801561297f5780601f106129545761010080835404028352916020019161297f565b820191906000526020600020905b81548152906001019060200180831161296257829003601f168201915b50505050509150506129b3565b8080612997906149ff565b9150506128a3565b506040518060200160405280600081525090505b919050565b60005b600054811015612a1e57600b6000828152602001908152602001600020600080820160006129e99190613779565b6001820160006129f99190613779565b600282016000612a099190613779565b50508080612a16906149ff565b9150506129bb565b5060005b600254811015612a7557600e600082815260200190815260200160002060008082016000612a509190613779565b600182016000612a609190613779565b50508080612a6d906149ff565b915050612a22565b5060005b600354811015612ad457600f600082815260200190815260200160002060008082016000612aa79190613779565b600182016000612ab79190613779565b600282016000905550508080612acc906149ff565b915050612a79565b5060005b600254811015612b2b57601360008281526020019081526020016000206000808201600090556001820160009055600282016000612b169190613779565b50508080612b23906149ff565b915050612ad8565b5060005b600754811015612b9a5760156000828152602001908152602001600020600080820160009055600182016000612b659190613779565b600282016000612b759190613779565b600382016000612b859190613779565b50508080612b92906149ff565b915050612b2f565b5060005b600954811015612bf9576017600082815260200190815260200160002060008082016000905560018201600090556002820160009055600382016000612be49190613779565b50508080612bf1906149ff565b915050612b9e565b5060005b600654811015612c58576014600082815260200190815260200160002060008082016000612c2b9190613779565b600182016000612c3b9190613779565b600282016000905550508080612c50906149ff565b915050612bfd565b506000808190555060006002819055506000600381905550600060078190555060006009819055506000600681905550565b6000604051806040016040528085815260200186815250600e600060025481526020019081526020016000206000820151816000019081612ccb9190614c27565b506020820151816001019081612ce19190614c27565b5090505060016018600085815260200190815260200160002060010160026101000a81548160ff02191690831515021790555060026000815480929190612d27906149ff565b9190505550612d6b826040518060400160405280600481526020017f676f616c00000000000000000000000000000000000000000000000000000000815250612f40565b6002549050949350505050565b6015602052806000526040600020600091509050806000015490806001018054612da1906148b6565b80601f0160208091040260200160405190810160405280929190818152602001828054612dcd906148b6565b8015612e1a5780601f10612def57610100808354040283529160200191612e1a565b820191906000526020600020905b815481529060010190602001808311612dfd57829003601f168201915b505050505090806002018054612e2f906148b6565b80601f0160208091040260200160405190810160405280929190818152602001828054612e5b906148b6565b8015612ea85780601f10612e7d57610100808354040283529160200191612ea8565b820191906000526020600020905b815481529060010190602001808311612e8b57829003601f168201915b505050505090806003018054612ebd906148b6565b80601f0160208091040260200160405190810160405280929190818152602001828054612ee9906148b6565b8015612f365780601f10612f0b57610100808354040283529160200191612f36565b820191906000526020600020905b815481529060010190602001808311612f1957829003601f168201915b5050505050905084565b6040518060800160405280600a5481526020014281526020018281526020018381525060116000600a54815260200190815260200160002060008201518160000155602082015181600101556040820151816002019081612fa19190614c27565b506060820151816003019081612fb79190614c27565b50905050600a6000815480929190612fce906149ff565b91905055505050565b80600f60008481526020019081526020016000206001019081612ffa9190614c27565b505050565b60606000805467ffffffffffffffff81111561301e5761301d613805565b5b60405190808252806020026020018201604052801561305157816020015b606081526020019060019003908161303c5790505b50905060005b60005481101561313157600b60008281526020019081526020016000206001018054613082906148b6565b80601f01602080910402602001604051908101604052809291908181526020018280546130ae906148b6565b80156130fb5780601f106130d0576101008083540402835291602001916130fb565b820191906000526020600020905b8154815290600101906020018083116130de57829003601f168201915b5050505050828281518110613113576131126149a1565b5b60200260200101819052508080613129906149ff565b915050613057565b508091505090565b80600e6000848152602001908152602001600020600101908161315c9190614c27565b505050565b60085481565b600060016018600084815260200190815260200160002060010160066101000a81548160ff02191690831515021790555060405180608001604052806007548152602001868152602001858152602001848152506015600060075481526020019081526020016000206000820151816000015560208201518160010190816131ef9190614c27565b5060408201518160020190816132059190614c27565b50606082015181600301908161321b9190614c27565b5090505060076000815480929190613232906149ff565b91905055506007549050949350505050565b6016602052806000526040600020600091509050806000015490806001015490806002015490806003018054613279906148b6565b80601f01602080910402602001604051908101604052809291908181526020018280546132a5906148b6565b80156132f25780601f106132c7576101008083540402835291602001916132f2565b820191906000526020600020905b8154815290600101906020018083116132d557829003601f168201915b5050505050905084565b6000806000905060005b60085481101561338257846016600083815260200190815260200160002060000154148015613365575060166000828152602001908152602001600020600301604051613353919061498a565b60405180910390208480519060200120145b1561336f57600191505b808061337a906149ff565b915050613306565b508091505092915050565b60035481565b600060016018600084815260200190815260200160002060010160076101000a81548160ff0219169083151502179055506040518060800160405280600954815260200186815260200184815260200185815250601760006009548152602001908152602001600020600082015181600001556020820151816001015560408201518160020155606082015181600301908161342f9190614c27565b5090505060096000815480929190613446906149ff565b91905055506009549050949350505050565b600060405180606001604052808681526020018781526020016000815250600f6000600354815260200190815260200160002060008201518160000190816134a09190614c27565b5060208201518160010190816134b69190614c27565b506040820151816002015590505060016018600085815260200190815260200160002060010160036101000a81548160ff02191690831515021790555060036000815480929190613506906149ff565b919050555060005b845181101561356b57613540600354600554878481518110613533576135326149a1565b5b6020026020010151613719565b60056000815480929190613553906149ff565b91905055508080613563906149ff565b91505061350e565b506135ab826040518060400160405280600481526020017f6964656100000000000000000000000000000000000000000000000000000000815250612f40565b600354905095945050505050565b6060600e600083815260200190815260200160002060010180546135dc906148b6565b80601f0160208091040260200160405190810160405280929190818152602001828054613608906148b6565b80156136555780601f1061362a57610100808354040283529160200191613655565b820191906000526020600020905b81548152906001019060200180831161363857829003601f168201915b50505050509050919050565b60015481565b6013602052806000526040600020600091509050806000015490806001015490806002018054613696906148b6565b80601f01602080910402602001604051908101604052809291908181526020018280546136c2906148b6565b801561370f5780601f106136e45761010080835404028352916020019161370f565b820191906000526020600020905b8154815290600101906020018083116136f257829003601f168201915b5050505050905083565b60405180606001604052808481526020018381526020018281525060136000848152602001908152602001600020600082015181600001556020820151816001015560408201518160020190816137709190614c27565b50905050505050565b508054613785906148b6565b6000825580601f1061379757506137b6565b601f0160209004906000526020600020908101906137b591906137b9565b5b50565b5b808211156137d25760008160009055506001016137ba565b5090565b6000604051905090565b600080fd5b600080fd5b600080fd5b600080fd5b6000601f19601f8301169050919050565b7f4e487b7100000000000000000000000000000000000000000000000000000000600052604160045260246000fd5b61383d826137f4565b810181811067ffffffffffffffff8211171561385c5761385b613805565b5b80604052505050565b600061386f6137d6565b905061387b8282613834565b919050565b600067ffffffffffffffff82111561389b5761389a613805565b5b6138a4826137f4565b9050602081019050919050565b82818337600083830152505050565b60006138d36138ce84613880565b613865565b9050828152602081018484840111156138ef576138ee6137ef565b5b6138fa8482856138b1565b509392505050565b600082601f830112613917576139166137ea565b5b81356139278482602086016138c0565b91505092915050565b600060208284031215613946576139456137e0565b5b600082013567ffffffffffffffff811115613964576139636137e5565b5b61397084828501613902565b91505092915050565b600081519050919050565b600082825260208201905092915050565b6000819050602082019050919050565b600081519050919050565b600082825260208201905092915050565b60005b838110156139df5780820151818401526020810190506139c4565b60008484015250505050565b60006139f6826139a5565b613a0081856139b0565b9350613a108185602086016139c1565b613a19816137f4565b840191505092915050565b6000613a3083836139eb565b905092915050565b6000602082019050919050565b6000613a5082613979565b613a5a8185613984565b935083602082028501613a6c85613995565b8060005b85811015613aa85784840389528151613a898582613a24565b9450613a9483613a38565b925060208a01995050600181019050613a70565b50829750879550505050505092915050565b60006020820190508181036000830152613ad48184613a45565b905092915050565b6000819050919050565b613aef81613adc565b82525050565b6000602082019050613b0a6000830184613ae6565b92915050565b613b1981613adc565b8114613b2457600080fd5b50565b600081359050613b3681613b10565b92915050565b600060208284031215613b5257613b516137e0565b5b6000613b6084828501613b27565b91505092915050565b600082825260208201905092915050565b6000613b85826139a5565b613b8f8185613b69565b9350613b9f8185602086016139c1565b613ba8816137f4565b840191505092915050565b60006060820190508181036000830152613bcd8186613b7a565b90508181036020830152613be18185613b7a565b9050613bf06040830184613ae6565b949350505050565b600080600080600060a08688031215613c1457613c136137e0565b5b600086013567ffffffffffffffff811115613c3257613c316137e5565b5b613c3e88828901613902565b9550506020613c4f88828901613b27565b9450506040613c6088828901613b27565b935050606086013567ffffffffffffffff811115613c8157613c806137e5565b5b613c8d88828901613902565b925050608086013567ffffffffffffffff811115613cae57613cad6137e5565b5b613cba88828901613902565b9150509295509295909350565b60006060820190508181036000830152613ce18186613b7a565b90508181036020830152613cf58185613b7a565b90508181036040830152613d098184613b7a565b9050949350505050565b60006060820190508181036000830152613d2d8186613b7a565b9050613d3c6020830185613ae6565b8181036040830152613d4e8184613b7a565b9050949350505050565b6000608082019050613d6d6000830187613ae6565b613d7a6020830186613ae6565b613d876040830185613ae6565b8181036060830152613d998184613b7a565b905095945050505050565b600081519050919050565b600082825260208201905092915050565b6000819050602082019050919050565b613dd981613adc565b82525050565b6000613deb8383613dd0565b60208301905092915050565b6000602082019050919050565b6000613e0f82613da4565b613e198185613daf565b9350613e2483613dc0565b8060005b83811015613e55578151613e3c8882613ddf565b9750613e4783613df7565b925050600181019050613e28565b5085935050505092915050565b60006020820190508181036000830152613e7c8184613e04565b905092915050565b6000608082019050613e996000830187613ae6565b613ea66020830186613ae6565b8181036040830152613eb88185613b7a565b90508181036060830152613ecc8184613b7a565b905095945050505050565b60006020820190508181036000830152613ef18184613b7a565b905092915050565b60008060008060808587031215613f1357613f126137e0565b5b600085013567ffffffffffffffff811115613f3157613f306137e5565b5b613f3d87828801613902565b9450506020613f4e87828801613b27565b935050604085013567ffffffffffffffff811115613f6f57613f6e6137e5565b5b613f7b87828801613902565b925050606085013567ffffffffffffffff811115613f9c57613f9b6137e5565b5b613fa887828801613902565b91505092959194509250565b60006040820190508181036000830152613fce8185613b7a565b90508181036020830152613fe28184613b7a565b90509392505050565b600060608201905081810360008301526140058186613b7a565b90506140146020830185613ae6565b6140216040830184613ae6565b949350505050565b60008060008060808587031215614043576140426137e0565b5b600085013567ffffffffffffffff811115614061576140606137e5565b5b61406d87828801613902565b945050602085013567ffffffffffffffff81111561408e5761408d6137e5565b5b61409a87828801613902565b935050604085013567ffffffffffffffff8111156140bb576140ba6137e5565b5b6140c787828801613902565b92505060606140d887828801613b27565b91505092959194509250565b600080604083850312156140fb576140fa6137e0565b5b600061410985828601613b27565b925050602083013567ffffffffffffffff81111561412a576141296137e5565b5b61413685828601613902565b9150509250929050565b600080600060608486031215614159576141586137e0565b5b600061416786828701613b27565b935050602084013567ffffffffffffffff811115614188576141876137e5565b5b61419486828701613902565b925050604084013567ffffffffffffffff8111156141b5576141b46137e5565b5b6141c186828701613902565b9150509250925092565b60008115159050919050565b6141e0816141cb565b81146141eb57600080fd5b50565b6000813590506141fd816141d7565b92915050565b600080600080600060a0868803121561421f5761421e6137e0565b5b600086013567ffffffffffffffff81111561423d5761423c6137e5565b5b61424988828901613902565b955050602086013567ffffffffffffffff81111561426a576142696137e5565b5b61427688828901613902565b945050604061428788828901613b27565b935050606086013567ffffffffffffffff8111156142a8576142a76137e5565b5b6142b488828901613902565b92505060806142c5888289016141ee565b9150509295509295909350565b600080600080608085870312156142ec576142eb6137e0565b5b60006142fa87828801613b27565b945050602061430b87828801613b27565b935050604061431c87828801613b27565b925050606085013567ffffffffffffffff81111561433d5761433c6137e5565b5b61434987828801613902565b91505092959194509250565b6000806040838503121561436c5761436b6137e0565b5b600083013567ffffffffffffffff81111561438a576143896137e5565b5b61439685828601613902565b92505060206143a785828601613b27565b9150509250929050565b6143ba816141cb565b82525050565b6000610120820190506143d6600083018c613ae6565b6143e3602083018b6143b1565b6143f0604083018a6143b1565b6143fd60608301896143b1565b61440a60808301886143b1565b61441760a08301876143b1565b61442460c08301866143b1565b61443160e08301856143b1565b61443f6101008301846143b1565b9a9950505050505050505050565b600060208201905061446260008301846143b1565b92915050565b60008060008060808587031215614482576144816137e0565b5b600085013567ffffffffffffffff8111156144a05761449f6137e5565b5b6144ac87828801613902565b945050602085013567ffffffffffffffff8111156144cd576144cc6137e5565b5b6144d987828801613902565b93505060406144ea87828801613b27565b925050606085013567ffffffffffffffff81111561450b5761450a6137e5565b5b61451787828801613902565b91505092959194509250565b60006080820190506145386000830187613ae6565b818103602083015261454a8186613b7a565b9050818103604083015261455e8185613b7a565b905081810360608301526145728184613b7a565b905095945050505050565b60008060408385031215614594576145936137e0565b5b600083013567ffffffffffffffff8111156145b2576145b16137e5565b5b6145be85828601613902565b925050602083013567ffffffffffffffff8111156145df576145de6137e5565b5b6145eb85828601613902565b9150509250929050565b6000806000806080858703121561460f5761460e6137e0565b5b600061461d87828801613b27565b945050602085013567ffffffffffffffff81111561463e5761463d6137e5565b5b61464a87828801613902565b935050604061465b87828801613b27565b925050606061466c87828801613b27565b91505092959194509250565b600067ffffffffffffffff82111561469357614692613805565b5b602082029050602081019050919050565b600080fd5b60006146bc6146b784614678565b613865565b905080838252602082019050602084028301858111156146df576146de6146a4565b5b835b8181101561472657803567ffffffffffffffff811115614704576147036137ea565b5b8086016147118982613902565b855260208501945050506020810190506146e1565b5050509392505050565b600082601f830112614745576147446137ea565b5b81356147558482602086016146a9565b91505092915050565b600080600080600060a0868803121561477a576147796137e0565b5b600086013567ffffffffffffffff811115614798576147976137e5565b5b6147a488828901613902565b955050602086013567ffffffffffffffff8111156147c5576147c46137e5565b5b6147d188828901613902565b945050604086013567ffffffffffffffff8111156147f2576147f16137e5565b5b6147fe88828901614730565b935050606061480f88828901613b27565b925050608086013567ffffffffffffffff8111156148305761482f6137e5565b5b61483c88828901613902565b9150509295509295909350565b600060608201905061485e6000830186613ae6565b61486b6020830185613ae6565b818103604083015261487d8184613b7a565b9050949350505050565b7f4e487b7100000000000000000000000000000000000000000000000000000000600052602260045260246000fd5b600060028204905060018216806148ce57607f821691505b6020821081036148e1576148e0614887565b5b50919050565b600081905092915050565b60008190508160005260206000209050919050565b60008154614914816148b6565b61491e81866148e7565b94506001821660008114614939576001811461494e57614981565b60ff1983168652811515820286019350614981565b614957856148f2565b60005b838110156149795781548189015260018201915060208101905061495a565b838801955050505b50505092915050565b60006149968284614907565b915081905092915050565b7f4e487b7100000000000000000000000000000000000000000000000000000000600052603260045260246000fd5b7f4e487b7100000000000000000000000000000000000000000000000000000000600052601160045260246000fd5b6000614a0a82613adc565b91507fffffffffffffffffffffffffffffffffffffffffffffffffffffffffffffffff8203614a3c57614a3b6149d0565b5b600182019050919050565b6000614a5282613adc565b9150614a5d83613adc565b9250828201905080821115614a7557614a746149d0565b5b92915050565b60008190508160005260206000209050919050565b60006020601f8301049050919050565b600082821b905092915050565b600060088302614add7fffffffffffffffffffffffffffffffffffffffffffffffffffffffffffffffff82614aa0565b614ae78683614aa0565b95508019841693508086168417925050509392505050565b6000819050919050565b6000614b24614b1f614b1a84613adc565b614aff565b613adc565b9050919050565b6000819050919050565b614b3e83614b09565b614b52614b4a82614b2b565b848454614aad565b825550505050565b600090565b614b67614b5a565b614b72818484614b35565b505050565b5b81811015614b9657614b8b600082614b5f565b600181019050614b78565b5050565b601f821115614bdb57614bac81614a7b565b614bb584614a90565b81016020851015614bc4578190505b614bd8614bd085614a90565b830182614b77565b50505b505050565b600082821c905092915050565b6000614bfe60001984600802614be0565b1980831691505092915050565b6000614c178383614bed565b9150826002028217905092915050565b614c30826139a5565b67ffffffffffffffff811115614c4957614c48613805565b5b614c5382546148b6565b614c5e828285614b9a565b600060209050601f831160018114614c915760008415614c7f578287015190505b614c898582614c0b565b865550614cf1565b601f198416614c9f86614a7b565b60005b82811015614cc757848901518255600182019150602085019450602081019050614ca2565b86831015614ce45784890151614ce0601f891682614bed565b8355505b6001600288020188555050505b50505050505056fea264697066735822122050d350632a49b4eb9dee8fe1acdaebb57cbac822eba5a8d3d1c1caed8a6bf9da64736f6c63430008110033",
  "linkReferences": {},
  "deployedLinkReferences": {}
}