{"contracts/DAOnation.sol":{"DAOnation":{"abi":[{"inputs":[],"name":"_dao_ids","outputs":[{"internalType":"uint256","name":"","type":"uint256"}],"stateMutability":"view","type":"function"},{"inputs":[{"internalType":"uint256","name":"","type":"uint256"}],"name":"_dao_uris","outputs":[{"internalType":"string","name":"dao_wallet","type":"string"},{"internalType":"string","name":"dao_uri","type":"string"},{"internalType":"string","name":"finished","type":"string"}],"stateMutability":"view","type":"function"},{"inputs":[{"internalType":"uint256","name":"","type":"uint256"}],"name":"_donated","outputs":[{"internalType":"uint256","name":"","type":"uint256"}],"stateMutability":"view","type":"function"},{"inputs":[{"internalType":"uint256","name":"","type":"uint256"}],"name":"_donations","outputs":[{"internalType":"string","name":"ideas_id","type":"string"},{"internalType":"uint256","name":"userid","type":"uint256"},{"internalType":"uint256","name":"donation","type":"uint256"}],"stateMutability":"view","type":"function"},{"inputs":[],"name":"_donations_ids","outputs":[{"internalType":"uint256","name":"","type":"uint256"}],"stateMutability":"view","type":"function"},{"inputs":[],"name":"_feed_ids","outputs":[{"internalType":"uint256","name":"","type":"uint256"}],"stateMutability":"view","type":"function"},{"inputs":[{"internalType":"uint256","name":"","type":"uint256"}],"name":"_feeds","outputs":[{"internalType":"uint256","name":"feed_id","type":"uint256"},{"internalType":"uint256","name":"date","type":"uint256"},{"internalType":"string","name":"Type","type":"string"},{"internalType":"string","name":"data","type":"string"}],"stateMutability":"view","type":"function"},{"inputs":[],"name":"_goal_ids","outputs":[{"internalType":"uint256","name":"","type":"uint256"}],"stateMutability":"view","type":"function"},{"inputs":[{"internalType":"uint256","name":"","type":"uint256"}],"name":"_goal_uris","outputs":[{"internalType":"string","name":"dao_id","type":"string"},{"internalType":"string","name":"goal_uri","type":"string"}],"stateMutability":"view","type":"function"},{"inputs":[],"name":"_ideas_ids","outputs":[{"internalType":"uint256","name":"","type":"uint256"}],"stateMutability":"view","type":"function"},{"inputs":[{"internalType":"uint256","name":"","type":"uint256"}],"name":"_ideas_uris","outputs":[{"internalType":"string","name":"goal_id","type":"string"},{"internalType":"string","name":"ideas_uri","type":"string"},{"internalType":"uint256","name":"donation","type":"uint256"}],"stateMutability":"view","type":"function"},{"inputs":[],"name":"_ideas_vote_ids","outputs":[{"internalType":"uint256","name":"","type":"uint256"}],"stateMutability":"view","type":"function"},{"inputs":[],"name":"_join_ids","outputs":[{"internalType":"uint256","name":"","type":"uint256"}],"stateMutability":"view","type":"function"},{"inputs":[{"internalType":"uint256","name":"","type":"uint256"}],"name":"_joined_person","outputs":[{"internalType":"string","name":"daoId","type":"string"},{"internalType":"uint256","name":"user_id","type":"uint256"},{"internalType":"string","name":"joined_date","type":"string"}],"stateMutability":"view","type":"function"},{"inputs":[],"name":"_message_ids","outputs":[{"internalType":"uint256","name":"","type":"uint256"}],"stateMutability":"view","type":"function"},{"inputs":[],"name":"_message_read_ids","outputs":[{"internalType":"uint256","name":"","type":"uint256"}],"stateMutability":"view","type":"function"},{"inputs":[],"name":"_reply_ids","outputs":[{"internalType":"uint256","name":"","type":"uint256"}],"stateMutability":"view","type":"function"},{"inputs":[],"name":"_smart_contract_ids","outputs":[{"internalType":"uint256","name":"","type":"uint256"}],"stateMutability":"view","type":"function"},{"inputs":[{"internalType":"uint256","name":"","type":"uint256"}],"name":"_smart_contracts_uris","outputs":[{"internalType":"uint256","name":"smart_contract_id","type":"uint256"},{"internalType":"uint256","name":"ideas_id","type":"uint256"},{"internalType":"string","name":"smart_contract_uri","type":"string"}],"stateMutability":"view","type":"function"},{"inputs":[{"internalType":"uint256","name":"","type":"uint256"}],"name":"_template_uris","outputs":[{"internalType":"string","name":"","type":"string"}],"stateMutability":"view","type":"function"},{"inputs":[{"internalType":"uint256","name":"","type":"uint256"}],"name":"_user_badges","outputs":[{"internalType":"uint256","name":"user_id","type":"uint256"},{"internalType":"bool","name":"dao","type":"bool"},{"internalType":"bool","name":"joined","type":"bool"},{"internalType":"bool","name":"goal","type":"bool"},{"internalType":"bool","name":"ideas","type":"bool"},{"internalType":"bool","name":"vote","type":"bool"},{"internalType":"bool","name":"donation","type":"bool"},{"internalType":"bool","name":"comment","type":"bool"},{"internalType":"bool","name":"reply","type":"bool"}],"stateMutability":"view","type":"function"},{"inputs":[{"internalType":"string","name":"feed_text","type":"string"},{"internalType":"string","name":"_type","type":"string"}],"name":"add_Feed","outputs":[],"stateMutability":"nonpayable","type":"function"},{"inputs":[{"internalType":"string","name":"_ideas_id","type":"string"},{"internalType":"uint256","name":"_doantion","type":"uint256"},{"internalType":"uint256","name":"_userid","type":"uint256"},{"internalType":"string","name":"_feed1","type":"string"},{"internalType":"string","name":"_feed2","type":"string"}],"name":"add_donation","outputs":[],"stateMutability":"nonpayable","type":"function"},{"inputs":[{"internalType":"uint256","name":"","type":"uint256"}],"name":"all_goal_ideas_votes","outputs":[{"internalType":"string","name":"goal_id","type":"string"},{"internalType":"string","name":"ideas_id","type":"string"},{"internalType":"uint256","name":"user_id","type":"uint256"}],"stateMutability":"view","type":"function"},{"inputs":[{"internalType":"uint256","name":"","type":"uint256"}],"name":"all_messages","outputs":[{"internalType":"uint256","name":"message_id","type":"uint256"},{"internalType":"string","name":"ideas_id","type":"string"},{"internalType":"string","name":"message","type":"string"},{"internalType":"string","name":"sender","type":"string"}],"stateMutability":"view","type":"function"},{"inputs":[{"internalType":"uint256","name":"","type":"uint256"}],"name":"all_read_messages","outputs":[{"internalType":"uint256","name":"message_id","type":"uint256"},{"internalType":"uint256","name":"ideas_id","type":"uint256"},{"internalType":"uint256","name":"user_id","type":"uint256"},{"internalType":"string","name":"msg_type","type":"string"}],"stateMutability":"view","type":"function"},{"inputs":[{"internalType":"uint256","name":"","type":"uint256"}],"name":"all_replies","outputs":[{"internalType":"uint256","name":"reply_id","type":"uint256"},{"internalType":"uint256","name":"message_id","type":"uint256"},{"internalType":"uint256","name":"ideas_id","type":"uint256"},{"internalType":"string","name":"message","type":"string"}],"stateMutability":"view","type":"function"},{"inputs":[{"internalType":"string","name":"_dao_wallet","type":"string"},{"internalType":"string","name":"_dao_uri","type":"string"},{"internalType":"string","name":"_template","type":"string"},{"internalType":"uint256","name":"user_id","type":"uint256"}],"name":"create_dao","outputs":[{"internalType":"uint256","name":"","type":"uint256"}],"stateMutability":"nonpayable","type":"function"},{"inputs":[{"internalType":"string","name":"_goal_uri","type":"string"},{"internalType":"string","name":"_dao_id","type":"string"},{"internalType":"uint256","name":"_user_id","type":"uint256"},{"internalType":"string","name":"_feed","type":"string"}],"name":"create_goal","outputs":[{"internalType":"uint256","name":"","type":"uint256"}],"stateMutability":"nonpayable","type":"function"},{"inputs":[{"internalType":"string","name":"_goal_id","type":"string"},{"internalType":"string","name":"_ideas_id","type":"string"},{"internalType":"uint256","name":"_user_id","type":"uint256"},{"internalType":"string","name":"_feed","type":"string"},{"internalType":"bool","name":"feed_add","type":"bool"}],"name":"create_goal_ideas_vote","outputs":[{"internalType":"uint256","name":"","type":"uint256"}],"stateMutability":"nonpayable","type":"function"},{"inputs":[{"internalType":"string","name":"_ideas_uri","type":"string"},{"internalType":"string","name":"_goal_id","type":"string"},{"internalType":"string[]","name":"_smart_contracts","type":"string[]"},{"internalType":"uint256","name":"_user_id","type":"uint256"},{"internalType":"string","name":"_feed","type":"string"}],"name":"create_ideas","outputs":[{"internalType":"uint256","name":"","type":"uint256"}],"stateMutability":"nonpayable","type":"function"},{"inputs":[{"internalType":"uint256","name":"_dao_id","type":"uint256"}],"name":"dao_uri","outputs":[{"internalType":"string","name":"","type":"string"}],"stateMutability":"view","type":"function"},{"inputs":[{"internalType":"string","name":"ideas_id","type":"string"}],"name":"getMsgIDs","outputs":[{"internalType":"uint256[]","name":"","type":"uint256[]"}],"stateMutability":"view","type":"function"},{"inputs":[{"internalType":"uint256","name":"_message_id","type":"uint256"},{"internalType":"string","name":"msg_type","type":"string"}],"name":"getReadMsg","outputs":[{"internalType":"bool","name":"","type":"bool"}],"stateMutability":"view","type":"function"},{"inputs":[{"internalType":"uint256","name":"message_id","type":"uint256"}],"name":"getReplyIDs","outputs":[{"internalType":"uint256[]","name":"","type":"uint256[]"}],"stateMutability":"view","type":"function"},{"inputs":[],"name":"get_all_daos","outputs":[{"internalType":"string[]","name":"","type":"string[]"}],"stateMutability":"view","type":"function"},{"inputs":[],"name":"get_all_goals","outputs":[{"internalType":"string[]","name":"","type":"string[]"}],"stateMutability":"view","type":"function"},{"inputs":[{"internalType":"string","name":"_dao_id","type":"string"}],"name":"get_all_goals_by_dao_id","outputs":[{"internalType":"string[]","name":"","type":"string[]"}],"stateMutability":"view","type":"function"},{"inputs":[],"name":"get_all_ideas","outputs":[{"internalType":"string[]","name":"","type":"string[]"}],"stateMutability":"view","type":"function"},{"inputs":[{"internalType":"string","name":"_goal_id","type":"string"}],"name":"get_all_ideas_by_goal_id","outputs":[{"internalType":"string[]","name":"","type":"string[]"}],"stateMutability":"view","type":"function"},{"inputs":[{"internalType":"string","name":"_goal_uri","type":"string"}],"name":"get_goal_id_by_goal_uri","outputs":[{"internalType":"uint256","name":"","type":"uint256"}],"stateMutability":"view","type":"function"},{"inputs":[{"internalType":"string","name":"_ideas_uri","type":"string"}],"name":"get_goal_id_from_ideas_uri","outputs":[{"internalType":"string","name":"","type":"string"}],"stateMutability":"view","type":"function"},{"inputs":[{"internalType":"string","name":"_ideas_uri","type":"string"}],"name":"get_ideas_id_by_ideas_uri","outputs":[{"internalType":"uint256","name":"","type":"uint256"}],"stateMutability":"view","type":"function"},{"inputs":[{"internalType":"string","name":"dao_id","type":"string"},{"internalType":"uint256","name":"person","type":"uint256"}],"name":"get_person_joinedID","outputs":[{"internalType":"uint256","name":"","type":"uint256"}],"stateMutability":"view","type":"function"},{"inputs":[{"internalType":"uint256","name":"_goal_id","type":"uint256"}],"name":"goal_uri","outputs":[{"internalType":"string","name":"","type":"string"}],"stateMutability":"view","type":"function"},{"inputs":[{"internalType":"uint256","name":"_ideas_id","type":"uint256"}],"name":"ideas_uri","outputs":[{"internalType":"string","name":"","type":"string"}],"stateMutability":"view","type":"function"},{"inputs":[{"internalType":"string","name":"dao_id","type":"string"},{"internalType":"uint256","name":"person","type":"uint256"}],"name":"is_person_joined","outputs":[{"internalType":"bool","name":"","type":"bool"}],"stateMutability":"view","type":"function"},{"inputs":[{"internalType":"string","name":"dao_id","type":"string"},{"internalType":"uint256","name":"person","type":"uint256"},{"internalType":"string","name":"joined_date","type":"string"},{"internalType":"string","name":"_feed","type":"string"}],"name":"join_community","outputs":[],"stateMutability":"nonpayable","type":"function"},{"inputs":[{"internalType":"uint256","name":"join_id","type":"uint256"}],"name":"leave_community","outputs":[],"stateMutability":"nonpayable","type":"function"},{"inputs":[],"name":"reset_all","outputs":[],"stateMutability":"nonpayable","type":"function"},{"inputs":[{"internalType":"string","name":"_ideas_id","type":"string"},{"internalType":"string","name":"_message","type":"string"},{"internalType":"string","name":"_sender","type":"string"},{"internalType":"uint256","name":"_user_id","type":"uint256"}],"name":"sendMsg","outputs":[{"internalType":"uint256","name":"","type":"uint256"}],"stateMutability":"nonpayable","type":"function"},{"inputs":[{"internalType":"uint256","name":"_message_id","type":"uint256"},{"internalType":"uint256","name":"_ideas_id","type":"uint256"},{"internalType":"uint256","name":"_wallet","type":"uint256"},{"internalType":"string","name":"msg_type","type":"string"}],"name":"sendReadMsg","outputs":[{"internalType":"uint256","name":"","type":"uint256"}],"stateMutability":"nonpayable","type":"function"},{"inputs":[{"internalType":"uint256","name":"_message_id","type":"uint256"},{"internalType":"string","name":"_reply","type":"string"},{"internalType":"uint256","name":"ideas_id","type":"uint256"},{"internalType":"uint256","name":"_userid","type":"uint256"}],"name":"sendReply","outputs":[{"internalType":"uint256","name":"","type":"uint256"}],"stateMutability":"nonpayable","type":"function"},{"inputs":[{"internalType":"uint256","name":"_dao_id","type":"uint256"},{"internalType":"string","name":"_dao_wallet","type":"string"},{"internalType":"string","name":"_dao_uri","type":"string"}],"name":"set_dao","outputs":[],"stateMutability":"nonpayable","type":"function"},{"inputs":[{"internalType":"uint256","name":"_goal_id","type":"uint256"},{"internalType":"string","name":"_goal_uri","type":"string"}],"name":"set_goal","outputs":[],"stateMutability":"nonpayable","type":"function"},{"inputs":[{"internalType":"uint256","name":"_ideas_id","type":"uint256"},{"internalType":"string","name":"_ideas_uri","type":"string"}],"name":"set_ideas","outputs":[],"stateMutability":"nonpayable","type":"function"},{"inputs":[{"internalType":"uint256","name":"_dao_id","type":"uint256"},{"internalType":"string","name":"_template","type":"string"}],"name":"update_template","outputs":[],"stateMutability":"nonpayable","type":"function"}],"devdoc":{"kind":"dev","methods":{},"version":1},"evm":{"bytecode":{"linkReferences":{},"object":"608060405234801561001057600080fd5b50614d2f806100206000396000f3fe608060405234801561001057600080fd5b50600436106103835760003560e01c806389e93784116101de578063b527d45e1161010f578063cace8d46116100ad578063dddb6f861161007c578063dddb6f8614610be7578063e32acc1a14610c17578063ec24580214610c47578063ff4a37ef14610c6557610383565b8063cace8d4614610b36578063cd23080914610b69578063d3791b2014610b99578063d9fc52db14610bb757610383565b8063c04fe978116100e9578063c04fe97814610aae578063c29595c514610acc578063ca013f1714610ae8578063ca98210414610b0657610383565b8063b527d45e14610a43578063bda0033514610a76578063c04e743014610a9257610383565b8063a36adb9f1161017c578063aa2bf5d311610156578063aa2bf5d3146109bb578063aa4cdf2a146109d9578063b16060a614610a09578063b39a38bd14610a1357610383565b8063a36adb9f14610923578063a428a47f14610953578063a807c20e1461098b57610383565b80639077007d116101b85780639077007d14610887578063934c5f00146108a557806397ee7606146108d5578063a1ca9178146108f357610383565b806389e93784146108095780638ac4110c146108395780638d3d25951461085757610383565b80634a797bd7116102b85780637fc543ec11610256578063829a5d9811610230578063829a5d981461077157806386ffa45b146107a157806387633eb2146107d1578063881de858146107ed57610383565b80637fc543ec146106f3578063812fae1f14610725578063826eeefe1461075557610383565b80636ecda4ee116102925780636ecda4ee146106585780637bbd582d146106885780637bc9724b146106a65780637f2035d4146106c257610383565b80634a797bd7146105d757806354a9fb18146105f55780635d907da11461062857610383565b806320959ed011610325578063330b8f26116102ff578063330b8f26146105105780633f87a2f41461054257806342f78f4714610575578063468d0c80146105a557610383565b806320959ed01461049057806327a568b9146104c057806329b56f60146104f257610383565b80631b592aeb116103615780631b592aeb146103f45780631ba44c4c146104125780631e9ac9f5146104445780631fd4d6641461047457610383565b80630377d44a146103885780631171b621146103b857806313bf4cea146103d6575b600080fd5b6103a2600480360381019061039d9190613930565b610c97565b6040516103af9190613aba565b60405180910390f35b6103c0610e21565b6040516103cd9190613af5565b60405180910390f35b6103de610e27565b6040516103eb9190613af5565b60405180910390f35b6103fc610e2d565b6040516104099190613af5565b60405180910390f35b61042c60048036038101906104279190613b3c565b610e33565b60405161043b93929190613bb3565b60405180910390f35b61045e60048036038101906104599190613930565b610f6d565b60405161046b9190613af5565b60405180910390f35b61048e60048036038101906104899190613bf8565b610fde565b005b6104aa60048036038101906104a59190613b3c565b611161565b6040516104b79190613af5565b60405180910390f35b6104da60048036038101906104d59190613b3c565b611179565b6040516104e993929190613cc7565b60405180910390f35b6104fa61133b565b6040516105079190613aba565b60405180910390f35b61052a60048036038101906105259190613b3c565b611476565b60405161053993929190613d13565b60405180910390f35b61055c60048036038101906105579190613b3c565b6115b0565b60405161056c9493929190613d58565b60405180910390f35b61058f600480360381019061058a9190613930565b611668565b60405161059c9190613e62565b60405180910390f35b6105bf60048036038101906105ba9190613b3c565b611766565b6040516105ce93929190613bb3565b60405180910390f35b6105df6118a0565b6040516105ec9190613af5565b60405180910390f35b61060f600480360381019061060a9190613b3c565b6118a6565b60405161061f9493929190613e84565b60405180910390f35b610642600480360381019061063d9190613b3c565b6119e6565b60405161064f9190613ed7565b60405180910390f35b610672600480360381019061066d9190613b3c565b611a8e565b60405161067f9190613ed7565b60405180910390f35b610690611b2e565b60405161069d9190613af5565b60405180910390f35b6106c060048036038101906106bb9190613ef9565b611b34565b005b6106dc60048036038101906106d79190613b3c565b611c29565b6040516106ea929190613fb4565b60405180910390f35b61070d60048036038101906107089190613b3c565b611d5d565b60405161071c93929190613feb565b60405180910390f35b61073f600480360381019061073a9190613b3c565b611e0f565b60405161074c9190613e62565b60405180910390f35b61076f600480360381019061076a9190613b3c565b611ef2565b005b61078b60048036038101906107869190613930565b611fa2565b6040516107989190613aba565b60405180910390f35b6107bb60048036038101906107b69190614029565b61212c565b6040516107c89190613af5565b60405180910390f35b6107eb60048036038101906107e691906140e4565b61224c565b005b61080760048036038101906108029190614140565b612271565b005b610823600480360381019061081e9190614203565b6122be565b6040516108309190613af5565b60405180910390f35b6108416123c4565b60405161084e9190613af5565b60405180910390f35b610871600480360381019061086c9190613b3c565b6123ca565b60405161087e9190613ed7565b60405180910390f35b61088f612472565b60405161089c9190613af5565b60405180910390f35b6108bf60048036038101906108ba91906142d2565b612478565b6040516108cc9190613af5565b60405180910390f35b6108dd61250c565b6040516108ea9190613aba565b60405180910390f35b61090d60048036038101906109089190613930565b612647565b60405161091a9190613af5565b60405180910390f35b61093d60048036038101906109389190614355565b6126b8565b60405161094a9190613af5565b60405180910390f35b61096d60048036038101906109689190613b3c565b61274d565b604051610982999897969594939291906143c0565b60405180910390f35b6109a560048036038101906109a09190614355565b612803565b6040516109b2919061444d565b60405180910390f35b6109c3612898565b6040516109d09190613af5565b60405180910390f35b6109f360048036038101906109ee9190613930565b61289e565b604051610a009190613ed7565b60405180910390f35b610a116129b8565b005b610a2d6004803603810190610a289190614468565b612c8a565b604051610a3a9190613af5565b60405180910390f35b610a5d6004803603810190610a589190613b3c565b612d78565b604051610a6d9493929190614523565b60405180910390f35b610a906004803603810190610a8b919061457d565b612f40565b005b610aac6004803603810190610aa791906140e4565b612fd7565b005b610ab6612fff565b604051610ac39190613aba565b60405180910390f35b610ae66004803603810190610ae191906140e4565b613139565b005b610af0613161565b604051610afd9190613af5565b60405180910390f35b610b206004803603810190610b1b9190614029565b613167565b604051610b2d9190613af5565b60405180910390f35b610b506004803603810190610b4b9190613b3c565b613244565b604051610b609493929190613d58565b60405180910390f35b610b836004803603810190610b7e91906140e4565b6132fc565b604051610b90919061444d565b60405180910390f35b610ba161338d565b604051610bae9190613af5565b60405180910390f35b610bd16004803603810190610bcc91906145f5565b613393565b604051610bde9190613af5565b60405180910390f35b610c016004803603810190610bfc919061475e565b613458565b604051610c0e9190613af5565b60405180910390f35b610c316004803603810190610c2c9190613b3c565b6135b9565b604051610c3e9190613ed7565b60405180910390f35b610c4f613661565b604051610c5c9190613af5565b60405180910390f35b610c7f6004803603810190610c7a9190613b3c565b613667565b604051610c8e93929190614849565b60405180910390f35b6060600060025467ffffffffffffffff811115610cb757610cb6613805565b5b604051908082528060200260200182016040528015610cea57816020015b6060815260200190600190039081610cd55790505b509050600080600090505b600254811015610e16578480519060200120600e6000838152602001908152602001600020600001604051610d2a919061498a565b604051809103902003610e0357600e60008281526020019081526020016000206001018054610d58906148b6565b80601f0160208091040260200160405190810160405280929190818152602001828054610d84906148b6565b8015610dd15780601f10610da657610100808354040283529160200191610dd1565b820191906000526020600020905b815481529060010190602001808311610db457829003601f168201915b5050505050838381518110610de957610de86149a1565b5b60200260200101819052508180610dff906149ff565b9250505b8080610e0e906149ff565b915050610cf5565b508192505050919050565b60045481565b60025481565b60055481565b6014602052806000526040600020600091509050806000018054610e56906148b6565b80601f0160208091040260200160405190810160405280929190818152602001828054610e82906148b6565b8015610ecf5780601f10610ea457610100808354040283529160200191610ecf565b820191906000526020600020905b815481529060010190602001808311610eb257829003601f168201915b505050505090806001018054610ee4906148b6565b80601f0160208091040260200160405190810160405280929190818152602001828054610f10906148b6565b8015610f5d5780601f10610f3257610100808354040283529160200191610f5d565b820191906000526020600020905b815481529060010190602001808311610f4057829003601f168201915b5050505050908060020154905083565b600080600090505b600254811015610fd3578280519060200120600e6000838152602001908152602001600020600101604051610faa919061498a565b604051809103902003610fc05780915050610fd9565b8080610fcb906149ff565b915050610f75565b50600090505b919050565b600015156018600085815260200190815260200160002060010160059054906101000a900460ff1615150361104d5761104c826040518060400160405280600581526020017f6261646765000000000000000000000000000000000000000000000000000000815250612f40565b5b61108c816040518060400160405280600881526020017f646f6e6174696f6e000000000000000000000000000000000000000000000000815250612f40565b60016018600085815260200190815260200160002060010160056101000a81548160ff021916908315150217905550836010600085815260200190815260200160002060008282546110de9190614a47565b92505081905550604051806060016040528086815260200184815260200185815250601260006001548152602001908152602001600020600082015181600001908161112a9190614c27565b50602082015181600101556040820151816002015590505060016000815480929190611155906149ff565b91905055505050505050565b60106020528060005260406000206000915090505481565b600b60205280600052604060002060009150905080600001805461119c906148b6565b80601f01602080910402602001604051908101604052809291908181526020018280546111c8906148b6565b80156112155780601f106111ea57610100808354040283529160200191611215565b820191906000526020600020905b8154815290600101906020018083116111f857829003601f168201915b50505050509080600101805461122a906148b6565b80601f0160208091040260200160405190810160405280929190818152602001828054611256906148b6565b80156112a35780601f10611278576101008083540402835291602001916112a3565b820191906000526020600020905b81548152906001019060200180831161128657829003601f168201915b5050505050908060020180546112b8906148b6565b80601f01602080910402602001604051908101604052809291908181526020018280546112e4906148b6565b80156113315780601f1061130657610100808354040283529160200191611331565b820191906000526020600020905b81548152906001019060200180831161131457829003601f168201915b5050505050905083565b6060600060025467ffffffffffffffff81111561135b5761135a613805565b5b60405190808252806020026020018201604052801561138e57816020015b60608152602001906001900390816113795790505b50905060005b60025481101561146e57600e600082815260200190815260200160002060010180546113bf906148b6565b80601f01602080910402602001604051908101604052809291908181526020018280546113eb906148b6565b80156114385780601f1061140d57610100808354040283529160200191611438565b820191906000526020600020905b81548152906001019060200180831161141b57829003601f168201915b50505050508282815181106114505761144f6149a1565b5b60200260200101819052508080611466906149ff565b915050611394565b508091505090565b600d602052806000526040600020600091509050806000018054611499906148b6565b80601f01602080910402602001604051908101604052809291908181526020018280546114c5906148b6565b80156115125780601f106114e757610100808354040283529160200191611512565b820191906000526020600020905b8154815290600101906020018083116114f557829003601f168201915b50505050509080600101549080600201805461152d906148b6565b80601f0160208091040260200160405190810160405280929190818152602001828054611559906148b6565b80156115a65780601f1061157b576101008083540402835291602001916115a6565b820191906000526020600020905b81548152906001019060200180831161158957829003601f168201915b5050505050905083565b60176020528060005260406000206000915090508060000154908060010154908060020154908060030180546115e5906148b6565b80601f0160208091040260200160405190810160405280929190818152602001828054611611906148b6565b801561165e5780601f106116335761010080835404028352916020019161165e565b820191906000526020600020905b81548152906001019060200180831161164157829003601f168201915b5050505050905084565b6060600060075467ffffffffffffffff81111561168857611687613805565b5b6040519080825280602002602001820160405280156116b65781602001602082028036833780820191505090505b509050600080600090505b60075481101561175b578480519060200120601560008381526020019081526020016000206001016040516116f6919061498a565b60405180910390200361174857601560008281526020019081526020016000206000015483838151811061172d5761172c6149a1565b5b6020026020010181815250508180611744906149ff565b9250505b8080611753906149ff565b9150506116c1565b508192505050919050565b600f602052806000526040600020600091509050806000018054611789906148b6565b80601f01602080910402602001604051908101604052809291908181526020018280546117b5906148b6565b80156118025780601f106117d757610100808354040283529160200191611802565b820191906000526020600020905b8154815290600101906020018083116117e557829003601f168201915b505050505090806001018054611817906148b6565b80601f0160208091040260200160405190810160405280929190818152602001828054611843906148b6565b80156118905780601f1061186557610100808354040283529160200191611890565b820191906000526020600020905b81548152906001019060200180831161187357829003601f168201915b5050505050908060020154905083565b60065481565b60116020528060005260406000206000915090508060000154908060010154908060020180546118d5906148b6565b80601f0160208091040260200160405190810160405280929190818152602001828054611901906148b6565b801561194e5780601f106119235761010080835404028352916020019161194e565b820191906000526020600020905b81548152906001019060200180831161193157829003601f168201915b505050505090806003018054611963906148b6565b80601f016020809104026020016040519081016040528092919081815260200182805461198f906148b6565b80156119dc5780601f106119b1576101008083540402835291602001916119dc565b820191906000526020600020905b8154815290600101906020018083116119bf57829003601f168201915b5050505050905084565b6060600b60008381526020019081526020016000206001018054611a09906148b6565b80601f0160208091040260200160405190810160405280929190818152602001828054611a35906148b6565b8015611a825780601f10611a5757610100808354040283529160200191611a82565b820191906000526020600020905b815481529060010190602001808311611a6557829003601f168201915b50505050509050919050565b600c6020528060005260406000206000915090508054611aad906148b6565b80601f0160208091040260200160405190810160405280929190818152602001828054611ad9906148b6565b8015611b265780601f10611afb57610100808354040283529160200191611b26565b820191906000526020600020905b815481529060010190602001808311611b0957829003601f168201915b505050505081565b60005481565b60016018600085815260200190815260200160002060010160016101000a81548160ff021916908315150217905550604051806060016040528085815260200184815260200183815250600d600060045481526020019081526020016000206000820151816000019081611ba89190614c27565b50602082015181600101556040820151816002019081611bc89190614c27565b5090505060046000815480929190611bdf906149ff565b9190505550611c23816040518060400160405280600481526020017f6a6f696e00000000000000000000000000000000000000000000000000000000815250612f40565b50505050565b600e602052806000526040600020600091509050806000018054611c4c906148b6565b80601f0160208091040260200160405190810160405280929190818152602001828054611c78906148b6565b8015611cc55780601f10611c9a57610100808354040283529160200191611cc5565b820191906000526020600020905b815481529060010190602001808311611ca857829003601f168201915b505050505090806001018054611cda906148b6565b80601f0160208091040260200160405190810160405280929190818152602001828054611d06906148b6565b8015611d535780601f10611d2857610100808354040283529160200191611d53565b820191906000526020600020905b815481529060010190602001808311611d3657829003601f168201915b5050505050905082565b6012602052806000526040600020600091509050806000018054611d80906148b6565b80601f0160208091040260200160405190810160405280929190818152602001828054611dac906148b6565b8015611df95780601f10611dce57610100808354040283529160200191611df9565b820191906000526020600020905b815481529060010190602001808311611ddc57829003601f168201915b5050505050908060010154908060020154905083565b6060600060095467ffffffffffffffff811115611e2f57611e2e613805565b5b604051908082528060200260200182016040528015611e5d5781602001602082028036833780820191505090505b509050600080600090505b600954811015611ee75784601760008381526020019081526020016000206001015403611ed4576017600082815260200190815260200160002060000154838381518110611eb957611eb86149a1565b5b6020026020010181815250508180611ed0906149ff565b9250505b8080611edf906149ff565b915050611e68565b508192505050919050565b60405180606001604052806040518060400160405280600481526020017f3939393900000000000000000000000000000000000000000000000000000000815250815260200161270f815260200160405180602001604052806000815250815250600d60008381526020019081526020016000206000820151816000019081611f7b9190614c27565b50602082015181600101556040820151816002019081611f9b9190614c27565b5090505050565b6060600060035467ffffffffffffffff811115611fc257611fc1613805565b5b604051908082528060200260200182016040528015611ff557816020015b6060815260200190600190039081611fe05790505b509050600080600090505b600354811015612121578480519060200120600f6000838152602001908152602001600020600001604051612035919061498a565b60405180910390200361210057600f60008281526020019081526020016000206001018054612063906148b6565b80601f016020809104026020016040519081016040528092919081815260200182805461208f906148b6565b80156120dc5780601f106120b1576101008083540402835291602001916120dc565b820191906000526020600020905b8154815290600101906020018083116120bf57829003601f168201915b50505050508383815181106120f4576120f36149a1565b5b60200260200101819052505b818061210b906149ff565b9250508080612119906149ff565b915050612000565b508192505050919050565b600060405180606001604052808681526020018581526020016040518060400160405280600581526020017f46616c7365000000000000000000000000000000000000000000000000000000815250815250600b60008054815260200190815260200160002060008201518160000190816121a79190614c27565b5060208201518160010190816121bd9190614c27565b5060408201518160020190816121d39190614c27565b5090505082600c60008054815260200190815260200160002090816121f89190614c27565b5060016018600084815260200190815260200160002060010160006101000a81548160ff02191690831515021790555060008081548092919061223a906149ff565b91905055506000549050949350505050565b80600c6000848152602001908152602001600020908161226c9190614c27565b505050565b81600b600085815260200190815260200160002060000190816122949190614c27565b5080600b600085815260200190815260200160002060010190816122b89190614c27565b50505050565b600060016018600086815260200190815260200160002060010160046101000a81548160ff02191690831515021790555060405180606001604052808781526020018681526020018581525060146000600654815260200190815260200160002060008201518160000190816123349190614c27565b50602082015181600101908161234a9190614c27565b50604082015181600201559050506006600081548092919061236b906149ff565b919050555081156123b6576123b5836040518060400160405280600481526020017f766f746500000000000000000000000000000000000000000000000000000000815250612f40565b5b600654905095945050505050565b600a5481565b6060600f600083815260200190815260200160002060010180546123ed906148b6565b80601f0160208091040260200160405190810160405280929190818152602001828054612419906148b6565b80156124665780601f1061243b57610100808354040283529160200191612466565b820191906000526020600020905b81548152906001019060200180831161244957829003601f168201915b50505050509050919050565b60075481565b600060405180608001604052808681526020018581526020018481526020018381525060166000600854815260200190815260200160002060008201518160000155602082015181600101556040820151816002015560608201518160030190816124e39190614c27565b50905050600860008154809291906124fa906149ff565b91905055506008549050949350505050565b6060600060035467ffffffffffffffff81111561252c5761252b613805565b5b60405190808252806020026020018201604052801561255f57816020015b606081526020019060019003908161254a5790505b50905060005b60035481101561263f57600f60008281526020019081526020016000206001018054612590906148b6565b80601f01602080910402602001604051908101604052809291908181526020018280546125bc906148b6565b80156126095780601f106125de57610100808354040283529160200191612609565b820191906000526020600020905b8154815290600101906020018083116125ec57829003601f168201915b5050505050828281518110612621576126206149a1565b5b60200260200101819052508080612637906149ff565b915050612565565b508091505090565b600080600090505b6003548110156126ad578280519060200120600f6000838152602001908152602001600020600101604051612684919061498a565b60405180910390200361269a57809150506126b3565b80806126a5906149ff565b91505061264f565b50600090505b919050565b600080600090505b6004548110156127405782600d60008381526020019081526020016000206001015414801561271f57508380519060200120600d6000838152602001908152602001600020600001604051612715919061498a565b6040518091039020145b1561272d5780915050612747565b8080612738906149ff565b9150506126c0565b5061270f90505b92915050565b60186020528060005260406000206000915090508060000154908060010160009054906101000a900460ff16908060010160019054906101000a900460ff16908060010160029054906101000a900460ff16908060010160039054906101000a900460ff16908060010160049054906101000a900460ff16908060010160059054906101000a900460ff16908060010160069054906101000a900460ff16908060010160079054906101000a900460ff16905089565b600080600090505b60045481101561288c5782600d60008381526020019081526020016000206001015414801561286a57508380519060200120600d6000838152602001908152602001600020600001604051612860919061498a565b6040518091039020145b15612879576001915050612892565b8080612884906149ff565b91505061280b565b50600090505b92915050565b60095481565b606060005b60035481101561299f578280519060200120600f60008381526020019081526020016000206001016040516128d8919061498a565b60405180910390200361298c57600f60008281526020019081526020016000206000018054612906906148b6565b80601f0160208091040260200160405190810160405280929190818152602001828054612932906148b6565b801561297f5780601f106129545761010080835404028352916020019161297f565b820191906000526020600020905b81548152906001019060200180831161296257829003601f168201915b50505050509150506129b3565b8080612997906149ff565b9150506128a3565b506040518060200160405280600081525090505b919050565b60005b600054811015612a1e57600b6000828152602001908152602001600020600080820160006129e99190613779565b6001820160006129f99190613779565b600282016000612a099190613779565b50508080612a16906149ff565b9150506129bb565b5060005b600254811015612a7557600e600082815260200190815260200160002060008082016000612a509190613779565b600182016000612a609190613779565b50508080612a6d906149ff565b915050612a22565b5060005b600354811015612ad457600f600082815260200190815260200160002060008082016000612aa79190613779565b600182016000612ab79190613779565b600282016000905550508080612acc906149ff565b915050612a79565b5060005b600254811015612b2b57601360008281526020019081526020016000206000808201600090556001820160009055600282016000612b169190613779565b50508080612b23906149ff565b915050612ad8565b5060005b600754811015612b9a5760156000828152602001908152602001600020600080820160009055600182016000612b659190613779565b600282016000612b759190613779565b600382016000612b859190613779565b50508080612b92906149ff565b915050612b2f565b5060005b600954811015612bf9576017600082815260200190815260200160002060008082016000905560018201600090556002820160009055600382016000612be49190613779565b50508080612bf1906149ff565b915050612b9e565b5060005b600654811015612c58576014600082815260200190815260200160002060008082016000612c2b9190613779565b600182016000612c3b9190613779565b600282016000905550508080612c50906149ff565b915050612bfd565b506000808190555060006002819055506000600381905550600060078190555060006009819055506000600681905550565b6000604051806040016040528085815260200186815250600e600060025481526020019081526020016000206000820151816000019081612ccb9190614c27565b506020820151816001019081612ce19190614c27565b5090505060016018600085815260200190815260200160002060010160026101000a81548160ff02191690831515021790555060026000815480929190612d27906149ff565b9190505550612d6b826040518060400160405280600481526020017f676f616c00000000000000000000000000000000000000000000000000000000815250612f40565b6002549050949350505050565b6015602052806000526040600020600091509050806000015490806001018054612da1906148b6565b80601f0160208091040260200160405190810160405280929190818152602001828054612dcd906148b6565b8015612e1a5780601f10612def57610100808354040283529160200191612e1a565b820191906000526020600020905b815481529060010190602001808311612dfd57829003601f168201915b505050505090806002018054612e2f906148b6565b80601f0160208091040260200160405190810160405280929190818152602001828054612e5b906148b6565b8015612ea85780601f10612e7d57610100808354040283529160200191612ea8565b820191906000526020600020905b815481529060010190602001808311612e8b57829003601f168201915b505050505090806003018054612ebd906148b6565b80601f0160208091040260200160405190810160405280929190818152602001828054612ee9906148b6565b8015612f365780601f10612f0b57610100808354040283529160200191612f36565b820191906000526020600020905b815481529060010190602001808311612f1957829003601f168201915b5050505050905084565b6040518060800160405280600a5481526020014281526020018281526020018381525060116000600a54815260200190815260200160002060008201518160000155602082015181600101556040820151816002019081612fa19190614c27565b506060820151816003019081612fb79190614c27565b50905050600a6000815480929190612fce906149ff565b91905055505050565b80600f60008481526020019081526020016000206001019081612ffa9190614c27565b505050565b60606000805467ffffffffffffffff81111561301e5761301d613805565b5b60405190808252806020026020018201604052801561305157816020015b606081526020019060019003908161303c5790505b50905060005b60005481101561313157600b60008281526020019081526020016000206001018054613082906148b6565b80601f01602080910402602001604051908101604052809291908181526020018280546130ae906148b6565b80156130fb5780601f106130d0576101008083540402835291602001916130fb565b820191906000526020600020905b8154815290600101906020018083116130de57829003601f168201915b5050505050828281518110613113576131126149a1565b5b60200260200101819052508080613129906149ff565b915050613057565b508091505090565b80600e6000848152602001908152602001600020600101908161315c9190614c27565b505050565b60085481565b600060016018600084815260200190815260200160002060010160066101000a81548160ff02191690831515021790555060405180608001604052806007548152602001868152602001858152602001848152506015600060075481526020019081526020016000206000820151816000015560208201518160010190816131ef9190614c27565b5060408201518160020190816132059190614c27565b50606082015181600301908161321b9190614c27565b5090505060076000815480929190613232906149ff565b91905055506007549050949350505050565b6016602052806000526040600020600091509050806000015490806001015490806002015490806003018054613279906148b6565b80601f01602080910402602001604051908101604052809291908181526020018280546132a5906148b6565b80156132f25780601f106132c7576101008083540402835291602001916132f2565b820191906000526020600020905b8154815290600101906020018083116132d557829003601f168201915b5050505050905084565b6000806000905060005b60085481101561338257846016600083815260200190815260200160002060000154148015613365575060166000828152602001908152602001600020600301604051613353919061498a565b60405180910390208480519060200120145b1561336f57600191505b808061337a906149ff565b915050613306565b508091505092915050565b60035481565b600060016018600084815260200190815260200160002060010160076101000a81548160ff0219169083151502179055506040518060800160405280600954815260200186815260200184815260200185815250601760006009548152602001908152602001600020600082015181600001556020820151816001015560408201518160020155606082015181600301908161342f9190614c27565b5090505060096000815480929190613446906149ff565b91905055506009549050949350505050565b600060405180606001604052808681526020018781526020016000815250600f6000600354815260200190815260200160002060008201518160000190816134a09190614c27565b5060208201518160010190816134b69190614c27565b506040820151816002015590505060016018600085815260200190815260200160002060010160036101000a81548160ff02191690831515021790555060036000815480929190613506906149ff565b919050555060005b845181101561356b57613540600354600554878481518110613533576135326149a1565b5b6020026020010151613719565b60056000815480929190613553906149ff565b91905055508080613563906149ff565b91505061350e565b506135ab826040518060400160405280600481526020017f6964656100000000000000000000000000000000000000000000000000000000815250612f40565b600354905095945050505050565b6060600e600083815260200190815260200160002060010180546135dc906148b6565b80601f0160208091040260200160405190810160405280929190818152602001828054613608906148b6565b80156136555780601f1061362a57610100808354040283529160200191613655565b820191906000526020600020905b81548152906001019060200180831161363857829003601f168201915b50505050509050919050565b60015481565b6013602052806000526040600020600091509050806000015490806001015490806002018054613696906148b6565b80601f01602080910402602001604051908101604052809291908181526020018280546136c2906148b6565b801561370f5780601f106136e45761010080835404028352916020019161370f565b820191906000526020600020905b8154815290600101906020018083116136f257829003601f168201915b5050505050905083565b60405180606001604052808481526020018381526020018281525060136000848152602001908152602001600020600082015181600001556020820151816001015560408201518160020190816137709190614c27565b50905050505050565b508054613785906148b6565b6000825580601f1061379757506137b6565b601f0160209004906000526020600020908101906137b591906137b9565b5b50565b5b808211156137d25760008160009055506001016137ba565b5090565b6000604051905090565b600080fd5b600080fd5b600080fd5b600080fd5b6000601f19601f8301169050919050565b7f4e487b7100000000000000000000000000000000000000000000000000000000600052604160045260246000fd5b61383d826137f4565b810181811067ffffffffffffffff8211171561385c5761385b613805565b5b80604052505050565b600061386f6137d6565b905061387b8282613834565b919050565b600067ffffffffffffffff82111561389b5761389a613805565b5b6138a4826137f4565b9050602081019050919050565b82818337600083830152505050565b60006138d36138ce84613880565b613865565b9050828152602081018484840111156138ef576138ee6137ef565b5b6138fa8482856138b1565b509392505050565b600082601f830112613917576139166137ea565b5b81356139278482602086016138c0565b91505092915050565b600060208284031215613946576139456137e0565b5b600082013567ffffffffffffffff811115613964576139636137e5565b5b61397084828501613902565b91505092915050565b600081519050919050565b600082825260208201905092915050565b6000819050602082019050919050565b600081519050919050565b600082825260208201905092915050565b60005b838110156139df5780820151818401526020810190506139c4565b60008484015250505050565b60006139f6826139a5565b613a0081856139b0565b9350613a108185602086016139c1565b613a19816137f4565b840191505092915050565b6000613a3083836139eb565b905092915050565b6000602082019050919050565b6000613a5082613979565b613a5a8185613984565b935083602082028501613a6c85613995565b8060005b85811015613aa85784840389528151613a898582613a24565b9450613a9483613a38565b925060208a01995050600181019050613a70565b50829750879550505050505092915050565b60006020820190508181036000830152613ad48184613a45565b905092915050565b6000819050919050565b613aef81613adc565b82525050565b6000602082019050613b0a6000830184613ae6565b92915050565b613b1981613adc565b8114613b2457600080fd5b50565b600081359050613b3681613b10565b92915050565b600060208284031215613b5257613b516137e0565b5b6000613b6084828501613b27565b91505092915050565b600082825260208201905092915050565b6000613b85826139a5565b613b8f8185613b69565b9350613b9f8185602086016139c1565b613ba8816137f4565b840191505092915050565b60006060820190508181036000830152613bcd8186613b7a565b90508181036020830152613be18185613b7a565b9050613bf06040830184613ae6565b949350505050565b600080600080600060a08688031215613c1457613c136137e0565b5b600086013567ffffffffffffffff811115613c3257613c316137e5565b5b613c3e88828901613902565b9550506020613c4f88828901613b27565b9450506040613c6088828901613b27565b935050606086013567ffffffffffffffff811115613c8157613c806137e5565b5b613c8d88828901613902565b925050608086013567ffffffffffffffff811115613cae57613cad6137e5565b5b613cba88828901613902565b9150509295509295909350565b60006060820190508181036000830152613ce18186613b7a565b90508181036020830152613cf58185613b7a565b90508181036040830152613d098184613b7a565b9050949350505050565b60006060820190508181036000830152613d2d8186613b7a565b9050613d3c6020830185613ae6565b8181036040830152613d4e8184613b7a565b9050949350505050565b6000608082019050613d6d6000830187613ae6565b613d7a6020830186613ae6565b613d876040830185613ae6565b8181036060830152613d998184613b7a565b905095945050505050565b600081519050919050565b600082825260208201905092915050565b6000819050602082019050919050565b613dd981613adc565b82525050565b6000613deb8383613dd0565b60208301905092915050565b6000602082019050919050565b6000613e0f82613da4565b613e198185613daf565b9350613e2483613dc0565b8060005b83811015613e55578151613e3c8882613ddf565b9750613e4783613df7565b925050600181019050613e28565b5085935050505092915050565b60006020820190508181036000830152613e7c8184613e04565b905092915050565b6000608082019050613e996000830187613ae6565b613ea66020830186613ae6565b8181036040830152613eb88185613b7a565b90508181036060830152613ecc8184613b7a565b905095945050505050565b60006020820190508181036000830152613ef18184613b7a565b905092915050565b60008060008060808587031215613f1357613f126137e0565b5b600085013567ffffffffffffffff811115613f3157613f306137e5565b5b613f3d87828801613902565b9450506020613f4e87828801613b27565b935050604085013567ffffffffffffffff811115613f6f57613f6e6137e5565b5b613f7b87828801613902565b925050606085013567ffffffffffffffff811115613f9c57613f9b6137e5565b5b613fa887828801613902565b91505092959194509250565b60006040820190508181036000830152613fce8185613b7a565b90508181036020830152613fe28184613b7a565b90509392505050565b600060608201905081810360008301526140058186613b7a565b90506140146020830185613ae6565b6140216040830184613ae6565b949350505050565b60008060008060808587031215614043576140426137e0565b5b600085013567ffffffffffffffff811115614061576140606137e5565b5b61406d87828801613902565b945050602085013567ffffffffffffffff81111561408e5761408d6137e5565b5b61409a87828801613902565b935050604085013567ffffffffffffffff8111156140bb576140ba6137e5565b5b6140c787828801613902565b92505060606140d887828801613b27565b91505092959194509250565b600080604083850312156140fb576140fa6137e0565b5b600061410985828601613b27565b925050602083013567ffffffffffffffff81111561412a576141296137e5565b5b61413685828601613902565b9150509250929050565b600080600060608486031215614159576141586137e0565b5b600061416786828701613b27565b935050602084013567ffffffffffffffff811115614188576141876137e5565b5b61419486828701613902565b925050604084013567ffffffffffffffff8111156141b5576141b46137e5565b5b6141c186828701613902565b9150509250925092565b60008115159050919050565b6141e0816141cb565b81146141eb57600080fd5b50565b6000813590506141fd816141d7565b92915050565b600080600080600060a0868803121561421f5761421e6137e0565b5b600086013567ffffffffffffffff81111561423d5761423c6137e5565b5b61424988828901613902565b955050602086013567ffffffffffffffff81111561426a576142696137e5565b5b61427688828901613902565b945050604061428788828901613b27565b935050606086013567ffffffffffffffff8111156142a8576142a76137e5565b5b6142b488828901613902565b92505060806142c5888289016141ee565b9150509295509295909350565b600080600080608085870312156142ec576142eb6137e0565b5b60006142fa87828801613b27565b945050602061430b87828801613b27565b935050604061431c87828801613b27565b925050606085013567ffffffffffffffff81111561433d5761433c6137e5565b5b61434987828801613902565b91505092959194509250565b6000806040838503121561436c5761436b6137e0565b5b600083013567ffffffffffffffff81111561438a576143896137e5565b5b61439685828601613902565b92505060206143a785828601613b27565b9150509250929050565b6143ba816141cb565b82525050565b6000610120820190506143d6600083018c613ae6565b6143e3602083018b6143b1565b6143f0604083018a6143b1565b6143fd60608301896143b1565b61440a60808301886143b1565b61441760a08301876143b1565b61442460c08301866143b1565b61443160e08301856143b1565b61443f6101008301846143b1565b9a9950505050505050505050565b600060208201905061446260008301846143b1565b92915050565b60008060008060808587031215614482576144816137e0565b5b600085013567ffffffffffffffff8111156144a05761449f6137e5565b5b6144ac87828801613902565b945050602085013567ffffffffffffffff8111156144cd576144cc6137e5565b5b6144d987828801613902565b93505060406144ea87828801613b27565b925050606085013567ffffffffffffffff81111561450b5761450a6137e5565b5b61451787828801613902565b91505092959194509250565b60006080820190506145386000830187613ae6565b818103602083015261454a8186613b7a565b9050818103604083015261455e8185613b7a565b905081810360608301526145728184613b7a565b905095945050505050565b60008060408385031215614594576145936137e0565b5b600083013567ffffffffffffffff8111156145b2576145b16137e5565b5b6145be85828601613902565b925050602083013567ffffffffffffffff8111156145df576145de6137e5565b5b6145eb85828601613902565b9150509250929050565b6000806000806080858703121561460f5761460e6137e0565b5b600061461d87828801613b27565b945050602085013567ffffffffffffffff81111561463e5761463d6137e5565b5b61464a87828801613902565b935050604061465b87828801613b27565b925050606061466c87828801613b27565b91505092959194509250565b600067ffffffffffffffff82111561469357614692613805565b5b602082029050602081019050919050565b600080fd5b60006146bc6146b784614678565b613865565b905080838252602082019050602084028301858111156146df576146de6146a4565b5b835b8181101561472657803567ffffffffffffffff811115614704576147036137ea565b5b8086016147118982613902565b855260208501945050506020810190506146e1565b5050509392505050565b600082601f830112614745576147446137ea565b5b81356147558482602086016146a9565b91505092915050565b600080600080600060a0868803121561477a576147796137e0565b5b600086013567ffffffffffffffff811115614798576147976137e5565b5b6147a488828901613902565b955050602086013567ffffffffffffffff8111156147c5576147c46137e5565b5b6147d188828901613902565b945050604086013567ffffffffffffffff8111156147f2576147f16137e5565b5b6147fe88828901614730565b935050606061480f88828901613b27565b925050608086013567ffffffffffffffff8111156148305761482f6137e5565b5b61483c88828901613902565b9150509295509295909350565b600060608201905061485e6000830186613ae6565b61486b6020830185613ae6565b818103604083015261487d8184613b7a565b9050949350505050565b7f4e487b7100000000000000000000000000000000000000000000000000000000600052602260045260246000fd5b600060028204905060018216806148ce57607f821691505b6020821081036148e1576148e0614887565b5b50919050565b600081905092915050565b60008190508160005260206000209050919050565b60008154614914816148b6565b61491e81866148e7565b94506001821660008114614939576001811461494e57614981565b60ff1983168652811515820286019350614981565b614957856148f2565b60005b838110156149795781548189015260018201915060208101905061495a565b838801955050505b50505092915050565b60006149968284614907565b915081905092915050565b7f4e487b7100000000000000000000000000000000000000000000000000000000600052603260045260246000fd5b7f4e487b7100000000000000000000000000000000000000000000000000000000600052601160045260246000fd5b6000614a0a82613adc565b91507fffffffffffffffffffffffffffffffffffffffffffffffffffffffffffffffff8203614a3c57614a3b6149d0565b5b600182019050919050565b6000614a5282613adc565b9150614a5d83613adc565b9250828201905080821115614a7557614a746149d0565b5b92915050565b60008190508160005260206000209050919050565b60006020601f8301049050919050565b600082821b905092915050565b600060088302614add7fffffffffffffffffffffffffffffffffffffffffffffffffffffffffffffffff82614aa0565b614ae78683614aa0565b95508019841693508086168417925050509392505050565b6000819050919050565b6000614b24614b1f614b1a84613adc565b614aff565b613adc565b9050919050565b6000819050919050565b614b3e83614b09565b614b52614b4a82614b2b565b848454614aad565b825550505050565b600090565b614b67614b5a565b614b72818484614b35565b505050565b5b81811015614b9657614b8b600082614b5f565b600181019050614b78565b5050565b601f821115614bdb57614bac81614a7b565b614bb584614a90565b81016020851015614bc4578190505b614bd8614bd085614a90565b830182614b77565b50505b505050565b600082821c905092915050565b6000614bfe60001984600802614be0565b1980831691505092915050565b6000614c178383614bed565b9150826002028217905092915050565b614c30826139a5565b67ffffffffffffffff811115614c4957614c48613805565b5b614c5382546148b6565b614c5e828285614b9a565b600060209050601f831160018114614c915760008415614c7f578287015190505b614c898582614c0b565b865550614cf1565b601f198416614c9f86614a7b565b60005b82811015614cc757848901518255600182019150602085019450602081019050614ca2565b86831015614ce45784890151614ce0601f891682614bed565b8355505b6001600288020188555050505b50505050505056fea264697066735822122050d350632a49b4eb9dee8fe1acdaebb57cbac822eba5a8d3d1c1caed8a6bf9da64736f6c63430008110033","opcodes":"PUSH1 0x80 PUSH1 0x40 MSTORE CALLVALUE DUP1 ISZERO PUSH2 0x10 JUMPI PUSH1 0x0 DUP1 REVERT JUMPDEST POP PUSH2 0x4D2F DUP1 PUSH2 0x20 PUSH1 0x0 CODECOPY PUSH1 0x0 RETURN INVALID PUSH1 0x80 PUSH1 0x40 MSTORE CALLVALUE DUP1 ISZERO PUSH2 0x10 JUMPI PUSH1 0x0 DUP1 REVERT JUMPDEST POP PUSH1 0x4 CALLDATASIZE LT PUSH2 0x383 JUMPI PUSH1 0x0 CALLDATALOAD PUSH1 0xE0 SHR DUP1 PUSH4 0x89E93784 GT PUSH2 0x1DE JUMPI DUP1 PUSH4 0xB527D45E GT PUSH2 0x10F JUMPI DUP1 PUSH4 0xCACE8D46 GT PUSH2 0xAD JUMPI DUP1 PUSH4 0xDDDB6F86 GT PUSH2 0x7C JUMPI DUP1 PUSH4 0xDDDB6F86 EQ PUSH2 0xBE7 JUMPI DUP1 PUSH4 0xE32ACC1A EQ PUSH2 0xC17 JUMPI DUP1 PUSH4 0xEC245802 EQ PUSH2 0xC47 JUMPI DUP1 PUSH4 0xFF4A37EF EQ PUSH2 0xC65 JUMPI PUSH2 0x383 JUMP JUMPDEST DUP1 PUSH4 0xCACE8D46 EQ PUSH2 0xB36 JUMPI DUP1 PUSH4 0xCD230809 EQ PUSH2 0xB69 JUMPI DUP1 PUSH4 0xD3791B20 EQ PUSH2 0xB99 JUMPI DUP1 PUSH4 0xD9FC52DB EQ PUSH2 0xBB7 JUMPI PUSH2 0x383 JUMP JUMPDEST DUP1 PUSH4 0xC04FE978 GT PUSH2 0xE9 JUMPI DUP1 PUSH4 0xC04FE978 EQ PUSH2 0xAAE JUMPI DUP1 PUSH4 0xC29595C5 EQ PUSH2 0xACC JUMPI DUP1 PUSH4 0xCA013F17 EQ PUSH2 0xAE8 JUMPI DUP1 PUSH4 0xCA982104 EQ PUSH2 0xB06 JUMPI PUSH2 0x383 JUMP JUMPDEST DUP1 PUSH4 0xB527D45E EQ PUSH2 0xA43 JUMPI DUP1 PUSH4 0xBDA00335 EQ PUSH2 0xA76 JUMPI DUP1 PUSH4 0xC04E7430 EQ PUSH2 0xA92 JUMPI PUSH2 0x383 JUMP JUMPDEST DUP1 PUSH4 0xA36ADB9F GT PUSH2 0x17C JUMPI DUP1 PUSH4 0xAA2BF5D3 GT PUSH2 0x156 JUMPI DUP1 PUSH4 0xAA2BF5D3 EQ PUSH2 0x9BB JUMPI DUP1 PUSH4 0xAA4CDF2A EQ PUSH2 0x9D9 JUMPI DUP1 PUSH4 0xB16060A6 EQ PUSH2 0xA09 JUMPI DUP1 PUSH4 0xB39A38BD EQ PUSH2 0xA13 JUMPI PUSH2 0x383 JUMP JUMPDEST DUP1 PUSH4 0xA36ADB9F EQ PUSH2 0x923 JUMPI DUP1 PUSH4 0xA428A47F EQ PUSH2 0x953 JUMPI DUP1 PUSH4 0xA807C20E EQ PUSH2 0x98B JUMPI PUSH2 0x383 JUMP JUMPDEST DUP1 PUSH4 0x9077007D GT PUSH2 0x1B8 JUMPI DUP1 PUSH4 0x9077007D EQ PUSH2 0x887 JUMPI DUP1 PUSH4 0x934C5F00 EQ PUSH2 0x8A5 JUMPI DUP1 PUSH4 0x97EE7606 EQ PUSH2 0x8D5 JUMPI DUP1 PUSH4 0xA1CA9178 EQ PUSH2 0x8F3 JUMPI PUSH2 0x383 JUMP JUMPDEST DUP1 PUSH4 0x89E93784 EQ PUSH2 0x809 JUMPI DUP1 PUSH4 0x8AC4110C EQ PUSH2 0x839 JUMPI DUP1 PUSH4 0x8D3D2595 EQ PUSH2 0x857 JUMPI PUSH2 0x383 JUMP JUMPDEST DUP1 PUSH4 0x4A797BD7 GT PUSH2 0x2B8 JUMPI DUP1 PUSH4 0x7FC543EC GT PUSH2 0x256 JUMPI DUP1 PUSH4 0x829A5D98 GT PUSH2 0x230 JUMPI DUP1 PUSH4 0x829A5D98 EQ PUSH2 0x771 JUMPI DUP1 PUSH4 0x86FFA45B EQ PUSH2 0x7A1 JUMPI DUP1 PUSH4 0x87633EB2 EQ PUSH2 0x7D1 JUMPI DUP1 PUSH4 0x881DE858 EQ PUSH2 0x7ED JUMPI PUSH2 0x383 JUMP JUMPDEST DUP1 PUSH4 0x7FC543EC EQ PUSH2 0x6F3 JUMPI DUP1 PUSH4 0x812FAE1F EQ PUSH2 0x725 JUMPI DUP1 PUSH4 0x826EEEFE EQ PUSH2 0x755 JUMPI PUSH2 0x383 JUMP JUMPDEST DUP1 PUSH4 0x6ECDA4EE GT PUSH2 0x292 JUMPI DUP1 PUSH4 0x6ECDA4EE EQ PUSH2 0x658 JUMPI DUP1 PUSH4 0x7BBD582D EQ PUSH2 0x688 JUMPI DUP1 PUSH4 0x7BC9724B EQ PUSH2 0x6A6 JUMPI DUP1 PUSH4 0x7F2035D4 EQ PUSH2 0x6C2 JUMPI PUSH2 0x383 JUMP JUMPDEST DUP1 PUSH4 0x4A797BD7 EQ PUSH2 0x5D7 JUMPI DUP1 PUSH4 0x54A9FB18 EQ PUSH2 0x5F5 JUMPI DUP1 PUSH4 0x5D907DA1 EQ PUSH2 0x628 JUMPI PUSH2 0x383 JUMP JUMPDEST DUP1 PUSH4 0x20959ED0 GT PUSH2 0x325 JUMPI DUP1 PUSH4 0x330B8F26 GT PUSH2 0x2FF JUMPI DUP1 PUSH4 0x330B8F26 EQ PUSH2 0x510 JUMPI DUP1 PUSH4 0x3F87A2F4 EQ PUSH2 0x542 JUMPI DUP1 PUSH4 0x42F78F47 EQ PUSH2 0x575 JUMPI DUP1 PUSH4 0x468D0C80 EQ PUSH2 0x5A5 JUMPI PUSH2 0x383 JUMP JUMPDEST DUP1 PUSH4 0x20959ED0 EQ PUSH2 0x490 JUMPI DUP1 PUSH4 0x27A568B9 EQ PUSH2 0x4C0 JUMPI DUP1 PUSH4 0x29B56F60 EQ PUSH2 0x4F2 JUMPI PUSH2 0x383 JUMP JUMPDEST DUP1 PUSH4 0x1B592AEB GT PUSH2 0x361 JUMPI DUP1 PUSH4 0x1B592AEB EQ PUSH2 0x3F4 JUMPI DUP1 PUSH4 0x1BA44C4C EQ PUSH2 0x412 JUMPI DUP1 PUSH4 0x1E9AC9F5 EQ PUSH2 0x444 JUMPI DUP1 PUSH4 0x1FD4D664 EQ PUSH2 0x474 JUMPI PUSH2 0x383 JUMP JUMPDEST DUP1 PUSH4 0x377D44A EQ PUSH2 0x388 JUMPI DUP1 PUSH4 0x1171B621 EQ PUSH2 0x3B8 JUMPI DUP1 PUSH4 0x13BF4CEA EQ PUSH2 0x3D6 JUMPI JUMPDEST PUSH1 0x0 DUP1 REVERT JUMPDEST PUSH2 0x3A2 PUSH1 0x4 DUP1 CALLDATASIZE SUB DUP2 ADD SWAP1 PUSH2 0x39D SWAP2 SWAP1 PUSH2 0x3930 JUMP JUMPDEST PUSH2 0xC97 JUMP JUMPDEST PUSH1 0x40 MLOAD PUSH2 0x3AF SWAP2 SWAP1 PUSH2 0x3ABA JUMP JUMPDEST PUSH1 0x40 MLOAD DUP1 SWAP2 SUB SWAP1 RETURN JUMPDEST PUSH2 0x3C0 PUSH2 0xE21 JUMP JUMPDEST PUSH1 0x40 MLOAD PUSH2 0x3CD SWAP2 SWAP1 PUSH2 0x3AF5 JUMP JUMPDEST PUSH1 0x40 MLOAD DUP1 SWAP2 SUB SWAP1 RETURN JUMPDEST PUSH2 0x3DE PUSH2 0xE27 JUMP JUMPDEST PUSH1 0x40 MLOAD PUSH2 0x3EB SWAP2 SWAP1 PUSH2 0x3AF5 JUMP JUMPDEST PUSH1 0x40 MLOAD DUP1 SWAP2 SUB SWAP1 RETURN JUMPDEST PUSH2 0x3FC PUSH2 0xE2D JUMP JUMPDEST PUSH1 0x40 MLOAD PUSH2 0x409 SWAP2 SWAP1 PUSH2 0x3AF5 JUMP JUMPDEST PUSH1 0x40 MLOAD DUP1 SWAP2 SUB SWAP1 RETURN JUMPDEST PUSH2 0x42C PUSH1 0x4 DUP1 CALLDATASIZE SUB DUP2 ADD SWAP1 PUSH2 0x427 SWAP2 SWAP1 PUSH2 0x3B3C JUMP JUMPDEST PUSH2 0xE33 JUMP JUMPDEST PUSH1 0x40 MLOAD PUSH2 0x43B SWAP4 SWAP3 SWAP2 SWAP1 PUSH2 0x3BB3 JUMP JUMPDEST PUSH1 0x40 MLOAD DUP1 SWAP2 SUB SWAP1 RETURN JUMPDEST PUSH2 0x45E PUSH1 0x4 DUP1 CALLDATASIZE SUB DUP2 ADD SWAP1 PUSH2 0x459 SWAP2 SWAP1 PUSH2 0x3930 JUMP JUMPDEST PUSH2 0xF6D JUMP JUMPDEST PUSH1 0x40 MLOAD PUSH2 0x46B SWAP2 SWAP1 PUSH2 0x3AF5 JUMP JUMPDEST PUSH1 0x40 MLOAD DUP1 SWAP2 SUB SWAP1 RETURN JUMPDEST PUSH2 0x48E PUSH1 0x4 DUP1 CALLDATASIZE SUB DUP2 ADD SWAP1 PUSH2 0x489 SWAP2 SWAP1 PUSH2 0x3BF8 JUMP JUMPDEST PUSH2 0xFDE JUMP JUMPDEST STOP JUMPDEST PUSH2 0x4AA PUSH1 0x4 DUP1 CALLDATASIZE SUB DUP2 ADD SWAP1 PUSH2 0x4A5 SWAP2 SWAP1 PUSH2 0x3B3C JUMP JUMPDEST PUSH2 0x1161 JUMP JUMPDEST PUSH1 0x40 MLOAD PUSH2 0x4B7 SWAP2 SWAP1 PUSH2 0x3AF5 JUMP JUMPDEST PUSH1 0x40 MLOAD DUP1 SWAP2 SUB SWAP1 RETURN JUMPDEST PUSH2 0x4DA PUSH1 0x4 DUP1 CALLDATASIZE SUB DUP2 ADD SWAP1 PUSH2 0x4D5 SWAP2 SWAP1 PUSH2 0x3B3C JUMP JUMPDEST PUSH2 0x1179 JUMP JUMPDEST PUSH1 0x40 MLOAD PUSH2 0x4E9 SWAP4 SWAP3 SWAP2 SWAP1 PUSH2 0x3CC7 JUMP JUMPDEST PUSH1 0x40 MLOAD DUP1 SWAP2 SUB SWAP1 RETURN JUMPDEST PUSH2 0x4FA PUSH2 0x133B JUMP JUMPDEST PUSH1 0x40 MLOAD PUSH2 0x507 SWAP2 SWAP1 PUSH2 0x3ABA JUMP JUMPDEST PUSH1 0x40 MLOAD DUP1 SWAP2 SUB SWAP1 RETURN JUMPDEST PUSH2 0x52A PUSH1 0x4 DUP1 CALLDATASIZE SUB DUP2 ADD SWAP1 PUSH2 0x525 SWAP2 SWAP1 PUSH2 0x3B3C JUMP JUMPDEST PUSH2 0x1476 JUMP JUMPDEST PUSH1 0x40 MLOAD PUSH2 0x539 SWAP4 SWAP3 SWAP2 SWAP1 PUSH2 0x3D13 JUMP JUMPDEST PUSH1 0x40 MLOAD DUP1 SWAP2 SUB SWAP1 RETURN JUMPDEST PUSH2 0x55C PUSH1 0x4 DUP1 CALLDATASIZE SUB DUP2 ADD SWAP1 PUSH2 0x557 SWAP2 SWAP1 PUSH2 0x3B3C JUMP JUMPDEST PUSH2 0x15B0 JUMP JUMPDEST PUSH1 0x40 MLOAD PUSH2 0x56C SWAP5 SWAP4 SWAP3 SWAP2 SWAP1 PUSH2 0x3D58 JUMP JUMPDEST PUSH1 0x40 MLOAD DUP1 SWAP2 SUB SWAP1 RETURN JUMPDEST PUSH2 0x58F PUSH1 0x4 DUP1 CALLDATASIZE SUB DUP2 ADD SWAP1 PUSH2 0x58A SWAP2 SWAP1 PUSH2 0x3930 JUMP JUMPDEST PUSH2 0x1668 JUMP JUMPDEST PUSH1 0x40 MLOAD PUSH2 0x59C SWAP2 SWAP1 PUSH2 0x3E62 JUMP JUMPDEST PUSH1 0x40 MLOAD DUP1 SWAP2 SUB SWAP1 RETURN JUMPDEST PUSH2 0x5BF PUSH1 0x4 DUP1 CALLDATASIZE SUB DUP2 ADD SWAP1 PUSH2 0x5BA SWAP2 SWAP1 PUSH2 0x3B3C JUMP JUMPDEST PUSH2 0x1766 JUMP JUMPDEST PUSH1 0x40 MLOAD PUSH2 0x5CE SWAP4 SWAP3 SWAP2 SWAP1 PUSH2 0x3BB3 JUMP JUMPDEST PUSH1 0x40 MLOAD DUP1 SWAP2 SUB SWAP1 RETURN JUMPDEST PUSH2 0x5DF PUSH2 0x18A0 JUMP JUMPDEST PUSH1 0x40 MLOAD PUSH2 0x5EC SWAP2 SWAP1 PUSH2 0x3AF5 JUMP JUMPDEST PUSH1 0x40 MLOAD DUP1 SWAP2 SUB SWAP1 RETURN JUMPDEST PUSH2 0x60F PUSH1 0x4 DUP1 CALLDATASIZE SUB DUP2 ADD SWAP1 PUSH2 0x60A SWAP2 SWAP1 PUSH2 0x3B3C JUMP JUMPDEST PUSH2 0x18A6 JUMP JUMPDEST PUSH1 0x40 MLOAD PUSH2 0x61F SWAP5 SWAP4 SWAP3 SWAP2 SWAP1 PUSH2 0x3E84 JUMP JUMPDEST PUSH1 0x40 MLOAD DUP1 SWAP2 SUB SWAP1 RETURN JUMPDEST PUSH2 0x642 PUSH1 0x4 DUP1 CALLDATASIZE SUB DUP2 ADD SWAP1 PUSH2 0x63D SWAP2 SWAP1 PUSH2 0x3B3C JUMP JUMPDEST PUSH2 0x19E6 JUMP JUMPDEST PUSH1 0x40 MLOAD PUSH2 0x64F SWAP2 SWAP1 PUSH2 0x3ED7 JUMP JUMPDEST PUSH1 0x40 MLOAD DUP1 SWAP2 SUB SWAP1 RETURN JUMPDEST PUSH2 0x672 PUSH1 0x4 DUP1 CALLDATASIZE SUB DUP2 ADD SWAP1 PUSH2 0x66D SWAP2 SWAP1 PUSH2 0x3B3C JUMP JUMPDEST PUSH2 0x1A8E JUMP JUMPDEST PUSH1 0x40 MLOAD PUSH2 0x67F SWAP2 SWAP1 PUSH2 0x3ED7 JUMP JUMPDEST PUSH1 0x40 MLOAD DUP1 SWAP2 SUB SWAP1 RETURN JUMPDEST PUSH2 0x690 PUSH2 0x1B2E JUMP JUMPDEST PUSH1 0x40 MLOAD PUSH2 0x69D SWAP2 SWAP1 PUSH2 0x3AF5 JUMP JUMPDEST PUSH1 0x40 MLOAD DUP1 SWAP2 SUB SWAP1 RETURN JUMPDEST PUSH2 0x6C0 PUSH1 0x4 DUP1 CALLDATASIZE SUB DUP2 ADD SWAP1 PUSH2 0x6BB SWAP2 SWAP1 PUSH2 0x3EF9 JUMP JUMPDEST PUSH2 0x1B34 JUMP JUMPDEST STOP JUMPDEST PUSH2 0x6DC PUSH1 0x4 DUP1 CALLDATASIZE SUB DUP2 ADD SWAP1 PUSH2 0x6D7 SWAP2 SWAP1 PUSH2 0x3B3C JUMP JUMPDEST PUSH2 0x1C29 JUMP JUMPDEST PUSH1 0x40 MLOAD PUSH2 0x6EA SWAP3 SWAP2 SWAP1 PUSH2 0x3FB4 JUMP JUMPDEST PUSH1 0x40 MLOAD DUP1 SWAP2 SUB SWAP1 RETURN JUMPDEST PUSH2 0x70D PUSH1 0x4 DUP1 CALLDATASIZE SUB DUP2 ADD SWAP1 PUSH2 0x708 SWAP2 SWAP1 PUSH2 0x3B3C JUMP JUMPDEST PUSH2 0x1D5D JUMP JUMPDEST PUSH1 0x40 MLOAD PUSH2 0x71C SWAP4 SWAP3 SWAP2 SWAP1 PUSH2 0x3FEB JUMP JUMPDEST PUSH1 0x40 MLOAD DUP1 SWAP2 SUB SWAP1 RETURN JUMPDEST PUSH2 0x73F PUSH1 0x4 DUP1 CALLDATASIZE SUB DUP2 ADD SWAP1 PUSH2 0x73A SWAP2 SWAP1 PUSH2 0x3B3C JUMP JUMPDEST PUSH2 0x1E0F JUMP JUMPDEST PUSH1 0x40 MLOAD PUSH2 0x74C SWAP2 SWAP1 PUSH2 0x3E62 JUMP JUMPDEST PUSH1 0x40 MLOAD DUP1 SWAP2 SUB SWAP1 RETURN JUMPDEST PUSH2 0x76F PUSH1 0x4 DUP1 CALLDATASIZE SUB DUP2 ADD SWAP1 PUSH2 0x76A SWAP2 SWAP1 PUSH2 0x3B3C JUMP JUMPDEST PUSH2 0x1EF2 JUMP JUMPDEST STOP JUMPDEST PUSH2 0x78B PUSH1 0x4 DUP1 CALLDATASIZE SUB DUP2 ADD SWAP1 PUSH2 0x786 SWAP2 SWAP1 PUSH2 0x3930 JUMP JUMPDEST PUSH2 0x1FA2 JUMP JUMPDEST PUSH1 0x40 MLOAD PUSH2 0x798 SWAP2 SWAP1 PUSH2 0x3ABA JUMP JUMPDEST PUSH1 0x40 MLOAD DUP1 SWAP2 SUB SWAP1 RETURN JUMPDEST PUSH2 0x7BB PUSH1 0x4 DUP1 CALLDATASIZE SUB DUP2 ADD SWAP1 PUSH2 0x7B6 SWAP2 SWAP1 PUSH2 0x4029 JUMP JUMPDEST PUSH2 0x212C JUMP JUMPDEST PUSH1 0x40 MLOAD PUSH2 0x7C8 SWAP2 SWAP1 PUSH2 0x3AF5 JUMP JUMPDEST PUSH1 0x40 MLOAD DUP1 SWAP2 SUB SWAP1 RETURN JUMPDEST PUSH2 0x7EB PUSH1 0x4 DUP1 CALLDATASIZE SUB DUP2 ADD SWAP1 PUSH2 0x7E6 SWAP2 SWAP1 PUSH2 0x40E4 JUMP JUMPDEST PUSH2 0x224C JUMP JUMPDEST STOP JUMPDEST PUSH2 0x807 PUSH1 0x4 DUP1 CALLDATASIZE SUB DUP2 ADD SWAP1 PUSH2 0x802 SWAP2 SWAP1 PUSH2 0x4140 JUMP JUMPDEST PUSH2 0x2271 JUMP JUMPDEST STOP JUMPDEST PUSH2 0x823 PUSH1 0x4 DUP1 CALLDATASIZE SUB DUP2 ADD SWAP1 PUSH2 0x81E SWAP2 SWAP1 PUSH2 0x4203 JUMP JUMPDEST PUSH2 0x22BE JUMP JUMPDEST PUSH1 0x40 MLOAD PUSH2 0x830 SWAP2 SWAP1 PUSH2 0x3AF5 JUMP JUMPDEST PUSH1 0x40 MLOAD DUP1 SWAP2 SUB SWAP1 RETURN JUMPDEST PUSH2 0x841 PUSH2 0x23C4 JUMP JUMPDEST PUSH1 0x40 MLOAD PUSH2 0x84E SWAP2 SWAP1 PUSH2 0x3AF5 JUMP JUMPDEST PUSH1 0x40 MLOAD DUP1 SWAP2 SUB SWAP1 RETURN JUMPDEST PUSH2 0x871 PUSH1 0x4 DUP1 CALLDATASIZE SUB DUP2 ADD SWAP1 PUSH2 0x86C SWAP2 SWAP1 PUSH2 0x3B3C JUMP JUMPDEST PUSH2 0x23CA JUMP JUMPDEST PUSH1 0x40 MLOAD PUSH2 0x87E SWAP2 SWAP1 PUSH2 0x3ED7 JUMP JUMPDEST PUSH1 0x40 MLOAD DUP1 SWAP2 SUB SWAP1 RETURN JUMPDEST PUSH2 0x88F PUSH2 0x2472 JUMP JUMPDEST PUSH1 0x40 MLOAD PUSH2 0x89C SWAP2 SWAP1 PUSH2 0x3AF5 JUMP JUMPDEST PUSH1 0x40 MLOAD DUP1 SWAP2 SUB SWAP1 RETURN JUMPDEST PUSH2 0x8BF PUSH1 0x4 DUP1 CALLDATASIZE SUB DUP2 ADD SWAP1 PUSH2 0x8BA SWAP2 SWAP1 PUSH2 0x42D2 JUMP JUMPDEST PUSH2 0x2478 JUMP JUMPDEST PUSH1 0x40 MLOAD PUSH2 0x8CC SWAP2 SWAP1 PUSH2 0x3AF5 JUMP JUMPDEST PUSH1 0x40 MLOAD DUP1 SWAP2 SUB SWAP1 RETURN JUMPDEST PUSH2 0x8DD PUSH2 0x250C JUMP JUMPDEST PUSH1 0x40 MLOAD PUSH2 0x8EA SWAP2 SWAP1 PUSH2 0x3ABA JUMP JUMPDEST PUSH1 0x40 MLOAD DUP1 SWAP2 SUB SWAP1 RETURN JUMPDEST PUSH2 0x90D PUSH1 0x4 DUP1 CALLDATASIZE SUB DUP2 ADD SWAP1 PUSH2 0x908 SWAP2 SWAP1 PUSH2 0x3930 JUMP JUMPDEST PUSH2 0x2647 JUMP JUMPDEST PUSH1 0x40 MLOAD PUSH2 0x91A SWAP2 SWAP1 PUSH2 0x3AF5 JUMP JUMPDEST PUSH1 0x40 MLOAD DUP1 SWAP2 SUB SWAP1 RETURN JUMPDEST PUSH2 0x93D PUSH1 0x4 DUP1 CALLDATASIZE SUB DUP2 ADD SWAP1 PUSH2 0x938 SWAP2 SWAP1 PUSH2 0x4355 JUMP JUMPDEST PUSH2 0x26B8 JUMP JUMPDEST PUSH1 0x40 MLOAD PUSH2 0x94A SWAP2 SWAP1 PUSH2 0x3AF5 JUMP JUMPDEST PUSH1 0x40 MLOAD DUP1 SWAP2 SUB SWAP1 RETURN JUMPDEST PUSH2 0x96D PUSH1 0x4 DUP1 CALLDATASIZE SUB DUP2 ADD SWAP1 PUSH2 0x968 SWAP2 SWAP1 PUSH2 0x3B3C JUMP JUMPDEST PUSH2 0x274D JUMP JUMPDEST PUSH1 0x40 MLOAD PUSH2 0x982 SWAP10 SWAP9 SWAP8 SWAP7 SWAP6 SWAP5 SWAP4 SWAP3 SWAP2 SWAP1 PUSH2 0x43C0 JUMP JUMPDEST PUSH1 0x40 MLOAD DUP1 SWAP2 SUB SWAP1 RETURN JUMPDEST PUSH2 0x9A5 PUSH1 0x4 DUP1 CALLDATASIZE SUB DUP2 ADD SWAP1 PUSH2 0x9A0 SWAP2 SWAP1 PUSH2 0x4355 JUMP JUMPDEST PUSH2 0x2803 JUMP JUMPDEST PUSH1 0x40 MLOAD PUSH2 0x9B2 SWAP2 SWAP1 PUSH2 0x444D JUMP JUMPDEST PUSH1 0x40 MLOAD DUP1 SWAP2 SUB SWAP1 RETURN JUMPDEST PUSH2 0x9C3 PUSH2 0x2898 JUMP JUMPDEST PUSH1 0x40 MLOAD PUSH2 0x9D0 SWAP2 SWAP1 PUSH2 0x3AF5 JUMP JUMPDEST PUSH1 0x40 MLOAD DUP1 SWAP2 SUB SWAP1 RETURN JUMPDEST PUSH2 0x9F3 PUSH1 0x4 DUP1 CALLDATASIZE SUB DUP2 ADD SWAP1 PUSH2 0x9EE SWAP2 SWAP1 PUSH2 0x3930 JUMP JUMPDEST PUSH2 0x289E JUMP JUMPDEST PUSH1 0x40 MLOAD PUSH2 0xA00 SWAP2 SWAP1 PUSH2 0x3ED7 JUMP JUMPDEST PUSH1 0x40 MLOAD DUP1 SWAP2 SUB SWAP1 RETURN JUMPDEST PUSH2 0xA11 PUSH2 0x29B8 JUMP JUMPDEST STOP JUMPDEST PUSH2 0xA2D PUSH1 0x4 DUP1 CALLDATASIZE SUB DUP2 ADD SWAP1 PUSH2 0xA28 SWAP2 SWAP1 PUSH2 0x4468 JUMP JUMPDEST PUSH2 0x2C8A JUMP JUMPDEST PUSH1 0x40 MLOAD PUSH2 0xA3A SWAP2 SWAP1 PUSH2 0x3AF5 JUMP JUMPDEST PUSH1 0x40 MLOAD DUP1 SWAP2 SUB SWAP1 RETURN JUMPDEST PUSH2 0xA5D PUSH1 0x4 DUP1 CALLDATASIZE SUB DUP2 ADD SWAP1 PUSH2 0xA58 SWAP2 SWAP1 PUSH2 0x3B3C JUMP JUMPDEST PUSH2 0x2D78 JUMP JUMPDEST PUSH1 0x40 MLOAD PUSH2 0xA6D SWAP5 SWAP4 SWAP3 SWAP2 SWAP1 PUSH2 0x4523 JUMP JUMPDEST PUSH1 0x40 MLOAD DUP1 SWAP2 SUB SWAP1 RETURN JUMPDEST PUSH2 0xA90 PUSH1 0x4 DUP1 CALLDATASIZE SUB DUP2 ADD SWAP1 PUSH2 0xA8B SWAP2 SWAP1 PUSH2 0x457D JUMP JUMPDEST PUSH2 0x2F40 JUMP JUMPDEST STOP JUMPDEST PUSH2 0xAAC PUSH1 0x4 DUP1 CALLDATASIZE SUB DUP2 ADD SWAP1 PUSH2 0xAA7 SWAP2 SWAP1 PUSH2 0x40E4 JUMP JUMPDEST PUSH2 0x2FD7 JUMP JUMPDEST STOP JUMPDEST PUSH2 0xAB6 PUSH2 0x2FFF JUMP JUMPDEST PUSH1 0x40 MLOAD PUSH2 0xAC3 SWAP2 SWAP1 PUSH2 0x3ABA JUMP JUMPDEST PUSH1 0x40 MLOAD DUP1 SWAP2 SUB SWAP1 RETURN JUMPDEST PUSH2 0xAE6 PUSH1 0x4 DUP1 CALLDATASIZE SUB DUP2 ADD SWAP1 PUSH2 0xAE1 SWAP2 SWAP1 PUSH2 0x40E4 JUMP JUMPDEST PUSH2 0x3139 JUMP JUMPDEST STOP JUMPDEST PUSH2 0xAF0 PUSH2 0x3161 JUMP JUMPDEST PUSH1 0x40 MLOAD PUSH2 0xAFD SWAP2 SWAP1 PUSH2 0x3AF5 JUMP JUMPDEST PUSH1 0x40 MLOAD DUP1 SWAP2 SUB SWAP1 RETURN JUMPDEST PUSH2 0xB20 PUSH1 0x4 DUP1 CALLDATASIZE SUB DUP2 ADD SWAP1 PUSH2 0xB1B SWAP2 SWAP1 PUSH2 0x4029 JUMP JUMPDEST PUSH2 0x3167 JUMP JUMPDEST PUSH1 0x40 MLOAD PUSH2 0xB2D SWAP2 SWAP1 PUSH2 0x3AF5 JUMP JUMPDEST PUSH1 0x40 MLOAD DUP1 SWAP2 SUB SWAP1 RETURN JUMPDEST PUSH2 0xB50 PUSH1 0x4 DUP1 CALLDATASIZE SUB DUP2 ADD SWAP1 PUSH2 0xB4B SWAP2 SWAP1 PUSH2 0x3B3C JUMP JUMPDEST PUSH2 0x3244 JUMP JUMPDEST PUSH1 0x40 MLOAD PUSH2 0xB60 SWAP5 SWAP4 SWAP3 SWAP2 SWAP1 PUSH2 0x3D58 JUMP JUMPDEST PUSH1 0x40 MLOAD DUP1 SWAP2 SUB SWAP1 RETURN JUMPDEST PUSH2 0xB83 PUSH1 0x4 DUP1 CALLDATASIZE SUB DUP2 ADD SWAP1 PUSH2 0xB7E SWAP2 SWAP1 PUSH2 0x40E4 JUMP JUMPDEST PUSH2 0x32FC JUMP JUMPDEST PUSH1 0x40 MLOAD PUSH2 0xB90 SWAP2 SWAP1 PUSH2 0x444D JUMP JUMPDEST PUSH1 0x40 MLOAD DUP1 SWAP2 SUB SWAP1 RETURN JUMPDEST PUSH2 0xBA1 PUSH2 0x338D JUMP JUMPDEST PUSH1 0x40 MLOAD PUSH2 0xBAE SWAP2 SWAP1 PUSH2 0x3AF5 JUMP JUMPDEST PUSH1 0x40 MLOAD DUP1 SWAP2 SUB SWAP1 RETURN JUMPDEST PUSH2 0xBD1 PUSH1 0x4 DUP1 CALLDATASIZE SUB DUP2 ADD SWAP1 PUSH2 0xBCC SWAP2 SWAP1 PUSH2 0x45F5 JUMP JUMPDEST PUSH2 0x3393 JUMP JUMPDEST PUSH1 0x40 MLOAD PUSH2 0xBDE SWAP2 SWAP1 PUSH2 0x3AF5 JUMP JUMPDEST PUSH1 0x40 MLOAD DUP1 SWAP2 SUB SWAP1 RETURN JUMPDEST PUSH2 0xC01 PUSH1 0x4 DUP1 CALLDATASIZE SUB DUP2 ADD SWAP1 PUSH2 0xBFC SWAP2 SWAP1 PUSH2 0x475E JUMP JUMPDEST PUSH2 0x3458 JUMP JUMPDEST PUSH1 0x40 MLOAD PUSH2 0xC0E SWAP2 SWAP1 PUSH2 0x3AF5 JUMP JUMPDEST PUSH1 0x40 MLOAD DUP1 SWAP2 SUB SWAP1 RETURN JUMPDEST PUSH2 0xC31 PUSH1 0x4 DUP1 CALLDATASIZE SUB DUP2 ADD SWAP1 PUSH2 0xC2C SWAP2 SWAP1 PUSH2 0x3B3C JUMP JUMPDEST PUSH2 0x35B9 JUMP JUMPDEST PUSH1 0x40 MLOAD PUSH2 0xC3E SWAP2 SWAP1 PUSH2 0x3ED7 JUMP JUMPDEST PUSH1 0x40 MLOAD DUP1 SWAP2 SUB SWAP1 RETURN JUMPDEST PUSH2 0xC4F PUSH2 0x3661 JUMP JUMPDEST PUSH1 0x40 MLOAD PUSH2 0xC5C SWAP2 SWAP1 PUSH2 0x3AF5 JUMP JUMPDEST PUSH1 0x40 MLOAD DUP1 SWAP2 SUB SWAP1 RETURN JUMPDEST PUSH2 0xC7F PUSH1 0x4 DUP1 CALLDATASIZE SUB DUP2 ADD SWAP1 PUSH2 0xC7A SWAP2 SWAP1 PUSH2 0x3B3C JUMP JUMPDEST PUSH2 0x3667 JUMP JUMPDEST PUSH1 0x40 MLOAD PUSH2 0xC8E SWAP4 SWAP3 SWAP2 SWAP1 PUSH2 0x4849 JUMP JUMPDEST PUSH1 0x40 MLOAD DUP1 SWAP2 SUB SWAP1 RETURN JUMPDEST PUSH1 0x60 PUSH1 0x0 PUSH1 0x2 SLOAD PUSH8 0xFFFFFFFFFFFFFFFF DUP2 GT ISZERO PUSH2 0xCB7 JUMPI PUSH2 0xCB6 PUSH2 0x3805 JUMP JUMPDEST JUMPDEST PUSH1 0x40 MLOAD SWAP1 DUP1 DUP3 MSTORE DUP1 PUSH1 0x20 MUL PUSH1 0x20 ADD DUP3 ADD PUSH1 0x40 MSTORE DUP1 ISZERO PUSH2 0xCEA JUMPI DUP2 PUSH1 0x20 ADD JUMPDEST PUSH1 0x60 DUP2 MSTORE PUSH1 0x20 ADD SWAP1 PUSH1 0x1 SWAP1 SUB SWAP1 DUP2 PUSH2 0xCD5 JUMPI SWAP1 POP JUMPDEST POP SWAP1 POP PUSH1 0x0 DUP1 PUSH1 0x0 SWAP1 POP JUMPDEST PUSH1 0x2 SLOAD DUP2 LT ISZERO PUSH2 0xE16 JUMPI DUP5 DUP1 MLOAD SWAP1 PUSH1 0x20 ADD KECCAK256 PUSH1 0xE PUSH1 0x0 DUP4 DUP2 MSTORE PUSH1 0x20 ADD SWAP1 DUP2 MSTORE PUSH1 0x20 ADD PUSH1 0x0 KECCAK256 PUSH1 0x0 ADD PUSH1 0x40 MLOAD PUSH2 0xD2A SWAP2 SWAP1 PUSH2 0x498A JUMP JUMPDEST PUSH1 0x40 MLOAD DUP1 SWAP2 SUB SWAP1 KECCAK256 SUB PUSH2 0xE03 JUMPI PUSH1 0xE PUSH1 0x0 DUP3 DUP2 MSTORE PUSH1 0x20 ADD SWAP1 DUP2 MSTORE PUSH1 0x20 ADD PUSH1 0x0 KECCAK256 PUSH1 0x1 ADD DUP1 SLOAD PUSH2 0xD58 SWAP1 PUSH2 0x48B6 JUMP JUMPDEST DUP1 PUSH1 0x1F ADD PUSH1 0x20 DUP1 SWAP2 DIV MUL PUSH1 0x20 ADD PUSH1 0x40 MLOAD SWAP1 DUP2 ADD PUSH1 0x40 MSTORE DUP1 SWAP3 SWAP2 SWAP1 DUP2 DUP2 MSTORE PUSH1 0x20 ADD DUP3 DUP1 SLOAD PUSH2 0xD84 SWAP1 PUSH2 0x48B6 JUMP JUMPDEST DUP1 ISZERO PUSH2 0xDD1 JUMPI DUP1 PUSH1 0x1F LT PUSH2 0xDA6 JUMPI PUSH2 0x100 DUP1 DUP4 SLOAD DIV MUL DUP4 MSTORE SWAP2 PUSH1 0x20 ADD SWAP2 PUSH2 0xDD1 JUMP JUMPDEST DUP3 ADD SWAP2 SWAP1 PUSH1 0x0 MSTORE PUSH1 0x20 PUSH1 0x0 KECCAK256 SWAP1 JUMPDEST DUP2 SLOAD DUP2 MSTORE SWAP1 PUSH1 0x1 ADD SWAP1 PUSH1 0x20 ADD DUP1 DUP4 GT PUSH2 0xDB4 JUMPI DUP3 SWAP1 SUB PUSH1 0x1F AND DUP3 ADD SWAP2 JUMPDEST POP POP POP POP POP DUP4 DUP4 DUP2 MLOAD DUP2 LT PUSH2 0xDE9 JUMPI PUSH2 0xDE8 PUSH2 0x49A1 JUMP JUMPDEST JUMPDEST PUSH1 0x20 MUL PUSH1 0x20 ADD ADD DUP2 SWAP1 MSTORE POP DUP2 DUP1 PUSH2 0xDFF SWAP1 PUSH2 0x49FF JUMP JUMPDEST SWAP3 POP POP JUMPDEST DUP1 DUP1 PUSH2 0xE0E SWAP1 PUSH2 0x49FF JUMP JUMPDEST SWAP2 POP POP PUSH2 0xCF5 JUMP JUMPDEST POP DUP2 SWAP3 POP POP POP SWAP2 SWAP1 POP JUMP JUMPDEST PUSH1 0x4 SLOAD DUP2 JUMP JUMPDEST PUSH1 0x2 SLOAD DUP2 JUMP JUMPDEST PUSH1 0x5 SLOAD DUP2 JUMP JUMPDEST PUSH1 0x14 PUSH1 0x20 MSTORE DUP1 PUSH1 0x0 MSTORE PUSH1 0x40 PUSH1 0x0 KECCAK256 PUSH1 0x0 SWAP2 POP SWAP1 POP DUP1 PUSH1 0x0 ADD DUP1 SLOAD PUSH2 0xE56 SWAP1 PUSH2 0x48B6 JUMP JUMPDEST DUP1 PUSH1 0x1F ADD PUSH1 0x20 DUP1 SWAP2 DIV MUL PUSH1 0x20 ADD PUSH1 0x40 MLOAD SWAP1 DUP2 ADD PUSH1 0x40 MSTORE DUP1 SWAP3 SWAP2 SWAP1 DUP2 DUP2 MSTORE PUSH1 0x20 ADD DUP3 DUP1 SLOAD PUSH2 0xE82 SWAP1 PUSH2 0x48B6 JUMP JUMPDEST DUP1 ISZERO PUSH2 0xECF JUMPI DUP1 PUSH1 0x1F LT PUSH2 0xEA4 JUMPI PUSH2 0x100 DUP1 DUP4 SLOAD DIV MUL DUP4 MSTORE SWAP2 PUSH1 0x20 ADD SWAP2 PUSH2 0xECF JUMP JUMPDEST DUP3 ADD SWAP2 SWAP1 PUSH1 0x0 MSTORE PUSH1 0x20 PUSH1 0x0 KECCAK256 SWAP1 JUMPDEST DUP2 SLOAD DUP2 MSTORE SWAP1 PUSH1 0x1 ADD SWAP1 PUSH1 0x20 ADD DUP1 DUP4 GT PUSH2 0xEB2 JUMPI DUP3 SWAP1 SUB PUSH1 0x1F AND DUP3 ADD SWAP2 JUMPDEST POP POP POP POP POP SWAP1 DUP1 PUSH1 0x1 ADD DUP1 SLOAD PUSH2 0xEE4 SWAP1 PUSH2 0x48B6 JUMP JUMPDEST DUP1 PUSH1 0x1F ADD PUSH1 0x20 DUP1 SWAP2 DIV MUL PUSH1 0x20 ADD PUSH1 0x40 MLOAD SWAP1 DUP2 ADD PUSH1 0x40 MSTORE DUP1 SWAP3 SWAP2 SWAP1 DUP2 DUP2 MSTORE PUSH1 0x20 ADD DUP3 DUP1 SLOAD PUSH2 0xF10 SWAP1 PUSH2 0x48B6 JUMP JUMPDEST DUP1 ISZERO PUSH2 0xF5D JUMPI DUP1 PUSH1 0x1F LT PUSH2 0xF32 JUMPI PUSH2 0x100 DUP1 DUP4 SLOAD DIV MUL DUP4 MSTORE SWAP2 PUSH1 0x20 ADD SWAP2 PUSH2 0xF5D JUMP JUMPDEST DUP3 ADD SWAP2 SWAP1 PUSH1 0x0 MSTORE PUSH1 0x20 PUSH1 0x0 KECCAK256 SWAP1 JUMPDEST DUP2 SLOAD DUP2 MSTORE SWAP1 PUSH1 0x1 ADD SWAP1 PUSH1 0x20 ADD DUP1 DUP4 GT PUSH2 0xF40 JUMPI DUP3 SWAP1 SUB PUSH1 0x1F AND DUP3 ADD SWAP2 JUMPDEST POP POP POP POP POP SWAP1 DUP1 PUSH1 0x2 ADD SLOAD SWAP1 POP DUP4 JUMP JUMPDEST PUSH1 0x0 DUP1 PUSH1 0x0 SWAP1 POP JUMPDEST PUSH1 0x2 SLOAD DUP2 LT ISZERO PUSH2 0xFD3 JUMPI DUP3 DUP1 MLOAD SWAP1 PUSH1 0x20 ADD KECCAK256 PUSH1 0xE PUSH1 0x0 DUP4 DUP2 MSTORE PUSH1 0x20 ADD SWAP1 DUP2 MSTORE PUSH1 0x20 ADD PUSH1 0x0 KECCAK256 PUSH1 0x1 ADD PUSH1 0x40 MLOAD PUSH2 0xFAA SWAP2 SWAP1 PUSH2 0x498A JUMP JUMPDEST PUSH1 0x40 MLOAD DUP1 SWAP2 SUB SWAP1 KECCAK256 SUB PUSH2 0xFC0 JUMPI DUP1 SWAP2 POP POP PUSH2 0xFD9 JUMP JUMPDEST DUP1 DUP1 PUSH2 0xFCB SWAP1 PUSH2 0x49FF JUMP JUMPDEST SWAP2 POP POP PUSH2 0xF75 JUMP JUMPDEST POP PUSH1 0x0 SWAP1 POP JUMPDEST SWAP2 SWAP1 POP JUMP JUMPDEST PUSH1 0x0 ISZERO ISZERO PUSH1 0x18 PUSH1 0x0 DUP6 DUP2 MSTORE PUSH1 0x20 ADD SWAP1 DUP2 MSTORE PUSH1 0x20 ADD PUSH1 0x0 KECCAK256 PUSH1 0x1 ADD PUSH1 0x5 SWAP1 SLOAD SWAP1 PUSH2 0x100 EXP SWAP1 DIV PUSH1 0xFF AND ISZERO ISZERO SUB PUSH2 0x104D JUMPI PUSH2 0x104C DUP3 PUSH1 0x40 MLOAD DUP1 PUSH1 0x40 ADD PUSH1 0x40 MSTORE DUP1 PUSH1 0x5 DUP2 MSTORE PUSH1 0x20 ADD PUSH32 0x6261646765000000000000000000000000000000000000000000000000000000 DUP2 MSTORE POP PUSH2 0x2F40 JUMP JUMPDEST JUMPDEST PUSH2 0x108C DUP2 PUSH1 0x40 MLOAD DUP1 PUSH1 0x40 ADD PUSH1 0x40 MSTORE DUP1 PUSH1 0x8 DUP2 MSTORE PUSH1 0x20 ADD PUSH32 0x646F6E6174696F6E000000000000000000000000000000000000000000000000 DUP2 MSTORE POP PUSH2 0x2F40 JUMP JUMPDEST PUSH1 0x1 PUSH1 0x18 PUSH1 0x0 DUP6 DUP2 MSTORE PUSH1 0x20 ADD SWAP1 DUP2 MSTORE PUSH1 0x20 ADD PUSH1 0x0 KECCAK256 PUSH1 0x1 ADD PUSH1 0x5 PUSH2 0x100 EXP DUP2 SLOAD DUP2 PUSH1 0xFF MUL NOT AND SWAP1 DUP4 ISZERO ISZERO MUL OR SWAP1 SSTORE POP DUP4 PUSH1 0x10 PUSH1 0x0 DUP6 DUP2 MSTORE PUSH1 0x20 ADD SWAP1 DUP2 MSTORE PUSH1 0x20 ADD PUSH1 0x0 KECCAK256 PUSH1 0x0 DUP3 DUP3 SLOAD PUSH2 0x10DE SWAP2 SWAP1 PUSH2 0x4A47 JUMP JUMPDEST SWAP3 POP POP DUP2 SWAP1 SSTORE POP PUSH1 0x40 MLOAD DUP1 PUSH1 0x60 ADD PUSH1 0x40 MSTORE DUP1 DUP7 DUP2 MSTORE PUSH1 0x20 ADD DUP5 DUP2 MSTORE PUSH1 0x20 ADD DUP6 DUP2 MSTORE POP PUSH1 0x12 PUSH1 0x0 PUSH1 0x1 SLOAD DUP2 MSTORE PUSH1 0x20 ADD SWAP1 DUP2 MSTORE PUSH1 0x20 ADD PUSH1 0x0 KECCAK256 PUSH1 0x0 DUP3 ADD MLOAD DUP2 PUSH1 0x0 ADD SWAP1 DUP2 PUSH2 0x112A SWAP2 SWAP1 PUSH2 0x4C27 JUMP JUMPDEST POP PUSH1 0x20 DUP3 ADD MLOAD DUP2 PUSH1 0x1 ADD SSTORE PUSH1 0x40 DUP3 ADD MLOAD DUP2 PUSH1 0x2 ADD SSTORE SWAP1 POP POP PUSH1 0x1 PUSH1 0x0 DUP2 SLOAD DUP1 SWAP3 SWAP2 SWAP1 PUSH2 0x1155 SWAP1 PUSH2 0x49FF JUMP JUMPDEST SWAP2 SWAP1 POP SSTORE POP POP POP POP POP POP JUMP JUMPDEST PUSH1 0x10 PUSH1 0x20 MSTORE DUP1 PUSH1 0x0 MSTORE PUSH1 0x40 PUSH1 0x0 KECCAK256 PUSH1 0x0 SWAP2 POP SWAP1 POP SLOAD DUP2 JUMP JUMPDEST PUSH1 0xB PUSH1 0x20 MSTORE DUP1 PUSH1 0x0 MSTORE PUSH1 0x40 PUSH1 0x0 KECCAK256 PUSH1 0x0 SWAP2 POP SWAP1 POP DUP1 PUSH1 0x0 ADD DUP1 SLOAD PUSH2 0x119C SWAP1 PUSH2 0x48B6 JUMP JUMPDEST DUP1 PUSH1 0x1F ADD PUSH1 0x20 DUP1 SWAP2 DIV MUL PUSH1 0x20 ADD PUSH1 0x40 MLOAD SWAP1 DUP2 ADD PUSH1 0x40 MSTORE DUP1 SWAP3 SWAP2 SWAP1 DUP2 DUP2 MSTORE PUSH1 0x20 ADD DUP3 DUP1 SLOAD PUSH2 0x11C8 SWAP1 PUSH2 0x48B6 JUMP JUMPDEST DUP1 ISZERO PUSH2 0x1215 JUMPI DUP1 PUSH1 0x1F LT PUSH2 0x11EA JUMPI PUSH2 0x100 DUP1 DUP4 SLOAD DIV MUL DUP4 MSTORE SWAP2 PUSH1 0x20 ADD SWAP2 PUSH2 0x1215 JUMP JUMPDEST DUP3 ADD SWAP2 SWAP1 PUSH1 0x0 MSTORE PUSH1 0x20 PUSH1 0x0 KECCAK256 SWAP1 JUMPDEST DUP2 SLOAD DUP2 MSTORE SWAP1 PUSH1 0x1 ADD SWAP1 PUSH1 0x20 ADD DUP1 DUP4 GT PUSH2 0x11F8 JUMPI DUP3 SWAP1 SUB PUSH1 0x1F AND DUP3 ADD SWAP2 JUMPDEST POP POP POP POP POP SWAP1 DUP1 PUSH1 0x1 ADD DUP1 SLOAD PUSH2 0x122A SWAP1 PUSH2 0x48B6 JUMP JUMPDEST DUP1 PUSH1 0x1F ADD PUSH1 0x20 DUP1 SWAP2 DIV MUL PUSH1 0x20 ADD PUSH1 0x40 MLOAD SWAP1 DUP2 ADD PUSH1 0x40 MSTORE DUP1 SWAP3 SWAP2 SWAP1 DUP2 DUP2 MSTORE PUSH1 0x20 ADD DUP3 DUP1 SLOAD PUSH2 0x1256 SWAP1 PUSH2 0x48B6 JUMP JUMPDEST DUP1 ISZERO PUSH2 0x12A3 JUMPI DUP1 PUSH1 0x1F LT PUSH2 0x1278 JUMPI PUSH2 0x100 DUP1 DUP4 SLOAD DIV MUL DUP4 MSTORE SWAP2 PUSH1 0x20 ADD SWAP2 PUSH2 0x12A3 JUMP JUMPDEST DUP3 ADD SWAP2 SWAP1 PUSH1 0x0 MSTORE PUSH1 0x20 PUSH1 0x0 KECCAK256 SWAP1 JUMPDEST DUP2 SLOAD DUP2 MSTORE SWAP1 PUSH1 0x1 ADD SWAP1 PUSH1 0x20 ADD DUP1 DUP4 GT PUSH2 0x1286 JUMPI DUP3 SWAP1 SUB PUSH1 0x1F AND DUP3 ADD SWAP2 JUMPDEST POP POP POP POP POP SWAP1 DUP1 PUSH1 0x2 ADD DUP1 SLOAD PUSH2 0x12B8 SWAP1 PUSH2 0x48B6 JUMP JUMPDEST DUP1 PUSH1 0x1F ADD PUSH1 0x20 DUP1 SWAP2 DIV MUL PUSH1 0x20 ADD PUSH1 0x40 MLOAD SWAP1 DUP2 ADD PUSH1 0x40 MSTORE DUP1 SWAP3 SWAP2 SWAP1 DUP2 DUP2 MSTORE PUSH1 0x20 ADD DUP3 DUP1 SLOAD PUSH2 0x12E4 SWAP1 PUSH2 0x48B6 JUMP JUMPDEST DUP1 ISZERO PUSH2 0x1331 JUMPI DUP1 PUSH1 0x1F LT PUSH2 0x1306 JUMPI PUSH2 0x100 DUP1 DUP4 SLOAD DIV MUL DUP4 MSTORE SWAP2 PUSH1 0x20 ADD SWAP2 PUSH2 0x1331 JUMP JUMPDEST DUP3 ADD SWAP2 SWAP1 PUSH1 0x0 MSTORE PUSH1 0x20 PUSH1 0x0 KECCAK256 SWAP1 JUMPDEST DUP2 SLOAD DUP2 MSTORE SWAP1 PUSH1 0x1 ADD SWAP1 PUSH1 0x20 ADD DUP1 DUP4 GT PUSH2 0x1314 JUMPI DUP3 SWAP1 SUB PUSH1 0x1F AND DUP3 ADD SWAP2 JUMPDEST POP POP POP POP POP SWAP1 POP DUP4 JUMP JUMPDEST PUSH1 0x60 PUSH1 0x0 PUSH1 0x2 SLOAD PUSH8 0xFFFFFFFFFFFFFFFF DUP2 GT ISZERO PUSH2 0x135B JUMPI PUSH2 0x135A PUSH2 0x3805 JUMP JUMPDEST JUMPDEST PUSH1 0x40 MLOAD SWAP1 DUP1 DUP3 MSTORE DUP1 PUSH1 0x20 MUL PUSH1 0x20 ADD DUP3 ADD PUSH1 0x40 MSTORE DUP1 ISZERO PUSH2 0x138E JUMPI DUP2 PUSH1 0x20 ADD JUMPDEST PUSH1 0x60 DUP2 MSTORE PUSH1 0x20 ADD SWAP1 PUSH1 0x1 SWAP1 SUB SWAP1 DUP2 PUSH2 0x1379 JUMPI SWAP1 POP JUMPDEST POP SWAP1 POP PUSH1 0x0 JUMPDEST PUSH1 0x2 SLOAD DUP2 LT ISZERO PUSH2 0x146E JUMPI PUSH1 0xE PUSH1 0x0 DUP3 DUP2 MSTORE PUSH1 0x20 ADD SWAP1 DUP2 MSTORE PUSH1 0x20 ADD PUSH1 0x0 KECCAK256 PUSH1 0x1 ADD DUP1 SLOAD PUSH2 0x13BF SWAP1 PUSH2 0x48B6 JUMP JUMPDEST DUP1 PUSH1 0x1F ADD PUSH1 0x20 DUP1 SWAP2 DIV MUL PUSH1 0x20 ADD PUSH1 0x40 MLOAD SWAP1 DUP2 ADD PUSH1 0x40 MSTORE DUP1 SWAP3 SWAP2 SWAP1 DUP2 DUP2 MSTORE PUSH1 0x20 ADD DUP3 DUP1 SLOAD PUSH2 0x13EB SWAP1 PUSH2 0x48B6 JUMP JUMPDEST DUP1 ISZERO PUSH2 0x1438 JUMPI DUP1 PUSH1 0x1F LT PUSH2 0x140D JUMPI PUSH2 0x100 DUP1 DUP4 SLOAD DIV MUL DUP4 MSTORE SWAP2 PUSH1 0x20 ADD SWAP2 PUSH2 0x1438 JUMP JUMPDEST DUP3 ADD SWAP2 SWAP1 PUSH1 0x0 MSTORE PUSH1 0x20 PUSH1 0x0 KECCAK256 SWAP1 JUMPDEST DUP2 SLOAD DUP2 MSTORE SWAP1 PUSH1 0x1 ADD SWAP1 PUSH1 0x20 ADD DUP1 DUP4 GT PUSH2 0x141B JUMPI DUP3 SWAP1 SUB PUSH1 0x1F AND DUP3 ADD SWAP2 JUMPDEST POP POP POP POP POP DUP3 DUP3 DUP2 MLOAD DUP2 LT PUSH2 0x1450 JUMPI PUSH2 0x144F PUSH2 0x49A1 JUMP JUMPDEST JUMPDEST PUSH1 0x20 MUL PUSH1 0x20 ADD ADD DUP2 SWAP1 MSTORE POP DUP1 DUP1 PUSH2 0x1466 SWAP1 PUSH2 0x49FF JUMP JUMPDEST SWAP2 POP POP PUSH2 0x1394 JUMP JUMPDEST POP DUP1 SWAP2 POP POP SWAP1 JUMP JUMPDEST PUSH1 0xD PUSH1 0x20 MSTORE DUP1 PUSH1 0x0 MSTORE PUSH1 0x40 PUSH1 0x0 KECCAK256 PUSH1 0x0 SWAP2 POP SWAP1 POP DUP1 PUSH1 0x0 ADD DUP1 SLOAD PUSH2 0x1499 SWAP1 PUSH2 0x48B6 JUMP JUMPDEST DUP1 PUSH1 0x1F ADD PUSH1 0x20 DUP1 SWAP2 DIV MUL PUSH1 0x20 ADD PUSH1 0x40 MLOAD SWAP1 DUP2 ADD PUSH1 0x40 MSTORE DUP1 SWAP3 SWAP2 SWAP1 DUP2 DUP2 MSTORE PUSH1 0x20 ADD DUP3 DUP1 SLOAD PUSH2 0x14C5 SWAP1 PUSH2 0x48B6 JUMP JUMPDEST DUP1 ISZERO PUSH2 0x1512 JUMPI DUP1 PUSH1 0x1F LT PUSH2 0x14E7 JUMPI PUSH2 0x100 DUP1 DUP4 SLOAD DIV MUL DUP4 MSTORE SWAP2 PUSH1 0x20 ADD SWAP2 PUSH2 0x1512 JUMP JUMPDEST DUP3 ADD SWAP2 SWAP1 PUSH1 0x0 MSTORE PUSH1 0x20 PUSH1 0x0 KECCAK256 SWAP1 JUMPDEST DUP2 SLOAD DUP2 MSTORE SWAP1 PUSH1 0x1 ADD SWAP1 PUSH1 0x20 ADD DUP1 DUP4 GT PUSH2 0x14F5 JUMPI DUP3 SWAP1 SUB PUSH1 0x1F AND DUP3 ADD SWAP2 JUMPDEST POP POP POP POP POP SWAP1 DUP1 PUSH1 0x1 ADD SLOAD SWAP1 DUP1 PUSH1 0x2 ADD DUP1 SLOAD PUSH2 0x152D SWAP1 PUSH2 0x48B6 JUMP JUMPDEST DUP1 PUSH1 0x1F ADD PUSH1 0x20 DUP1 SWAP2 DIV MUL PUSH1 0x20 ADD PUSH1 0x40 MLOAD SWAP1 DUP2 ADD PUSH1 0x40 MSTORE DUP1 SWAP3 SWAP2 SWAP1 DUP2 DUP2 MSTORE PUSH1 0x20 ADD DUP3 DUP1 SLOAD PUSH2 0x1559 SWAP1 PUSH2 0x48B6 JUMP JUMPDEST DUP1 ISZERO PUSH2 0x15A6 JUMPI DUP1 PUSH1 0x1F LT PUSH2 0x157B JUMPI PUSH2 0x100 DUP1 DUP4 SLOAD DIV MUL DUP4 MSTORE SWAP2 PUSH1 0x20 ADD SWAP2 PUSH2 0x15A6 JUMP JUMPDEST DUP3 ADD SWAP2 SWAP1 PUSH1 0x0 MSTORE PUSH1 0x20 PUSH1 0x0 KECCAK256 SWAP1 JUMPDEST DUP2 SLOAD DUP2 MSTORE SWAP1 PUSH1 0x1 ADD SWAP1 PUSH1 0x20 ADD DUP1 DUP4 GT PUSH2 0x1589 JUMPI DUP3 SWAP1 SUB PUSH1 0x1F AND DUP3 ADD SWAP2 JUMPDEST POP POP POP POP POP SWAP1 POP DUP4 JUMP JUMPDEST PUSH1 0x17 PUSH1 0x20 MSTORE DUP1 PUSH1 0x0 MSTORE PUSH1 0x40 PUSH1 0x0 KECCAK256 PUSH1 0x0 SWAP2 POP SWAP1 POP DUP1 PUSH1 0x0 ADD SLOAD SWAP1 DUP1 PUSH1 0x1 ADD SLOAD SWAP1 DUP1 PUSH1 0x2 ADD SLOAD SWAP1 DUP1 PUSH1 0x3 ADD DUP1 SLOAD PUSH2 0x15E5 SWAP1 PUSH2 0x48B6 JUMP JUMPDEST DUP1 PUSH1 0x1F ADD PUSH1 0x20 DUP1 SWAP2 DIV MUL PUSH1 0x20 ADD PUSH1 0x40 MLOAD SWAP1 DUP2 ADD PUSH1 0x40 MSTORE DUP1 SWAP3 SWAP2 SWAP1 DUP2 DUP2 MSTORE PUSH1 0x20 ADD DUP3 DUP1 SLOAD PUSH2 0x1611 SWAP1 PUSH2 0x48B6 JUMP JUMPDEST DUP1 ISZERO PUSH2 0x165E JUMPI DUP1 PUSH1 0x1F LT PUSH2 0x1633 JUMPI PUSH2 0x100 DUP1 DUP4 SLOAD DIV MUL DUP4 MSTORE SWAP2 PUSH1 0x20 ADD SWAP2 PUSH2 0x165E JUMP JUMPDEST DUP3 ADD SWAP2 SWAP1 PUSH1 0x0 MSTORE PUSH1 0x20 PUSH1 0x0 KECCAK256 SWAP1 JUMPDEST DUP2 SLOAD DUP2 MSTORE SWAP1 PUSH1 0x1 ADD SWAP1 PUSH1 0x20 ADD DUP1 DUP4 GT PUSH2 0x1641 JUMPI DUP3 SWAP1 SUB PUSH1 0x1F AND DUP3 ADD SWAP2 JUMPDEST POP POP POP POP POP SWAP1 POP DUP5 JUMP JUMPDEST PUSH1 0x60 PUSH1 0x0 PUSH1 0x7 SLOAD PUSH8 0xFFFFFFFFFFFFFFFF DUP2 GT ISZERO PUSH2 0x1688 JUMPI PUSH2 0x1687 PUSH2 0x3805 JUMP JUMPDEST JUMPDEST PUSH1 0x40 MLOAD SWAP1 DUP1 DUP3 MSTORE DUP1 PUSH1 0x20 MUL PUSH1 0x20 ADD DUP3 ADD PUSH1 0x40 MSTORE DUP1 ISZERO PUSH2 0x16B6 JUMPI DUP2 PUSH1 0x20 ADD PUSH1 0x20 DUP3 MUL DUP1 CALLDATASIZE DUP4 CALLDATACOPY DUP1 DUP3 ADD SWAP2 POP POP SWAP1 POP JUMPDEST POP SWAP1 POP PUSH1 0x0 DUP1 PUSH1 0x0 SWAP1 POP JUMPDEST PUSH1 0x7 SLOAD DUP2 LT ISZERO PUSH2 0x175B JUMPI DUP5 DUP1 MLOAD SWAP1 PUSH1 0x20 ADD KECCAK256 PUSH1 0x15 PUSH1 0x0 DUP4 DUP2 MSTORE PUSH1 0x20 ADD SWAP1 DUP2 MSTORE PUSH1 0x20 ADD PUSH1 0x0 KECCAK256 PUSH1 0x1 ADD PUSH1 0x40 MLOAD PUSH2 0x16F6 SWAP2 SWAP1 PUSH2 0x498A JUMP JUMPDEST PUSH1 0x40 MLOAD DUP1 SWAP2 SUB SWAP1 KECCAK256 SUB PUSH2 0x1748 JUMPI PUSH1 0x15 PUSH1 0x0 DUP3 DUP2 MSTORE PUSH1 0x20 ADD SWAP1 DUP2 MSTORE PUSH1 0x20 ADD PUSH1 0x0 KECCAK256 PUSH1 0x0 ADD SLOAD DUP4 DUP4 DUP2 MLOAD DUP2 LT PUSH2 0x172D JUMPI PUSH2 0x172C PUSH2 0x49A1 JUMP JUMPDEST JUMPDEST PUSH1 0x20 MUL PUSH1 0x20 ADD ADD DUP2 DUP2 MSTORE POP POP DUP2 DUP1 PUSH2 0x1744 SWAP1 PUSH2 0x49FF JUMP JUMPDEST SWAP3 POP POP JUMPDEST DUP1 DUP1 PUSH2 0x1753 SWAP1 PUSH2 0x49FF JUMP JUMPDEST SWAP2 POP POP PUSH2 0x16C1 JUMP JUMPDEST POP DUP2 SWAP3 POP POP POP SWAP2 SWAP1 POP JUMP JUMPDEST PUSH1 0xF PUSH1 0x20 MSTORE DUP1 PUSH1 0x0 MSTORE PUSH1 0x40 PUSH1 0x0 KECCAK256 PUSH1 0x0 SWAP2 POP SWAP1 POP DUP1 PUSH1 0x0 ADD DUP1 SLOAD PUSH2 0x1789 SWAP1 PUSH2 0x48B6 JUMP JUMPDEST DUP1 PUSH1 0x1F ADD PUSH1 0x20 DUP1 SWAP2 DIV MUL PUSH1 0x20 ADD PUSH1 0x40 MLOAD SWAP1 DUP2 ADD PUSH1 0x40 MSTORE DUP1 SWAP3 SWAP2 SWAP1 DUP2 DUP2 MSTORE PUSH1 0x20 ADD DUP3 DUP1 SLOAD PUSH2 0x17B5 SWAP1 PUSH2 0x48B6 JUMP JUMPDEST DUP1 ISZERO PUSH2 0x1802 JUMPI DUP1 PUSH1 0x1F LT PUSH2 0x17D7 JUMPI PUSH2 0x100 DUP1 DUP4 SLOAD DIV MUL DUP4 MSTORE SWAP2 PUSH1 0x20 ADD SWAP2 PUSH2 0x1802 JUMP JUMPDEST DUP3 ADD SWAP2 SWAP1 PUSH1 0x0 MSTORE PUSH1 0x20 PUSH1 0x0 KECCAK256 SWAP1 JUMPDEST DUP2 SLOAD DUP2 MSTORE SWAP1 PUSH1 0x1 ADD SWAP1 PUSH1 0x20 ADD DUP1 DUP4 GT PUSH2 0x17E5 JUMPI DUP3 SWAP1 SUB PUSH1 0x1F AND DUP3 ADD SWAP2 JUMPDEST POP POP POP POP POP SWAP1 DUP1 PUSH1 0x1 ADD DUP1 SLOAD PUSH2 0x1817 SWAP1 PUSH2 0x48B6 JUMP JUMPDEST DUP1 PUSH1 0x1F ADD PUSH1 0x20 DUP1 SWAP2 DIV MUL PUSH1 0x20 ADD PUSH1 0x40 MLOAD SWAP1 DUP2 ADD PUSH1 0x40 MSTORE DUP1 SWAP3 SWAP2 SWAP1 DUP2 DUP2 MSTORE PUSH1 0x20 ADD DUP3 DUP1 SLOAD PUSH2 0x1843 SWAP1 PUSH2 0x48B6 JUMP JUMPDEST DUP1 ISZERO PUSH2 0x1890 JUMPI DUP1 PUSH1 0x1F LT PUSH2 0x1865 JUMPI PUSH2 0x100 DUP1 DUP4 SLOAD DIV MUL DUP4 MSTORE SWAP2 PUSH1 0x20 ADD SWAP2 PUSH2 0x1890 JUMP JUMPDEST DUP3 ADD SWAP2 SWAP1 PUSH1 0x0 MSTORE PUSH1 0x20 PUSH1 0x0 KECCAK256 SWAP1 JUMPDEST DUP2 SLOAD DUP2 MSTORE SWAP1 PUSH1 0x1 ADD SWAP1 PUSH1 0x20 ADD DUP1 DUP4 GT PUSH2 0x1873 JUMPI DUP3 SWAP1 SUB PUSH1 0x1F AND DUP3 ADD SWAP2 JUMPDEST POP POP POP POP POP SWAP1 DUP1 PUSH1 0x2 ADD SLOAD SWAP1 POP DUP4 JUMP JUMPDEST PUSH1 0x6 SLOAD DUP2 JUMP JUMPDEST PUSH1 0x11 PUSH1 0x20 MSTORE DUP1 PUSH1 0x0 MSTORE PUSH1 0x40 PUSH1 0x0 KECCAK256 PUSH1 0x0 SWAP2 POP SWAP1 POP DUP1 PUSH1 0x0 ADD SLOAD SWAP1 DUP1 PUSH1 0x1 ADD SLOAD SWAP1 DUP1 PUSH1 0x2 ADD DUP1 SLOAD PUSH2 0x18D5 SWAP1 PUSH2 0x48B6 JUMP JUMPDEST DUP1 PUSH1 0x1F ADD PUSH1 0x20 DUP1 SWAP2 DIV MUL PUSH1 0x20 ADD PUSH1 0x40 MLOAD SWAP1 DUP2 ADD PUSH1 0x40 MSTORE DUP1 SWAP3 SWAP2 SWAP1 DUP2 DUP2 MSTORE PUSH1 0x20 ADD DUP3 DUP1 SLOAD PUSH2 0x1901 SWAP1 PUSH2 0x48B6 JUMP JUMPDEST DUP1 ISZERO PUSH2 0x194E JUMPI DUP1 PUSH1 0x1F LT PUSH2 0x1923 JUMPI PUSH2 0x100 DUP1 DUP4 SLOAD DIV MUL DUP4 MSTORE SWAP2 PUSH1 0x20 ADD SWAP2 PUSH2 0x194E JUMP JUMPDEST DUP3 ADD SWAP2 SWAP1 PUSH1 0x0 MSTORE PUSH1 0x20 PUSH1 0x0 KECCAK256 SWAP1 JUMPDEST DUP2 SLOAD DUP2 MSTORE SWAP1 PUSH1 0x1 ADD SWAP1 PUSH1 0x20 ADD DUP1 DUP4 GT PUSH2 0x1931 JUMPI DUP3 SWAP1 SUB PUSH1 0x1F AND DUP3 ADD SWAP2 JUMPDEST POP POP POP POP POP SWAP1 DUP1 PUSH1 0x3 ADD DUP1 SLOAD PUSH2 0x1963 SWAP1 PUSH2 0x48B6 JUMP JUMPDEST DUP1 PUSH1 0x1F ADD PUSH1 0x20 DUP1 SWAP2 DIV MUL PUSH1 0x20 ADD PUSH1 0x40 MLOAD SWAP1 DUP2 ADD PUSH1 0x40 MSTORE DUP1 SWAP3 SWAP2 SWAP1 DUP2 DUP2 MSTORE PUSH1 0x20 ADD DUP3 DUP1 SLOAD PUSH2 0x198F SWAP1 PUSH2 0x48B6 JUMP JUMPDEST DUP1 ISZERO PUSH2 0x19DC JUMPI DUP1 PUSH1 0x1F LT PUSH2 0x19B1 JUMPI PUSH2 0x100 DUP1 DUP4 SLOAD DIV MUL DUP4 MSTORE SWAP2 PUSH1 0x20 ADD SWAP2 PUSH2 0x19DC JUMP JUMPDEST DUP3 ADD SWAP2 SWAP1 PUSH1 0x0 MSTORE PUSH1 0x20 PUSH1 0x0 KECCAK256 SWAP1 JUMPDEST DUP2 SLOAD DUP2 MSTORE SWAP1 PUSH1 0x1 ADD SWAP1 PUSH1 0x20 ADD DUP1 DUP4 GT PUSH2 0x19BF JUMPI DUP3 SWAP1 SUB PUSH1 0x1F AND DUP3 ADD SWAP2 JUMPDEST POP POP POP POP POP SWAP1 POP DUP5 JUMP JUMPDEST PUSH1 0x60 PUSH1 0xB PUSH1 0x0 DUP4 DUP2 MSTORE PUSH1 0x20 ADD SWAP1 DUP2 MSTORE PUSH1 0x20 ADD PUSH1 0x0 KECCAK256 PUSH1 0x1 ADD DUP1 SLOAD PUSH2 0x1A09 SWAP1 PUSH2 0x48B6 JUMP JUMPDEST DUP1 PUSH1 0x1F ADD PUSH1 0x20 DUP1 SWAP2 DIV MUL PUSH1 0x20 ADD PUSH1 0x40 MLOAD SWAP1 DUP2 ADD PUSH1 0x40 MSTORE DUP1 SWAP3 SWAP2 SWAP1 DUP2 DUP2 MSTORE PUSH1 0x20 ADD DUP3 DUP1 SLOAD PUSH2 0x1A35 SWAP1 PUSH2 0x48B6 JUMP JUMPDEST DUP1 ISZERO PUSH2 0x1A82 JUMPI DUP1 PUSH1 0x1F LT PUSH2 0x1A57 JUMPI PUSH2 0x100 DUP1 DUP4 SLOAD DIV MUL DUP4 MSTORE SWAP2 PUSH1 0x20 ADD SWAP2 PUSH2 0x1A82 JUMP JUMPDEST DUP3 ADD SWAP2 SWAP1 PUSH1 0x0 MSTORE PUSH1 0x20 PUSH1 0x0 KECCAK256 SWAP1 JUMPDEST DUP2 SLOAD DUP2 MSTORE SWAP1 PUSH1 0x1 ADD SWAP1 PUSH1 0x20 ADD DUP1 DUP4 GT PUSH2 0x1A65 JUMPI DUP3 SWAP1 SUB PUSH1 0x1F AND DUP3 ADD SWAP2 JUMPDEST POP POP POP POP POP SWAP1 POP SWAP2 SWAP1 POP JUMP JUMPDEST PUSH1 0xC PUSH1 0x20 MSTORE DUP1 PUSH1 0x0 MSTORE PUSH1 0x40 PUSH1 0x0 KECCAK256 PUSH1 0x0 SWAP2 POP SWAP1 POP DUP1 SLOAD PUSH2 0x1AAD SWAP1 PUSH2 0x48B6 JUMP JUMPDEST DUP1 PUSH1 0x1F ADD PUSH1 0x20 DUP1 SWAP2 DIV MUL PUSH1 0x20 ADD PUSH1 0x40 MLOAD SWAP1 DUP2 ADD PUSH1 0x40 MSTORE DUP1 SWAP3 SWAP2 SWAP1 DUP2 DUP2 MSTORE PUSH1 0x20 ADD DUP3 DUP1 SLOAD PUSH2 0x1AD9 SWAP1 PUSH2 0x48B6 JUMP JUMPDEST DUP1 ISZERO PUSH2 0x1B26 JUMPI DUP1 PUSH1 0x1F LT PUSH2 0x1AFB JUMPI PUSH2 0x100 DUP1 DUP4 SLOAD DIV MUL DUP4 MSTORE SWAP2 PUSH1 0x20 ADD SWAP2 PUSH2 0x1B26 JUMP JUMPDEST DUP3 ADD SWAP2 SWAP1 PUSH1 0x0 MSTORE PUSH1 0x20 PUSH1 0x0 KECCAK256 SWAP1 JUMPDEST DUP2 SLOAD DUP2 MSTORE SWAP1 PUSH1 0x1 ADD SWAP1 PUSH1 0x20 ADD DUP1 DUP4 GT PUSH2 0x1B09 JUMPI DUP3 SWAP1 SUB PUSH1 0x1F AND DUP3 ADD SWAP2 JUMPDEST POP POP POP POP POP DUP2 JUMP JUMPDEST PUSH1 0x0 SLOAD DUP2 JUMP JUMPDEST PUSH1 0x1 PUSH1 0x18 PUSH1 0x0 DUP6 DUP2 MSTORE PUSH1 0x20 ADD SWAP1 DUP2 MSTORE PUSH1 0x20 ADD PUSH1 0x0 KECCAK256 PUSH1 0x1 ADD PUSH1 0x1 PUSH2 0x100 EXP DUP2 SLOAD DUP2 PUSH1 0xFF MUL NOT AND SWAP1 DUP4 ISZERO ISZERO MUL OR SWAP1 SSTORE POP PUSH1 0x40 MLOAD DUP1 PUSH1 0x60 ADD PUSH1 0x40 MSTORE DUP1 DUP6 DUP2 MSTORE PUSH1 0x20 ADD DUP5 DUP2 MSTORE PUSH1 0x20 ADD DUP4 DUP2 MSTORE POP PUSH1 0xD PUSH1 0x0 PUSH1 0x4 SLOAD DUP2 MSTORE PUSH1 0x20 ADD SWAP1 DUP2 MSTORE PUSH1 0x20 ADD PUSH1 0x0 KECCAK256 PUSH1 0x0 DUP3 ADD MLOAD DUP2 PUSH1 0x0 ADD SWAP1 DUP2 PUSH2 0x1BA8 SWAP2 SWAP1 PUSH2 0x4C27 JUMP JUMPDEST POP PUSH1 0x20 DUP3 ADD MLOAD DUP2 PUSH1 0x1 ADD SSTORE PUSH1 0x40 DUP3 ADD MLOAD DUP2 PUSH1 0x2 ADD SWAP1 DUP2 PUSH2 0x1BC8 SWAP2 SWAP1 PUSH2 0x4C27 JUMP JUMPDEST POP SWAP1 POP POP PUSH1 0x4 PUSH1 0x0 DUP2 SLOAD DUP1 SWAP3 SWAP2 SWAP1 PUSH2 0x1BDF SWAP1 PUSH2 0x49FF JUMP JUMPDEST SWAP2 SWAP1 POP SSTORE POP PUSH2 0x1C23 DUP2 PUSH1 0x40 MLOAD DUP1 PUSH1 0x40 ADD PUSH1 0x40 MSTORE DUP1 PUSH1 0x4 DUP2 MSTORE PUSH1 0x20 ADD PUSH32 0x6A6F696E00000000000000000000000000000000000000000000000000000000 DUP2 MSTORE POP PUSH2 0x2F40 JUMP JUMPDEST POP POP POP POP JUMP JUMPDEST PUSH1 0xE PUSH1 0x20 MSTORE DUP1 PUSH1 0x0 MSTORE PUSH1 0x40 PUSH1 0x0 KECCAK256 PUSH1 0x0 SWAP2 POP SWAP1 POP DUP1 PUSH1 0x0 ADD DUP1 SLOAD PUSH2 0x1C4C SWAP1 PUSH2 0x48B6 JUMP JUMPDEST DUP1 PUSH1 0x1F ADD PUSH1 0x20 DUP1 SWAP2 DIV MUL PUSH1 0x20 ADD PUSH1 0x40 MLOAD SWAP1 DUP2 ADD PUSH1 0x40 MSTORE DUP1 SWAP3 SWAP2 SWAP1 DUP2 DUP2 MSTORE PUSH1 0x20 ADD DUP3 DUP1 SLOAD PUSH2 0x1C78 SWAP1 PUSH2 0x48B6 JUMP JUMPDEST DUP1 ISZERO PUSH2 0x1CC5 JUMPI DUP1 PUSH1 0x1F LT PUSH2 0x1C9A JUMPI PUSH2 0x100 DUP1 DUP4 SLOAD DIV MUL DUP4 MSTORE SWAP2 PUSH1 0x20 ADD SWAP2 PUSH2 0x1CC5 JUMP JUMPDEST DUP3 ADD SWAP2 SWAP1 PUSH1 0x0 MSTORE PUSH1 0x20 PUSH1 0x0 KECCAK256 SWAP1 JUMPDEST DUP2 SLOAD DUP2 MSTORE SWAP1 PUSH1 0x1 ADD SWAP1 PUSH1 0x20 ADD DUP1 DUP4 GT PUSH2 0x1CA8 JUMPI DUP3 SWAP1 SUB PUSH1 0x1F AND DUP3 ADD SWAP2 JUMPDEST POP POP POP POP POP SWAP1 DUP1 PUSH1 0x1 ADD DUP1 SLOAD PUSH2 0x1CDA SWAP1 PUSH2 0x48B6 JUMP JUMPDEST DUP1 PUSH1 0x1F ADD PUSH1 0x20 DUP1 SWAP2 DIV MUL PUSH1 0x20 ADD PUSH1 0x40 MLOAD SWAP1 DUP2 ADD PUSH1 0x40 MSTORE DUP1 SWAP3 SWAP2 SWAP1 DUP2 DUP2 MSTORE PUSH1 0x20 ADD DUP3 DUP1 SLOAD PUSH2 0x1D06 SWAP1 PUSH2 0x48B6 JUMP JUMPDEST DUP1 ISZERO PUSH2 0x1D53 JUMPI DUP1 PUSH1 0x1F LT PUSH2 0x1D28 JUMPI PUSH2 0x100 DUP1 DUP4 SLOAD DIV MUL DUP4 MSTORE SWAP2 PUSH1 0x20 ADD SWAP2 PUSH2 0x1D53 JUMP JUMPDEST DUP3 ADD SWAP2 SWAP1 PUSH1 0x0 MSTORE PUSH1 0x20 PUSH1 0x0 KECCAK256 SWAP1 JUMPDEST DUP2 SLOAD DUP2 MSTORE SWAP1 PUSH1 0x1 ADD SWAP1 PUSH1 0x20 ADD DUP1 DUP4 GT PUSH2 0x1D36 JUMPI DUP3 SWAP1 SUB PUSH1 0x1F AND DUP3 ADD SWAP2 JUMPDEST POP POP POP POP POP SWAP1 POP DUP3 JUMP JUMPDEST PUSH1 0x12 PUSH1 0x20 MSTORE DUP1 PUSH1 0x0 MSTORE PUSH1 0x40 PUSH1 0x0 KECCAK256 PUSH1 0x0 SWAP2 POP SWAP1 POP DUP1 PUSH1 0x0 ADD DUP1 SLOAD PUSH2 0x1D80 SWAP1 PUSH2 0x48B6 JUMP JUMPDEST DUP1 PUSH1 0x1F ADD PUSH1 0x20 DUP1 SWAP2 DIV MUL PUSH1 0x20 ADD PUSH1 0x40 MLOAD SWAP1 DUP2 ADD PUSH1 0x40 MSTORE DUP1 SWAP3 SWAP2 SWAP1 DUP2 DUP2 MSTORE PUSH1 0x20 ADD DUP3 DUP1 SLOAD PUSH2 0x1DAC SWAP1 PUSH2 0x48B6 JUMP JUMPDEST DUP1 ISZERO PUSH2 0x1DF9 JUMPI DUP1 PUSH1 0x1F LT PUSH2 0x1DCE JUMPI PUSH2 0x100 DUP1 DUP4 SLOAD DIV MUL DUP4 MSTORE SWAP2 PUSH1 0x20 ADD SWAP2 PUSH2 0x1DF9 JUMP JUMPDEST DUP3 ADD SWAP2 SWAP1 PUSH1 0x0 MSTORE PUSH1 0x20 PUSH1 0x0 KECCAK256 SWAP1 JUMPDEST DUP2 SLOAD DUP2 MSTORE SWAP1 PUSH1 0x1 ADD SWAP1 PUSH1 0x20 ADD DUP1 DUP4 GT PUSH2 0x1DDC JUMPI DUP3 SWAP1 SUB PUSH1 0x1F AND DUP3 ADD SWAP2 JUMPDEST POP POP POP POP POP SWAP1 DUP1 PUSH1 0x1 ADD SLOAD SWAP1 DUP1 PUSH1 0x2 ADD SLOAD SWAP1 POP DUP4 JUMP JUMPDEST PUSH1 0x60 PUSH1 0x0 PUSH1 0x9 SLOAD PUSH8 0xFFFFFFFFFFFFFFFF DUP2 GT ISZERO PUSH2 0x1E2F JUMPI PUSH2 0x1E2E PUSH2 0x3805 JUMP JUMPDEST JUMPDEST PUSH1 0x40 MLOAD SWAP1 DUP1 DUP3 MSTORE DUP1 PUSH1 0x20 MUL PUSH1 0x20 ADD DUP3 ADD PUSH1 0x40 MSTORE DUP1 ISZERO PUSH2 0x1E5D JUMPI DUP2 PUSH1 0x20 ADD PUSH1 0x20 DUP3 MUL DUP1 CALLDATASIZE DUP4 CALLDATACOPY DUP1 DUP3 ADD SWAP2 POP POP SWAP1 POP JUMPDEST POP SWAP1 POP PUSH1 0x0 DUP1 PUSH1 0x0 SWAP1 POP JUMPDEST PUSH1 0x9 SLOAD DUP2 LT ISZERO PUSH2 0x1EE7 JUMPI DUP5 PUSH1 0x17 PUSH1 0x0 DUP4 DUP2 MSTORE PUSH1 0x20 ADD SWAP1 DUP2 MSTORE PUSH1 0x20 ADD PUSH1 0x0 KECCAK256 PUSH1 0x1 ADD SLOAD SUB PUSH2 0x1ED4 JUMPI PUSH1 0x17 PUSH1 0x0 DUP3 DUP2 MSTORE PUSH1 0x20 ADD SWAP1 DUP2 MSTORE PUSH1 0x20 ADD PUSH1 0x0 KECCAK256 PUSH1 0x0 ADD SLOAD DUP4 DUP4 DUP2 MLOAD DUP2 LT PUSH2 0x1EB9 JUMPI PUSH2 0x1EB8 PUSH2 0x49A1 JUMP JUMPDEST JUMPDEST PUSH1 0x20 MUL PUSH1 0x20 ADD ADD DUP2 DUP2 MSTORE POP POP DUP2 DUP1 PUSH2 0x1ED0 SWAP1 PUSH2 0x49FF JUMP JUMPDEST SWAP3 POP POP JUMPDEST DUP1 DUP1 PUSH2 0x1EDF SWAP1 PUSH2 0x49FF JUMP JUMPDEST SWAP2 POP POP PUSH2 0x1E68 JUMP JUMPDEST POP DUP2 SWAP3 POP POP POP SWAP2 SWAP1 POP JUMP JUMPDEST PUSH1 0x40 MLOAD DUP1 PUSH1 0x60 ADD PUSH1 0x40 MSTORE DUP1 PUSH1 0x40 MLOAD DUP1 PUSH1 0x40 ADD PUSH1 0x40 MSTORE DUP1 PUSH1 0x4 DUP2 MSTORE PUSH1 0x20 ADD PUSH32 0x3939393900000000000000000000000000000000000000000000000000000000 DUP2 MSTORE POP DUP2 MSTORE PUSH1 0x20 ADD PUSH2 0x270F DUP2 MSTORE PUSH1 0x20 ADD PUSH1 0x40 MLOAD DUP1 PUSH1 0x20 ADD PUSH1 0x40 MSTORE DUP1 PUSH1 0x0 DUP2 MSTORE POP DUP2 MSTORE POP PUSH1 0xD PUSH1 0x0 DUP4 DUP2 MSTORE PUSH1 0x20 ADD SWAP1 DUP2 MSTORE PUSH1 0x20 ADD PUSH1 0x0 KECCAK256 PUSH1 0x0 DUP3 ADD MLOAD DUP2 PUSH1 0x0 ADD SWAP1 DUP2 PUSH2 0x1F7B SWAP2 SWAP1 PUSH2 0x4C27 JUMP JUMPDEST POP PUSH1 0x20 DUP3 ADD MLOAD DUP2 PUSH1 0x1 ADD SSTORE PUSH1 0x40 DUP3 ADD MLOAD DUP2 PUSH1 0x2 ADD SWAP1 DUP2 PUSH2 0x1F9B SWAP2 SWAP1 PUSH2 0x4C27 JUMP JUMPDEST POP SWAP1 POP POP POP JUMP JUMPDEST PUSH1 0x60 PUSH1 0x0 PUSH1 0x3 SLOAD PUSH8 0xFFFFFFFFFFFFFFFF DUP2 GT ISZERO PUSH2 0x1FC2 JUMPI PUSH2 0x1FC1 PUSH2 0x3805 JUMP JUMPDEST JUMPDEST PUSH1 0x40 MLOAD SWAP1 DUP1 DUP3 MSTORE DUP1 PUSH1 0x20 MUL PUSH1 0x20 ADD DUP3 ADD PUSH1 0x40 MSTORE DUP1 ISZERO PUSH2 0x1FF5 JUMPI DUP2 PUSH1 0x20 ADD JUMPDEST PUSH1 0x60 DUP2 MSTORE PUSH1 0x20 ADD SWAP1 PUSH1 0x1 SWAP1 SUB SWAP1 DUP2 PUSH2 0x1FE0 JUMPI SWAP1 POP JUMPDEST POP SWAP1 POP PUSH1 0x0 DUP1 PUSH1 0x0 SWAP1 POP JUMPDEST PUSH1 0x3 SLOAD DUP2 LT ISZERO PUSH2 0x2121 JUMPI DUP5 DUP1 MLOAD SWAP1 PUSH1 0x20 ADD KECCAK256 PUSH1 0xF PUSH1 0x0 DUP4 DUP2 MSTORE PUSH1 0x20 ADD SWAP1 DUP2 MSTORE PUSH1 0x20 ADD PUSH1 0x0 KECCAK256 PUSH1 0x0 ADD PUSH1 0x40 MLOAD PUSH2 0x2035 SWAP2 SWAP1 PUSH2 0x498A JUMP JUMPDEST PUSH1 0x40 MLOAD DUP1 SWAP2 SUB SWAP1 KECCAK256 SUB PUSH2 0x2100 JUMPI PUSH1 0xF PUSH1 0x0 DUP3 DUP2 MSTORE PUSH1 0x20 ADD SWAP1 DUP2 MSTORE PUSH1 0x20 ADD PUSH1 0x0 KECCAK256 PUSH1 0x1 ADD DUP1 SLOAD PUSH2 0x2063 SWAP1 PUSH2 0x48B6 JUMP JUMPDEST DUP1 PUSH1 0x1F ADD PUSH1 0x20 DUP1 SWAP2 DIV MUL PUSH1 0x20 ADD PUSH1 0x40 MLOAD SWAP1 DUP2 ADD PUSH1 0x40 MSTORE DUP1 SWAP3 SWAP2 SWAP1 DUP2 DUP2 MSTORE PUSH1 0x20 ADD DUP3 DUP1 SLOAD PUSH2 0x208F SWAP1 PUSH2 0x48B6 JUMP JUMPDEST DUP1 ISZERO PUSH2 0x20DC JUMPI DUP1 PUSH1 0x1F LT PUSH2 0x20B1 JUMPI PUSH2 0x100 DUP1 DUP4 SLOAD DIV MUL DUP4 MSTORE SWAP2 PUSH1 0x20 ADD SWAP2 PUSH2 0x20DC JUMP JUMPDEST DUP3 ADD SWAP2 SWAP1 PUSH1 0x0 MSTORE PUSH1 0x20 PUSH1 0x0 KECCAK256 SWAP1 JUMPDEST DUP2 SLOAD DUP2 MSTORE SWAP1 PUSH1 0x1 ADD SWAP1 PUSH1 0x20 ADD DUP1 DUP4 GT PUSH2 0x20BF JUMPI DUP3 SWAP1 SUB PUSH1 0x1F AND DUP3 ADD SWAP2 JUMPDEST POP POP POP POP POP DUP4 DUP4 DUP2 MLOAD DUP2 LT PUSH2 0x20F4 JUMPI PUSH2 0x20F3 PUSH2 0x49A1 JUMP JUMPDEST JUMPDEST PUSH1 0x20 MUL PUSH1 0x20 ADD ADD DUP2 SWAP1 MSTORE POP JUMPDEST DUP2 DUP1 PUSH2 0x210B SWAP1 PUSH2 0x49FF JUMP JUMPDEST SWAP3 POP POP DUP1 DUP1 PUSH2 0x2119 SWAP1 PUSH2 0x49FF JUMP JUMPDEST SWAP2 POP POP PUSH2 0x2000 JUMP JUMPDEST POP DUP2 SWAP3 POP POP POP SWAP2 SWAP1 POP JUMP JUMPDEST PUSH1 0x0 PUSH1 0x40 MLOAD DUP1 PUSH1 0x60 ADD PUSH1 0x40 MSTORE DUP1 DUP7 DUP2 MSTORE PUSH1 0x20 ADD DUP6 DUP2 MSTORE PUSH1 0x20 ADD PUSH1 0x40 MLOAD DUP1 PUSH1 0x40 ADD PUSH1 0x40 MSTORE DUP1 PUSH1 0x5 DUP2 MSTORE PUSH1 0x20 ADD PUSH32 0x46616C7365000000000000000000000000000000000000000000000000000000 DUP2 MSTORE POP DUP2 MSTORE POP PUSH1 0xB PUSH1 0x0 DUP1 SLOAD DUP2 MSTORE PUSH1 0x20 ADD SWAP1 DUP2 MSTORE PUSH1 0x20 ADD PUSH1 0x0 KECCAK256 PUSH1 0x0 DUP3 ADD MLOAD DUP2 PUSH1 0x0 ADD SWAP1 DUP2 PUSH2 0x21A7 SWAP2 SWAP1 PUSH2 0x4C27 JUMP JUMPDEST POP PUSH1 0x20 DUP3 ADD MLOAD DUP2 PUSH1 0x1 ADD SWAP1 DUP2 PUSH2 0x21BD SWAP2 SWAP1 PUSH2 0x4C27 JUMP JUMPDEST POP PUSH1 0x40 DUP3 ADD MLOAD DUP2 PUSH1 0x2 ADD SWAP1 DUP2 PUSH2 0x21D3 SWAP2 SWAP1 PUSH2 0x4C27 JUMP JUMPDEST POP SWAP1 POP POP DUP3 PUSH1 0xC PUSH1 0x0 DUP1 SLOAD DUP2 MSTORE PUSH1 0x20 ADD SWAP1 DUP2 MSTORE PUSH1 0x20 ADD PUSH1 0x0 KECCAK256 SWAP1 DUP2 PUSH2 0x21F8 SWAP2 SWAP1 PUSH2 0x4C27 JUMP JUMPDEST POP PUSH1 0x1 PUSH1 0x18 PUSH1 0x0 DUP5 DUP2 MSTORE PUSH1 0x20 ADD SWAP1 DUP2 MSTORE PUSH1 0x20 ADD PUSH1 0x0 KECCAK256 PUSH1 0x1 ADD PUSH1 0x0 PUSH2 0x100 EXP DUP2 SLOAD DUP2 PUSH1 0xFF MUL NOT AND SWAP1 DUP4 ISZERO ISZERO MUL OR SWAP1 SSTORE POP PUSH1 0x0 DUP1 DUP2 SLOAD DUP1 SWAP3 SWAP2 SWAP1 PUSH2 0x223A SWAP1 PUSH2 0x49FF JUMP JUMPDEST SWAP2 SWAP1 POP SSTORE POP PUSH1 0x0 SLOAD SWAP1 POP SWAP5 SWAP4 POP POP POP POP JUMP JUMPDEST DUP1 PUSH1 0xC PUSH1 0x0 DUP5 DUP2 MSTORE PUSH1 0x20 ADD SWAP1 DUP2 MSTORE PUSH1 0x20 ADD PUSH1 0x0 KECCAK256 SWAP1 DUP2 PUSH2 0x226C SWAP2 SWAP1 PUSH2 0x4C27 JUMP JUMPDEST POP POP POP JUMP JUMPDEST DUP2 PUSH1 0xB PUSH1 0x0 DUP6 DUP2 MSTORE PUSH1 0x20 ADD SWAP1 DUP2 MSTORE PUSH1 0x20 ADD PUSH1 0x0 KECCAK256 PUSH1 0x0 ADD SWAP1 DUP2 PUSH2 0x2294 SWAP2 SWAP1 PUSH2 0x4C27 JUMP JUMPDEST POP DUP1 PUSH1 0xB PUSH1 0x0 DUP6 DUP2 MSTORE PUSH1 0x20 ADD SWAP1 DUP2 MSTORE PUSH1 0x20 ADD PUSH1 0x0 KECCAK256 PUSH1 0x1 ADD SWAP1 DUP2 PUSH2 0x22B8 SWAP2 SWAP1 PUSH2 0x4C27 JUMP JUMPDEST POP POP POP POP JUMP JUMPDEST PUSH1 0x0 PUSH1 0x1 PUSH1 0x18 PUSH1 0x0 DUP7 DUP2 MSTORE PUSH1 0x20 ADD SWAP1 DUP2 MSTORE PUSH1 0x20 ADD PUSH1 0x0 KECCAK256 PUSH1 0x1 ADD PUSH1 0x4 PUSH2 0x100 EXP DUP2 SLOAD DUP2 PUSH1 0xFF MUL NOT AND SWAP1 DUP4 ISZERO ISZERO MUL OR SWAP1 SSTORE POP PUSH1 0x40 MLOAD DUP1 PUSH1 0x60 ADD PUSH1 0x40 MSTORE DUP1 DUP8 DUP2 MSTORE PUSH1 0x20 ADD DUP7 DUP2 MSTORE PUSH1 0x20 ADD DUP6 DUP2 MSTORE POP PUSH1 0x14 PUSH1 0x0 PUSH1 0x6 SLOAD DUP2 MSTORE PUSH1 0x20 ADD SWAP1 DUP2 MSTORE PUSH1 0x20 ADD PUSH1 0x0 KECCAK256 PUSH1 0x0 DUP3 ADD MLOAD DUP2 PUSH1 0x0 ADD SWAP1 DUP2 PUSH2 0x2334 SWAP2 SWAP1 PUSH2 0x4C27 JUMP JUMPDEST POP PUSH1 0x20 DUP3 ADD MLOAD DUP2 PUSH1 0x1 ADD SWAP1 DUP2 PUSH2 0x234A SWAP2 SWAP1 PUSH2 0x4C27 JUMP JUMPDEST POP PUSH1 0x40 DUP3 ADD MLOAD DUP2 PUSH1 0x2 ADD SSTORE SWAP1 POP POP PUSH1 0x6 PUSH1 0x0 DUP2 SLOAD DUP1 SWAP3 SWAP2 SWAP1 PUSH2 0x236B SWAP1 PUSH2 0x49FF JUMP JUMPDEST SWAP2 SWAP1 POP SSTORE POP DUP2 ISZERO PUSH2 0x23B6 JUMPI PUSH2 0x23B5 DUP4 PUSH1 0x40 MLOAD DUP1 PUSH1 0x40 ADD PUSH1 0x40 MSTORE DUP1 PUSH1 0x4 DUP2 MSTORE PUSH1 0x20 ADD PUSH32 0x766F746500000000000000000000000000000000000000000000000000000000 DUP2 MSTORE POP PUSH2 0x2F40 JUMP JUMPDEST JUMPDEST PUSH1 0x6 SLOAD SWAP1 POP SWAP6 SWAP5 POP POP POP POP POP JUMP JUMPDEST PUSH1 0xA SLOAD DUP2 JUMP JUMPDEST PUSH1 0x60 PUSH1 0xF PUSH1 0x0 DUP4 DUP2 MSTORE PUSH1 0x20 ADD SWAP1 DUP2 MSTORE PUSH1 0x20 ADD PUSH1 0x0 KECCAK256 PUSH1 0x1 ADD DUP1 SLOAD PUSH2 0x23ED SWAP1 PUSH2 0x48B6 JUMP JUMPDEST DUP1 PUSH1 0x1F ADD PUSH1 0x20 DUP1 SWAP2 DIV MUL PUSH1 0x20 ADD PUSH1 0x40 MLOAD SWAP1 DUP2 ADD PUSH1 0x40 MSTORE DUP1 SWAP3 SWAP2 SWAP1 DUP2 DUP2 MSTORE PUSH1 0x20 ADD DUP3 DUP1 SLOAD PUSH2 0x2419 SWAP1 PUSH2 0x48B6 JUMP JUMPDEST DUP1 ISZERO PUSH2 0x2466 JUMPI DUP1 PUSH1 0x1F LT PUSH2 0x243B JUMPI PUSH2 0x100 DUP1 DUP4 SLOAD DIV MUL DUP4 MSTORE SWAP2 PUSH1 0x20 ADD SWAP2 PUSH2 0x2466 JUMP JUMPDEST DUP3 ADD SWAP2 SWAP1 PUSH1 0x0 MSTORE PUSH1 0x20 PUSH1 0x0 KECCAK256 SWAP1 JUMPDEST DUP2 SLOAD DUP2 MSTORE SWAP1 PUSH1 0x1 ADD SWAP1 PUSH1 0x20 ADD DUP1 DUP4 GT PUSH2 0x2449 JUMPI DUP3 SWAP1 SUB PUSH1 0x1F AND DUP3 ADD SWAP2 JUMPDEST POP POP POP POP POP SWAP1 POP SWAP2 SWAP1 POP JUMP JUMPDEST PUSH1 0x7 SLOAD DUP2 JUMP JUMPDEST PUSH1 0x0 PUSH1 0x40 MLOAD DUP1 PUSH1 0x80 ADD PUSH1 0x40 MSTORE DUP1 DUP7 DUP2 MSTORE PUSH1 0x20 ADD DUP6 DUP2 MSTORE PUSH1 0x20 ADD DUP5 DUP2 MSTORE PUSH1 0x20 ADD DUP4 DUP2 MSTORE POP PUSH1 0x16 PUSH1 0x0 PUSH1 0x8 SLOAD DUP2 MSTORE PUSH1 0x20 ADD SWAP1 DUP2 MSTORE PUSH1 0x20 ADD PUSH1 0x0 KECCAK256 PUSH1 0x0 DUP3 ADD MLOAD DUP2 PUSH1 0x0 ADD SSTORE PUSH1 0x20 DUP3 ADD MLOAD DUP2 PUSH1 0x1 ADD SSTORE PUSH1 0x40 DUP3 ADD MLOAD DUP2 PUSH1 0x2 ADD SSTORE PUSH1 0x60 DUP3 ADD MLOAD DUP2 PUSH1 0x3 ADD SWAP1 DUP2 PUSH2 0x24E3 SWAP2 SWAP1 PUSH2 0x4C27 JUMP JUMPDEST POP SWAP1 POP POP PUSH1 0x8 PUSH1 0x0 DUP2 SLOAD DUP1 SWAP3 SWAP2 SWAP1 PUSH2 0x24FA SWAP1 PUSH2 0x49FF JUMP JUMPDEST SWAP2 SWAP1 POP SSTORE POP PUSH1 0x8 SLOAD SWAP1 POP SWAP5 SWAP4 POP POP POP POP JUMP JUMPDEST PUSH1 0x60 PUSH1 0x0 PUSH1 0x3 SLOAD PUSH8 0xFFFFFFFFFFFFFFFF DUP2 GT ISZERO PUSH2 0x252C JUMPI PUSH2 0x252B PUSH2 0x3805 JUMP JUMPDEST JUMPDEST PUSH1 0x40 MLOAD SWAP1 DUP1 DUP3 MSTORE DUP1 PUSH1 0x20 MUL PUSH1 0x20 ADD DUP3 ADD PUSH1 0x40 MSTORE DUP1 ISZERO PUSH2 0x255F JUMPI DUP2 PUSH1 0x20 ADD JUMPDEST PUSH1 0x60 DUP2 MSTORE PUSH1 0x20 ADD SWAP1 PUSH1 0x1 SWAP1 SUB SWAP1 DUP2 PUSH2 0x254A JUMPI SWAP1 POP JUMPDEST POP SWAP1 POP PUSH1 0x0 JUMPDEST PUSH1 0x3 SLOAD DUP2 LT ISZERO PUSH2 0x263F JUMPI PUSH1 0xF PUSH1 0x0 DUP3 DUP2 MSTORE PUSH1 0x20 ADD SWAP1 DUP2 MSTORE PUSH1 0x20 ADD PUSH1 0x0 KECCAK256 PUSH1 0x1 ADD DUP1 SLOAD PUSH2 0x2590 SWAP1 PUSH2 0x48B6 JUMP JUMPDEST DUP1 PUSH1 0x1F ADD PUSH1 0x20 DUP1 SWAP2 DIV MUL PUSH1 0x20 ADD PUSH1 0x40 MLOAD SWAP1 DUP2 ADD PUSH1 0x40 MSTORE DUP1 SWAP3 SWAP2 SWAP1 DUP2 DUP2 MSTORE PUSH1 0x20 ADD DUP3 DUP1 SLOAD PUSH2 0x25BC SWAP1 PUSH2 0x48B6 JUMP JUMPDEST DUP1 ISZERO PUSH2 0x2609 JUMPI DUP1 PUSH1 0x1F LT PUSH2 0x25DE JUMPI PUSH2 0x100 DUP1 DUP4 SLOAD DIV MUL DUP4 MSTORE SWAP2 PUSH1 0x20 ADD SWAP2 PUSH2 0x2609 JUMP JUMPDEST DUP3 ADD SWAP2 SWAP1 PUSH1 0x0 MSTORE PUSH1 0x20 PUSH1 0x0 KECCAK256 SWAP1 JUMPDEST DUP2 SLOAD DUP2 MSTORE SWAP1 PUSH1 0x1 ADD SWAP1 PUSH1 0x20 ADD DUP1 DUP4 GT PUSH2 0x25EC JUMPI DUP3 SWAP1 SUB PUSH1 0x1F AND DUP3 ADD SWAP2 JUMPDEST POP POP POP POP POP DUP3 DUP3 DUP2 MLOAD DUP2 LT PUSH2 0x2621 JUMPI PUSH2 0x2620 PUSH2 0x49A1 JUMP JUMPDEST JUMPDEST PUSH1 0x20 MUL PUSH1 0x20 ADD ADD DUP2 SWAP1 MSTORE POP DUP1 DUP1 PUSH2 0x2637 SWAP1 PUSH2 0x49FF JUMP JUMPDEST SWAP2 POP POP PUSH2 0x2565 JUMP JUMPDEST POP DUP1 SWAP2 POP POP SWAP1 JUMP JUMPDEST PUSH1 0x0 DUP1 PUSH1 0x0 SWAP1 POP JUMPDEST PUSH1 0x3 SLOAD DUP2 LT ISZERO PUSH2 0x26AD JUMPI DUP3 DUP1 MLOAD SWAP1 PUSH1 0x20 ADD KECCAK256 PUSH1 0xF PUSH1 0x0 DUP4 DUP2 MSTORE PUSH1 0x20 ADD SWAP1 DUP2 MSTORE PUSH1 0x20 ADD PUSH1 0x0 KECCAK256 PUSH1 0x1 ADD PUSH1 0x40 MLOAD PUSH2 0x2684 SWAP2 SWAP1 PUSH2 0x498A JUMP JUMPDEST PUSH1 0x40 MLOAD DUP1 SWAP2 SUB SWAP1 KECCAK256 SUB PUSH2 0x269A JUMPI DUP1 SWAP2 POP POP PUSH2 0x26B3 JUMP JUMPDEST DUP1 DUP1 PUSH2 0x26A5 SWAP1 PUSH2 0x49FF JUMP JUMPDEST SWAP2 POP POP PUSH2 0x264F JUMP JUMPDEST POP PUSH1 0x0 SWAP1 POP JUMPDEST SWAP2 SWAP1 POP JUMP JUMPDEST PUSH1 0x0 DUP1 PUSH1 0x0 SWAP1 POP JUMPDEST PUSH1 0x4 SLOAD DUP2 LT ISZERO PUSH2 0x2740 JUMPI DUP3 PUSH1 0xD PUSH1 0x0 DUP4 DUP2 MSTORE PUSH1 0x20 ADD SWAP1 DUP2 MSTORE PUSH1 0x20 ADD PUSH1 0x0 KECCAK256 PUSH1 0x1 ADD SLOAD EQ DUP1 ISZERO PUSH2 0x271F JUMPI POP DUP4 DUP1 MLOAD SWAP1 PUSH1 0x20 ADD KECCAK256 PUSH1 0xD PUSH1 0x0 DUP4 DUP2 MSTORE PUSH1 0x20 ADD SWAP1 DUP2 MSTORE PUSH1 0x20 ADD PUSH1 0x0 KECCAK256 PUSH1 0x0 ADD PUSH1 0x40 MLOAD PUSH2 0x2715 SWAP2 SWAP1 PUSH2 0x498A JUMP JUMPDEST PUSH1 0x40 MLOAD DUP1 SWAP2 SUB SWAP1 KECCAK256 EQ JUMPDEST ISZERO PUSH2 0x272D JUMPI DUP1 SWAP2 POP POP PUSH2 0x2747 JUMP JUMPDEST DUP1 DUP1 PUSH2 0x2738 SWAP1 PUSH2 0x49FF JUMP JUMPDEST SWAP2 POP POP PUSH2 0x26C0 JUMP JUMPDEST POP PUSH2 0x270F SWAP1 POP JUMPDEST SWAP3 SWAP2 POP POP JUMP JUMPDEST PUSH1 0x18 PUSH1 0x20 MSTORE DUP1 PUSH1 0x0 MSTORE PUSH1 0x40 PUSH1 0x0 KECCAK256 PUSH1 0x0 SWAP2 POP SWAP1 POP DUP1 PUSH1 0x0 ADD SLOAD SWAP1 DUP1 PUSH1 0x1 ADD PUSH1 0x0 SWAP1 SLOAD SWAP1 PUSH2 0x100 EXP SWAP1 DIV PUSH1 0xFF AND SWAP1 DUP1 PUSH1 0x1 ADD PUSH1 0x1 SWAP1 SLOAD SWAP1 PUSH2 0x100 EXP SWAP1 DIV PUSH1 0xFF AND SWAP1 DUP1 PUSH1 0x1 ADD PUSH1 0x2 SWAP1 SLOAD SWAP1 PUSH2 0x100 EXP SWAP1 DIV PUSH1 0xFF AND SWAP1 DUP1 PUSH1 0x1 ADD PUSH1 0x3 SWAP1 SLOAD SWAP1 PUSH2 0x100 EXP SWAP1 DIV PUSH1 0xFF AND SWAP1 DUP1 PUSH1 0x1 ADD PUSH1 0x4 SWAP1 SLOAD SWAP1 PUSH2 0x100 EXP SWAP1 DIV PUSH1 0xFF AND SWAP1 DUP1 PUSH1 0x1 ADD PUSH1 0x5 SWAP1 SLOAD SWAP1 PUSH2 0x100 EXP SWAP1 DIV PUSH1 0xFF AND SWAP1 DUP1 PUSH1 0x1 ADD PUSH1 0x6 SWAP1 SLOAD SWAP1 PUSH2 0x100 EXP SWAP1 DIV PUSH1 0xFF AND SWAP1 DUP1 PUSH1 0x1 ADD PUSH1 0x7 SWAP1 SLOAD SWAP1 PUSH2 0x100 EXP SWAP1 DIV PUSH1 0xFF AND SWAP1 POP DUP10 JUMP JUMPDEST PUSH1 0x0 DUP1 PUSH1 0x0 SWAP1 POP JUMPDEST PUSH1 0x4 SLOAD DUP2 LT ISZERO PUSH2 0x288C JUMPI DUP3 PUSH1 0xD PUSH1 0x0 DUP4 DUP2 MSTORE PUSH1 0x20 ADD SWAP1 DUP2 MSTORE PUSH1 0x20 ADD PUSH1 0x0 KECCAK256 PUSH1 0x1 ADD SLOAD EQ DUP1 ISZERO PUSH2 0x286A JUMPI POP DUP4 DUP1 MLOAD SWAP1 PUSH1 0x20 ADD KECCAK256 PUSH1 0xD PUSH1 0x0 DUP4 DUP2 MSTORE PUSH1 0x20 ADD SWAP1 DUP2 MSTORE PUSH1 0x20 ADD PUSH1 0x0 KECCAK256 PUSH1 0x0 ADD PUSH1 0x40 MLOAD PUSH2 0x2860 SWAP2 SWAP1 PUSH2 0x498A JUMP JUMPDEST PUSH1 0x40 MLOAD DUP1 SWAP2 SUB SWAP1 KECCAK256 EQ JUMPDEST ISZERO PUSH2 0x2879 JUMPI PUSH1 0x1 SWAP2 POP POP PUSH2 0x2892 JUMP JUMPDEST DUP1 DUP1 PUSH2 0x2884 SWAP1 PUSH2 0x49FF JUMP JUMPDEST SWAP2 POP POP PUSH2 0x280B JUMP JUMPDEST POP PUSH1 0x0 SWAP1 POP JUMPDEST SWAP3 SWAP2 POP POP JUMP JUMPDEST PUSH1 0x9 SLOAD DUP2 JUMP JUMPDEST PUSH1 0x60 PUSH1 0x0 JUMPDEST PUSH1 0x3 SLOAD DUP2 LT ISZERO PUSH2 0x299F JUMPI DUP3 DUP1 MLOAD SWAP1 PUSH1 0x20 ADD KECCAK256 PUSH1 0xF PUSH1 0x0 DUP4 DUP2 MSTORE PUSH1 0x20 ADD SWAP1 DUP2 MSTORE PUSH1 0x20 ADD PUSH1 0x0 KECCAK256 PUSH1 0x1 ADD PUSH1 0x40 MLOAD PUSH2 0x28D8 SWAP2 SWAP1 PUSH2 0x498A JUMP JUMPDEST PUSH1 0x40 MLOAD DUP1 SWAP2 SUB SWAP1 KECCAK256 SUB PUSH2 0x298C JUMPI PUSH1 0xF PUSH1 0x0 DUP3 DUP2 MSTORE PUSH1 0x20 ADD SWAP1 DUP2 MSTORE PUSH1 0x20 ADD PUSH1 0x0 KECCAK256 PUSH1 0x0 ADD DUP1 SLOAD PUSH2 0x2906 SWAP1 PUSH2 0x48B6 JUMP JUMPDEST DUP1 PUSH1 0x1F ADD PUSH1 0x20 DUP1 SWAP2 DIV MUL PUSH1 0x20 ADD PUSH1 0x40 MLOAD SWAP1 DUP2 ADD PUSH1 0x40 MSTORE DUP1 SWAP3 SWAP2 SWAP1 DUP2 DUP2 MSTORE PUSH1 0x20 ADD DUP3 DUP1 SLOAD PUSH2 0x2932 SWAP1 PUSH2 0x48B6 JUMP JUMPDEST DUP1 ISZERO PUSH2 0x297F JUMPI DUP1 PUSH1 0x1F LT PUSH2 0x2954 JUMPI PUSH2 0x100 DUP1 DUP4 SLOAD DIV MUL DUP4 MSTORE SWAP2 PUSH1 0x20 ADD SWAP2 PUSH2 0x297F JUMP JUMPDEST DUP3 ADD SWAP2 SWAP1 PUSH1 0x0 MSTORE PUSH1 0x20 PUSH1 0x0 KECCAK256 SWAP1 JUMPDEST DUP2 SLOAD DUP2 MSTORE SWAP1 PUSH1 0x1 ADD SWAP1 PUSH1 0x20 ADD DUP1 DUP4 GT PUSH2 0x2962 JUMPI DUP3 SWAP1 SUB PUSH1 0x1F AND DUP3 ADD SWAP2 JUMPDEST POP POP POP POP POP SWAP2 POP POP PUSH2 0x29B3 JUMP JUMPDEST DUP1 DUP1 PUSH2 0x2997 SWAP1 PUSH2 0x49FF JUMP JUMPDEST SWAP2 POP POP PUSH2 0x28A3 JUMP JUMPDEST POP PUSH1 0x40 MLOAD DUP1 PUSH1 0x20 ADD PUSH1 0x40 MSTORE DUP1 PUSH1 0x0 DUP2 MSTORE POP SWAP1 POP JUMPDEST SWAP2 SWAP1 POP JUMP JUMPDEST PUSH1 0x0 JUMPDEST PUSH1 0x0 SLOAD DUP2 LT ISZERO PUSH2 0x2A1E JUMPI PUSH1 0xB PUSH1 0x0 DUP3 DUP2 MSTORE PUSH1 0x20 ADD SWAP1 DUP2 MSTORE PUSH1 0x20 ADD PUSH1 0x0 KECCAK256 PUSH1 0x0 DUP1 DUP3 ADD PUSH1 0x0 PUSH2 0x29E9 SWAP2 SWAP1 PUSH2 0x3779 JUMP JUMPDEST PUSH1 0x1 DUP3 ADD PUSH1 0x0 PUSH2 0x29F9 SWAP2 SWAP1 PUSH2 0x3779 JUMP JUMPDEST PUSH1 0x2 DUP3 ADD PUSH1 0x0 PUSH2 0x2A09 SWAP2 SWAP1 PUSH2 0x3779 JUMP JUMPDEST POP POP DUP1 DUP1 PUSH2 0x2A16 SWAP1 PUSH2 0x49FF JUMP JUMPDEST SWAP2 POP POP PUSH2 0x29BB JUMP JUMPDEST POP PUSH1 0x0 JUMPDEST PUSH1 0x2 SLOAD DUP2 LT ISZERO PUSH2 0x2A75 JUMPI PUSH1 0xE PUSH1 0x0 DUP3 DUP2 MSTORE PUSH1 0x20 ADD SWAP1 DUP2 MSTORE PUSH1 0x20 ADD PUSH1 0x0 KECCAK256 PUSH1 0x0 DUP1 DUP3 ADD PUSH1 0x0 PUSH2 0x2A50 SWAP2 SWAP1 PUSH2 0x3779 JUMP JUMPDEST PUSH1 0x1 DUP3 ADD PUSH1 0x0 PUSH2 0x2A60 SWAP2 SWAP1 PUSH2 0x3779 JUMP JUMPDEST POP POP DUP1 DUP1 PUSH2 0x2A6D SWAP1 PUSH2 0x49FF JUMP JUMPDEST SWAP2 POP POP PUSH2 0x2A22 JUMP JUMPDEST POP PUSH1 0x0 JUMPDEST PUSH1 0x3 SLOAD DUP2 LT ISZERO PUSH2 0x2AD4 JUMPI PUSH1 0xF PUSH1 0x0 DUP3 DUP2 MSTORE PUSH1 0x20 ADD SWAP1 DUP2 MSTORE PUSH1 0x20 ADD PUSH1 0x0 KECCAK256 PUSH1 0x0 DUP1 DUP3 ADD PUSH1 0x0 PUSH2 0x2AA7 SWAP2 SWAP1 PUSH2 0x3779 JUMP JUMPDEST PUSH1 0x1 DUP3 ADD PUSH1 0x0 PUSH2 0x2AB7 SWAP2 SWAP1 PUSH2 0x3779 JUMP JUMPDEST PUSH1 0x2 DUP3 ADD PUSH1 0x0 SWAP1 SSTORE POP POP DUP1 DUP1 PUSH2 0x2ACC SWAP1 PUSH2 0x49FF JUMP JUMPDEST SWAP2 POP POP PUSH2 0x2A79 JUMP JUMPDEST POP PUSH1 0x0 JUMPDEST PUSH1 0x2 SLOAD DUP2 LT ISZERO PUSH2 0x2B2B JUMPI PUSH1 0x13 PUSH1 0x0 DUP3 DUP2 MSTORE PUSH1 0x20 ADD SWAP1 DUP2 MSTORE PUSH1 0x20 ADD PUSH1 0x0 KECCAK256 PUSH1 0x0 DUP1 DUP3 ADD PUSH1 0x0 SWAP1 SSTORE PUSH1 0x1 DUP3 ADD PUSH1 0x0 SWAP1 SSTORE PUSH1 0x2 DUP3 ADD PUSH1 0x0 PUSH2 0x2B16 SWAP2 SWAP1 PUSH2 0x3779 JUMP JUMPDEST POP POP DUP1 DUP1 PUSH2 0x2B23 SWAP1 PUSH2 0x49FF JUMP JUMPDEST SWAP2 POP POP PUSH2 0x2AD8 JUMP JUMPDEST POP PUSH1 0x0 JUMPDEST PUSH1 0x7 SLOAD DUP2 LT ISZERO PUSH2 0x2B9A JUMPI PUSH1 0x15 PUSH1 0x0 DUP3 DUP2 MSTORE PUSH1 0x20 ADD SWAP1 DUP2 MSTORE PUSH1 0x20 ADD PUSH1 0x0 KECCAK256 PUSH1 0x0 DUP1 DUP3 ADD PUSH1 0x0 SWAP1 SSTORE PUSH1 0x1 DUP3 ADD PUSH1 0x0 PUSH2 0x2B65 SWAP2 SWAP1 PUSH2 0x3779 JUMP JUMPDEST PUSH1 0x2 DUP3 ADD PUSH1 0x0 PUSH2 0x2B75 SWAP2 SWAP1 PUSH2 0x3779 JUMP JUMPDEST PUSH1 0x3 DUP3 ADD PUSH1 0x0 PUSH2 0x2B85 SWAP2 SWAP1 PUSH2 0x3779 JUMP JUMPDEST POP POP DUP1 DUP1 PUSH2 0x2B92 SWAP1 PUSH2 0x49FF JUMP JUMPDEST SWAP2 POP POP PUSH2 0x2B2F JUMP JUMPDEST POP PUSH1 0x0 JUMPDEST PUSH1 0x9 SLOAD DUP2 LT ISZERO PUSH2 0x2BF9 JUMPI PUSH1 0x17 PUSH1 0x0 DUP3 DUP2 MSTORE PUSH1 0x20 ADD SWAP1 DUP2 MSTORE PUSH1 0x20 ADD PUSH1 0x0 KECCAK256 PUSH1 0x0 DUP1 DUP3 ADD PUSH1 0x0 SWAP1 SSTORE PUSH1 0x1 DUP3 ADD PUSH1 0x0 SWAP1 SSTORE PUSH1 0x2 DUP3 ADD PUSH1 0x0 SWAP1 SSTORE PUSH1 0x3 DUP3 ADD PUSH1 0x0 PUSH2 0x2BE4 SWAP2 SWAP1 PUSH2 0x3779 JUMP JUMPDEST POP POP DUP1 DUP1 PUSH2 0x2BF1 SWAP1 PUSH2 0x49FF JUMP JUMPDEST SWAP2 POP POP PUSH2 0x2B9E JUMP JUMPDEST POP PUSH1 0x0 JUMPDEST PUSH1 0x6 SLOAD DUP2 LT ISZERO PUSH2 0x2C58 JUMPI PUSH1 0x14 PUSH1 0x0 DUP3 DUP2 MSTORE PUSH1 0x20 ADD SWAP1 DUP2 MSTORE PUSH1 0x20 ADD PUSH1 0x0 KECCAK256 PUSH1 0x0 DUP1 DUP3 ADD PUSH1 0x0 PUSH2 0x2C2B SWAP2 SWAP1 PUSH2 0x3779 JUMP JUMPDEST PUSH1 0x1 DUP3 ADD PUSH1 0x0 PUSH2 0x2C3B SWAP2 SWAP1 PUSH2 0x3779 JUMP JUMPDEST PUSH1 0x2 DUP3 ADD PUSH1 0x0 SWAP1 SSTORE POP POP DUP1 DUP1 PUSH2 0x2C50 SWAP1 PUSH2 0x49FF JUMP JUMPDEST SWAP2 POP POP PUSH2 0x2BFD JUMP JUMPDEST POP PUSH1 0x0 DUP1 DUP2 SWAP1 SSTORE POP PUSH1 0x0 PUSH1 0x2 DUP2 SWAP1 SSTORE POP PUSH1 0x0 PUSH1 0x3 DUP2 SWAP1 SSTORE POP PUSH1 0x0 PUSH1 0x7 DUP2 SWAP1 SSTORE POP PUSH1 0x0 PUSH1 0x9 DUP2 SWAP1 SSTORE POP PUSH1 0x0 PUSH1 0x6 DUP2 SWAP1 SSTORE POP JUMP JUMPDEST PUSH1 0x0 PUSH1 0x40 MLOAD DUP1 PUSH1 0x40 ADD PUSH1 0x40 MSTORE DUP1 DUP6 DUP2 MSTORE PUSH1 0x20 ADD DUP7 DUP2 MSTORE POP PUSH1 0xE PUSH1 0x0 PUSH1 0x2 SLOAD DUP2 MSTORE PUSH1 0x20 ADD SWAP1 DUP2 MSTORE PUSH1 0x20 ADD PUSH1 0x0 KECCAK256 PUSH1 0x0 DUP3 ADD MLOAD DUP2 PUSH1 0x0 ADD SWAP1 DUP2 PUSH2 0x2CCB SWAP2 SWAP1 PUSH2 0x4C27 JUMP JUMPDEST POP PUSH1 0x20 DUP3 ADD MLOAD DUP2 PUSH1 0x1 ADD SWAP1 DUP2 PUSH2 0x2CE1 SWAP2 SWAP1 PUSH2 0x4C27 JUMP JUMPDEST POP SWAP1 POP POP PUSH1 0x1 PUSH1 0x18 PUSH1 0x0 DUP6 DUP2 MSTORE PUSH1 0x20 ADD SWAP1 DUP2 MSTORE PUSH1 0x20 ADD PUSH1 0x0 KECCAK256 PUSH1 0x1 ADD PUSH1 0x2 PUSH2 0x100 EXP DUP2 SLOAD DUP2 PUSH1 0xFF MUL NOT AND SWAP1 DUP4 ISZERO ISZERO MUL OR SWAP1 SSTORE POP PUSH1 0x2 PUSH1 0x0 DUP2 SLOAD DUP1 SWAP3 SWAP2 SWAP1 PUSH2 0x2D27 SWAP1 PUSH2 0x49FF JUMP JUMPDEST SWAP2 SWAP1 POP SSTORE POP PUSH2 0x2D6B DUP3 PUSH1 0x40 MLOAD DUP1 PUSH1 0x40 ADD PUSH1 0x40 MSTORE DUP1 PUSH1 0x4 DUP2 MSTORE PUSH1 0x20 ADD PUSH32 0x676F616C00000000000000000000000000000000000000000000000000000000 DUP2 MSTORE POP PUSH2 0x2F40 JUMP JUMPDEST PUSH1 0x2 SLOAD SWAP1 POP SWAP5 SWAP4 POP POP POP POP JUMP JUMPDEST PUSH1 0x15 PUSH1 0x20 MSTORE DUP1 PUSH1 0x0 MSTORE PUSH1 0x40 PUSH1 0x0 KECCAK256 PUSH1 0x0 SWAP2 POP SWAP1 POP DUP1 PUSH1 0x0 ADD SLOAD SWAP1 DUP1 PUSH1 0x1 ADD DUP1 SLOAD PUSH2 0x2DA1 SWAP1 PUSH2 0x48B6 JUMP JUMPDEST DUP1 PUSH1 0x1F ADD PUSH1 0x20 DUP1 SWAP2 DIV MUL PUSH1 0x20 ADD PUSH1 0x40 MLOAD SWAP1 DUP2 ADD PUSH1 0x40 MSTORE DUP1 SWAP3 SWAP2 SWAP1 DUP2 DUP2 MSTORE PUSH1 0x20 ADD DUP3 DUP1 SLOAD PUSH2 0x2DCD SWAP1 PUSH2 0x48B6 JUMP JUMPDEST DUP1 ISZERO PUSH2 0x2E1A JUMPI DUP1 PUSH1 0x1F LT PUSH2 0x2DEF JUMPI PUSH2 0x100 DUP1 DUP4 SLOAD DIV MUL DUP4 MSTORE SWAP2 PUSH1 0x20 ADD SWAP2 PUSH2 0x2E1A JUMP JUMPDEST DUP3 ADD SWAP2 SWAP1 PUSH1 0x0 MSTORE PUSH1 0x20 PUSH1 0x0 KECCAK256 SWAP1 JUMPDEST DUP2 SLOAD DUP2 MSTORE SWAP1 PUSH1 0x1 ADD SWAP1 PUSH1 0x20 ADD DUP1 DUP4 GT PUSH2 0x2DFD JUMPI DUP3 SWAP1 SUB PUSH1 0x1F AND DUP3 ADD SWAP2 JUMPDEST POP POP POP POP POP SWAP1 DUP1 PUSH1 0x2 ADD DUP1 SLOAD PUSH2 0x2E2F SWAP1 PUSH2 0x48B6 JUMP JUMPDEST DUP1 PUSH1 0x1F ADD PUSH1 0x20 DUP1 SWAP2 DIV MUL PUSH1 0x20 ADD PUSH1 0x40 MLOAD SWAP1 DUP2 ADD PUSH1 0x40 MSTORE DUP1 SWAP3 SWAP2 SWAP1 DUP2 DUP2 MSTORE PUSH1 0x20 ADD DUP3 DUP1 SLOAD PUSH2 0x2E5B SWAP1 PUSH2 0x48B6 JUMP JUMPDEST DUP1 ISZERO PUSH2 0x2EA8 JUMPI DUP1 PUSH1 0x1F LT PUSH2 0x2E7D JUMPI PUSH2 0x100 DUP1 DUP4 SLOAD DIV MUL DUP4 MSTORE SWAP2 PUSH1 0x20 ADD SWAP2 PUSH2 0x2EA8 JUMP JUMPDEST DUP3 ADD SWAP2 SWAP1 PUSH1 0x0 MSTORE PUSH1 0x20 PUSH1 0x0 KECCAK256 SWAP1 JUMPDEST DUP2 SLOAD DUP2 MSTORE SWAP1 PUSH1 0x1 ADD SWAP1 PUSH1 0x20 ADD DUP1 DUP4 GT PUSH2 0x2E8B JUMPI DUP3 SWAP1 SUB PUSH1 0x1F AND DUP3 ADD SWAP2 JUMPDEST POP POP POP POP POP SWAP1 DUP1 PUSH1 0x3 ADD DUP1 SLOAD PUSH2 0x2EBD SWAP1 PUSH2 0x48B6 JUMP JUMPDEST DUP1 PUSH1 0x1F ADD PUSH1 0x20 DUP1 SWAP2 DIV MUL PUSH1 0x20 ADD PUSH1 0x40 MLOAD SWAP1 DUP2 ADD PUSH1 0x40 MSTORE DUP1 SWAP3 SWAP2 SWAP1 DUP2 DUP2 MSTORE PUSH1 0x20 ADD DUP3 DUP1 SLOAD PUSH2 0x2EE9 SWAP1 PUSH2 0x48B6 JUMP JUMPDEST DUP1 ISZERO PUSH2 0x2F36 JUMPI DUP1 PUSH1 0x1F LT PUSH2 0x2F0B JUMPI PUSH2 0x100 DUP1 DUP4 SLOAD DIV MUL DUP4 MSTORE SWAP2 PUSH1 0x20 ADD SWAP2 PUSH2 0x2F36 JUMP JUMPDEST DUP3 ADD SWAP2 SWAP1 PUSH1 0x0 MSTORE PUSH1 0x20 PUSH1 0x0 KECCAK256 SWAP1 JUMPDEST DUP2 SLOAD DUP2 MSTORE SWAP1 PUSH1 0x1 ADD SWAP1 PUSH1 0x20 ADD DUP1 DUP4 GT PUSH2 0x2F19 JUMPI DUP3 SWAP1 SUB PUSH1 0x1F AND DUP3 ADD SWAP2 JUMPDEST POP POP POP POP POP SWAP1 POP DUP5 JUMP JUMPDEST PUSH1 0x40 MLOAD DUP1 PUSH1 0x80 ADD PUSH1 0x40 MSTORE DUP1 PUSH1 0xA SLOAD DUP2 MSTORE PUSH1 0x20 ADD TIMESTAMP DUP2 MSTORE PUSH1 0x20 ADD DUP3 DUP2 MSTORE PUSH1 0x20 ADD DUP4 DUP2 MSTORE POP PUSH1 0x11 PUSH1 0x0 PUSH1 0xA SLOAD DUP2 MSTORE PUSH1 0x20 ADD SWAP1 DUP2 MSTORE PUSH1 0x20 ADD PUSH1 0x0 KECCAK256 PUSH1 0x0 DUP3 ADD MLOAD DUP2 PUSH1 0x0 ADD SSTORE PUSH1 0x20 DUP3 ADD MLOAD DUP2 PUSH1 0x1 ADD SSTORE PUSH1 0x40 DUP3 ADD MLOAD DUP2 PUSH1 0x2 ADD SWAP1 DUP2 PUSH2 0x2FA1 SWAP2 SWAP1 PUSH2 0x4C27 JUMP JUMPDEST POP PUSH1 0x60 DUP3 ADD MLOAD DUP2 PUSH1 0x3 ADD SWAP1 DUP2 PUSH2 0x2FB7 SWAP2 SWAP1 PUSH2 0x4C27 JUMP JUMPDEST POP SWAP1 POP POP PUSH1 0xA PUSH1 0x0 DUP2 SLOAD DUP1 SWAP3 SWAP2 SWAP1 PUSH2 0x2FCE SWAP1 PUSH2 0x49FF JUMP JUMPDEST SWAP2 SWAP1 POP SSTORE POP POP POP JUMP JUMPDEST DUP1 PUSH1 0xF PUSH1 0x0 DUP5 DUP2 MSTORE PUSH1 0x20 ADD SWAP1 DUP2 MSTORE PUSH1 0x20 ADD PUSH1 0x0 KECCAK256 PUSH1 0x1 ADD SWAP1 DUP2 PUSH2 0x2FFA SWAP2 SWAP1 PUSH2 0x4C27 JUMP JUMPDEST POP POP POP JUMP JUMPDEST PUSH1 0x60 PUSH1 0x0 DUP1 SLOAD PUSH8 0xFFFFFFFFFFFFFFFF DUP2 GT ISZERO PUSH2 0x301E JUMPI PUSH2 0x301D PUSH2 0x3805 JUMP JUMPDEST JUMPDEST PUSH1 0x40 MLOAD SWAP1 DUP1 DUP3 MSTORE DUP1 PUSH1 0x20 MUL PUSH1 0x20 ADD DUP3 ADD PUSH1 0x40 MSTORE DUP1 ISZERO PUSH2 0x3051 JUMPI DUP2 PUSH1 0x20 ADD JUMPDEST PUSH1 0x60 DUP2 MSTORE PUSH1 0x20 ADD SWAP1 PUSH1 0x1 SWAP1 SUB SWAP1 DUP2 PUSH2 0x303C JUMPI SWAP1 POP JUMPDEST POP SWAP1 POP PUSH1 0x0 JUMPDEST PUSH1 0x0 SLOAD DUP2 LT ISZERO PUSH2 0x3131 JUMPI PUSH1 0xB PUSH1 0x0 DUP3 DUP2 MSTORE PUSH1 0x20 ADD SWAP1 DUP2 MSTORE PUSH1 0x20 ADD PUSH1 0x0 KECCAK256 PUSH1 0x1 ADD DUP1 SLOAD PUSH2 0x3082 SWAP1 PUSH2 0x48B6 JUMP JUMPDEST DUP1 PUSH1 0x1F ADD PUSH1 0x20 DUP1 SWAP2 DIV MUL PUSH1 0x20 ADD PUSH1 0x40 MLOAD SWAP1 DUP2 ADD PUSH1 0x40 MSTORE DUP1 SWAP3 SWAP2 SWAP1 DUP2 DUP2 MSTORE PUSH1 0x20 ADD DUP3 DUP1 SLOAD PUSH2 0x30AE SWAP1 PUSH2 0x48B6 JUMP JUMPDEST DUP1 ISZERO PUSH2 0x30FB JUMPI DUP1 PUSH1 0x1F LT PUSH2 0x30D0 JUMPI PUSH2 0x100 DUP1 DUP4 SLOAD DIV MUL DUP4 MSTORE SWAP2 PUSH1 0x20 ADD SWAP2 PUSH2 0x30FB JUMP JUMPDEST DUP3 ADD SWAP2 SWAP1 PUSH1 0x0 MSTORE PUSH1 0x20 PUSH1 0x0 KECCAK256 SWAP1 JUMPDEST DUP2 SLOAD DUP2 MSTORE SWAP1 PUSH1 0x1 ADD SWAP1 PUSH1 0x20 ADD DUP1 DUP4 GT PUSH2 0x30DE JUMPI DUP3 SWAP1 SUB PUSH1 0x1F AND DUP3 ADD SWAP2 JUMPDEST POP POP POP POP POP DUP3 DUP3 DUP2 MLOAD DUP2 LT PUSH2 0x3113 JUMPI PUSH2 0x3112 PUSH2 0x49A1 JUMP JUMPDEST JUMPDEST PUSH1 0x20 MUL PUSH1 0x20 ADD ADD DUP2 SWAP1 MSTORE POP DUP1 DUP1 PUSH2 0x3129 SWAP1 PUSH2 0x49FF JUMP JUMPDEST SWAP2 POP POP PUSH2 0x3057 JUMP JUMPDEST POP DUP1 SWAP2 POP POP SWAP1 JUMP JUMPDEST DUP1 PUSH1 0xE PUSH1 0x0 DUP5 DUP2 MSTORE PUSH1 0x20 ADD SWAP1 DUP2 MSTORE PUSH1 0x20 ADD PUSH1 0x0 KECCAK256 PUSH1 0x1 ADD SWAP1 DUP2 PUSH2 0x315C SWAP2 SWAP1 PUSH2 0x4C27 JUMP JUMPDEST POP POP POP JUMP JUMPDEST PUSH1 0x8 SLOAD DUP2 JUMP JUMPDEST PUSH1 0x0 PUSH1 0x1 PUSH1 0x18 PUSH1 0x0 DUP5 DUP2 MSTORE PUSH1 0x20 ADD SWAP1 DUP2 MSTORE PUSH1 0x20 ADD PUSH1 0x0 KECCAK256 PUSH1 0x1 ADD PUSH1 0x6 PUSH2 0x100 EXP DUP2 SLOAD DUP2 PUSH1 0xFF MUL NOT AND SWAP1 DUP4 ISZERO ISZERO MUL OR SWAP1 SSTORE POP PUSH1 0x40 MLOAD DUP1 PUSH1 0x80 ADD PUSH1 0x40 MSTORE DUP1 PUSH1 0x7 SLOAD DUP2 MSTORE PUSH1 0x20 ADD DUP7 DUP2 MSTORE PUSH1 0x20 ADD DUP6 DUP2 MSTORE PUSH1 0x20 ADD DUP5 DUP2 MSTORE POP PUSH1 0x15 PUSH1 0x0 PUSH1 0x7 SLOAD DUP2 MSTORE PUSH1 0x20 ADD SWAP1 DUP2 MSTORE PUSH1 0x20 ADD PUSH1 0x0 KECCAK256 PUSH1 0x0 DUP3 ADD MLOAD DUP2 PUSH1 0x0 ADD SSTORE PUSH1 0x20 DUP3 ADD MLOAD DUP2 PUSH1 0x1 ADD SWAP1 DUP2 PUSH2 0x31EF SWAP2 SWAP1 PUSH2 0x4C27 JUMP JUMPDEST POP PUSH1 0x40 DUP3 ADD MLOAD DUP2 PUSH1 0x2 ADD SWAP1 DUP2 PUSH2 0x3205 SWAP2 SWAP1 PUSH2 0x4C27 JUMP JUMPDEST POP PUSH1 0x60 DUP3 ADD MLOAD DUP2 PUSH1 0x3 ADD SWAP1 DUP2 PUSH2 0x321B SWAP2 SWAP1 PUSH2 0x4C27 JUMP JUMPDEST POP SWAP1 POP POP PUSH1 0x7 PUSH1 0x0 DUP2 SLOAD DUP1 SWAP3 SWAP2 SWAP1 PUSH2 0x3232 SWAP1 PUSH2 0x49FF JUMP JUMPDEST SWAP2 SWAP1 POP SSTORE POP PUSH1 0x7 SLOAD SWAP1 POP SWAP5 SWAP4 POP POP POP POP JUMP JUMPDEST PUSH1 0x16 PUSH1 0x20 MSTORE DUP1 PUSH1 0x0 MSTORE PUSH1 0x40 PUSH1 0x0 KECCAK256 PUSH1 0x0 SWAP2 POP SWAP1 POP DUP1 PUSH1 0x0 ADD SLOAD SWAP1 DUP1 PUSH1 0x1 ADD SLOAD SWAP1 DUP1 PUSH1 0x2 ADD SLOAD SWAP1 DUP1 PUSH1 0x3 ADD DUP1 SLOAD PUSH2 0x3279 SWAP1 PUSH2 0x48B6 JUMP JUMPDEST DUP1 PUSH1 0x1F ADD PUSH1 0x20 DUP1 SWAP2 DIV MUL PUSH1 0x20 ADD PUSH1 0x40 MLOAD SWAP1 DUP2 ADD PUSH1 0x40 MSTORE DUP1 SWAP3 SWAP2 SWAP1 DUP2 DUP2 MSTORE PUSH1 0x20 ADD DUP3 DUP1 SLOAD PUSH2 0x32A5 SWAP1 PUSH2 0x48B6 JUMP JUMPDEST DUP1 ISZERO PUSH2 0x32F2 JUMPI DUP1 PUSH1 0x1F LT PUSH2 0x32C7 JUMPI PUSH2 0x100 DUP1 DUP4 SLOAD DIV MUL DUP4 MSTORE SWAP2 PUSH1 0x20 ADD SWAP2 PUSH2 0x32F2 JUMP JUMPDEST DUP3 ADD SWAP2 SWAP1 PUSH1 0x0 MSTORE PUSH1 0x20 PUSH1 0x0 KECCAK256 SWAP1 JUMPDEST DUP2 SLOAD DUP2 MSTORE SWAP1 PUSH1 0x1 ADD SWAP1 PUSH1 0x20 ADD DUP1 DUP4 GT PUSH2 0x32D5 JUMPI DUP3 SWAP1 SUB PUSH1 0x1F AND DUP3 ADD SWAP2 JUMPDEST POP POP POP POP POP SWAP1 POP DUP5 JUMP JUMPDEST PUSH1 0x0 DUP1 PUSH1 0x0 SWAP1 POP PUSH1 0x0 JUMPDEST PUSH1 0x8 SLOAD DUP2 LT ISZERO PUSH2 0x3382 JUMPI DUP5 PUSH1 0x16 PUSH1 0x0 DUP4 DUP2 MSTORE PUSH1 0x20 ADD SWAP1 DUP2 MSTORE PUSH1 0x20 ADD PUSH1 0x0 KECCAK256 PUSH1 0x0 ADD SLOAD EQ DUP1 ISZERO PUSH2 0x3365 JUMPI POP PUSH1 0x16 PUSH1 0x0 DUP3 DUP2 MSTORE PUSH1 0x20 ADD SWAP1 DUP2 MSTORE PUSH1 0x20 ADD PUSH1 0x0 KECCAK256 PUSH1 0x3 ADD PUSH1 0x40 MLOAD PUSH2 0x3353 SWAP2 SWAP1 PUSH2 0x498A JUMP JUMPDEST PUSH1 0x40 MLOAD DUP1 SWAP2 SUB SWAP1 KECCAK256 DUP5 DUP1 MLOAD SWAP1 PUSH1 0x20 ADD KECCAK256 EQ JUMPDEST ISZERO PUSH2 0x336F JUMPI PUSH1 0x1 SWAP2 POP JUMPDEST DUP1 DUP1 PUSH2 0x337A SWAP1 PUSH2 0x49FF JUMP JUMPDEST SWAP2 POP POP PUSH2 0x3306 JUMP JUMPDEST POP DUP1 SWAP2 POP POP SWAP3 SWAP2 POP POP JUMP JUMPDEST PUSH1 0x3 SLOAD DUP2 JUMP JUMPDEST PUSH1 0x0 PUSH1 0x1 PUSH1 0x18 PUSH1 0x0 DUP5 DUP2 MSTORE PUSH1 0x20 ADD SWAP1 DUP2 MSTORE PUSH1 0x20 ADD PUSH1 0x0 KECCAK256 PUSH1 0x1 ADD PUSH1 0x7 PUSH2 0x100 EXP DUP2 SLOAD DUP2 PUSH1 0xFF MUL NOT AND SWAP1 DUP4 ISZERO ISZERO MUL OR SWAP1 SSTORE POP PUSH1 0x40 MLOAD DUP1 PUSH1 0x80 ADD PUSH1 0x40 MSTORE DUP1 PUSH1 0x9 SLOAD DUP2 MSTORE PUSH1 0x20 ADD DUP7 DUP2 MSTORE PUSH1 0x20 ADD DUP5 DUP2 MSTORE PUSH1 0x20 ADD DUP6 DUP2 MSTORE POP PUSH1 0x17 PUSH1 0x0 PUSH1 0x9 SLOAD DUP2 MSTORE PUSH1 0x20 ADD SWAP1 DUP2 MSTORE PUSH1 0x20 ADD PUSH1 0x0 KECCAK256 PUSH1 0x0 DUP3 ADD MLOAD DUP2 PUSH1 0x0 ADD SSTORE PUSH1 0x20 DUP3 ADD MLOAD DUP2 PUSH1 0x1 ADD SSTORE PUSH1 0x40 DUP3 ADD MLOAD DUP2 PUSH1 0x2 ADD SSTORE PUSH1 0x60 DUP3 ADD MLOAD DUP2 PUSH1 0x3 ADD SWAP1 DUP2 PUSH2 0x342F SWAP2 SWAP1 PUSH2 0x4C27 JUMP JUMPDEST POP SWAP1 POP POP PUSH1 0x9 PUSH1 0x0 DUP2 SLOAD DUP1 SWAP3 SWAP2 SWAP1 PUSH2 0x3446 SWAP1 PUSH2 0x49FF JUMP JUMPDEST SWAP2 SWAP1 POP SSTORE POP PUSH1 0x9 SLOAD SWAP1 POP SWAP5 SWAP4 POP POP POP POP JUMP JUMPDEST PUSH1 0x0 PUSH1 0x40 MLOAD DUP1 PUSH1 0x60 ADD PUSH1 0x40 MSTORE DUP1 DUP7 DUP2 MSTORE PUSH1 0x20 ADD DUP8 DUP2 MSTORE PUSH1 0x20 ADD PUSH1 0x0 DUP2 MSTORE POP PUSH1 0xF PUSH1 0x0 PUSH1 0x3 SLOAD DUP2 MSTORE PUSH1 0x20 ADD SWAP1 DUP2 MSTORE PUSH1 0x20 ADD PUSH1 0x0 KECCAK256 PUSH1 0x0 DUP3 ADD MLOAD DUP2 PUSH1 0x0 ADD SWAP1 DUP2 PUSH2 0x34A0 SWAP2 SWAP1 PUSH2 0x4C27 JUMP JUMPDEST POP PUSH1 0x20 DUP3 ADD MLOAD DUP2 PUSH1 0x1 ADD SWAP1 DUP2 PUSH2 0x34B6 SWAP2 SWAP1 PUSH2 0x4C27 JUMP JUMPDEST POP PUSH1 0x40 DUP3 ADD MLOAD DUP2 PUSH1 0x2 ADD SSTORE SWAP1 POP POP PUSH1 0x1 PUSH1 0x18 PUSH1 0x0 DUP6 DUP2 MSTORE PUSH1 0x20 ADD SWAP1 DUP2 MSTORE PUSH1 0x20 ADD PUSH1 0x0 KECCAK256 PUSH1 0x1 ADD PUSH1 0x3 PUSH2 0x100 EXP DUP2 SLOAD DUP2 PUSH1 0xFF MUL NOT AND SWAP1 DUP4 ISZERO ISZERO MUL OR SWAP1 SSTORE POP PUSH1 0x3 PUSH1 0x0 DUP2 SLOAD DUP1 SWAP3 SWAP2 SWAP1 PUSH2 0x3506 SWAP1 PUSH2 0x49FF JUMP JUMPDEST SWAP2 SWAP1 POP SSTORE POP PUSH1 0x0 JUMPDEST DUP5 MLOAD DUP2 LT ISZERO PUSH2 0x356B JUMPI PUSH2 0x3540 PUSH1 0x3 SLOAD PUSH1 0x5 SLOAD DUP8 DUP5 DUP2 MLOAD DUP2 LT PUSH2 0x3533 JUMPI PUSH2 0x3532 PUSH2 0x49A1 JUMP JUMPDEST JUMPDEST PUSH1 0x20 MUL PUSH1 0x20 ADD ADD MLOAD PUSH2 0x3719 JUMP JUMPDEST PUSH1 0x5 PUSH1 0x0 DUP2 SLOAD DUP1 SWAP3 SWAP2 SWAP1 PUSH2 0x3553 SWAP1 PUSH2 0x49FF JUMP JUMPDEST SWAP2 SWAP1 POP SSTORE POP DUP1 DUP1 PUSH2 0x3563 SWAP1 PUSH2 0x49FF JUMP JUMPDEST SWAP2 POP POP PUSH2 0x350E JUMP JUMPDEST POP PUSH2 0x35AB DUP3 PUSH1 0x40 MLOAD DUP1 PUSH1 0x40 ADD PUSH1 0x40 MSTORE DUP1 PUSH1 0x4 DUP2 MSTORE PUSH1 0x20 ADD PUSH32 0x6964656100000000000000000000000000000000000000000000000000000000 DUP2 MSTORE POP PUSH2 0x2F40 JUMP JUMPDEST PUSH1 0x3 SLOAD SWAP1 POP SWAP6 SWAP5 POP POP POP POP POP JUMP JUMPDEST PUSH1 0x60 PUSH1 0xE PUSH1 0x0 DUP4 DUP2 MSTORE PUSH1 0x20 ADD SWAP1 DUP2 MSTORE PUSH1 0x20 ADD PUSH1 0x0 KECCAK256 PUSH1 0x1 ADD DUP1 SLOAD PUSH2 0x35DC SWAP1 PUSH2 0x48B6 JUMP JUMPDEST DUP1 PUSH1 0x1F ADD PUSH1 0x20 DUP1 SWAP2 DIV MUL PUSH1 0x20 ADD PUSH1 0x40 MLOAD SWAP1 DUP2 ADD PUSH1 0x40 MSTORE DUP1 SWAP3 SWAP2 SWAP1 DUP2 DUP2 MSTORE PUSH1 0x20 ADD DUP3 DUP1 SLOAD PUSH2 0x3608 SWAP1 PUSH2 0x48B6 JUMP JUMPDEST DUP1 ISZERO PUSH2 0x3655 JUMPI DUP1 PUSH1 0x1F LT PUSH2 0x362A JUMPI PUSH2 0x100 DUP1 DUP4 SLOAD DIV MUL DUP4 MSTORE SWAP2 PUSH1 0x20 ADD SWAP2 PUSH2 0x3655 JUMP JUMPDEST DUP3 ADD SWAP2 SWAP1 PUSH1 0x0 MSTORE PUSH1 0x20 PUSH1 0x0 KECCAK256 SWAP1 JUMPDEST DUP2 SLOAD DUP2 MSTORE SWAP1 PUSH1 0x1 ADD SWAP1 PUSH1 0x20 ADD DUP1 DUP4 GT PUSH2 0x3638 JUMPI DUP3 SWAP1 SUB PUSH1 0x1F AND DUP3 ADD SWAP2 JUMPDEST POP POP POP POP POP SWAP1 POP SWAP2 SWAP1 POP JUMP JUMPDEST PUSH1 0x1 SLOAD DUP2 JUMP JUMPDEST PUSH1 0x13 PUSH1 0x20 MSTORE DUP1 PUSH1 0x0 MSTORE PUSH1 0x40 PUSH1 0x0 KECCAK256 PUSH1 0x0 SWAP2 POP SWAP1 POP DUP1 PUSH1 0x0 ADD SLOAD SWAP1 DUP1 PUSH1 0x1 ADD SLOAD SWAP1 DUP1 PUSH1 0x2 ADD DUP1 SLOAD PUSH2 0x3696 SWAP1 PUSH2 0x48B6 JUMP JUMPDEST DUP1 PUSH1 0x1F ADD PUSH1 0x20 DUP1 SWAP2 DIV MUL PUSH1 0x20 ADD PUSH1 0x40 MLOAD SWAP1 DUP2 ADD PUSH1 0x40 MSTORE DUP1 SWAP3 SWAP2 SWAP1 DUP2 DUP2 MSTORE PUSH1 0x20 ADD DUP3 DUP1 SLOAD PUSH2 0x36C2 SWAP1 PUSH2 0x48B6 JUMP JUMPDEST DUP1 ISZERO PUSH2 0x370F JUMPI DUP1 PUSH1 0x1F LT PUSH2 0x36E4 JUMPI PUSH2 0x100 DUP1 DUP4 SLOAD DIV MUL DUP4 MSTORE SWAP2 PUSH1 0x20 ADD SWAP2 PUSH2 0x370F JUMP JUMPDEST DUP3 ADD SWAP2 SWAP1 PUSH1 0x0 MSTORE PUSH1 0x20 PUSH1 0x0 KECCAK256 SWAP1 JUMPDEST DUP2 SLOAD DUP2 MSTORE SWAP1 PUSH1 0x1 ADD SWAP1 PUSH1 0x20 ADD DUP1 DUP4 GT PUSH2 0x36F2 JUMPI DUP3 SWAP1 SUB PUSH1 0x1F AND DUP3 ADD SWAP2 JUMPDEST POP POP POP POP POP SWAP1 POP DUP4 JUMP JUMPDEST PUSH1 0x40 MLOAD DUP1 PUSH1 0x60 ADD PUSH1 0x40 MSTORE DUP1 DUP5 DUP2 MSTORE PUSH1 0x20 ADD DUP4 DUP2 MSTORE PUSH1 0x20 ADD DUP3 DUP2 MSTORE POP PUSH1 0x13 PUSH1 0x0 DUP5 DUP2 MSTORE PUSH1 0x20 ADD SWAP1 DUP2 MSTORE PUSH1 0x20 ADD PUSH1 0x0 KECCAK256 PUSH1 0x0 DUP3 ADD MLOAD DUP2 PUSH1 0x0 ADD SSTORE PUSH1 0x20 DUP3 ADD MLOAD DUP2 PUSH1 0x1 ADD SSTORE PUSH1 0x40 DUP3 ADD MLOAD DUP2 PUSH1 0x2 ADD SWAP1 DUP2 PUSH2 0x3770 SWAP2 SWAP1 PUSH2 0x4C27 JUMP JUMPDEST POP SWAP1 POP POP POP POP POP JUMP JUMPDEST POP DUP1 SLOAD PUSH2 0x3785 SWAP1 PUSH2 0x48B6 JUMP JUMPDEST PUSH1 0x0 DUP3 SSTORE DUP1 PUSH1 0x1F LT PUSH2 0x3797 JUMPI POP PUSH2 0x37B6 JUMP JUMPDEST PUSH1 0x1F ADD PUSH1 0x20 SWAP1 DIV SWAP1 PUSH1 0x0 MSTORE PUSH1 0x20 PUSH1 0x0 KECCAK256 SWAP1 DUP2 ADD SWAP1 PUSH2 0x37B5 SWAP2 SWAP1 PUSH2 0x37B9 JUMP JUMPDEST JUMPDEST POP JUMP JUMPDEST JUMPDEST DUP1 DUP3 GT ISZERO PUSH2 0x37D2 JUMPI PUSH1 0x0 DUP2 PUSH1 0x0 SWAP1 SSTORE POP PUSH1 0x1 ADD PUSH2 0x37BA JUMP JUMPDEST POP SWAP1 JUMP JUMPDEST PUSH1 0x0 PUSH1 0x40 MLOAD SWAP1 POP SWAP1 JUMP JUMPDEST PUSH1 0x0 DUP1 REVERT JUMPDEST PUSH1 0x0 DUP1 REVERT JUMPDEST PUSH1 0x0 DUP1 REVERT JUMPDEST PUSH1 0x0 DUP1 REVERT JUMPDEST PUSH1 0x0 PUSH1 0x1F NOT PUSH1 0x1F DUP4 ADD AND SWAP1 POP SWAP2 SWAP1 POP JUMP JUMPDEST PUSH32 0x4E487B7100000000000000000000000000000000000000000000000000000000 PUSH1 0x0 MSTORE PUSH1 0x41 PUSH1 0x4 MSTORE PUSH1 0x24 PUSH1 0x0 REVERT JUMPDEST PUSH2 0x383D DUP3 PUSH2 0x37F4 JUMP JUMPDEST DUP2 ADD DUP2 DUP2 LT PUSH8 0xFFFFFFFFFFFFFFFF DUP3 GT OR ISZERO PUSH2 0x385C JUMPI PUSH2 0x385B PUSH2 0x3805 JUMP JUMPDEST JUMPDEST DUP1 PUSH1 0x40 MSTORE POP POP POP JUMP JUMPDEST PUSH1 0x0 PUSH2 0x386F PUSH2 0x37D6 JUMP JUMPDEST SWAP1 POP PUSH2 0x387B DUP3 DUP3 PUSH2 0x3834 JUMP JUMPDEST SWAP2 SWAP1 POP JUMP JUMPDEST PUSH1 0x0 PUSH8 0xFFFFFFFFFFFFFFFF DUP3 GT ISZERO PUSH2 0x389B JUMPI PUSH2 0x389A PUSH2 0x3805 JUMP JUMPDEST JUMPDEST PUSH2 0x38A4 DUP3 PUSH2 0x37F4 JUMP JUMPDEST SWAP1 POP PUSH1 0x20 DUP2 ADD SWAP1 POP SWAP2 SWAP1 POP JUMP JUMPDEST DUP3 DUP2 DUP4 CALLDATACOPY PUSH1 0x0 DUP4 DUP4 ADD MSTORE POP POP POP JUMP JUMPDEST PUSH1 0x0 PUSH2 0x38D3 PUSH2 0x38CE DUP5 PUSH2 0x3880 JUMP JUMPDEST PUSH2 0x3865 JUMP JUMPDEST SWAP1 POP DUP3 DUP2 MSTORE PUSH1 0x20 DUP2 ADD DUP5 DUP5 DUP5 ADD GT ISZERO PUSH2 0x38EF JUMPI PUSH2 0x38EE PUSH2 0x37EF JUMP JUMPDEST JUMPDEST PUSH2 0x38FA DUP5 DUP3 DUP6 PUSH2 0x38B1 JUMP JUMPDEST POP SWAP4 SWAP3 POP POP POP JUMP JUMPDEST PUSH1 0x0 DUP3 PUSH1 0x1F DUP4 ADD SLT PUSH2 0x3917 JUMPI PUSH2 0x3916 PUSH2 0x37EA JUMP JUMPDEST JUMPDEST DUP2 CALLDATALOAD PUSH2 0x3927 DUP5 DUP3 PUSH1 0x20 DUP7 ADD PUSH2 0x38C0 JUMP JUMPDEST SWAP2 POP POP SWAP3 SWAP2 POP POP JUMP JUMPDEST PUSH1 0x0 PUSH1 0x20 DUP3 DUP5 SUB SLT ISZERO PUSH2 0x3946 JUMPI PUSH2 0x3945 PUSH2 0x37E0 JUMP JUMPDEST JUMPDEST PUSH1 0x0 DUP3 ADD CALLDATALOAD PUSH8 0xFFFFFFFFFFFFFFFF DUP2 GT ISZERO PUSH2 0x3964 JUMPI PUSH2 0x3963 PUSH2 0x37E5 JUMP JUMPDEST JUMPDEST PUSH2 0x3970 DUP5 DUP3 DUP6 ADD PUSH2 0x3902 JUMP JUMPDEST SWAP2 POP POP SWAP3 SWAP2 POP POP JUMP JUMPDEST PUSH1 0x0 DUP2 MLOAD SWAP1 POP SWAP2 SWAP1 POP JUMP JUMPDEST PUSH1 0x0 DUP3 DUP3 MSTORE PUSH1 0x20 DUP3 ADD SWAP1 POP SWAP3 SWAP2 POP POP JUMP JUMPDEST PUSH1 0x0 DUP2 SWAP1 POP PUSH1 0x20 DUP3 ADD SWAP1 POP SWAP2 SWAP1 POP JUMP JUMPDEST PUSH1 0x0 DUP2 MLOAD SWAP1 POP SWAP2 SWAP1 POP JUMP JUMPDEST PUSH1 0x0 DUP3 DUP3 MSTORE PUSH1 0x20 DUP3 ADD SWAP1 POP SWAP3 SWAP2 POP POP JUMP JUMPDEST PUSH1 0x0 JUMPDEST DUP4 DUP2 LT ISZERO PUSH2 0x39DF JUMPI DUP1 DUP3 ADD MLOAD DUP2 DUP5 ADD MSTORE PUSH1 0x20 DUP2 ADD SWAP1 POP PUSH2 0x39C4 JUMP JUMPDEST PUSH1 0x0 DUP5 DUP5 ADD MSTORE POP POP POP POP JUMP JUMPDEST PUSH1 0x0 PUSH2 0x39F6 DUP3 PUSH2 0x39A5 JUMP JUMPDEST PUSH2 0x3A00 DUP2 DUP6 PUSH2 0x39B0 JUMP JUMPDEST SWAP4 POP PUSH2 0x3A10 DUP2 DUP6 PUSH1 0x20 DUP7 ADD PUSH2 0x39C1 JUMP JUMPDEST PUSH2 0x3A19 DUP2 PUSH2 0x37F4 JUMP JUMPDEST DUP5 ADD SWAP2 POP POP SWAP3 SWAP2 POP POP JUMP JUMPDEST PUSH1 0x0 PUSH2 0x3A30 DUP4 DUP4 PUSH2 0x39EB JUMP JUMPDEST SWAP1 POP SWAP3 SWAP2 POP POP JUMP JUMPDEST PUSH1 0x0 PUSH1 0x20 DUP3 ADD SWAP1 POP SWAP2 SWAP1 POP JUMP JUMPDEST PUSH1 0x0 PUSH2 0x3A50 DUP3 PUSH2 0x3979 JUMP JUMPDEST PUSH2 0x3A5A DUP2 DUP6 PUSH2 0x3984 JUMP JUMPDEST SWAP4 POP DUP4 PUSH1 0x20 DUP3 MUL DUP6 ADD PUSH2 0x3A6C DUP6 PUSH2 0x3995 JUMP JUMPDEST DUP1 PUSH1 0x0 JUMPDEST DUP6 DUP2 LT ISZERO PUSH2 0x3AA8 JUMPI DUP5 DUP5 SUB DUP10 MSTORE DUP2 MLOAD PUSH2 0x3A89 DUP6 DUP3 PUSH2 0x3A24 JUMP JUMPDEST SWAP5 POP PUSH2 0x3A94 DUP4 PUSH2 0x3A38 JUMP JUMPDEST SWAP3 POP PUSH1 0x20 DUP11 ADD SWAP10 POP POP PUSH1 0x1 DUP2 ADD SWAP1 POP PUSH2 0x3A70 JUMP JUMPDEST POP DUP3 SWAP8 POP DUP8 SWAP6 POP POP POP POP POP POP SWAP3 SWAP2 POP POP JUMP JUMPDEST PUSH1 0x0 PUSH1 0x20 DUP3 ADD SWAP1 POP DUP2 DUP2 SUB PUSH1 0x0 DUP4 ADD MSTORE PUSH2 0x3AD4 DUP2 DUP5 PUSH2 0x3A45 JUMP JUMPDEST SWAP1 POP SWAP3 SWAP2 POP POP JUMP JUMPDEST PUSH1 0x0 DUP2 SWAP1 POP SWAP2 SWAP1 POP JUMP JUMPDEST PUSH2 0x3AEF DUP2 PUSH2 0x3ADC JUMP JUMPDEST DUP3 MSTORE POP POP JUMP JUMPDEST PUSH1 0x0 PUSH1 0x20 DUP3 ADD SWAP1 POP PUSH2 0x3B0A PUSH1 0x0 DUP4 ADD DUP5 PUSH2 0x3AE6 JUMP JUMPDEST SWAP3 SWAP2 POP POP JUMP JUMPDEST PUSH2 0x3B19 DUP2 PUSH2 0x3ADC JUMP JUMPDEST DUP2 EQ PUSH2 0x3B24 JUMPI PUSH1 0x0 DUP1 REVERT JUMPDEST POP JUMP JUMPDEST PUSH1 0x0 DUP2 CALLDATALOAD SWAP1 POP PUSH2 0x3B36 DUP2 PUSH2 0x3B10 JUMP JUMPDEST SWAP3 SWAP2 POP POP JUMP JUMPDEST PUSH1 0x0 PUSH1 0x20 DUP3 DUP5 SUB SLT ISZERO PUSH2 0x3B52 JUMPI PUSH2 0x3B51 PUSH2 0x37E0 JUMP JUMPDEST JUMPDEST PUSH1 0x0 PUSH2 0x3B60 DUP5 DUP3 DUP6 ADD PUSH2 0x3B27 JUMP JUMPDEST SWAP2 POP POP SWAP3 SWAP2 POP POP JUMP JUMPDEST PUSH1 0x0 DUP3 DUP3 MSTORE PUSH1 0x20 DUP3 ADD SWAP1 POP SWAP3 SWAP2 POP POP JUMP JUMPDEST PUSH1 0x0 PUSH2 0x3B85 DUP3 PUSH2 0x39A5 JUMP JUMPDEST PUSH2 0x3B8F DUP2 DUP6 PUSH2 0x3B69 JUMP JUMPDEST SWAP4 POP PUSH2 0x3B9F DUP2 DUP6 PUSH1 0x20 DUP7 ADD PUSH2 0x39C1 JUMP JUMPDEST PUSH2 0x3BA8 DUP2 PUSH2 0x37F4 JUMP JUMPDEST DUP5 ADD SWAP2 POP POP SWAP3 SWAP2 POP POP JUMP JUMPDEST PUSH1 0x0 PUSH1 0x60 DUP3 ADD SWAP1 POP DUP2 DUP2 SUB PUSH1 0x0 DUP4 ADD MSTORE PUSH2 0x3BCD DUP2 DUP7 PUSH2 0x3B7A JUMP JUMPDEST SWAP1 POP DUP2 DUP2 SUB PUSH1 0x20 DUP4 ADD MSTORE PUSH2 0x3BE1 DUP2 DUP6 PUSH2 0x3B7A JUMP JUMPDEST SWAP1 POP PUSH2 0x3BF0 PUSH1 0x40 DUP4 ADD DUP5 PUSH2 0x3AE6 JUMP JUMPDEST SWAP5 SWAP4 POP POP POP POP JUMP JUMPDEST PUSH1 0x0 DUP1 PUSH1 0x0 DUP1 PUSH1 0x0 PUSH1 0xA0 DUP7 DUP9 SUB SLT ISZERO PUSH2 0x3C14 JUMPI PUSH2 0x3C13 PUSH2 0x37E0 JUMP JUMPDEST JUMPDEST PUSH1 0x0 DUP7 ADD CALLDATALOAD PUSH8 0xFFFFFFFFFFFFFFFF DUP2 GT ISZERO PUSH2 0x3C32 JUMPI PUSH2 0x3C31 PUSH2 0x37E5 JUMP JUMPDEST JUMPDEST PUSH2 0x3C3E DUP9 DUP3 DUP10 ADD PUSH2 0x3902 JUMP JUMPDEST SWAP6 POP POP PUSH1 0x20 PUSH2 0x3C4F DUP9 DUP3 DUP10 ADD PUSH2 0x3B27 JUMP JUMPDEST SWAP5 POP POP PUSH1 0x40 PUSH2 0x3C60 DUP9 DUP3 DUP10 ADD PUSH2 0x3B27 JUMP JUMPDEST SWAP4 POP POP PUSH1 0x60 DUP7 ADD CALLDATALOAD PUSH8 0xFFFFFFFFFFFFFFFF DUP2 GT ISZERO PUSH2 0x3C81 JUMPI PUSH2 0x3C80 PUSH2 0x37E5 JUMP JUMPDEST JUMPDEST PUSH2 0x3C8D DUP9 DUP3 DUP10 ADD PUSH2 0x3902 JUMP JUMPDEST SWAP3 POP POP PUSH1 0x80 DUP7 ADD CALLDATALOAD PUSH8 0xFFFFFFFFFFFFFFFF DUP2 GT ISZERO PUSH2 0x3CAE JUMPI PUSH2 0x3CAD PUSH2 0x37E5 JUMP JUMPDEST JUMPDEST PUSH2 0x3CBA DUP9 DUP3 DUP10 ADD PUSH2 0x3902 JUMP JUMPDEST SWAP2 POP POP SWAP3 SWAP6 POP SWAP3 SWAP6 SWAP1 SWAP4 POP JUMP JUMPDEST PUSH1 0x0 PUSH1 0x60 DUP3 ADD SWAP1 POP DUP2 DUP2 SUB PUSH1 0x0 DUP4 ADD MSTORE PUSH2 0x3CE1 DUP2 DUP7 PUSH2 0x3B7A JUMP JUMPDEST SWAP1 POP DUP2 DUP2 SUB PUSH1 0x20 DUP4 ADD MSTORE PUSH2 0x3CF5 DUP2 DUP6 PUSH2 0x3B7A JUMP JUMPDEST SWAP1 POP DUP2 DUP2 SUB PUSH1 0x40 DUP4 ADD MSTORE PUSH2 0x3D09 DUP2 DUP5 PUSH2 0x3B7A JUMP JUMPDEST SWAP1 POP SWAP5 SWAP4 POP POP POP POP JUMP JUMPDEST PUSH1 0x0 PUSH1 0x60 DUP3 ADD SWAP1 POP DUP2 DUP2 SUB PUSH1 0x0 DUP4 ADD MSTORE PUSH2 0x3D2D DUP2 DUP7 PUSH2 0x3B7A JUMP JUMPDEST SWAP1 POP PUSH2 0x3D3C PUSH1 0x20 DUP4 ADD DUP6 PUSH2 0x3AE6 JUMP JUMPDEST DUP2 DUP2 SUB PUSH1 0x40 DUP4 ADD MSTORE PUSH2 0x3D4E DUP2 DUP5 PUSH2 0x3B7A JUMP JUMPDEST SWAP1 POP SWAP5 SWAP4 POP POP POP POP JUMP JUMPDEST PUSH1 0x0 PUSH1 0x80 DUP3 ADD SWAP1 POP PUSH2 0x3D6D PUSH1 0x0 DUP4 ADD DUP8 PUSH2 0x3AE6 JUMP JUMPDEST PUSH2 0x3D7A PUSH1 0x20 DUP4 ADD DUP7 PUSH2 0x3AE6 JUMP JUMPDEST PUSH2 0x3D87 PUSH1 0x40 DUP4 ADD DUP6 PUSH2 0x3AE6 JUMP JUMPDEST DUP2 DUP2 SUB PUSH1 0x60 DUP4 ADD MSTORE PUSH2 0x3D99 DUP2 DUP5 PUSH2 0x3B7A JUMP JUMPDEST SWAP1 POP SWAP6 SWAP5 POP POP POP POP POP JUMP JUMPDEST PUSH1 0x0 DUP2 MLOAD SWAP1 POP SWAP2 SWAP1 POP JUMP JUMPDEST PUSH1 0x0 DUP3 DUP3 MSTORE PUSH1 0x20 DUP3 ADD SWAP1 POP SWAP3 SWAP2 POP POP JUMP JUMPDEST PUSH1 0x0 DUP2 SWAP1 POP PUSH1 0x20 DUP3 ADD SWAP1 POP SWAP2 SWAP1 POP JUMP JUMPDEST PUSH2 0x3DD9 DUP2 PUSH2 0x3ADC JUMP JUMPDEST DUP3 MSTORE POP POP JUMP JUMPDEST PUSH1 0x0 PUSH2 0x3DEB DUP4 DUP4 PUSH2 0x3DD0 JUMP JUMPDEST PUSH1 0x20 DUP4 ADD SWAP1 POP SWAP3 SWAP2 POP POP JUMP JUMPDEST PUSH1 0x0 PUSH1 0x20 DUP3 ADD SWAP1 POP SWAP2 SWAP1 POP JUMP JUMPDEST PUSH1 0x0 PUSH2 0x3E0F DUP3 PUSH2 0x3DA4 JUMP JUMPDEST PUSH2 0x3E19 DUP2 DUP6 PUSH2 0x3DAF JUMP JUMPDEST SWAP4 POP PUSH2 0x3E24 DUP4 PUSH2 0x3DC0 JUMP JUMPDEST DUP1 PUSH1 0x0 JUMPDEST DUP4 DUP2 LT ISZERO PUSH2 0x3E55 JUMPI DUP2 MLOAD PUSH2 0x3E3C DUP9 DUP3 PUSH2 0x3DDF JUMP JUMPDEST SWAP8 POP PUSH2 0x3E47 DUP4 PUSH2 0x3DF7 JUMP JUMPDEST SWAP3 POP POP PUSH1 0x1 DUP2 ADD SWAP1 POP PUSH2 0x3E28 JUMP JUMPDEST POP DUP6 SWAP4 POP POP POP POP SWAP3 SWAP2 POP POP JUMP JUMPDEST PUSH1 0x0 PUSH1 0x20 DUP3 ADD SWAP1 POP DUP2 DUP2 SUB PUSH1 0x0 DUP4 ADD MSTORE PUSH2 0x3E7C DUP2 DUP5 PUSH2 0x3E04 JUMP JUMPDEST SWAP1 POP SWAP3 SWAP2 POP POP JUMP JUMPDEST PUSH1 0x0 PUSH1 0x80 DUP3 ADD SWAP1 POP PUSH2 0x3E99 PUSH1 0x0 DUP4 ADD DUP8 PUSH2 0x3AE6 JUMP JUMPDEST PUSH2 0x3EA6 PUSH1 0x20 DUP4 ADD DUP7 PUSH2 0x3AE6 JUMP JUMPDEST DUP2 DUP2 SUB PUSH1 0x40 DUP4 ADD MSTORE PUSH2 0x3EB8 DUP2 DUP6 PUSH2 0x3B7A JUMP JUMPDEST SWAP1 POP DUP2 DUP2 SUB PUSH1 0x60 DUP4 ADD MSTORE PUSH2 0x3ECC DUP2 DUP5 PUSH2 0x3B7A JUMP JUMPDEST SWAP1 POP SWAP6 SWAP5 POP POP POP POP POP JUMP JUMPDEST PUSH1 0x0 PUSH1 0x20 DUP3 ADD SWAP1 POP DUP2 DUP2 SUB PUSH1 0x0 DUP4 ADD MSTORE PUSH2 0x3EF1 DUP2 DUP5 PUSH2 0x3B7A JUMP JUMPDEST SWAP1 POP SWAP3 SWAP2 POP POP JUMP JUMPDEST PUSH1 0x0 DUP1 PUSH1 0x0 DUP1 PUSH1 0x80 DUP6 DUP8 SUB SLT ISZERO PUSH2 0x3F13 JUMPI PUSH2 0x3F12 PUSH2 0x37E0 JUMP JUMPDEST JUMPDEST PUSH1 0x0 DUP6 ADD CALLDATALOAD PUSH8 0xFFFFFFFFFFFFFFFF DUP2 GT ISZERO PUSH2 0x3F31 JUMPI PUSH2 0x3F30 PUSH2 0x37E5 JUMP JUMPDEST JUMPDEST PUSH2 0x3F3D DUP8 DUP3 DUP9 ADD PUSH2 0x3902 JUMP JUMPDEST SWAP5 POP POP PUSH1 0x20 PUSH2 0x3F4E DUP8 DUP3 DUP9 ADD PUSH2 0x3B27 JUMP JUMPDEST SWAP4 POP POP PUSH1 0x40 DUP6 ADD CALLDATALOAD PUSH8 0xFFFFFFFFFFFFFFFF DUP2 GT ISZERO PUSH2 0x3F6F JUMPI PUSH2 0x3F6E PUSH2 0x37E5 JUMP JUMPDEST JUMPDEST PUSH2 0x3F7B DUP8 DUP3 DUP9 ADD PUSH2 0x3902 JUMP JUMPDEST SWAP3 POP POP PUSH1 0x60 DUP6 ADD CALLDATALOAD PUSH8 0xFFFFFFFFFFFFFFFF DUP2 GT ISZERO PUSH2 0x3F9C JUMPI PUSH2 0x3F9B PUSH2 0x37E5 JUMP JUMPDEST JUMPDEST PUSH2 0x3FA8 DUP8 DUP3 DUP9 ADD PUSH2 0x3902 JUMP JUMPDEST SWAP2 POP POP SWAP3 SWAP6 SWAP2 SWAP5 POP SWAP3 POP JUMP JUMPDEST PUSH1 0x0 PUSH1 0x40 DUP3 ADD SWAP1 POP DUP2 DUP2 SUB PUSH1 0x0 DUP4 ADD MSTORE PUSH2 0x3FCE DUP2 DUP6 PUSH2 0x3B7A JUMP JUMPDEST SWAP1 POP DUP2 DUP2 SUB PUSH1 0x20 DUP4 ADD MSTORE PUSH2 0x3FE2 DUP2 DUP5 PUSH2 0x3B7A JUMP JUMPDEST SWAP1 POP SWAP4 SWAP3 POP POP POP JUMP JUMPDEST PUSH1 0x0 PUSH1 0x60 DUP3 ADD SWAP1 POP DUP2 DUP2 SUB PUSH1 0x0 DUP4 ADD MSTORE PUSH2 0x4005 DUP2 DUP7 PUSH2 0x3B7A JUMP JUMPDEST SWAP1 POP PUSH2 0x4014 PUSH1 0x20 DUP4 ADD DUP6 PUSH2 0x3AE6 JUMP JUMPDEST PUSH2 0x4021 PUSH1 0x40 DUP4 ADD DUP5 PUSH2 0x3AE6 JUMP JUMPDEST SWAP5 SWAP4 POP POP POP POP JUMP JUMPDEST PUSH1 0x0 DUP1 PUSH1 0x0 DUP1 PUSH1 0x80 DUP6 DUP8 SUB SLT ISZERO PUSH2 0x4043 JUMPI PUSH2 0x4042 PUSH2 0x37E0 JUMP JUMPDEST JUMPDEST PUSH1 0x0 DUP6 ADD CALLDATALOAD PUSH8 0xFFFFFFFFFFFFFFFF DUP2 GT ISZERO PUSH2 0x4061 JUMPI PUSH2 0x4060 PUSH2 0x37E5 JUMP JUMPDEST JUMPDEST PUSH2 0x406D DUP8 DUP3 DUP9 ADD PUSH2 0x3902 JUMP JUMPDEST SWAP5 POP POP PUSH1 0x20 DUP6 ADD CALLDATALOAD PUSH8 0xFFFFFFFFFFFFFFFF DUP2 GT ISZERO PUSH2 0x408E JUMPI PUSH2 0x408D PUSH2 0x37E5 JUMP JUMPDEST JUMPDEST PUSH2 0x409A DUP8 DUP3 DUP9 ADD PUSH2 0x3902 JUMP JUMPDEST SWAP4 POP POP PUSH1 0x40 DUP6 ADD CALLDATALOAD PUSH8 0xFFFFFFFFFFFFFFFF DUP2 GT ISZERO PUSH2 0x40BB JUMPI PUSH2 0x40BA PUSH2 0x37E5 JUMP JUMPDEST JUMPDEST PUSH2 0x40C7 DUP8 DUP3 DUP9 ADD PUSH2 0x3902 JUMP JUMPDEST SWAP3 POP POP PUSH1 0x60 PUSH2 0x40D8 DUP8 DUP3 DUP9 ADD PUSH2 0x3B27 JUMP JUMPDEST SWAP2 POP POP SWAP3 SWAP6 SWAP2 SWAP5 POP SWAP3 POP JUMP JUMPDEST PUSH1 0x0 DUP1 PUSH1 0x40 DUP4 DUP6 SUB SLT ISZERO PUSH2 0x40FB JUMPI PUSH2 0x40FA PUSH2 0x37E0 JUMP JUMPDEST JUMPDEST PUSH1 0x0 PUSH2 0x4109 DUP6 DUP3 DUP7 ADD PUSH2 0x3B27 JUMP JUMPDEST SWAP3 POP POP PUSH1 0x20 DUP4 ADD CALLDATALOAD PUSH8 0xFFFFFFFFFFFFFFFF DUP2 GT ISZERO PUSH2 0x412A JUMPI PUSH2 0x4129 PUSH2 0x37E5 JUMP JUMPDEST JUMPDEST PUSH2 0x4136 DUP6 DUP3 DUP7 ADD PUSH2 0x3902 JUMP JUMPDEST SWAP2 POP POP SWAP3 POP SWAP3 SWAP1 POP JUMP JUMPDEST PUSH1 0x0 DUP1 PUSH1 0x0 PUSH1 0x60 DUP5 DUP7 SUB SLT ISZERO PUSH2 0x4159 JUMPI PUSH2 0x4158 PUSH2 0x37E0 JUMP JUMPDEST JUMPDEST PUSH1 0x0 PUSH2 0x4167 DUP7 DUP3 DUP8 ADD PUSH2 0x3B27 JUMP JUMPDEST SWAP4 POP POP PUSH1 0x20 DUP5 ADD CALLDATALOAD PUSH8 0xFFFFFFFFFFFFFFFF DUP2 GT ISZERO PUSH2 0x4188 JUMPI PUSH2 0x4187 PUSH2 0x37E5 JUMP JUMPDEST JUMPDEST PUSH2 0x4194 DUP7 DUP3 DUP8 ADD PUSH2 0x3902 JUMP JUMPDEST SWAP3 POP POP PUSH1 0x40 DUP5 ADD CALLDATALOAD PUSH8 0xFFFFFFFFFFFFFFFF DUP2 GT ISZERO PUSH2 0x41B5 JUMPI PUSH2 0x41B4 PUSH2 0x37E5 JUMP JUMPDEST JUMPDEST PUSH2 0x41C1 DUP7 DUP3 DUP8 ADD PUSH2 0x3902 JUMP JUMPDEST SWAP2 POP POP SWAP3 POP SWAP3 POP SWAP3 JUMP JUMPDEST PUSH1 0x0 DUP2 ISZERO ISZERO SWAP1 POP SWAP2 SWAP1 POP JUMP JUMPDEST PUSH2 0x41E0 DUP2 PUSH2 0x41CB JUMP JUMPDEST DUP2 EQ PUSH2 0x41EB JUMPI PUSH1 0x0 DUP1 REVERT JUMPDEST POP JUMP JUMPDEST PUSH1 0x0 DUP2 CALLDATALOAD SWAP1 POP PUSH2 0x41FD DUP2 PUSH2 0x41D7 JUMP JUMPDEST SWAP3 SWAP2 POP POP JUMP JUMPDEST PUSH1 0x0 DUP1 PUSH1 0x0 DUP1 PUSH1 0x0 PUSH1 0xA0 DUP7 DUP9 SUB SLT ISZERO PUSH2 0x421F JUMPI PUSH2 0x421E PUSH2 0x37E0 JUMP JUMPDEST JUMPDEST PUSH1 0x0 DUP7 ADD CALLDATALOAD PUSH8 0xFFFFFFFFFFFFFFFF DUP2 GT ISZERO PUSH2 0x423D JUMPI PUSH2 0x423C PUSH2 0x37E5 JUMP JUMPDEST JUMPDEST PUSH2 0x4249 DUP9 DUP3 DUP10 ADD PUSH2 0x3902 JUMP JUMPDEST SWAP6 POP POP PUSH1 0x20 DUP7 ADD CALLDATALOAD PUSH8 0xFFFFFFFFFFFFFFFF DUP2 GT ISZERO PUSH2 0x426A JUMPI PUSH2 0x4269 PUSH2 0x37E5 JUMP JUMPDEST JUMPDEST PUSH2 0x4276 DUP9 DUP3 DUP10 ADD PUSH2 0x3902 JUMP JUMPDEST SWAP5 POP POP PUSH1 0x40 PUSH2 0x4287 DUP9 DUP3 DUP10 ADD PUSH2 0x3B27 JUMP JUMPDEST SWAP4 POP POP PUSH1 0x60 DUP7 ADD CALLDATALOAD PUSH8 0xFFFFFFFFFFFFFFFF DUP2 GT ISZERO PUSH2 0x42A8 JUMPI PUSH2 0x42A7 PUSH2 0x37E5 JUMP JUMPDEST JUMPDEST PUSH2 0x42B4 DUP9 DUP3 DUP10 ADD PUSH2 0x3902 JUMP JUMPDEST SWAP3 POP POP PUSH1 0x80 PUSH2 0x42C5 DUP9 DUP3 DUP10 ADD PUSH2 0x41EE JUMP JUMPDEST SWAP2 POP POP SWAP3 SWAP6 POP SWAP3 SWAP6 SWAP1 SWAP4 POP JUMP JUMPDEST PUSH1 0x0 DUP1 PUSH1 0x0 DUP1 PUSH1 0x80 DUP6 DUP8 SUB SLT ISZERO PUSH2 0x42EC JUMPI PUSH2 0x42EB PUSH2 0x37E0 JUMP JUMPDEST JUMPDEST PUSH1 0x0 PUSH2 0x42FA DUP8 DUP3 DUP9 ADD PUSH2 0x3B27 JUMP JUMPDEST SWAP5 POP POP PUSH1 0x20 PUSH2 0x430B DUP8 DUP3 DUP9 ADD PUSH2 0x3B27 JUMP JUMPDEST SWAP4 POP POP PUSH1 0x40 PUSH2 0x431C DUP8 DUP3 DUP9 ADD PUSH2 0x3B27 JUMP JUMPDEST SWAP3 POP POP PUSH1 0x60 DUP6 ADD CALLDATALOAD PUSH8 0xFFFFFFFFFFFFFFFF DUP2 GT ISZERO PUSH2 0x433D JUMPI PUSH2 0x433C PUSH2 0x37E5 JUMP JUMPDEST JUMPDEST PUSH2 0x4349 DUP8 DUP3 DUP9 ADD PUSH2 0x3902 JUMP JUMPDEST SWAP2 POP POP SWAP3 SWAP6 SWAP2 SWAP5 POP SWAP3 POP JUMP JUMPDEST PUSH1 0x0 DUP1 PUSH1 0x40 DUP4 DUP6 SUB SLT ISZERO PUSH2 0x436C JUMPI PUSH2 0x436B PUSH2 0x37E0 JUMP JUMPDEST JUMPDEST PUSH1 0x0 DUP4 ADD CALLDATALOAD PUSH8 0xFFFFFFFFFFFFFFFF DUP2 GT ISZERO PUSH2 0x438A JUMPI PUSH2 0x4389 PUSH2 0x37E5 JUMP JUMPDEST JUMPDEST PUSH2 0x4396 DUP6 DUP3 DUP7 ADD PUSH2 0x3902 JUMP JUMPDEST SWAP3 POP POP PUSH1 0x20 PUSH2 0x43A7 DUP6 DUP3 DUP7 ADD PUSH2 0x3B27 JUMP JUMPDEST SWAP2 POP POP SWAP3 POP SWAP3 SWAP1 POP JUMP JUMPDEST PUSH2 0x43BA DUP2 PUSH2 0x41CB JUMP JUMPDEST DUP3 MSTORE POP POP JUMP JUMPDEST PUSH1 0x0 PUSH2 0x120 DUP3 ADD SWAP1 POP PUSH2 0x43D6 PUSH1 0x0 DUP4 ADD DUP13 PUSH2 0x3AE6 JUMP JUMPDEST PUSH2 0x43E3 PUSH1 0x20 DUP4 ADD DUP12 PUSH2 0x43B1 JUMP JUMPDEST PUSH2 0x43F0 PUSH1 0x40 DUP4 ADD DUP11 PUSH2 0x43B1 JUMP JUMPDEST PUSH2 0x43FD PUSH1 0x60 DUP4 ADD DUP10 PUSH2 0x43B1 JUMP JUMPDEST PUSH2 0x440A PUSH1 0x80 DUP4 ADD DUP9 PUSH2 0x43B1 JUMP JUMPDEST PUSH2 0x4417 PUSH1 0xA0 DUP4 ADD DUP8 PUSH2 0x43B1 JUMP JUMPDEST PUSH2 0x4424 PUSH1 0xC0 DUP4 ADD DUP7 PUSH2 0x43B1 JUMP JUMPDEST PUSH2 0x4431 PUSH1 0xE0 DUP4 ADD DUP6 PUSH2 0x43B1 JUMP JUMPDEST PUSH2 0x443F PUSH2 0x100 DUP4 ADD DUP5 PUSH2 0x43B1 JUMP JUMPDEST SWAP11 SWAP10 POP POP POP POP POP POP POP POP POP POP JUMP JUMPDEST PUSH1 0x0 PUSH1 0x20 DUP3 ADD SWAP1 POP PUSH2 0x4462 PUSH1 0x0 DUP4 ADD DUP5 PUSH2 0x43B1 JUMP JUMPDEST SWAP3 SWAP2 POP POP JUMP JUMPDEST PUSH1 0x0 DUP1 PUSH1 0x0 DUP1 PUSH1 0x80 DUP6 DUP8 SUB SLT ISZERO PUSH2 0x4482 JUMPI PUSH2 0x4481 PUSH2 0x37E0 JUMP JUMPDEST JUMPDEST PUSH1 0x0 DUP6 ADD CALLDATALOAD PUSH8 0xFFFFFFFFFFFFFFFF DUP2 GT ISZERO PUSH2 0x44A0 JUMPI PUSH2 0x449F PUSH2 0x37E5 JUMP JUMPDEST JUMPDEST PUSH2 0x44AC DUP8 DUP3 DUP9 ADD PUSH2 0x3902 JUMP JUMPDEST SWAP5 POP POP PUSH1 0x20 DUP6 ADD CALLDATALOAD PUSH8 0xFFFFFFFFFFFFFFFF DUP2 GT ISZERO PUSH2 0x44CD JUMPI PUSH2 0x44CC PUSH2 0x37E5 JUMP JUMPDEST JUMPDEST PUSH2 0x44D9 DUP8 DUP3 DUP9 ADD PUSH2 0x3902 JUMP JUMPDEST SWAP4 POP POP PUSH1 0x40 PUSH2 0x44EA DUP8 DUP3 DUP9 ADD PUSH2 0x3B27 JUMP JUMPDEST SWAP3 POP POP PUSH1 0x60 DUP6 ADD CALLDATALOAD PUSH8 0xFFFFFFFFFFFFFFFF DUP2 GT ISZERO PUSH2 0x450B JUMPI PUSH2 0x450A PUSH2 0x37E5 JUMP JUMPDEST JUMPDEST PUSH2 0x4517 DUP8 DUP3 DUP9 ADD PUSH2 0x3902 JUMP JUMPDEST SWAP2 POP POP SWAP3 SWAP6 SWAP2 SWAP5 POP SWAP3 POP JUMP JUMPDEST PUSH1 0x0 PUSH1 0x80 DUP3 ADD SWAP1 POP PUSH2 0x4538 PUSH1 0x0 DUP4 ADD DUP8 PUSH2 0x3AE6 JUMP JUMPDEST DUP2 DUP2 SUB PUSH1 0x20 DUP4 ADD MSTORE PUSH2 0x454A DUP2 DUP7 PUSH2 0x3B7A JUMP JUMPDEST SWAP1 POP DUP2 DUP2 SUB PUSH1 0x40 DUP4 ADD MSTORE PUSH2 0x455E DUP2 DUP6 PUSH2 0x3B7A JUMP JUMPDEST SWAP1 POP DUP2 DUP2 SUB PUSH1 0x60 DUP4 ADD MSTORE PUSH2 0x4572 DUP2 DUP5 PUSH2 0x3B7A JUMP JUMPDEST SWAP1 POP SWAP6 SWAP5 POP POP POP POP POP JUMP JUMPDEST PUSH1 0x0 DUP1 PUSH1 0x40 DUP4 DUP6 SUB SLT ISZERO PUSH2 0x4594 JUMPI PUSH2 0x4593 PUSH2 0x37E0 JUMP JUMPDEST JUMPDEST PUSH1 0x0 DUP4 ADD CALLDATALOAD PUSH8 0xFFFFFFFFFFFFFFFF DUP2 GT ISZERO PUSH2 0x45B2 JUMPI PUSH2 0x45B1 PUSH2 0x37E5 JUMP JUMPDEST JUMPDEST PUSH2 0x45BE DUP6 DUP3 DUP7 ADD PUSH2 0x3902 JUMP JUMPDEST SWAP3 POP POP PUSH1 0x20 DUP4 ADD CALLDATALOAD PUSH8 0xFFFFFFFFFFFFFFFF DUP2 GT ISZERO PUSH2 0x45DF JUMPI PUSH2 0x45DE PUSH2 0x37E5 JUMP JUMPDEST JUMPDEST PUSH2 0x45EB DUP6 DUP3 DUP7 ADD PUSH2 0x3902 JUMP JUMPDEST SWAP2 POP POP SWAP3 POP SWAP3 SWAP1 POP JUMP JUMPDEST PUSH1 0x0 DUP1 PUSH1 0x0 DUP1 PUSH1 0x80 DUP6 DUP8 SUB SLT ISZERO PUSH2 0x460F JUMPI PUSH2 0x460E PUSH2 0x37E0 JUMP JUMPDEST JUMPDEST PUSH1 0x0 PUSH2 0x461D DUP8 DUP3 DUP9 ADD PUSH2 0x3B27 JUMP JUMPDEST SWAP5 POP POP PUSH1 0x20 DUP6 ADD CALLDATALOAD PUSH8 0xFFFFFFFFFFFFFFFF DUP2 GT ISZERO PUSH2 0x463E JUMPI PUSH2 0x463D PUSH2 0x37E5 JUMP JUMPDEST JUMPDEST PUSH2 0x464A DUP8 DUP3 DUP9 ADD PUSH2 0x3902 JUMP JUMPDEST SWAP4 POP POP PUSH1 0x40 PUSH2 0x465B DUP8 DUP3 DUP9 ADD PUSH2 0x3B27 JUMP JUMPDEST SWAP3 POP POP PUSH1 0x60 PUSH2 0x466C DUP8 DUP3 DUP9 ADD PUSH2 0x3B27 JUMP JUMPDEST SWAP2 POP POP SWAP3 SWAP6 SWAP2 SWAP5 POP SWAP3 POP JUMP JUMPDEST PUSH1 0x0 PUSH8 0xFFFFFFFFFFFFFFFF DUP3 GT ISZERO PUSH2 0x4693 JUMPI PUSH2 0x4692 PUSH2 0x3805 JUMP JUMPDEST JUMPDEST PUSH1 0x20 DUP3 MUL SWAP1 POP PUSH1 0x20 DUP2 ADD SWAP1 POP SWAP2 SWAP1 POP JUMP JUMPDEST PUSH1 0x0 DUP1 REVERT JUMPDEST PUSH1 0x0 PUSH2 0x46BC PUSH2 0x46B7 DUP5 PUSH2 0x4678 JUMP JUMPDEST PUSH2 0x3865 JUMP JUMPDEST SWAP1 POP DUP1 DUP4 DUP3 MSTORE PUSH1 0x20 DUP3 ADD SWAP1 POP PUSH1 0x20 DUP5 MUL DUP4 ADD DUP6 DUP2 GT ISZERO PUSH2 0x46DF JUMPI PUSH2 0x46DE PUSH2 0x46A4 JUMP JUMPDEST JUMPDEST DUP4 JUMPDEST DUP2 DUP2 LT ISZERO PUSH2 0x4726 JUMPI DUP1 CALLDATALOAD PUSH8 0xFFFFFFFFFFFFFFFF DUP2 GT ISZERO PUSH2 0x4704 JUMPI PUSH2 0x4703 PUSH2 0x37EA JUMP JUMPDEST JUMPDEST DUP1 DUP7 ADD PUSH2 0x4711 DUP10 DUP3 PUSH2 0x3902 JUMP JUMPDEST DUP6 MSTORE PUSH1 0x20 DUP6 ADD SWAP5 POP POP POP PUSH1 0x20 DUP2 ADD SWAP1 POP PUSH2 0x46E1 JUMP JUMPDEST POP POP POP SWAP4 SWAP3 POP POP POP JUMP JUMPDEST PUSH1 0x0 DUP3 PUSH1 0x1F DUP4 ADD SLT PUSH2 0x4745 JUMPI PUSH2 0x4744 PUSH2 0x37EA JUMP JUMPDEST JUMPDEST DUP2 CALLDATALOAD PUSH2 0x4755 DUP5 DUP3 PUSH1 0x20 DUP7 ADD PUSH2 0x46A9 JUMP JUMPDEST SWAP2 POP POP SWAP3 SWAP2 POP POP JUMP JUMPDEST PUSH1 0x0 DUP1 PUSH1 0x0 DUP1 PUSH1 0x0 PUSH1 0xA0 DUP7 DUP9 SUB SLT ISZERO PUSH2 0x477A JUMPI PUSH2 0x4779 PUSH2 0x37E0 JUMP JUMPDEST JUMPDEST PUSH1 0x0 DUP7 ADD CALLDATALOAD PUSH8 0xFFFFFFFFFFFFFFFF DUP2 GT ISZERO PUSH2 0x4798 JUMPI PUSH2 0x4797 PUSH2 0x37E5 JUMP JUMPDEST JUMPDEST PUSH2 0x47A4 DUP9 DUP3 DUP10 ADD PUSH2 0x3902 JUMP JUMPDEST SWAP6 POP POP PUSH1 0x20 DUP7 ADD CALLDATALOAD PUSH8 0xFFFFFFFFFFFFFFFF DUP2 GT ISZERO PUSH2 0x47C5 JUMPI PUSH2 0x47C4 PUSH2 0x37E5 JUMP JUMPDEST JUMPDEST PUSH2 0x47D1 DUP9 DUP3 DUP10 ADD PUSH2 0x3902 JUMP JUMPDEST SWAP5 POP POP PUSH1 0x40 DUP7 ADD CALLDATALOAD PUSH8 0xFFFFFFFFFFFFFFFF DUP2 GT ISZERO PUSH2 0x47F2 JUMPI PUSH2 0x47F1 PUSH2 0x37E5 JUMP JUMPDEST JUMPDEST PUSH2 0x47FE DUP9 DUP3 DUP10 ADD PUSH2 0x4730 JUMP JUMPDEST SWAP4 POP POP PUSH1 0x60 PUSH2 0x480F DUP9 DUP3 DUP10 ADD PUSH2 0x3B27 JUMP JUMPDEST SWAP3 POP POP PUSH1 0x80 DUP7 ADD CALLDATALOAD PUSH8 0xFFFFFFFFFFFFFFFF DUP2 GT ISZERO PUSH2 0x4830 JUMPI PUSH2 0x482F PUSH2 0x37E5 JUMP JUMPDEST JUMPDEST PUSH2 0x483C DUP9 DUP3 DUP10 ADD PUSH2 0x3902 JUMP JUMPDEST SWAP2 POP POP SWAP3 SWAP6 POP SWAP3 SWAP6 SWAP1 SWAP4 POP JUMP JUMPDEST PUSH1 0x0 PUSH1 0x60 DUP3 ADD SWAP1 POP PUSH2 0x485E PUSH1 0x0 DUP4 ADD DUP7 PUSH2 0x3AE6 JUMP JUMPDEST PUSH2 0x486B PUSH1 0x20 DUP4 ADD DUP6 PUSH2 0x3AE6 JUMP JUMPDEST DUP2 DUP2 SUB PUSH1 0x40 DUP4 ADD MSTORE PUSH2 0x487D DUP2 DUP5 PUSH2 0x3B7A JUMP JUMPDEST SWAP1 POP SWAP5 SWAP4 POP POP POP POP JUMP JUMPDEST PUSH32 0x4E487B7100000000000000000000000000000000000000000000000000000000 PUSH1 0x0 MSTORE PUSH1 0x22 PUSH1 0x4 MSTORE PUSH1 0x24 PUSH1 0x0 REVERT JUMPDEST PUSH1 0x0 PUSH1 0x2 DUP3 DIV SWAP1 POP PUSH1 0x1 DUP3 AND DUP1 PUSH2 0x48CE JUMPI PUSH1 0x7F DUP3 AND SWAP2 POP JUMPDEST PUSH1 0x20 DUP3 LT DUP2 SUB PUSH2 0x48E1 JUMPI PUSH2 0x48E0 PUSH2 0x4887 JUMP JUMPDEST JUMPDEST POP SWAP2 SWAP1 POP JUMP JUMPDEST PUSH1 0x0 DUP2 SWAP1 POP SWAP3 SWAP2 POP POP JUMP JUMPDEST PUSH1 0x0 DUP2 SWAP1 POP DUP2 PUSH1 0x0 MSTORE PUSH1 0x20 PUSH1 0x0 KECCAK256 SWAP1 POP SWAP2 SWAP1 POP JUMP JUMPDEST PUSH1 0x0 DUP2 SLOAD PUSH2 0x4914 DUP2 PUSH2 0x48B6 JUMP JUMPDEST PUSH2 0x491E DUP2 DUP7 PUSH2 0x48E7 JUMP JUMPDEST SWAP5 POP PUSH1 0x1 DUP3 AND PUSH1 0x0 DUP2 EQ PUSH2 0x4939 JUMPI PUSH1 0x1 DUP2 EQ PUSH2 0x494E JUMPI PUSH2 0x4981 JUMP JUMPDEST PUSH1 0xFF NOT DUP4 AND DUP7 MSTORE DUP2 ISZERO ISZERO DUP3 MUL DUP7 ADD SWAP4 POP PUSH2 0x4981 JUMP JUMPDEST PUSH2 0x4957 DUP6 PUSH2 0x48F2 JUMP JUMPDEST PUSH1 0x0 JUMPDEST DUP4 DUP2 LT ISZERO PUSH2 0x4979 JUMPI DUP2 SLOAD DUP2 DUP10 ADD MSTORE PUSH1 0x1 DUP3 ADD SWAP2 POP PUSH1 0x20 DUP2 ADD SWAP1 POP PUSH2 0x495A JUMP JUMPDEST DUP4 DUP9 ADD SWAP6 POP POP POP JUMPDEST POP POP POP SWAP3 SWAP2 POP POP JUMP JUMPDEST PUSH1 0x0 PUSH2 0x4996 DUP3 DUP5 PUSH2 0x4907 JUMP JUMPDEST SWAP2 POP DUP2 SWAP1 POP SWAP3 SWAP2 POP POP JUMP JUMPDEST PUSH32 0x4E487B7100000000000000000000000000000000000000000000000000000000 PUSH1 0x0 MSTORE PUSH1 0x32 PUSH1 0x4 MSTORE PUSH1 0x24 PUSH1 0x0 REVERT JUMPDEST PUSH32 0x4E487B7100000000000000000000000000000000000000000000000000000000 PUSH1 0x0 MSTORE PUSH1 0x11 PUSH1 0x4 MSTORE PUSH1 0x24 PUSH1 0x0 REVERT JUMPDEST PUSH1 0x0 PUSH2 0x4A0A DUP3 PUSH2 0x3ADC JUMP JUMPDEST SWAP2 POP PUSH32 0xFFFFFFFFFFFFFFFFFFFFFFFFFFFFFFFFFFFFFFFFFFFFFFFFFFFFFFFFFFFFFFFF DUP3 SUB PUSH2 0x4A3C JUMPI PUSH2 0x4A3B PUSH2 0x49D0 JUMP JUMPDEST JUMPDEST PUSH1 0x1 DUP3 ADD SWAP1 POP SWAP2 SWAP1 POP JUMP JUMPDEST PUSH1 0x0 PUSH2 0x4A52 DUP3 PUSH2 0x3ADC JUMP JUMPDEST SWAP2 POP PUSH2 0x4A5D DUP4 PUSH2 0x3ADC JUMP JUMPDEST SWAP3 POP DUP3 DUP3 ADD SWAP1 POP DUP1 DUP3 GT ISZERO PUSH2 0x4A75 JUMPI PUSH2 0x4A74 PUSH2 0x49D0 JUMP JUMPDEST JUMPDEST SWAP3 SWAP2 POP POP JUMP JUMPDEST PUSH1 0x0 DUP2 SWAP1 POP DUP2 PUSH1 0x0 MSTORE PUSH1 0x20 PUSH1 0x0 KECCAK256 SWAP1 POP SWAP2 SWAP1 POP JUMP JUMPDEST PUSH1 0x0 PUSH1 0x20 PUSH1 0x1F DUP4 ADD DIV SWAP1 POP SWAP2 SWAP1 POP JUMP JUMPDEST PUSH1 0x0 DUP3 DUP3 SHL SWAP1 POP SWAP3 SWAP2 POP POP JUMP JUMPDEST PUSH1 0x0 PUSH1 0x8 DUP4 MUL PUSH2 0x4ADD PUSH32 0xFFFFFFFFFFFFFFFFFFFFFFFFFFFFFFFFFFFFFFFFFFFFFFFFFFFFFFFFFFFFFFFF DUP3 PUSH2 0x4AA0 JUMP JUMPDEST PUSH2 0x4AE7 DUP7 DUP4 PUSH2 0x4AA0 JUMP JUMPDEST SWAP6 POP DUP1 NOT DUP5 AND SWAP4 POP DUP1 DUP7 AND DUP5 OR SWAP3 POP POP POP SWAP4 SWAP3 POP POP POP JUMP JUMPDEST PUSH1 0x0 DUP2 SWAP1 POP SWAP2 SWAP1 POP JUMP JUMPDEST PUSH1 0x0 PUSH2 0x4B24 PUSH2 0x4B1F PUSH2 0x4B1A DUP5 PUSH2 0x3ADC JUMP JUMPDEST PUSH2 0x4AFF JUMP JUMPDEST PUSH2 0x3ADC JUMP JUMPDEST SWAP1 POP SWAP2 SWAP1 POP JUMP JUMPDEST PUSH1 0x0 DUP2 SWAP1 POP SWAP2 SWAP1 POP JUMP JUMPDEST PUSH2 0x4B3E DUP4 PUSH2 0x4B09 JUMP JUMPDEST PUSH2 0x4B52 PUSH2 0x4B4A DUP3 PUSH2 0x4B2B JUMP JUMPDEST DUP5 DUP5 SLOAD PUSH2 0x4AAD JUMP JUMPDEST DUP3 SSTORE POP POP POP POP JUMP JUMPDEST PUSH1 0x0 SWAP1 JUMP JUMPDEST PUSH2 0x4B67 PUSH2 0x4B5A JUMP JUMPDEST PUSH2 0x4B72 DUP2 DUP5 DUP5 PUSH2 0x4B35 JUMP JUMPDEST POP POP POP JUMP JUMPDEST JUMPDEST DUP2 DUP2 LT ISZERO PUSH2 0x4B96 JUMPI PUSH2 0x4B8B PUSH1 0x0 DUP3 PUSH2 0x4B5F JUMP JUMPDEST PUSH1 0x1 DUP2 ADD SWAP1 POP PUSH2 0x4B78 JUMP JUMPDEST POP POP JUMP JUMPDEST PUSH1 0x1F DUP3 GT ISZERO PUSH2 0x4BDB JUMPI PUSH2 0x4BAC DUP2 PUSH2 0x4A7B JUMP JUMPDEST PUSH2 0x4BB5 DUP5 PUSH2 0x4A90 JUMP JUMPDEST DUP2 ADD PUSH1 0x20 DUP6 LT ISZERO PUSH2 0x4BC4 JUMPI DUP2 SWAP1 POP JUMPDEST PUSH2 0x4BD8 PUSH2 0x4BD0 DUP6 PUSH2 0x4A90 JUMP JUMPDEST DUP4 ADD DUP3 PUSH2 0x4B77 JUMP JUMPDEST POP POP JUMPDEST POP POP POP JUMP JUMPDEST PUSH1 0x0 DUP3 DUP3 SHR SWAP1 POP SWAP3 SWAP2 POP POP JUMP JUMPDEST PUSH1 0x0 PUSH2 0x4BFE PUSH1 0x0 NOT DUP5 PUSH1 0x8 MUL PUSH2 0x4BE0 JUMP JUMPDEST NOT DUP1 DUP4 AND SWAP2 POP POP SWAP3 SWAP2 POP POP JUMP JUMPDEST PUSH1 0x0 PUSH2 0x4C17 DUP4 DUP4 PUSH2 0x4BED JUMP JUMPDEST SWAP2 POP DUP3 PUSH1 0x2 MUL DUP3 OR SWAP1 POP SWAP3 SWAP2 POP POP JUMP JUMPDEST PUSH2 0x4C30 DUP3 PUSH2 0x39A5 JUMP JUMPDEST PUSH8 0xFFFFFFFFFFFFFFFF DUP2 GT ISZERO PUSH2 0x4C49 JUMPI PUSH2 0x4C48 PUSH2 0x3805 JUMP JUMPDEST JUMPDEST PUSH2 0x4C53 DUP3 SLOAD PUSH2 0x48B6 JUMP JUMPDEST PUSH2 0x4C5E DUP3 DUP3 DUP6 PUSH2 0x4B9A JUMP JUMPDEST PUSH1 0x0 PUSH1 0x20 SWAP1 POP PUSH1 0x1F DUP4 GT PUSH1 0x1 DUP2 EQ PUSH2 0x4C91 JUMPI PUSH1 0x0 DUP5 ISZERO PUSH2 0x4C7F JUMPI DUP3 DUP8 ADD MLOAD SWAP1 POP JUMPDEST PUSH2 0x4C89 DUP6 DUP3 PUSH2 0x4C0B JUMP JUMPDEST DUP7 SSTORE POP PUSH2 0x4CF1 JUMP JUMPDEST PUSH1 0x1F NOT DUP5 AND PUSH2 0x4C9F DUP7 PUSH2 0x4A7B JUMP JUMPDEST PUSH1 0x0 JUMPDEST DUP3 DUP2 LT ISZERO PUSH2 0x4CC7 JUMPI DUP5 DUP10 ADD MLOAD DUP3 SSTORE PUSH1 0x1 DUP3 ADD SWAP2 POP PUSH1 0x20 DUP6 ADD SWAP5 POP PUSH1 0x20 DUP2 ADD SWAP1 POP PUSH2 0x4CA2 JUMP JUMPDEST DUP7 DUP4 LT ISZERO PUSH2 0x4CE4 JUMPI DUP5 DUP10 ADD MLOAD PUSH2 0x4CE0 PUSH1 0x1F DUP10 AND DUP3 PUSH2 0x4BED JUMP JUMPDEST DUP4 SSTORE POP JUMPDEST PUSH1 0x1 PUSH1 0x2 DUP9 MUL ADD DUP9 SSTORE POP POP POP JUMPDEST POP POP POP POP POP POP JUMP INVALID LOG2 PUSH5 0x6970667358 0x22 SLT KECCAK256 POP 0xD3 POP PUSH4 0x2A49B4EB SWAP14 0xEE DUP16 0xE1 0xAC 0xDA 0xEB 0xB5 PUSH29 0xBAC822EBA5A8D3D1C1CAED8A6BF9DA64736F6C63430008110033000000 "},"gasEstimates":{"creation":{"codeDepositCost":"3951800","executionCost":"4504","totalCost":"3956304"},"external":{"_dao_ids()":"2519","_dao_uris(uint256)":"infinite","_donated(uint256)":"infinite","_donations(uint256)":"infinite","_donations_ids()":"2539","_feed_ids()":"2520","_feeds(uint256)":"infinite","_goal_ids()":"2543","_goal_uris(uint256)":"infinite","_ideas_ids()":"2540","_ideas_uris(uint256)":"infinite","_ideas_vote_ids()":"2498","_join_ids()":"2521","_joined_person(uint256)":"infinite","_message_ids()":"2497","_message_read_ids()":"2540","_reply_ids()":"2496","_smart_contract_ids()":"2498","_smart_contracts_uris(uint256)":"infinite","_template_uris(uint256)":"infinite","_user_badges(uint256)":"infinite","add_Feed(string,string)":"infinite","add_donation(string,uint256,uint256,string,string)":"infinite","all_goal_ideas_votes(uint256)":"infinite","all_messages(uint256)":"infinite","all_read_messages(uint256)":"infinite","all_replies(uint256)":"infinite","create_dao(string,string,string,uint256)":"infinite","create_goal(string,string,uint256,string)":"infinite","create_goal_ideas_vote(string,string,uint256,string,bool)":"infinite","create_ideas(string,string,string[],uint256,string)":"infinite","dao_uri(uint256)":"infinite","getMsgIDs(string)":"infinite","getReadMsg(uint256,string)":"infinite","getReplyIDs(uint256)":"infinite","get_all_daos()":"infinite","get_all_goals()":"infinite","get_all_goals_by_dao_id(string)":"infinite","get_all_ideas()":"infinite","get_all_ideas_by_goal_id(string)":"infinite","get_goal_id_by_goal_uri(string)":"infinite","get_goal_id_from_ideas_uri(string)":"infinite","get_ideas_id_by_ideas_uri(string)":"infinite","get_person_joinedID(string,uint256)":"infinite","goal_uri(uint256)":"infinite","ideas_uri(uint256)":"infinite","is_person_joined(string,uint256)":"infinite","join_community(string,uint256,string,string)":"infinite","leave_community(uint256)":"infinite","reset_all()":"infinite","sendMsg(string,string,string,uint256)":"infinite","sendReadMsg(uint256,uint256,uint256,string)":"infinite","sendReply(uint256,string,uint256,uint256)":"infinite","set_dao(uint256,string,string)":"infinite","set_goal(uint256,string)":"infinite","set_ideas(uint256,string)":"infinite","update_template(uint256,string)":"infinite"},"internal":{"create_ideas_smart_contract(uint256,uint256,string memory)":"infinite"}},"methodIdentifiers":{"_dao_ids()":"7bbd582d","_dao_uris(uint256)":"27a568b9","_donated(uint256)":"20959ed0","_donations(uint256)":"7fc543ec","_donations_ids()":"ec245802","_feed_ids()":"8ac4110c","_feeds(uint256)":"54a9fb18","_goal_ids()":"13bf4cea","_goal_uris(uint256)":"7f2035d4","_ideas_ids()":"d3791b20","_ideas_uris(uint256)":"468d0c80","_ideas_vote_ids()":"4a797bd7","_join_ids()":"1171b621","_joined_person(uint256)":"330b8f26","_message_ids()":"9077007d","_message_read_ids()":"ca013f17","_reply_ids()":"aa2bf5d3","_smart_contract_ids()":"1b592aeb","_smart_contracts_uris(uint256)":"ff4a37ef","_template_uris(uint256)":"6ecda4ee","_user_badges(uint256)":"a428a47f","add_Feed(string,string)":"bda00335","add_donation(string,uint256,uint256,string,string)":"1fd4d664","all_goal_ideas_votes(uint256)":"1ba44c4c","all_messages(uint256)":"b527d45e","all_read_messages(uint256)":"cace8d46","all_replies(uint256)":"3f87a2f4","create_dao(string,string,string,uint256)":"86ffa45b","create_goal(string,string,uint256,string)":"b39a38bd","create_goal_ideas_vote(string,string,uint256,string,bool)":"89e93784","create_ideas(string,string,string[],uint256,string)":"dddb6f86","dao_uri(uint256)":"5d907da1","getMsgIDs(string)":"42f78f47","getReadMsg(uint256,string)":"cd230809","getReplyIDs(uint256)":"812fae1f","get_all_daos()":"c04fe978","get_all_goals()":"29b56f60","get_all_goals_by_dao_id(string)":"0377d44a","get_all_ideas()":"97ee7606","get_all_ideas_by_goal_id(string)":"829a5d98","get_goal_id_by_goal_uri(string)":"1e9ac9f5","get_goal_id_from_ideas_uri(string)":"aa4cdf2a","get_ideas_id_by_ideas_uri(string)":"a1ca9178","get_person_joinedID(string,uint256)":"a36adb9f","goal_uri(uint256)":"e32acc1a","ideas_uri(uint256)":"8d3d2595","is_person_joined(string,uint256)":"a807c20e","join_community(string,uint256,string,string)":"7bc9724b","leave_community(uint256)":"826eeefe","reset_all()":"b16060a6","sendMsg(string,string,string,uint256)":"ca982104","sendReadMsg(uint256,uint256,uint256,string)":"934c5f00","sendReply(uint256,string,uint256,uint256)":"d9fc52db","set_dao(uint256,string,string)":"881de858","set_goal(uint256,string)":"c29595c5","set_ideas(uint256,string)":"c04e7430","update_template(uint256,string)":"87633eb2"}},"storageLayout":{"storage":[{"astId":1864,"contract":"contracts/DAOnation.sol:DAOnation","label":"_dao_ids","offset":0,"slot":"0","type":"t_uint256"},{"astId":1866,"contract":"contracts/DAOnation.sol:DAOnation","label":"_donations_ids","offset":0,"slot":"1","type":"t_uint256"},{"astId":1868,"contract":"contracts/DAOnation.sol:DAOnation","label":"_goal_ids","offset":0,"slot":"2","type":"t_uint256"},{"astId":1870,"contract":"contracts/DAOnation.sol:DAOnation","label":"_ideas_ids","offset":0,"slot":"3","type":"t_uint256"},{"astId":1872,"contract":"contracts/DAOnation.sol:DAOnation","label":"_join_ids","offset":0,"slot":"4","type":"t_uint256"},{"astId":1874,"contract":"contracts/DAOnation.sol:DAOnation","label":"_smart_contract_ids","offset":0,"slot":"5","type":"t_uint256"},{"astId":1876,"contract":"contracts/DAOnation.sol:DAOnation","label":"_ideas_vote_ids","offset":0,"slot":"6","type":"t_uint256"},{"astId":1878,"contract":"contracts/DAOnation.sol:DAOnation","label":"_message_ids","offset":0,"slot":"7","type":"t_uint256"},{"astId":1880,"contract":"contracts/DAOnation.sol:DAOnation","label":"_message_read_ids","offset":0,"slot":"8","type":"t_uint256"},{"astId":1882,"contract":"contracts/DAOnation.sol:DAOnation","label":"_reply_ids","offset":0,"slot":"9","type":"t_uint256"},{"astId":1884,"contract":"contracts/DAOnation.sol:DAOnation","label":"_feed_ids","offset":0,"slot":"10","type":"t_uint256"},{"astId":1889,"contract":"contracts/DAOnation.sol:DAOnation","label":"_dao_uris","offset":0,"slot":"11","type":"t_mapping(t_uint256,t_struct(dao_uri_struct)1762_storage)"},{"astId":1893,"contract":"contracts/DAOnation.sol:DAOnation","label":"_template_uris","offset":0,"slot":"12","type":"t_mapping(t_uint256,t_string_storage)"},{"astId":1898,"contract":"contracts/DAOnation.sol:DAOnation","label":"_joined_person","offset":0,"slot":"13","type":"t_mapping(t_uint256,t_struct(join_struct)1834_storage)"},{"astId":1903,"contract":"contracts/DAOnation.sol:DAOnation","label":"_goal_uris","offset":0,"slot":"14","type":"t_mapping(t_uint256,t_struct(goal_uri_struct)1767_storage)"},{"astId":1908,"contract":"contracts/DAOnation.sol:DAOnation","label":"_ideas_uris","offset":0,"slot":"15","type":"t_mapping(t_uint256,t_struct(ideas_uri_struct)1774_storage)"},{"astId":1912,"contract":"contracts/DAOnation.sol:DAOnation","label":"_donated","offset":0,"slot":"16","type":"t_mapping(t_uint256,t_uint256)"},{"astId":1917,"contract":"contracts/DAOnation.sol:DAOnation","label":"_feeds","offset":0,"slot":"17","type":"t_mapping(t_uint256,t_struct(feed_struct)1862_storage)"},{"astId":1922,"contract":"contracts/DAOnation.sol:DAOnation","label":"_donations","offset":0,"slot":"18","type":"t_mapping(t_uint256,t_struct(donation_struct)1781_storage)"},{"astId":1927,"contract":"contracts/DAOnation.sol:DAOnation","label":"_smart_contracts_uris","offset":0,"slot":"19","type":"t_mapping(t_uint256,t_struct(smart_contract_uri_struct)1788_storage)"},{"astId":1932,"contract":"contracts/DAOnation.sol:DAOnation","label":"all_goal_ideas_votes","offset":0,"slot":"20","type":"t_mapping(t_uint256,t_struct(goal_ideas_votes_struct)1795_storage)"},{"astId":1937,"contract":"contracts/DAOnation.sol:DAOnation","label":"all_messages","offset":0,"slot":"21","type":"t_mapping(t_uint256,t_struct(message_struct)1804_storage)"},{"astId":1942,"contract":"contracts/DAOnation.sol:DAOnation","label":"all_read_messages","offset":0,"slot":"22","type":"t_mapping(t_uint256,t_struct(message_read_struct)1813_storage)"},{"astId":1947,"contract":"contracts/DAOnation.sol:DAOnation","label":"all_replies","offset":0,"slot":"23","type":"t_mapping(t_uint256,t_struct(reply_struct)1822_storage)"},{"astId":1952,"contract":"contracts/DAOnation.sol:DAOnation","label":"_user_badges","offset":0,"slot":"24","type":"t_mapping(t_uint256,t_struct(user_badge_struct)1853_storage)"}],"types":{"t_bool":{"encoding":"inplace","label":"bool","numberOfBytes":"1"},"t_mapping(t_uint256,t_string_storage)":{"encoding":"mapping","key":"t_uint256","label":"mapping(uint256 => string)","numberOfBytes":"32","value":"t_string_storage"},"t_mapping(t_uint256,t_struct(dao_uri_struct)1762_storage)":{"encoding":"mapping","key":"t_uint256","label":"mapping(uint256 => struct DAOnation.dao_uri_struct)","numberOfBytes":"32","value":"t_struct(dao_uri_struct)1762_storage"},"t_mapping(t_uint256,t_struct(donation_struct)1781_storage)":{"encoding":"mapping","key":"t_uint256","label":"mapping(uint256 => struct DAOnation.donation_struct)","numberOfBytes":"32","value":"t_struct(donation_struct)1781_storage"},"t_mapping(t_uint256,t_struct(feed_struct)1862_storage)":{"encoding":"mapping","key":"t_uint256","label":"mapping(uint256 => struct DAOnation.feed_struct)","numberOfBytes":"32","value":"t_struct(feed_struct)1862_storage"},"t_mapping(t_uint256,t_struct(goal_ideas_votes_struct)1795_storage)":{"encoding":"mapping","key":"t_uint256","label":"mapping(uint256 => struct DAOnation.goal_ideas_votes_struct)","numberOfBytes":"32","value":"t_struct(goal_ideas_votes_struct)1795_storage"},"t_mapping(t_uint256,t_struct(goal_uri_struct)1767_storage)":{"encoding":"mapping","key":"t_uint256","label":"mapping(uint256 => struct DAOnation.goal_uri_struct)","numberOfBytes":"32","value":"t_struct(goal_uri_struct)1767_storage"},"t_mapping(t_uint256,t_struct(ideas_uri_struct)1774_storage)":{"encoding":"mapping","key":"t_uint256","label":"mapping(uint256 => struct DAOnation.ideas_uri_struct)","numberOfBytes":"32","value":"t_struct(ideas_uri_struct)1774_storage"},"t_mapping(t_uint256,t_struct(join_struct)1834_storage)":{"encoding":"mapping","key":"t_uint256","label":"mapping(uint256 => struct DAOnation.join_struct)","numberOfBytes":"32","value":"t_struct(join_struct)1834_storage"},"t_mapping(t_uint256,t_struct(message_read_struct)1813_storage)":{"encoding":"mapping","key":"t_uint256","label":"mapping(uint256 => struct DAOnation.message_read_struct)","numberOfBytes":"32","value":"t_struct(message_read_struct)1813_storage"},"t_mapping(t_uint256,t_struct(message_struct)1804_storage)":{"encoding":"mapping","key":"t_uint256","label":"mapping(uint256 => struct DAOnation.message_struct)","numberOfBytes":"32","value":"t_struct(message_struct)1804_storage"},"t_mapping(t_uint256,t_struct(reply_struct)1822_storage)":{"encoding":"mapping","key":"t_uint256","label":"mapping(uint256 => struct DAOnation.reply_struct)","numberOfBytes":"32","value":"t_struct(reply_struct)1822_storage"},"t_mapping(t_uint256,t_struct(smart_contract_uri_struct)1788_storage)":{"encoding":"mapping","key":"t_uint256","label":"mapping(uint256 => struct DAOnation.smart_contract_uri_struct)","numberOfBytes":"32","value":"t_struct(smart_contract_uri_struct)1788_storage"},"t_mapping(t_uint256,t_struct(user_badge_struct)1853_storage)":{"encoding":"mapping","key":"t_uint256","label":"mapping(uint256 => struct DAOnation.user_badge_struct)","numberOfBytes":"32","value":"t_struct(user_badge_struct)1853_storage"},"t_mapping(t_uint256,t_uint256)":{"encoding":"mapping","key":"t_uint256","label":"mapping(uint256 => uint256)","numberOfBytes":"32","value":"t_uint256"},"t_string_storage":{"encoding":"bytes","label":"string","numberOfBytes":"32"},"t_struct(dao_uri_struct)1762_storage":{"encoding":"inplace","label":"struct DAOnation.dao_uri_struct","members":[{"astId":1757,"contract":"contracts/DAOnation.sol:DAOnation","label":"dao_wallet","offset":0,"slot":"0","type":"t_string_storage"},{"astId":1759,"contract":"contracts/DAOnation.sol:DAOnation","label":"dao_uri","offset":0,"slot":"1","type":"t_string_storage"},{"astId":1761,"contract":"contracts/DAOnation.sol:DAOnation","label":"finished","offset":0,"slot":"2","type":"t_string_storage"}],"numberOfBytes":"96"},"t_struct(donation_struct)1781_storage":{"encoding":"inplace","label":"struct DAOnation.donation_struct","members":[{"astId":1776,"contract":"contracts/DAOnation.sol:DAOnation","label":"ideas_id","offset":0,"slot":"0","type":"t_string_storage"},{"astId":1778,"contract":"contracts/DAOnation.sol:DAOnation","label":"userid","offset":0,"slot":"1","type":"t_uint256"},{"astId":1780,"contract":"contracts/DAOnation.sol:DAOnation","label":"donation","offset":0,"slot":"2","type":"t_uint256"}],"numberOfBytes":"96"},"t_struct(feed_struct)1862_storage":{"encoding":"inplace","label":"struct DAOnation.feed_struct","members":[{"astId":1855,"contract":"contracts/DAOnation.sol:DAOnation","label":"feed_id","offset":0,"slot":"0","type":"t_uint256"},{"astId":1857,"contract":"contracts/DAOnation.sol:DAOnation","label":"date","offset":0,"slot":"1","type":"t_uint256"},{"astId":1859,"contract":"contracts/DAOnation.sol:DAOnation","label":"Type","offset":0,"slot":"2","type":"t_string_storage"},{"astId":1861,"contract":"contracts/DAOnation.sol:DAOnation","label":"data","offset":0,"slot":"3","type":"t_string_storage"}],"numberOfBytes":"128"},"t_struct(goal_ideas_votes_struct)1795_storage":{"encoding":"inplace","label":"struct DAOnation.goal_ideas_votes_struct","members":[{"astId":1790,"contract":"contracts/DAOnation.sol:DAOnation","label":"goal_id","offset":0,"slot":"0","type":"t_string_storage"},{"astId":1792,"contract":"contracts/DAOnation.sol:DAOnation","label":"ideas_id","offset":0,"slot":"1","type":"t_string_storage"},{"astId":1794,"contract":"contracts/DAOnation.sol:DAOnation","label":"user_id","offset":0,"slot":"2","type":"t_uint256"}],"numberOfBytes":"96"},"t_struct(goal_uri_struct)1767_storage":{"encoding":"inplace","label":"struct DAOnation.goal_uri_struct","members":[{"astId":1764,"contract":"contracts/DAOnation.sol:DAOnation","label":"dao_id","offset":0,"slot":"0","type":"t_string_storage"},{"astId":1766,"contract":"contracts/DAOnation.sol:DAOnation","label":"goal_uri","offset":0,"slot":"1","type":"t_string_storage"}],"numberOfBytes":"64"},"t_struct(ideas_uri_struct)1774_storage":{"encoding":"inplace","label":"struct DAOnation.ideas_uri_struct","members":[{"astId":1769,"contract":"contracts/DAOnation.sol:DAOnation","label":"goal_id","offset":0,"slot":"0","type":"t_string_storage"},{"astId":1771,"contract":"contracts/DAOnation.sol:DAOnation","label":"ideas_uri","offset":0,"slot":"1","type":"t_string_storage"},{"astId":1773,"contract":"contracts/DAOnation.sol:DAOnation","label":"donation","offset":0,"slot":"2","type":"t_uint256"}],"numberOfBytes":"96"},"t_struct(join_struct)1834_storage":{"encoding":"inplace","label":"struct DAOnation.join_struct","members":[{"astId":1829,"contract":"contracts/DAOnation.sol:DAOnation","label":"daoId","offset":0,"slot":"0","type":"t_string_storage"},{"astId":1831,"contract":"contracts/DAOnation.sol:DAOnation","label":"user_id","offset":0,"slot":"1","type":"t_uint256"},{"astId":1833,"contract":"contracts/DAOnation.sol:DAOnation","label":"joined_date","offset":0,"slot":"2","type":"t_string_storage"}],"numberOfBytes":"96"},"t_struct(message_read_struct)1813_storage":{"encoding":"inplace","label":"struct DAOnation.message_read_struct","members":[{"astId":1806,"contract":"contracts/DAOnation.sol:DAOnation","label":"message_id","offset":0,"slot":"0","type":"t_uint256"},{"astId":1808,"contract":"contracts/DAOnation.sol:DAOnation","label":"ideas_id","offset":0,"slot":"1","type":"t_uint256"},{"astId":1810,"contract":"contracts/DAOnation.sol:DAOnation","label":"user_id","offset":0,"slot":"2","type":"t_uint256"},{"astId":1812,"contract":"contracts/DAOnation.sol:DAOnation","label":"msg_type","offset":0,"slot":"3","type":"t_string_storage"}],"numberOfBytes":"128"},"t_struct(message_struct)1804_storage":{"encoding":"inplace","label":"struct DAOnation.message_struct","members":[{"astId":1797,"contract":"contracts/DAOnation.sol:DAOnation","label":"message_id","offset":0,"slot":"0","type":"t_uint256"},{"astId":1799,"contract":"contracts/DAOnation.sol:DAOnation","label":"ideas_id","offset":0,"slot":"1","type":"t_string_storage"},{"astId":1801,"contract":"contracts/DAOnation.sol:DAOnation","label":"message","offset":0,"slot":"2","type":"t_string_storage"},{"astId":1803,"contract":"contracts/DAOnation.sol:DAOnation","label":"sender","offset":0,"slot":"3","type":"t_string_storage"}],"numberOfBytes":"128"},"t_struct(reply_struct)1822_storage":{"encoding":"inplace","label":"struct DAOnation.reply_struct","members":[{"astId":1815,"contract":"contracts/DAOnation.sol:DAOnation","label":"reply_id","offset":0,"slot":"0","type":"t_uint256"},{"astId":1817,"contract":"contracts/DAOnation.sol:DAOnation","label":"message_id","offset":0,"slot":"1","type":"t_uint256"},{"astId":1819,"contract":"contracts/DAOnation.sol:DAOnation","label":"ideas_id","offset":0,"slot":"2","type":"t_uint256"},{"astId":1821,"contract":"contracts/DAOnation.sol:DAOnation","label":"message","offset":0,"slot":"3","type":"t_string_storage"}],"numberOfBytes":"128"},"t_struct(smart_contract_uri_struct)1788_storage":{"encoding":"inplace","label":"struct DAOnation.smart_contract_uri_struct","members":[{"astId":1783,"contract":"contracts/DAOnation.sol:DAOnation","label":"smart_contract_id","offset":0,"slot":"0","type":"t_uint256"},{"astId":1785,"contract":"contracts/DAOnation.sol:DAOnation","label":"ideas_id","offset":0,"slot":"1","type":"t_uint256"},{"astId":1787,"contract":"contracts/DAOnation.sol:DAOnation","label":"smart_contract_uri","offset":0,"slot":"2","type":"t_string_storage"}],"numberOfBytes":"96"},"t_struct(user_badge_struct)1853_storage":{"encoding":"inplace","label":"struct DAOnation.user_badge_struct","members":[{"astId":1836,"contract":"contracts/DAOnation.sol:DAOnation","label":"user_id","offset":0,"slot":"0","type":"t_uint256"},{"astId":1838,"contract":"contracts/DAOnation.sol:DAOnation","label":"dao","offset":0,"slot":"1","type":"t_bool"},{"astId":1840,"contract":"contracts/DAOnation.sol:DAOnation","label":"joined","offset":1,"slot":"1","type":"t_bool"},{"astId":1842,"contract":"contracts/DAOnation.sol:DAOnation","label":"goal","offset":2,"slot":"1","type":"t_bool"},{"astId":1844,"contract":"contracts/DAOnation.sol:DAOnation","label":"ideas","offset":3,"slot":"1","type":"t_bool"},{"astId":1846,"contract":"contracts/DAOnation.sol:DAOnation","label":"vote","offset":4,"slot":"1","type":"t_bool"},{"astId":1848,"contract":"contracts/DAOnation.sol:DAOnation","label":"donation","offset":5,"slot":"1","type":"t_bool"},{"astId":1850,"contract":"contracts/DAOnation.sol:DAOnation","label":"comment","offset":6,"slot":"1","type":"t_bool"},{"astId":1852,"contract":"contracts/DAOnation.sol:DAOnation","label":"reply","offset":7,"slot":"1","type":"t_bool"}],"numberOfBytes":"64"},"t_uint256":{"encoding":"inplace","label":"uint256","numberOfBytes":"32"}}},"userdoc":{"kind":"user","methods":{},"version":1}}}}