{
  "_format": "hh-sol-artifact-1",
  "contractName": "DAOAuction",
  "sourceName": "contracts/DAOAuction.sol",
  "abi": [
    {
      "inputs": [],
      "name": "_bid_ids",
      "outputs": [
        {
          "internalType": "uint256",
          "name": "",
          "type": "uint256"
        }
      ],
      "stateMutability": "view",
      "type": "function"
    },
    {
      "inputs": [
        {
          "internalType": "uint256",
          "name": "",
          "type": "uint256"
        }
      ],
      "name": "_bid_uris",
      "outputs": [
        {
          "internalType": "uint256",
          "name": "nft_id",
          "type": "uint256"
        },
        {
          "internalType": "string",
          "name": "date",
          "type": "string"
        },
        {
          "internalType": "address",
          "name": "walletAddress",
          "type": "address"
        },
        {
          "internalType": "string",
          "name": "bidder",
          "type": "string"
        },
        {
          "internalType": "uint256",
          "name": "bidder_userid",
          "type": "uint256"
        },
        {
          "internalType": "uint256",
          "name": "bidAmount",
          "type": "uint256"
        }
      ],
      "stateMutability": "view",
      "type": "function"
    },
    {
      "inputs": [],
      "name": "_event_ids",
      "outputs": [
        {
          "internalType": "uint256",
          "name": "",
          "type": "uint256"
        }
      ],
      "stateMutability": "view",
      "type": "function"
    },
    {
      "inputs": [
        {
          "internalType": "uint256",
          "name": "",
          "type": "uint256"
        }
      ],
      "name": "_event_uris",
      "outputs": [
        {
          "internalType": "string",
          "name": "dao_id",
          "type": "string"
        },
        {
          "internalType": "uint256",
          "name": "user_id",
          "type": "uint256"
        },
        {
          "internalType": "string",
          "name": "event_uri",
          "type": "string"
        },
        {
          "internalType": "address",
          "name": "event_wallet",
          "type": "address"
        },
        {
          "internalType": "uint256",
          "name": "raised",
          "type": "uint256"
        },
        {
          "internalType": "string",
          "name": "status",
          "type": "string"
        }
      ],
      "stateMutability": "view",
      "type": "function"
    },
    {
      "inputs": [],
      "name": "_feed_ids",
      "outputs": [
        {
          "internalType": "uint256",
          "name": "",
          "type": "uint256"
        }
      ],
      "stateMutability": "view",
      "type": "function"
    },
    {
      "inputs": [
        {
          "internalType": "uint256",
          "name": "",
          "type": "uint256"
        }
      ],
      "name": "_feeds",
      "outputs": [
        {
          "internalType": "uint256",
          "name": "feed_id",
          "type": "uint256"
        },
        {
          "internalType": "uint256",
          "name": "date",
          "type": "uint256"
        },
        {
          "internalType": "string",
          "name": "Type",
          "type": "string"
        },
        {
          "internalType": "string",
          "name": "data",
          "type": "string"
        }
      ],
      "stateMutability": "view",
      "type": "function"
    },
    {
      "inputs": [],
      "name": "_nft_ids",
      "outputs": [
        {
          "internalType": "uint256",
          "name": "",
          "type": "uint256"
        }
      ],
      "stateMutability": "view",
      "type": "function"
    },
    {
      "inputs": [
        {
          "internalType": "uint256",
          "name": "",
          "type": "uint256"
        }
      ],
      "name": "_nft_uris",
      "outputs": [
        {
          "internalType": "uint256",
          "name": "event_id",
          "type": "uint256"
        },
        {
          "internalType": "string",
          "name": "name",
          "type": "string"
        },
        {
          "internalType": "string",
          "name": "date",
          "type": "string"
        },
        {
          "internalType": "string",
          "name": "url",
          "type": "string"
        },
        {
          "internalType": "string",
          "name": "description",
          "type": "string"
        },
        {
          "internalType": "address",
          "name": "sender_wallet",
          "type": "address"
        },
        {
          "internalType": "uint256",
          "name": "highest_amount",
          "type": "uint256"
        },
        {
          "internalType": "uint256",
          "name": "highest_bidder_userid",
          "type": "uint256"
        },
        {
          "internalType": "string",
          "name": "highest_bidder",
          "type": "string"
        }
      ],
      "stateMutability": "view",
      "type": "function"
    },
    {
      "inputs": [
        {
          "internalType": "string",
          "name": "feed_text",
          "type": "string"
        },
        {
          "internalType": "string",
          "name": "_type",
          "type": "string"
        }
      ],
      "name": "add_Feed",
      "outputs": [],
      "stateMutability": "nonpayable",
      "type": "function"
    },
    {
      "inputs": [
        {
          "internalType": "uint256",
          "name": "_event_id",
          "type": "uint256"
        },
        {
          "internalType": "uint256",
          "name": "_doantion",
          "type": "uint256"
        },
        {
          "internalType": "string",
          "name": "_feed",
          "type": "string"
        }
      ],
      "name": "add_donation",
      "outputs": [],
      "stateMutability": "payable",
      "type": "function"
    },
    {
      "inputs": [
        {
          "internalType": "uint256",
          "name": "nft_id",
          "type": "uint256"
        },
        {
          "internalType": "string",
          "name": "date",
          "type": "string"
        },
        {
          "internalType": "address",
          "name": "walletAddress",
          "type": "address"
        },
        {
          "internalType": "string",
          "name": "bidder",
          "type": "string"
        },
        {
          "internalType": "uint256",
          "name": "bidder_userid",
          "type": "uint256"
        },
        {
          "internalType": "uint256",
          "name": "amount",
          "type": "uint256"
        },
        {
          "internalType": "string",
          "name": "_feed",
          "type": "string"
        }
      ],
      "name": "bid_nft",
      "outputs": [
        {
          "internalType": "uint256",
          "name": "",
          "type": "uint256"
        }
      ],
      "stateMutability": "payable",
      "type": "function"
    },
    {
      "inputs": [
        {
          "internalType": "string",
          "name": "_event_uri",
          "type": "string"
        },
        {
          "internalType": "address",
          "name": "_event_wallet",
          "type": "address"
        },
        {
          "internalType": "string",
          "name": "_dao_id",
          "type": "string"
        },
        {
          "internalType": "uint256",
          "name": "_user_id",
          "type": "uint256"
        },
        {
          "internalType": "string",
          "name": "_feed",
          "type": "string"
        }
      ],
      "name": "create_event",
      "outputs": [
        {
          "internalType": "uint256",
          "name": "",
          "type": "uint256"
        }
      ],
      "stateMutability": "nonpayable",
      "type": "function"
    },
    {
      "inputs": [
        {
          "internalType": "uint256",
          "name": "event_id",
          "type": "uint256"
        }
      ],
      "name": "distribute_nft_to_highest_bidder",
      "outputs": [],
      "stateMutability": "payable",
      "type": "function"
    },
    {
      "inputs": [
        {
          "internalType": "uint256",
          "name": "event_id",
          "type": "uint256"
        },
        {
          "internalType": "string",
          "name": "name",
          "type": "string"
        },
        {
          "internalType": "string",
          "name": "url",
          "type": "string"
        },
        {
          "internalType": "string",
          "name": "description",
          "type": "string"
        },
        {
          "internalType": "address",
          "name": "sender_wallet",
          "type": "address"
        },
        {
          "internalType": "string",
          "name": "date",
          "type": "string"
        },
        {
          "internalType": "uint256",
          "name": "amount",
          "type": "uint256"
        },
        {
          "internalType": "uint256",
          "name": "userid",
          "type": "uint256"
        },
        {
          "internalType": "string",
          "name": "highest_bidder",
          "type": "string"
        },
        {
          "internalType": "string",
          "name": "_feed",
          "type": "string"
        }
      ],
      "name": "donate_nft",
      "outputs": [
        {
          "internalType": "uint256",
          "name": "",
          "type": "uint256"
        }
      ],
      "stateMutability": "nonpayable",
      "type": "function"
    },
    {
      "inputs": [
        {
          "internalType": "uint256",
          "name": "event_id",
          "type": "uint256"
        }
      ],
      "name": "get_event_nft_count",
      "outputs": [
        {
          "internalType": "uint256",
          "name": "",
          "type": "uint256"
        }
      ],
      "stateMutability": "view",
      "type": "function"
    },
    {
      "inputs": [
        {
          "internalType": "uint256",
          "name": "event_id",
          "type": "uint256"
        }
      ],
      "name": "get_event_reached",
      "outputs": [
        {
          "internalType": "uint256",
          "name": "",
          "type": "uint256"
        }
      ],
      "stateMutability": "view",
      "type": "function"
    }
  ],
  "bytecode": "0x608060405234801561001057600080fd5b50612cfa806100206000396000f3fe6080604052600436106100f35760003560e01c806368fbe27e1161008a5780638ac4110c116100595780638ac4110c14610397578063bda00335146103c2578063db9ecaca146103eb578063e3863cef14610416576100f3565b806368fbe27e146102bd57806369e114fa146102ff578063722f75921461032a5780637dcac8611461036c576100f3565b806352e7ddff116100c657806352e7ddff146101e757806354a9fb181461022457806358b087e01461026457806363d98c34146102a1576100f3565b80630af999e3146100f857806310b34cd3146101355780632159200114610172578063225bb52a146101a2575b600080fd5b34801561010457600080fd5b5061011f600480360381019061011a9190612097565b610432565b60405161012c91906120d3565b60405180910390f35b34801561014157600080fd5b5061015c60048036038101906101579190612292565b6107f3565b60405161016991906120d3565b60405180910390f35b61018c60048036038101906101879190612361565b610986565b60405161019991906120d3565b60405180910390f35b3480156101ae57600080fd5b506101c960048036038101906101c49190612097565b610b35565b6040516101de999897969594939291906124e5565b60405180910390f35b3480156101f357600080fd5b5061020e60048036038101906102099190612097565b610e4b565b60405161021b91906120d3565b60405180910390f35b34801561023057600080fd5b5061024b60048036038101906102469190612097565b611209565b60405161025b9493929190612595565b60405180910390f35b34801561027057600080fd5b5061028b600480360381019061028691906125e8565b611349565b60405161029891906120d3565b60405180910390f35b6102bb60048036038101906102b69190612097565b6114f7565b005b3480156102c957600080fd5b506102e460048036038101906102df9190612097565b611bcd565b6040516102f69695949392919061276f565b60405180910390f35b34801561030b57600080fd5b50610314611d39565b60405161032191906120d3565b60405180910390f35b34801561033657600080fd5b50610351600480360381019061034c9190612097565b611d3f565b604051610363969594939291906127de565b60405180910390f35b34801561037857600080fd5b50610381611f33565b60405161038e91906120d3565b60405180910390f35b3480156103a357600080fd5b506103ac611f39565b6040516103b991906120d3565b60405180910390f35b3480156103ce57600080fd5b506103e960048036038101906103e49190612854565b611f3f565b005b3480156103f757600080fd5b50610400611fd6565b60405161040d91906120d3565b60405180910390f35b610430600480360381019061042b91906128cc565b611fdc565b005b6000806000905060005b6001548110156107e95760006005600083815260200190815260200160002060405180610120016040529081600082015481526020016001820180546104819061296a565b80601f01602080910402602001604051908101604052809291908181526020018280546104ad9061296a565b80156104fa5780601f106104cf576101008083540402835291602001916104fa565b820191906000526020600020905b8154815290600101906020018083116104dd57829003601f168201915b505050505081526020016002820180546105139061296a565b80601f016020809104026020016040519081016040528092919081815260200182805461053f9061296a565b801561058c5780601f106105615761010080835404028352916020019161058c565b820191906000526020600020905b81548152906001019060200180831161056f57829003601f168201915b505050505081526020016003820180546105a59061296a565b80601f01602080910402602001604051908101604052809291908181526020018280546105d19061296a565b801561061e5780601f106105f35761010080835404028352916020019161061e565b820191906000526020600020905b81548152906001019060200180831161060157829003601f168201915b505050505081526020016004820180546106379061296a565b80601f01602080910402602001604051908101604052809291908181526020018280546106639061296a565b80156106b05780601f10610685576101008083540402835291602001916106b0565b820191906000526020600020905b81548152906001019060200180831161069357829003601f168201915b505050505081526020016005820160009054906101000a900473ffffffffffffffffffffffffffffffffffffffff1673ffffffffffffffffffffffffffffffffffffffff1673ffffffffffffffffffffffffffffffffffffffff16815260200160068201548152602001600782015481526020016008820180546107339061296a565b80601f016020809104026020016040519081016040528092919081815260200182805461075f9061296a565b80156107ac5780601f10610781576101008083540402835291602001916107ac565b820191906000526020600020905b81548152906001019060200180831161078f57829003601f168201915b5050505050815250509050848160000151036107d5578060c00151836107d291906129ca565b92505b5080806107e1906129fe565b91505061043c565b5080915050919050565b60006040518060c001604052808581526020018481526020018781526020018673ffffffffffffffffffffffffffffffffffffffff168152602001600081526020016040518060400160405280600181526020017f3000000000000000000000000000000000000000000000000000000000000000815250815250600460008054815260200190815260200160002060008201518160000190816108979190612bf2565b506020820151816001015560408201518160020190816108b79190612bf2565b5060608201518160030160006101000a81548173ffffffffffffffffffffffffffffffffffffffff021916908373ffffffffffffffffffffffffffffffffffffffff1602179055506080820151816004015560a082015181600501908161091e9190612bf2565b50905050600080815480929190610934906129fe565b9190505550610978826040518060400160405280600581526020017f6576656e74000000000000000000000000000000000000000000000000000000815250611f3f565b600054905095945050505050565b60006040518060c001604052808981526020018881526020018773ffffffffffffffffffffffffffffffffffffffff168152602001868152602001858152602001848152506006600060025481526020019081526020016000206000820151816000015560208201518160010190816109ff9190612bf2565b5060408201518160020160006101000a81548173ffffffffffffffffffffffffffffffffffffffff021916908373ffffffffffffffffffffffffffffffffffffffff1602179055506060820151816003019081610a5c9190612bf2565b506080820151816004015560a0820151816005015590505082600560008a81526020019081526020016000206006018190555083600560008a81526020019081526020016000206007018190555084600560008a81526020019081526020016000206008019081610acd9190612bf2565b5060026000815480929190610ae1906129fe565b9190505550610b25826040518060400160405280600781526020017f6269645f6e667400000000000000000000000000000000000000000000000000815250611f3f565b6002549050979650505050505050565b6005602052806000526040600020600091509050806000015490806001018054610b5e9061296a565b80601f0160208091040260200160405190810160405280929190818152602001828054610b8a9061296a565b8015610bd75780601f10610bac57610100808354040283529160200191610bd7565b820191906000526020600020905b815481529060010190602001808311610bba57829003601f168201915b505050505090806002018054610bec9061296a565b80601f0160208091040260200160405190810160405280929190818152602001828054610c189061296a565b8015610c655780601f10610c3a57610100808354040283529160200191610c65565b820191906000526020600020905b815481529060010190602001808311610c4857829003601f168201915b505050505090806003018054610c7a9061296a565b80601f0160208091040260200160405190810160405280929190818152602001828054610ca69061296a565b8015610cf35780601f10610cc857610100808354040283529160200191610cf3565b820191906000526020600020905b815481529060010190602001808311610cd657829003601f168201915b505050505090806004018054610d089061296a565b80601f0160208091040260200160405190810160405280929190818152602001828054610d349061296a565b8015610d815780601f10610d5657610100808354040283529160200191610d81565b820191906000526020600020905b815481529060010190602001808311610d6457829003601f168201915b5050505050908060050160009054906101000a900473ffffffffffffffffffffffffffffffffffffffff1690806006015490806007015490806008018054610dc89061296a565b80601f0160208091040260200160405190810160405280929190818152602001828054610df49061296a565b8015610e415780601f10610e1657610100808354040283529160200191610e41565b820191906000526020600020905b815481529060010190602001808311610e2457829003601f168201915b5050505050905089565b6000806000905060005b6001548110156111ff576000600560008381526020019081526020016000206040518061012001604052908160008201548152602001600182018054610e9a9061296a565b80601f0160208091040260200160405190810160405280929190818152602001828054610ec69061296a565b8015610f135780601f10610ee857610100808354040283529160200191610f13565b820191906000526020600020905b815481529060010190602001808311610ef657829003601f168201915b50505050508152602001600282018054610f2c9061296a565b80601f0160208091040260200160405190810160405280929190818152602001828054610f589061296a565b8015610fa55780601f10610f7a57610100808354040283529160200191610fa5565b820191906000526020600020905b815481529060010190602001808311610f8857829003601f168201915b50505050508152602001600382018054610fbe9061296a565b80601f0160208091040260200160405190810160405280929190818152602001828054610fea9061296a565b80156110375780601f1061100c57610100808354040283529160200191611037565b820191906000526020600020905b81548152906001019060200180831161101a57829003601f168201915b505050505081526020016004820180546110509061296a565b80601f016020809104026020016040519081016040528092919081815260200182805461107c9061296a565b80156110c95780601f1061109e576101008083540402835291602001916110c9565b820191906000526020600020905b8154815290600101906020018083116110ac57829003601f168201915b505050505081526020016005820160009054906101000a900473ffffffffffffffffffffffffffffffffffffffff1673ffffffffffffffffffffffffffffffffffffffff1673ffffffffffffffffffffffffffffffffffffffff168152602001600682015481526020016007820154815260200160088201805461114c9061296a565b80601f01602080910402602001604051908101604052809291908181526020018280546111789061296a565b80156111c55780601f1061119a576101008083540402835291602001916111c5565b820191906000526020600020905b8154815290600101906020018083116111a857829003601f168201915b5050505050815250509050848160000151036111eb576001836111e891906129ca565b92505b5080806111f7906129fe565b915050610e55565b5080915050919050565b60076020528060005260406000206000915090508060000154908060010154908060020180546112389061296a565b80601f01602080910402602001604051908101604052809291908181526020018280546112649061296a565b80156112b15780601f10611286576101008083540402835291602001916112b1565b820191906000526020600020905b81548152906001019060200180831161129457829003601f168201915b5050505050908060030180546112c69061296a565b80601f01602080910402602001604051908101604052809291908181526020018280546112f29061296a565b801561133f5780601f106113145761010080835404028352916020019161133f565b820191906000526020600020905b81548152906001019060200180831161132257829003601f168201915b5050505050905084565b60006040518061012001604052808c81526020018b81526020018781526020018a81526020018981526020018873ffffffffffffffffffffffffffffffffffffffff168152602001868152602001858152602001848152506005600060015481526020019081526020016000206000820151816000015560208201518160010190816113d59190612bf2565b5060408201518160020190816113eb9190612bf2565b5060608201518160030190816114019190612bf2565b5060808201518160040190816114179190612bf2565b5060a08201518160050160006101000a81548173ffffffffffffffffffffffffffffffffffffffff021916908373ffffffffffffffffffffffffffffffffffffffff16021790555060c0820151816006015560e082015181600701556101008201518160080190816114899190612bf2565b50905050600160008154809291906114a0906129fe565b91905055506114e4826040518060400160405280600a81526020017f646f6e6174655f6e667400000000000000000000000000000000000000000000815250611f3f565b60015490509a9950505050505050505050565b60005b600254811015611b70576000600660008381526020019081526020016000206040518060c00160405290816000820154815260200160018201805461153e9061296a565b80601f016020809104026020016040519081016040528092919081815260200182805461156a9061296a565b80156115b75780601f1061158c576101008083540402835291602001916115b7565b820191906000526020600020905b81548152906001019060200180831161159a57829003601f168201915b505050505081526020016002820160009054906101000a900473ffffffffffffffffffffffffffffffffffffffff1673ffffffffffffffffffffffffffffffffffffffff1673ffffffffffffffffffffffffffffffffffffffff1681526020016003820180546116269061296a565b80601f01602080910402602001604051908101604052809291908181526020018280546116529061296a565b801561169f5780601f106116745761010080835404028352916020019161169f565b820191906000526020600020905b81548152906001019060200180831161168257829003601f168201915b505050505081526020016004820154815260200160058201548152505090506000600560008360000151815260200190815260200160002060405180610120016040529081600082015481526020016001820180546116fd9061296a565b80601f01602080910402602001604051908101604052809291908181526020018280546117299061296a565b80156117765780601f1061174b57610100808354040283529160200191611776565b820191906000526020600020905b81548152906001019060200180831161175957829003601f168201915b5050505050815260200160028201805461178f9061296a565b80601f01602080910402602001604051908101604052809291908181526020018280546117bb9061296a565b80156118085780601f106117dd57610100808354040283529160200191611808565b820191906000526020600020905b8154815290600101906020018083116117eb57829003601f168201915b505050505081526020016003820180546118219061296a565b80601f016020809104026020016040519081016040528092919081815260200182805461184d9061296a565b801561189a5780601f1061186f5761010080835404028352916020019161189a565b820191906000526020600020905b81548152906001019060200180831161187d57829003601f168201915b505050505081526020016004820180546118b39061296a565b80601f01602080910402602001604051908101604052809291908181526020018280546118df9061296a565b801561192c5780601f106119015761010080835404028352916020019161192c565b820191906000526020600020905b81548152906001019060200180831161190f57829003601f168201915b505050505081526020016005820160009054906101000a900473ffffffffffffffffffffffffffffffffffffffff1673ffffffffffffffffffffffffffffffffffffffff1673ffffffffffffffffffffffffffffffffffffffff16815260200160068201548152602001600782015481526020016008820180546119af9061296a565b80601f01602080910402602001604051908101604052809291908181526020018280546119db9061296a565b8015611a285780601f106119fd57610100808354040283529160200191611a28565b820191906000526020600020905b815481529060010190602001808311611a0b57829003601f168201915b505050505081525050905083816000015103611b5b578060e00151826080015103611b04576000826040015190508073ffffffffffffffffffffffffffffffffffffffff166108fc8460a001519081150290604051600060405180830381858888f19350505050158015611aa0573d6000803e3d6000fd5b508260400151600560008560000151815260200190815260200160002060050160006101000a81548173ffffffffffffffffffffffffffffffffffffffff021916908373ffffffffffffffffffffffffffffffffffffffff16021790555050611b5a565b6000826040015190508073ffffffffffffffffffffffffffffffffffffffff166108fc8460a001519081150290604051600060405180830381858888f19350505050158015611b57573d6000803e3d6000fd5b50505b5b50508080611b68906129fe565b9150506114fa565b506040518060400160405280600581526020017f656e646564000000000000000000000000000000000000000000000000000000815250600460008381526020019081526020016000206005019081611bc99190612bf2565b5050565b6006602052806000526040600020600091509050806000015490806001018054611bf69061296a565b80601f0160208091040260200160405190810160405280929190818152602001828054611c229061296a565b8015611c6f5780601f10611c4457610100808354040283529160200191611c6f565b820191906000526020600020905b815481529060010190602001808311611c5257829003601f168201915b5050505050908060020160009054906101000a900473ffffffffffffffffffffffffffffffffffffffff1690806003018054611caa9061296a565b80601f0160208091040260200160405190810160405280929190818152602001828054611cd69061296a565b8015611d235780601f10611cf857610100808354040283529160200191611d23565b820191906000526020600020905b815481529060010190602001808311611d0657829003601f168201915b5050505050908060040154908060050154905086565b60005481565b6004602052806000526040600020600091509050806000018054611d629061296a565b80601f0160208091040260200160405190810160405280929190818152602001828054611d8e9061296a565b8015611ddb5780601f10611db057610100808354040283529160200191611ddb565b820191906000526020600020905b815481529060010190602001808311611dbe57829003601f168201915b505050505090806001015490806002018054611df69061296a565b80601f0160208091040260200160405190810160405280929190818152602001828054611e229061296a565b8015611e6f5780601f10611e4457610100808354040283529160200191611e6f565b820191906000526020600020905b815481529060010190602001808311611e5257829003601f168201915b5050505050908060030160009054906101000a900473ffffffffffffffffffffffffffffffffffffffff1690806004015490806005018054611eb09061296a565b80601f0160208091040260200160405190810160405280929190818152602001828054611edc9061296a565b8015611f295780601f10611efe57610100808354040283529160200191611f29565b820191906000526020600020905b815481529060010190602001808311611f0c57829003601f168201915b5050505050905086565b60025481565b60035481565b604051806080016040528060035481526020014281526020018281526020018381525060076000600354815260200190815260200160002060008201518160000155602082015181600101556040820151816002019081611fa09190612bf2565b506060820151816003019081611fb69190612bf2565b5090505060036000815480929190611fcd906129fe565b91905055505050565b60015481565b61201b816040518060400160405280600881526020017f646f6e6174696f6e000000000000000000000000000000000000000000000000815250611f3f565b8160046000858152602001908152602001600020600401600082825461204191906129ca565b92505081905550505050565b6000604051905090565b600080fd5b600080fd5b6000819050919050565b61207481612061565b811461207f57600080fd5b50565b6000813590506120918161206b565b92915050565b6000602082840312156120ad576120ac612057565b5b60006120bb84828501612082565b91505092915050565b6120cd81612061565b82525050565b60006020820190506120e860008301846120c4565b92915050565b600080fd5b600080fd5b6000601f19601f8301169050919050565b7f4e487b7100000000000000000000000000000000000000000000000000000000600052604160045260246000fd5b612141826120f8565b810181811067ffffffffffffffff821117156121605761215f612109565b5b80604052505050565b600061217361204d565b905061217f8282612138565b919050565b600067ffffffffffffffff82111561219f5761219e612109565b5b6121a8826120f8565b9050602081019050919050565b82818337600083830152505050565b60006121d76121d284612184565b612169565b9050828152602081018484840111156121f3576121f26120f3565b5b6121fe8482856121b5565b509392505050565b600082601f83011261221b5761221a6120ee565b5b813561222b8482602086016121c4565b91505092915050565b600073ffffffffffffffffffffffffffffffffffffffff82169050919050565b600061225f82612234565b9050919050565b61226f81612254565b811461227a57600080fd5b50565b60008135905061228c81612266565b92915050565b600080600080600060a086880312156122ae576122ad612057565b5b600086013567ffffffffffffffff8111156122cc576122cb61205c565b5b6122d888828901612206565b95505060206122e98882890161227d565b945050604086013567ffffffffffffffff81111561230a5761230961205c565b5b61231688828901612206565b935050606061232788828901612082565b925050608086013567ffffffffffffffff8111156123485761234761205c565b5b61235488828901612206565b9150509295509295909350565b600080600080600080600060e0888a0312156123805761237f612057565b5b600061238e8a828b01612082565b975050602088013567ffffffffffffffff8111156123af576123ae61205c565b5b6123bb8a828b01612206565b96505060406123cc8a828b0161227d565b955050606088013567ffffffffffffffff8111156123ed576123ec61205c565b5b6123f98a828b01612206565b945050608061240a8a828b01612082565b93505060a061241b8a828b01612082565b92505060c088013567ffffffffffffffff81111561243c5761243b61205c565b5b6124488a828b01612206565b91505092959891949750929550565b600081519050919050565b600082825260208201905092915050565b60005b83811015612491578082015181840152602081019050612476565b60008484015250505050565b60006124a882612457565b6124b28185612462565b93506124c2818560208601612473565b6124cb816120f8565b840191505092915050565b6124df81612254565b82525050565b6000610120820190506124fb600083018c6120c4565b818103602083015261250d818b61249d565b90508181036040830152612521818a61249d565b90508181036060830152612535818961249d565b90508181036080830152612549818861249d565b905061255860a08301876124d6565b61256560c08301866120c4565b61257260e08301856120c4565b818103610100830152612585818461249d565b90509a9950505050505050505050565b60006080820190506125aa60008301876120c4565b6125b760208301866120c4565b81810360408301526125c9818561249d565b905081810360608301526125dd818461249d565b905095945050505050565b6000806000806000806000806000806101408b8d03121561260c5761260b612057565b5b600061261a8d828e01612082565b9a505060208b013567ffffffffffffffff81111561263b5761263a61205c565b5b6126478d828e01612206565b99505060408b013567ffffffffffffffff8111156126685761266761205c565b5b6126748d828e01612206565b98505060608b013567ffffffffffffffff8111156126955761269461205c565b5b6126a18d828e01612206565b97505060806126b28d828e0161227d565b96505060a08b013567ffffffffffffffff8111156126d3576126d261205c565b5b6126df8d828e01612206565b95505060c06126f08d828e01612082565b94505060e06127018d828e01612082565b9350506101008b013567ffffffffffffffff8111156127235761272261205c565b5b61272f8d828e01612206565b9250506101208b013567ffffffffffffffff8111156127515761275061205c565b5b61275d8d828e01612206565b9150509295989b9194979a5092959850565b600060c08201905061278460008301896120c4565b8181036020830152612796818861249d565b90506127a560408301876124d6565b81810360608301526127b7818661249d565b90506127c660808301856120c4565b6127d360a08301846120c4565b979650505050505050565b600060c08201905081810360008301526127f8818961249d565b905061280760208301886120c4565b8181036040830152612819818761249d565b905061282860608301866124d6565b61283560808301856120c4565b81810360a0830152612847818461249d565b9050979650505050505050565b6000806040838503121561286b5761286a612057565b5b600083013567ffffffffffffffff8111156128895761288861205c565b5b61289585828601612206565b925050602083013567ffffffffffffffff8111156128b6576128b561205c565b5b6128c285828601612206565b9150509250929050565b6000806000606084860312156128e5576128e4612057565b5b60006128f386828701612082565b935050602061290486828701612082565b925050604084013567ffffffffffffffff8111156129255761292461205c565b5b61293186828701612206565b9150509250925092565b7f4e487b7100000000000000000000000000000000000000000000000000000000600052602260045260246000fd5b6000600282049050600182168061298257607f821691505b6020821081036129955761299461293b565b5b50919050565b7f4e487b7100000000000000000000000000000000000000000000000000000000600052601160045260246000fd5b60006129d582612061565b91506129e083612061565b92508282019050808211156129f8576129f761299b565b5b92915050565b6000612a0982612061565b91507fffffffffffffffffffffffffffffffffffffffffffffffffffffffffffffffff8203612a3b57612a3a61299b565b5b600182019050919050565b60008190508160005260206000209050919050565b60006020601f8301049050919050565b600082821b905092915050565b600060088302612aa87fffffffffffffffffffffffffffffffffffffffffffffffffffffffffffffffff82612a6b565b612ab28683612a6b565b95508019841693508086168417925050509392505050565b6000819050919050565b6000612aef612aea612ae584612061565b612aca565b612061565b9050919050565b6000819050919050565b612b0983612ad4565b612b1d612b1582612af6565b848454612a78565b825550505050565b600090565b612b32612b25565b612b3d818484612b00565b505050565b5b81811015612b6157612b56600082612b2a565b600181019050612b43565b5050565b601f821115612ba657612b7781612a46565b612b8084612a5b565b81016020851015612b8f578190505b612ba3612b9b85612a5b565b830182612b42565b50505b505050565b600082821c905092915050565b6000612bc960001984600802612bab565b1980831691505092915050565b6000612be28383612bb8565b9150826002028217905092915050565b612bfb82612457565b67ffffffffffffffff811115612c1457612c13612109565b5b612c1e825461296a565b612c29828285612b65565b600060209050601f831160018114612c5c5760008415612c4a578287015190505b612c548582612bd6565b865550612cbc565b601f198416612c6a86612a46565b60005b82811015612c9257848901518255600182019150602085019450602081019050612c6d565b86831015612caf5784890151612cab601f891682612bb8565b8355505b6001600288020188555050505b50505050505056fea2646970667358221220dbb8454c12f5dd212e685ce73bb2111c7ea397d2775737f9707eb70695a313cc64736f6c63430008110033",
  "linkReferences": {},
  "deployedLinkReferences": {}
}