{
  "address": "0x2d216DFE1C76f089f529e0E69e87680d7e7FC3C9",
  "abi": [
    {
      "inputs": [],
      "name": "_event_ids",
      "outputs": [
        {
          "internalType": "uint256",
          "name": "",
          "type": "uint256"
        }
      ],
      "stateMutability": "view",
      "type": "function"
    },
    {
      "inputs": [
        {
          "internalType": "uint256",
          "name": "",
          "type": "uint256"
        }
      ],
      "name": "_event_uris",
      "outputs": [
        {
          "internalType": "string",
          "name": "dao_id",
          "type": "string"
        },
        {
          "internalType": "uint256",
          "name": "user_id",
          "type": "uint256"
        },
        {
          "internalType": "string",
          "name": "event_uri",
          "type": "string"
        },
        {
          "internalType": "string",
          "name": "event_wallet",
          "type": "string"
        },
        {
          "internalType": "string",
          "name": "raised",
          "type": "string"
        },
        {
          "internalType": "string",
          "name": "status",
          "type": "string"
        }
      ],
      "stateMutability": "view",
      "type": "function"
    },
    {
      "inputs": [],
      "name": "_feed_ids",
      "outputs": [
        {
          "internalType": "uint256",
          "name": "",
          "type": "uint256"
        }
      ],
      "stateMutability": "view",
      "type": "function"
    },
    {
      "inputs": [
        {
          "internalType": "uint256",
          "name": "",
          "type": "uint256"
        }
      ],
      "name": "_feeds",
      "outputs": [
        {
          "internalType": "uint256",
          "name": "feed_id",
          "type": "uint256"
        },
        {
          "internalType": "uint256",
          "name": "date",
          "type": "uint256"
        },
        {
          "internalType": "string",
          "name": "Type",
          "type": "string"
        },
        {
          "internalType": "string",
          "name": "data",
          "type": "string"
        }
      ],
      "stateMutability": "view",
      "type": "function"
    },
    {
      "inputs": [
        {
          "internalType": "string",
          "name": "feed_text",
          "type": "string"
        },
        {
          "internalType": "string",
          "name": "_type",
          "type": "string"
        }
      ],
      "name": "add_Feed",
      "outputs": [],
      "stateMutability": "nonpayable",
      "type": "function"
    },
    {
      "inputs": [
        {
          "internalType": "string",
          "name": "_event_uri",
          "type": "string"
        },
        {
          "internalType": "string",
          "name": "_event_wallet",
          "type": "string"
        },
        {
          "internalType": "string",
          "name": "_dao_id",
          "type": "string"
        },
        {
          "internalType": "uint256",
          "name": "_user_id",
          "type": "uint256"
        },
        {
          "internalType": "string",
          "name": "_feed",
          "type": "string"
        }
      ],
      "name": "create_event",
      "outputs": [
        {
          "internalType": "uint256",
          "name": "",
          "type": "uint256"
        }
      ],
      "stateMutability": "nonpayable",
      "type": "function"
    }
  ],
  "transactionHash": "0x5c20996e8e0c0fdae62ed6ab9c7def86f1cf070cc6808aad91f3e340688037ad",
  "args": [],
  "numDeployments": 1,
  "solcInputHash": "60336fad43bf94a338c9cdc90644b6a3",
  "bytecode": "0x608060405234801561001057600080fd5b50610fd5806100206000396000f3fe608060405234801561001057600080fd5b50600436106100625760003560e01c806354a9fb18146100675780635514212f1461009a57806369e114fa146100ca578063722f7592146100e85780638ac4110c1461011d578063bda003351461013b575b600080fd5b610081600480360381019061007c91906107f4565b610157565b60405161009194939291906108c0565b60405180910390f35b6100b460048036038101906100af9190610a48565b610297565b6040516100c19190610b33565b60405180910390f35b6100d2610423565b6040516100df9190610b33565b60405180910390f35b61010260048036038101906100fd91906107f4565b610429565b60405161011496959493929190610b4e565b60405180910390f35b61012561070d565b6040516101329190610b33565b60405180910390f35b61015560048036038101906101509190610bd2565b610713565b005b600360205280600052604060002060009150905080600001549080600101549080600201805461018690610c79565b80601f01602080910402602001604051908101604052809291908181526020018280546101b290610c79565b80156101ff5780601f106101d4576101008083540402835291602001916101ff565b820191906000526020600020905b8154815290600101906020018083116101e257829003601f168201915b50505050509080600301805461021490610c79565b80601f016020809104026020016040519081016040528092919081815260200182805461024090610c79565b801561028d5780601f106102625761010080835404028352916020019161028d565b820191906000526020600020905b81548152906001019060200180831161027057829003601f168201915b5050505050905084565b60006040518060c001604052808581526020018481526020018781526020018681526020016040518060400160405280600181526020017f300000000000000000000000000000000000000000000000000000000000000081525081526020016040518060400160405280600181526020017f3000000000000000000000000000000000000000000000000000000000000000815250815250600260008054815260200190815260200160002060008201518160000190816103599190610e56565b506020820151816001015560408201518160020190816103799190610e56565b50606082015181600301908161038f9190610e56565b5060808201518160040190816103a59190610e56565b5060a08201518160050190816103bb9190610e56565b509050506000808154809291906103d190610f57565b9190505550610415826040518060400160405280600581526020017f6576656e74000000000000000000000000000000000000000000000000000000815250610713565b600054905095945050505050565b60005481565b600260205280600052604060002060009150905080600001805461044c90610c79565b80601f016020809104026020016040519081016040528092919081815260200182805461047890610c79565b80156104c55780601f1061049a576101008083540402835291602001916104c5565b820191906000526020600020905b8154815290600101906020018083116104a857829003601f168201915b5050505050908060010154908060020180546104e090610c79565b80601f016020809104026020016040519081016040528092919081815260200182805461050c90610c79565b80156105595780601f1061052e57610100808354040283529160200191610559565b820191906000526020600020905b81548152906001019060200180831161053c57829003601f168201915b50505050509080600301805461056e90610c79565b80601f016020809104026020016040519081016040528092919081815260200182805461059a90610c79565b80156105e75780601f106105bc576101008083540402835291602001916105e7565b820191906000526020600020905b8154815290600101906020018083116105ca57829003601f168201915b5050505050908060040180546105fc90610c79565b80601f016020809104026020016040519081016040528092919081815260200182805461062890610c79565b80156106755780601f1061064a57610100808354040283529160200191610675565b820191906000526020600020905b81548152906001019060200180831161065857829003601f168201915b50505050509080600501805461068a90610c79565b80601f01602080910402602001604051908101604052809291908181526020018280546106b690610c79565b80156107035780601f106106d857610100808354040283529160200191610703565b820191906000526020600020905b8154815290600101906020018083116106e657829003601f168201915b5050505050905086565b60015481565b6040518060800160405280600154815260200142815260200182815260200183815250600360006001548152602001908152602001600020600082015181600001556020820151816001015560408201518160020190816107749190610e56565b50606082015181600301908161078a9190610e56565b50905050600160008154809291906107a190610f57565b91905055505050565b6000604051905090565b600080fd5b600080fd5b6000819050919050565b6107d1816107be565b81146107dc57600080fd5b50565b6000813590506107ee816107c8565b92915050565b60006020828403121561080a576108096107b4565b5b6000610818848285016107df565b91505092915050565b61082a816107be565b82525050565b600081519050919050565b600082825260208201905092915050565b60005b8381101561086a57808201518184015260208101905061084f565b60008484015250505050565b6000601f19601f8301169050919050565b600061089282610830565b61089c818561083b565b93506108ac81856020860161084c565b6108b581610876565b840191505092915050565b60006080820190506108d56000830187610821565b6108e26020830186610821565b81810360408301526108f48185610887565b905081810360608301526109088184610887565b905095945050505050565b600080fd5b600080fd5b7f4e487b7100000000000000000000000000000000000000000000000000000000600052604160045260246000fd5b61095582610876565b810181811067ffffffffffffffff821117156109745761097361091d565b5b80604052505050565b60006109876107aa565b9050610993828261094c565b919050565b600067ffffffffffffffff8211156109b3576109b261091d565b5b6109bc82610876565b9050602081019050919050565b82818337600083830152505050565b60006109eb6109e684610998565b61097d565b905082815260208101848484011115610a0757610a06610918565b5b610a128482856109c9565b509392505050565b600082601f830112610a2f57610a2e610913565b5b8135610a3f8482602086016109d8565b91505092915050565b600080600080600060a08688031215610a6457610a636107b4565b5b600086013567ffffffffffffffff811115610a8257610a816107b9565b5b610a8e88828901610a1a565b955050602086013567ffffffffffffffff811115610aaf57610aae6107b9565b5b610abb88828901610a1a565b945050604086013567ffffffffffffffff811115610adc57610adb6107b9565b5b610ae888828901610a1a565b9350506060610af9888289016107df565b925050608086013567ffffffffffffffff811115610b1a57610b196107b9565b5b610b2688828901610a1a565b9150509295509295909350565b6000602082019050610b486000830184610821565b92915050565b600060c0820190508181036000830152610b688189610887565b9050610b776020830188610821565b8181036040830152610b898187610887565b90508181036060830152610b9d8186610887565b90508181036080830152610bb18185610887565b905081810360a0830152610bc58184610887565b9050979650505050505050565b60008060408385031215610be957610be86107b4565b5b600083013567ffffffffffffffff811115610c0757610c066107b9565b5b610c1385828601610a1a565b925050602083013567ffffffffffffffff811115610c3457610c336107b9565b5b610c4085828601610a1a565b9150509250929050565b7f4e487b7100000000000000000000000000000000000000000000000000000000600052602260045260246000fd5b60006002820490506001821680610c9157607f821691505b602082108103610ca457610ca3610c4a565b5b50919050565b60008190508160005260206000209050919050565b60006020601f8301049050919050565b600082821b905092915050565b600060088302610d0c7fffffffffffffffffffffffffffffffffffffffffffffffffffffffffffffffff82610ccf565b610d168683610ccf565b95508019841693508086168417925050509392505050565b6000819050919050565b6000610d53610d4e610d49846107be565b610d2e565b6107be565b9050919050565b6000819050919050565b610d6d83610d38565b610d81610d7982610d5a565b848454610cdc565b825550505050565b600090565b610d96610d89565b610da1818484610d64565b505050565b5b81811015610dc557610dba600082610d8e565b600181019050610da7565b5050565b601f821115610e0a57610ddb81610caa565b610de484610cbf565b81016020851015610df3578190505b610e07610dff85610cbf565b830182610da6565b50505b505050565b600082821c905092915050565b6000610e2d60001984600802610e0f565b1980831691505092915050565b6000610e468383610e1c565b9150826002028217905092915050565b610e5f82610830565b67ffffffffffffffff811115610e7857610e7761091d565b5b610e828254610c79565b610e8d828285610dc9565b600060209050601f831160018114610ec05760008415610eae578287015190505b610eb88582610e3a565b865550610f20565b601f198416610ece86610caa565b60005b82811015610ef657848901518255600182019150602085019450602081019050610ed1565b86831015610f135784890151610f0f601f891682610e1c565b8355505b6001600288020188555050505b505050505050565b7f4e487b7100000000000000000000000000000000000000000000000000000000600052601160045260246000fd5b6000610f62826107be565b91507fffffffffffffffffffffffffffffffffffffffffffffffffffffffffffffffff8203610f9457610f93610f28565b5b60018201905091905056fea2646970667358221220c6e0623b7a1f7beff6440f27c00ccf63fd0e563470faab16ab81d57130ec207664736f6c63430008110033",
  "devdoc": {
    "kind": "dev",
    "methods": {},
    "version": 1
  },
  "userdoc": {
    "kind": "user",
    "methods": {},
    "version": 1
  },
  "storageLayout": {
    "storage": [
      {
        "astId": 1779,
        "contract": "contracts/DAOAuction.sol:DAOAuction",
        "label": "_event_ids",
        "offset": 0,
        "slot": "0",
        "type": "t_uint256"
      },
      {
        "astId": 1781,
        "contract": "contracts/DAOAuction.sol:DAOAuction",
        "label": "_feed_ids",
        "offset": 0,
        "slot": "1",
        "type": "t_uint256"
      },
      {
        "astId": 1786,
        "contract": "contracts/DAOAuction.sol:DAOAuction",
        "label": "_event_uris",
        "offset": 0,
        "slot": "2",
        "type": "t_mapping(t_uint256,t_struct(event_uri_struct)1768_storage)"
      },
      {
        "astId": 1791,
        "contract": "contracts/DAOAuction.sol:DAOAuction",
        "label": "_feeds",
        "offset": 0,
        "slot": "3",
        "type": "t_mapping(t_uint256,t_struct(feed_struct)1777_storage)"
      }
    ],
    "types": {
      "t_mapping(t_uint256,t_struct(event_uri_struct)1768_storage)": {
        "encoding": "mapping",
        "key": "t_uint256",
        "label": "mapping(uint256 => struct DAOAuction.event_uri_struct)",
        "numberOfBytes": "32",
        "value": "t_struct(event_uri_struct)1768_storage"
      },
      "t_mapping(t_uint256,t_struct(feed_struct)1777_storage)": {
        "encoding": "mapping",
        "key": "t_uint256",
        "label": "mapping(uint256 => struct DAOAuction.feed_struct)",
        "numberOfBytes": "32",
        "value": "t_struct(feed_struct)1777_storage"
      },
      "t_string_storage": {
        "encoding": "bytes",
        "label": "string",
        "numberOfBytes": "32"
      },
      "t_struct(event_uri_struct)1768_storage": {
        "encoding": "inplace",
        "label": "struct DAOAuction.event_uri_struct",
        "members": [
          {
            "astId": 1757,
            "contract": "contracts/DAOAuction.sol:DAOAuction",
            "label": "dao_id",
            "offset": 0,
            "slot": "0",
            "type": "t_string_storage"
          },
          {
            "astId": 1759,
            "contract": "contracts/DAOAuction.sol:DAOAuction",
            "label": "user_id",
            "offset": 0,
            "slot": "1",
            "type": "t_uint256"
          },
          {
            "astId": 1761,
            "contract": "contracts/DAOAuction.sol:DAOAuction",
            "label": "event_uri",
            "offset": 0,
            "slot": "2",
            "type": "t_string_storage"
          },
          {
            "astId": 1763,
            "contract": "contracts/DAOAuction.sol:DAOAuction",
            "label": "event_wallet",
            "offset": 0,
            "slot": "3",
            "type": "t_string_storage"
          },
          {
            "astId": 1765,
            "contract": "contracts/DAOAuction.sol:DAOAuction",
            "label": "raised",
            "offset": 0,
            "slot": "4",
            "type": "t_string_storage"
          },
          {
            "astId": 1767,
            "contract": "contracts/DAOAuction.sol:DAOAuction",
            "label": "status",
            "offset": 0,
            "slot": "5",
            "type": "t_string_storage"
          }
        ],
        "numberOfBytes": "192"
      },
      "t_struct(feed_struct)1777_storage": {
        "encoding": "inplace",
        "label": "struct DAOAuction.feed_struct",
        "members": [
          {
            "astId": 1770,
            "contract": "contracts/DAOAuction.sol:DAOAuction",
            "label": "feed_id",
            "offset": 0,
            "slot": "0",
            "type": "t_uint256"
          },
          {
            "astId": 1772,
            "contract": "contracts/DAOAuction.sol:DAOAuction",
            "label": "date",
            "offset": 0,
            "slot": "1",
            "type": "t_uint256"
          },
          {
            "astId": 1774,
            "contract": "contracts/DAOAuction.sol:DAOAuction",
            "label": "Type",
            "offset": 0,
            "slot": "2",
            "type": "t_string_storage"
          },
          {
            "astId": 1776,
            "contract": "contracts/DAOAuction.sol:DAOAuction",
            "label": "data",
            "offset": 0,
            "slot": "3",
            "type": "t_string_storage"
          }
        ],
        "numberOfBytes": "128"
      },
      "t_uint256": {
        "encoding": "inplace",
        "label": "uint256",
        "numberOfBytes": "32"
      }
    }
  }
}