{
  "address": "0x733a9B3F9A9C12bDCa169063351b771c894bAbD9",
  "abi": [
    {
      "inputs": [],
      "name": "_event_ids",
      "outputs": [
        {
          "internalType": "uint256",
          "name": "",
          "type": "uint256"
        }
      ],
      "stateMutability": "view",
      "type": "function"
    },
    {
      "inputs": [
        {
          "internalType": "uint256",
          "name": "",
          "type": "uint256"
        }
      ],
      "name": "_event_uris",
      "outputs": [
        {
          "internalType": "string",
          "name": "dao_id",
          "type": "string"
        },
        {
          "internalType": "uint256",
          "name": "user_id",
          "type": "uint256"
        },
        {
          "internalType": "string",
          "name": "event_uri",
          "type": "string"
        },
        {
          "internalType": "string",
          "name": "event_wallet",
          "type": "string"
        },
        {
          "internalType": "string",
          "name": "raised",
          "type": "string"
        },
        {
          "internalType": "string",
          "name": "status",
          "type": "string"
        }
      ],
      "stateMutability": "view",
      "type": "function"
    },
    {
      "inputs": [],
      "name": "_feed_ids",
      "outputs": [
        {
          "internalType": "uint256",
          "name": "",
          "type": "uint256"
        }
      ],
      "stateMutability": "view",
      "type": "function"
    },
    {
      "inputs": [
        {
          "internalType": "uint256",
          "name": "",
          "type": "uint256"
        }
      ],
      "name": "_feeds",
      "outputs": [
        {
          "internalType": "uint256",
          "name": "feed_id",
          "type": "uint256"
        },
        {
          "internalType": "uint256",
          "name": "date",
          "type": "uint256"
        },
        {
          "internalType": "string",
          "name": "Type",
          "type": "string"
        },
        {
          "internalType": "string",
          "name": "data",
          "type": "string"
        }
      ],
      "stateMutability": "view",
      "type": "function"
    },
    {
      "inputs": [],
      "name": "_nft_ids",
      "outputs": [
        {
          "internalType": "uint256",
          "name": "",
          "type": "uint256"
        }
      ],
      "stateMutability": "view",
      "type": "function"
    },
    {
      "inputs": [
        {
          "internalType": "uint256",
          "name": "",
          "type": "uint256"
        }
      ],
      "name": "_nft_uris",
      "outputs": [
        {
          "internalType": "string",
          "name": "event_id",
          "type": "string"
        },
        {
          "internalType": "string",
          "name": "name",
          "type": "string"
        },
        {
          "internalType": "string",
          "name": "url",
          "type": "string"
        },
        {
          "internalType": "string",
          "name": "description",
          "type": "string"
        },
        {
          "internalType": "string",
          "name": "sender_wallet",
          "type": "string"
        },
        {
          "internalType": "string",
          "name": "reciever_wallet",
          "type": "string"
        },
        {
          "internalType": "uint256",
          "name": "highest_amount",
          "type": "uint256"
        },
        {
          "internalType": "string",
          "name": "highest_bidder",
          "type": "string"
        }
      ],
      "stateMutability": "view",
      "type": "function"
    },
    {
      "inputs": [
        {
          "internalType": "string",
          "name": "feed_text",
          "type": "string"
        },
        {
          "internalType": "string",
          "name": "_type",
          "type": "string"
        }
      ],
      "name": "add_Feed",
      "outputs": [],
      "stateMutability": "nonpayable",
      "type": "function"
    },
    {
      "inputs": [
        {
          "internalType": "string",
          "name": "_event_uri",
          "type": "string"
        },
        {
          "internalType": "string",
          "name": "_event_wallet",
          "type": "string"
        },
        {
          "internalType": "string",
          "name": "_dao_id",
          "type": "string"
        },
        {
          "internalType": "uint256",
          "name": "_user_id",
          "type": "uint256"
        },
        {
          "internalType": "string",
          "name": "_feed",
          "type": "string"
        }
      ],
      "name": "create_event",
      "outputs": [
        {
          "internalType": "uint256",
          "name": "",
          "type": "uint256"
        }
      ],
      "stateMutability": "nonpayable",
      "type": "function"
    },
    {
      "inputs": [
        {
          "internalType": "string",
          "name": "event_id",
          "type": "string"
        },
        {
          "internalType": "string",
          "name": "name",
          "type": "string"
        },
        {
          "internalType": "string",
          "name": "url",
          "type": "string"
        },
        {
          "internalType": "string",
          "name": "description",
          "type": "string"
        },
        {
          "internalType": "string",
          "name": "sender_wallet",
          "type": "string"
        },
        {
          "internalType": "string",
          "name": "reciever_wallet",
          "type": "string"
        },
        {
          "internalType": "string",
          "name": "date",
          "type": "string"
        },
        {
          "internalType": "uint256",
          "name": "amount",
          "type": "uint256"
        },
        {
          "internalType": "string",
          "name": "_feed",
          "type": "string"
        }
      ],
      "name": "donate_nft",
      "outputs": [
        {
          "internalType": "uint256",
          "name": "",
          "type": "uint256"
        }
      ],
      "stateMutability": "nonpayable",
      "type": "function"
    }
  ],
  "transactionHash": "0xb94c17af881121becad11c3a735529b3c3ef6dd13a3f6792b0852ac00c475802",
  "args": [],
  "numDeployments": 1,
  "solcInputHash": "527b1a323b5f36efb25246fb512da3c1",
  "bytecode": "0x608060405234801561001057600080fd5b5061184b806100206000396000f3fe608060405234801561001057600080fd5b50600436106100935760003560e01c8063722f759211610066578063722f7592146101505780638ac4110c14610185578063bda00335146101a3578063d685e01a146101bf578063db9ecaca146101ef57610093565b8063225bb52a1461009857806354a9fb18146100cf5780635514212f1461010257806369e114fa14610132575b600080fd5b6100b260048036038101906100ad9190610e11565b61020d565b6040516100c6989796959493929190610edd565b60405180910390f35b6100e960048036038101906100e49190610e11565b61060d565b6040516100f99493929190610f8c565b60405180910390f35b61011c60048036038101906101179190611114565b61074d565b60405161012991906111ff565b60405180910390f35b61013a6108d9565b60405161014791906111ff565b60405180910390f35b61016a60048036038101906101659190610e11565b6108df565b60405161017c9695949392919061121a565b60405180910390f35b61018d610bc3565b60405161019a91906111ff565b60405180910390f35b6101bd60048036038101906101b8919061129e565b610bc9565b005b6101d960048036038101906101d49190611316565b610c60565b6040516101e691906111ff565b60405180910390f35b6101f7610dc1565b60405161020491906111ff565b60405180910390f35b6004602052806000526040600020600091509050806000018054610230906114ef565b80601f016020809104026020016040519081016040528092919081815260200182805461025c906114ef565b80156102a95780601f1061027e576101008083540402835291602001916102a9565b820191906000526020600020905b81548152906001019060200180831161028c57829003601f168201915b5050505050908060010180546102be906114ef565b80601f01602080910402602001604051908101604052809291908181526020018280546102ea906114ef565b80156103375780601f1061030c57610100808354040283529160200191610337565b820191906000526020600020905b81548152906001019060200180831161031a57829003601f168201915b50505050509080600201805461034c906114ef565b80601f0160208091040260200160405190810160405280929190818152602001828054610378906114ef565b80156103c55780601f1061039a576101008083540402835291602001916103c5565b820191906000526020600020905b8154815290600101906020018083116103a857829003601f168201915b5050505050908060030180546103da906114ef565b80601f0160208091040260200160405190810160405280929190818152602001828054610406906114ef565b80156104535780601f1061042857610100808354040283529160200191610453565b820191906000526020600020905b81548152906001019060200180831161043657829003601f168201915b505050505090806004018054610468906114ef565b80601f0160208091040260200160405190810160405280929190818152602001828054610494906114ef565b80156104e15780601f106104b6576101008083540402835291602001916104e1565b820191906000526020600020905b8154815290600101906020018083116104c457829003601f168201915b5050505050908060050180546104f6906114ef565b80601f0160208091040260200160405190810160405280929190818152602001828054610522906114ef565b801561056f5780601f106105445761010080835404028352916020019161056f565b820191906000526020600020905b81548152906001019060200180831161055257829003601f168201915b50505050509080600601549080600701805461058a906114ef565b80601f01602080910402602001604051908101604052809291908181526020018280546105b6906114ef565b80156106035780601f106105d857610100808354040283529160200191610603565b820191906000526020600020905b8154815290600101906020018083116105e657829003601f168201915b5050505050905088565b600560205280600052604060002060009150905080600001549080600101549080600201805461063c906114ef565b80601f0160208091040260200160405190810160405280929190818152602001828054610668906114ef565b80156106b55780601f1061068a576101008083540402835291602001916106b5565b820191906000526020600020905b81548152906001019060200180831161069857829003601f168201915b5050505050908060030180546106ca906114ef565b80601f01602080910402602001604051908101604052809291908181526020018280546106f6906114ef565b80156107435780601f1061071857610100808354040283529160200191610743565b820191906000526020600020905b81548152906001019060200180831161072657829003601f168201915b5050505050905084565b60006040518060c001604052808581526020018481526020018781526020018681526020016040518060400160405280600181526020017f300000000000000000000000000000000000000000000000000000000000000081525081526020016040518060400160405280600181526020017f30000000000000000000000000000000000000000000000000000000000000008152508152506003600080548152602001908152602001600020600082015181600001908161080f91906116cc565b5060208201518160010155604082015181600201908161082f91906116cc565b50606082015181600301908161084591906116cc565b50608082015181600401908161085b91906116cc565b5060a082015181600501908161087191906116cc565b50905050600080815480929190610887906117cd565b91905055506108cb826040518060400160405280600581526020017f6576656e74000000000000000000000000000000000000000000000000000000815250610bc9565b600054905095945050505050565b60005481565b6003602052806000526040600020600091509050806000018054610902906114ef565b80601f016020809104026020016040519081016040528092919081815260200182805461092e906114ef565b801561097b5780601f106109505761010080835404028352916020019161097b565b820191906000526020600020905b81548152906001019060200180831161095e57829003601f168201915b505050505090806001015490806002018054610996906114ef565b80601f01602080910402602001604051908101604052809291908181526020018280546109c2906114ef565b8015610a0f5780601f106109e457610100808354040283529160200191610a0f565b820191906000526020600020905b8154815290600101906020018083116109f257829003601f168201915b505050505090806003018054610a24906114ef565b80601f0160208091040260200160405190810160405280929190818152602001828054610a50906114ef565b8015610a9d5780601f10610a7257610100808354040283529160200191610a9d565b820191906000526020600020905b815481529060010190602001808311610a8057829003601f168201915b505050505090806004018054610ab2906114ef565b80601f0160208091040260200160405190810160405280929190818152602001828054610ade906114ef565b8015610b2b5780601f10610b0057610100808354040283529160200191610b2b565b820191906000526020600020905b815481529060010190602001808311610b0e57829003601f168201915b505050505090806005018054610b40906114ef565b80601f0160208091040260200160405190810160405280929190818152602001828054610b6c906114ef565b8015610bb95780601f10610b8e57610100808354040283529160200191610bb9565b820191906000526020600020905b815481529060010190602001808311610b9c57829003601f168201915b5050505050905086565b60025481565b604051806080016040528060025481526020014281526020018281526020018381525060056000600254815260200190815260200160002060008201518160000155602082015181600101556040820151816002019081610c2a91906116cc565b506060820151816003019081610c4091906116cc565b5090505060026000815480929190610c57906117cd565b91905055505050565b60006040518061010001604052808b81526020018a8152602001898152602001888152602001878152602001868152602001848152602001878152506004600060015481526020019081526020016000206000820151816000019081610cc691906116cc565b506020820151816001019081610cdc91906116cc565b506040820151816002019081610cf291906116cc565b506060820151816003019081610d0891906116cc565b506080820151816004019081610d1e91906116cc565b5060a0820151816005019081610d3491906116cc565b5060c0820151816006015560e0820151816007019081610d5491906116cc565b5090505060016000815480929190610d6b906117cd565b9190505550610daf826040518060400160405280600a81526020017f646f6e6174655f6e667400000000000000000000000000000000000000000000815250610bc9565b60015490509998505050505050505050565b60015481565b6000604051905090565b600080fd5b600080fd5b6000819050919050565b610dee81610ddb565b8114610df957600080fd5b50565b600081359050610e0b81610de5565b92915050565b600060208284031215610e2757610e26610dd1565b5b6000610e3584828501610dfc565b91505092915050565b600081519050919050565b600082825260208201905092915050565b60005b83811015610e78578082015181840152602081019050610e5d565b60008484015250505050565b6000601f19601f8301169050919050565b6000610ea082610e3e565b610eaa8185610e49565b9350610eba818560208601610e5a565b610ec381610e84565b840191505092915050565b610ed781610ddb565b82525050565b6000610100820190508181036000830152610ef8818b610e95565b90508181036020830152610f0c818a610e95565b90508181036040830152610f208189610e95565b90508181036060830152610f348188610e95565b90508181036080830152610f488187610e95565b905081810360a0830152610f5c8186610e95565b9050610f6b60c0830185610ece565b81810360e0830152610f7d8184610e95565b90509998505050505050505050565b6000608082019050610fa16000830187610ece565b610fae6020830186610ece565b8181036040830152610fc08185610e95565b90508181036060830152610fd48184610e95565b905095945050505050565b600080fd5b600080fd5b7f4e487b7100000000000000000000000000000000000000000000000000000000600052604160045260246000fd5b61102182610e84565b810181811067ffffffffffffffff821117156110405761103f610fe9565b5b80604052505050565b6000611053610dc7565b905061105f8282611018565b919050565b600067ffffffffffffffff82111561107f5761107e610fe9565b5b61108882610e84565b9050602081019050919050565b82818337600083830152505050565b60006110b76110b284611064565b611049565b9050828152602081018484840111156110d3576110d2610fe4565b5b6110de848285611095565b509392505050565b600082601f8301126110fb576110fa610fdf565b5b813561110b8482602086016110a4565b91505092915050565b600080600080600060a086880312156111305761112f610dd1565b5b600086013567ffffffffffffffff81111561114e5761114d610dd6565b5b61115a888289016110e6565b955050602086013567ffffffffffffffff81111561117b5761117a610dd6565b5b611187888289016110e6565b945050604086013567ffffffffffffffff8111156111a8576111a7610dd6565b5b6111b4888289016110e6565b93505060606111c588828901610dfc565b925050608086013567ffffffffffffffff8111156111e6576111e5610dd6565b5b6111f2888289016110e6565b9150509295509295909350565b60006020820190506112146000830184610ece565b92915050565b600060c08201905081810360008301526112348189610e95565b90506112436020830188610ece565b81810360408301526112558187610e95565b905081810360608301526112698186610e95565b9050818103608083015261127d8185610e95565b905081810360a08301526112918184610e95565b9050979650505050505050565b600080604083850312156112b5576112b4610dd1565b5b600083013567ffffffffffffffff8111156112d3576112d2610dd6565b5b6112df858286016110e6565b925050602083013567ffffffffffffffff811115611300576112ff610dd6565b5b61130c858286016110e6565b9150509250929050565b60008060008060008060008060006101208a8c03121561133957611338610dd1565b5b60008a013567ffffffffffffffff81111561135757611356610dd6565b5b6113638c828d016110e6565b99505060208a013567ffffffffffffffff81111561138457611383610dd6565b5b6113908c828d016110e6565b98505060408a013567ffffffffffffffff8111156113b1576113b0610dd6565b5b6113bd8c828d016110e6565b97505060608a013567ffffffffffffffff8111156113de576113dd610dd6565b5b6113ea8c828d016110e6565b96505060808a013567ffffffffffffffff81111561140b5761140a610dd6565b5b6114178c828d016110e6565b95505060a08a013567ffffffffffffffff81111561143857611437610dd6565b5b6114448c828d016110e6565b94505060c08a013567ffffffffffffffff81111561146557611464610dd6565b5b6114718c828d016110e6565b93505060e06114828c828d01610dfc565b9250506101008a013567ffffffffffffffff8111156114a4576114a3610dd6565b5b6114b08c828d016110e6565b9150509295985092959850929598565b7f4e487b7100000000000000000000000000000000000000000000000000000000600052602260045260246000fd5b6000600282049050600182168061150757607f821691505b60208210810361151a576115196114c0565b5b50919050565b60008190508160005260206000209050919050565b60006020601f8301049050919050565b600082821b905092915050565b6000600883026115827fffffffffffffffffffffffffffffffffffffffffffffffffffffffffffffffff82611545565b61158c8683611545565b95508019841693508086168417925050509392505050565b6000819050919050565b60006115c96115c46115bf84610ddb565b6115a4565b610ddb565b9050919050565b6000819050919050565b6115e3836115ae565b6115f76115ef826115d0565b848454611552565b825550505050565b600090565b61160c6115ff565b6116178184846115da565b505050565b5b8181101561163b57611630600082611604565b60018101905061161d565b5050565b601f8211156116805761165181611520565b61165a84611535565b81016020851015611669578190505b61167d61167585611535565b83018261161c565b50505b505050565b600082821c905092915050565b60006116a360001984600802611685565b1980831691505092915050565b60006116bc8383611692565b9150826002028217905092915050565b6116d582610e3e565b67ffffffffffffffff8111156116ee576116ed610fe9565b5b6116f882546114ef565b61170382828561163f565b600060209050601f8311600181146117365760008415611724578287015190505b61172e85826116b0565b865550611796565b601f19841661174486611520565b60005b8281101561176c57848901518255600182019150602085019450602081019050611747565b868310156117895784890151611785601f891682611692565b8355505b6001600288020188555050505b505050505050565b7f4e487b7100000000000000000000000000000000000000000000000000000000600052601160045260246000fd5b60006117d882610ddb565b91507fffffffffffffffffffffffffffffffffffffffffffffffffffffffffffffffff820361180a5761180961179e565b5b60018201905091905056fea26469706673582212201aa81412a876ff541b62adefa7a6d9ea2a0d5bdceb9f12766f06f0f164da87a764736f6c63430008110033",
  "devdoc": {
    "kind": "dev",
    "methods": {},
    "version": 1
  },
  "userdoc": {
    "kind": "user",
    "methods": {},
    "version": 1
  },
  "storageLayout": {
    "storage": [
      {
        "astId": 1807,
        "contract": "contracts/DAOAuction.sol:DAOAuction",
        "label": "_event_ids",
        "offset": 0,
        "slot": "0",
        "type": "t_uint256"
      },
      {
        "astId": 1809,
        "contract": "contracts/DAOAuction.sol:DAOAuction",
        "label": "_nft_ids",
        "offset": 0,
        "slot": "1",
        "type": "t_uint256"
      },
      {
        "astId": 1811,
        "contract": "contracts/DAOAuction.sol:DAOAuction",
        "label": "_feed_ids",
        "offset": 0,
        "slot": "2",
        "type": "t_uint256"
      },
      {
        "astId": 1816,
        "contract": "contracts/DAOAuction.sol:DAOAuction",
        "label": "_event_uris",
        "offset": 0,
        "slot": "3",
        "type": "t_mapping(t_uint256,t_struct(event_uri_struct)1768_storage)"
      },
      {
        "astId": 1821,
        "contract": "contracts/DAOAuction.sol:DAOAuction",
        "label": "_nft_uris",
        "offset": 0,
        "slot": "4",
        "type": "t_mapping(t_uint256,t_struct(nft_uri_struct)1785_storage)"
      },
      {
        "astId": 1826,
        "contract": "contracts/DAOAuction.sol:DAOAuction",
        "label": "_feeds",
        "offset": 0,
        "slot": "5",
        "type": "t_mapping(t_uint256,t_struct(feed_struct)1805_storage)"
      }
    ],
    "types": {
      "t_mapping(t_uint256,t_struct(event_uri_struct)1768_storage)": {
        "encoding": "mapping",
        "key": "t_uint256",
        "label": "mapping(uint256 => struct DAOAuction.event_uri_struct)",
        "numberOfBytes": "32",
        "value": "t_struct(event_uri_struct)1768_storage"
      },
      "t_mapping(t_uint256,t_struct(feed_struct)1805_storage)": {
        "encoding": "mapping",
        "key": "t_uint256",
        "label": "mapping(uint256 => struct DAOAuction.feed_struct)",
        "numberOfBytes": "32",
        "value": "t_struct(feed_struct)1805_storage"
      },
      "t_mapping(t_uint256,t_struct(nft_uri_struct)1785_storage)": {
        "encoding": "mapping",
        "key": "t_uint256",
        "label": "mapping(uint256 => struct DAOAuction.nft_uri_struct)",
        "numberOfBytes": "32",
        "value": "t_struct(nft_uri_struct)1785_storage"
      },
      "t_string_storage": {
        "encoding": "bytes",
        "label": "string",
        "numberOfBytes": "32"
      },
      "t_struct(event_uri_struct)1768_storage": {
        "encoding": "inplace",
        "label": "struct DAOAuction.event_uri_struct",
        "members": [
          {
            "astId": 1757,
            "contract": "contracts/DAOAuction.sol:DAOAuction",
            "label": "dao_id",
            "offset": 0,
            "slot": "0",
            "type": "t_string_storage"
          },
          {
            "astId": 1759,
            "contract": "contracts/DAOAuction.sol:DAOAuction",
            "label": "user_id",
            "offset": 0,
            "slot": "1",
            "type": "t_uint256"
          },
          {
            "astId": 1761,
            "contract": "contracts/DAOAuction.sol:DAOAuction",
            "label": "event_uri",
            "offset": 0,
            "slot": "2",
            "type": "t_string_storage"
          },
          {
            "astId": 1763,
            "contract": "contracts/DAOAuction.sol:DAOAuction",
            "label": "event_wallet",
            "offset": 0,
            "slot": "3",
            "type": "t_string_storage"
          },
          {
            "astId": 1765,
            "contract": "contracts/DAOAuction.sol:DAOAuction",
            "label": "raised",
            "offset": 0,
            "slot": "4",
            "type": "t_string_storage"
          },
          {
            "astId": 1767,
            "contract": "contracts/DAOAuction.sol:DAOAuction",
            "label": "status",
            "offset": 0,
            "slot": "5",
            "type": "t_string_storage"
          }
        ],
        "numberOfBytes": "192"
      },
      "t_struct(feed_struct)1805_storage": {
        "encoding": "inplace",
        "label": "struct DAOAuction.feed_struct",
        "members": [
          {
            "astId": 1798,
            "contract": "contracts/DAOAuction.sol:DAOAuction",
            "label": "feed_id",
            "offset": 0,
            "slot": "0",
            "type": "t_uint256"
          },
          {
            "astId": 1800,
            "contract": "contracts/DAOAuction.sol:DAOAuction",
            "label": "date",
            "offset": 0,
            "slot": "1",
            "type": "t_uint256"
          },
          {
            "astId": 1802,
            "contract": "contracts/DAOAuction.sol:DAOAuction",
            "label": "Type",
            "offset": 0,
            "slot": "2",
            "type": "t_string_storage"
          },
          {
            "astId": 1804,
            "contract": "contracts/DAOAuction.sol:DAOAuction",
            "label": "data",
            "offset": 0,
            "slot": "3",
            "type": "t_string_storage"
          }
        ],
        "numberOfBytes": "128"
      },
      "t_struct(nft_uri_struct)1785_storage": {
        "encoding": "inplace",
        "label": "struct DAOAuction.nft_uri_struct",
        "members": [
          {
            "astId": 1770,
            "contract": "contracts/DAOAuction.sol:DAOAuction",
            "label": "event_id",
            "offset": 0,
            "slot": "0",
            "type": "t_string_storage"
          },
          {
            "astId": 1772,
            "contract": "contracts/DAOAuction.sol:DAOAuction",
            "label": "name",
            "offset": 0,
            "slot": "1",
            "type": "t_string_storage"
          },
          {
            "astId": 1774,
            "contract": "contracts/DAOAuction.sol:DAOAuction",
            "label": "url",
            "offset": 0,
            "slot": "2",
            "type": "t_string_storage"
          },
          {
            "astId": 1776,
            "contract": "contracts/DAOAuction.sol:DAOAuction",
            "label": "description",
            "offset": 0,
            "slot": "3",
            "type": "t_string_storage"
          },
          {
            "astId": 1778,
            "contract": "contracts/DAOAuction.sol:DAOAuction",
            "label": "sender_wallet",
            "offset": 0,
            "slot": "4",
            "type": "t_string_storage"
          },
          {
            "astId": 1780,
            "contract": "contracts/DAOAuction.sol:DAOAuction",
            "label": "reciever_wallet",
            "offset": 0,
            "slot": "5",
            "type": "t_string_storage"
          },
          {
            "astId": 1782,
            "contract": "contracts/DAOAuction.sol:DAOAuction",
            "label": "highest_amount",
            "offset": 0,
            "slot": "6",
            "type": "t_uint256"
          },
          {
            "astId": 1784,
            "contract": "contracts/DAOAuction.sol:DAOAuction",
            "label": "highest_bidder",
            "offset": 0,
            "slot": "7",
            "type": "t_string_storage"
          }
        ],
        "numberOfBytes": "256"
      },
      "t_uint256": {
        "encoding": "inplace",
        "label": "uint256",
        "numberOfBytes": "32"
      }
    }
  }
}